:04000000F1EF16F016
:100E0000000A2045585045435445443A20436C65F8
:100E100061722025642C522025642C2047202564F3
:100E20002C20422025642020434152443A2025644E
:100E3000200A000A204156473A20436C656172201F
:100E400025642C20522025642C20472025642C204A
:100E500042202564200A000A204578706563746585
:100E60006420636C6561723A202564200A00434166
:090E70005244202564200A000010
:100E7A00226E96EF08F01CC014F01DC015F01EC0BB
:100E8A0016F01FC017F097EC13F0050E216E0F0E27
:100E9A00206EF10EE82EFED7202EFCD7212EFAD78F
:100EAA0000F01CC014F01DC015F01EC016F01FC0C3
:100EBA0017F041EC13F01CC014F01DC015F01EC051
:100ECA0016F01FC017F021EC14F01CC014F01DC05E
:100EDA0015F01EC016F01FC017F041EC13F01CC02D
:100EEA0014F01DC015F01EC016F01FC017F021EC3B
:100EFA0014F0C7EF08F01CC014F01DC015F01EC096
:100F0A0016F01FC017F097EC13F0050E216E0F0EA6
:100F1A00206EF10EE82EFED7202EFCD7212EFAD70E
:100F2A0000F01CC014F01DC015F01EC016F01FC042
:100F3A0017F0EAEC12F01CC014F01DC015F01EC028
:100F4A0016F01FC017F021EC14F01CC014F01DC0DD
:100F5A0015F01EC016F01FC017F0EAEC12F074EF7D
:100F6A0007F01CC014F01DC015F01EC016F01FC0FB
:100F7A0017F097EC13F0050E216E0F0E206EF10E8E
:100F8A00E82EFED7202EFCD7212EFAD700F01CC05F
:100F9A0014F01DC015F01EC016F01FC017F041EC6A
:100FAA0013F01CC014F01DC015F01EC016F01FC0AF
:100FBA0017F021EC14F01CC014F01DC015F01EC06F
:100FCA0016F01FC017F041EC13F01CC014F01DC03E
:100FDA0015F01EC016F01FC017F021EC14F056EFE2
:100FEA0007F01CC014F01DC015F01EC016F01FC07B
:100FFA0017F097EC13F0050E216E0F0E206EF10E0E
:10100A00E82EFED7202EFCD7212EFAD700F01CC0DE
:10101A0014F01DC015F01EC016F01FC017F097EC93
:10102A0013F0290E216E960E206E7F0EE82EFED743
:10103A00202EFCD7212EFAD700F0EAEF07F01CC0C9
:10104A0014F01DC015F01EC016F01FC017F097EC63
:10105A0013F0050E216E0F0E206EF10EE82EFED74C
:10106A00202EFCD7212EFAD700F01CC014F01DC088
:10107A0015F01EC016F01FC017F097EC13F0290EDA
:10108A00216E960E206E7F0EE82EFED7202EFCD7FC
:10109A00212EFAD700F01CC014F01DC015F01EC096
:1010AA0016F01FC017F021EC14F096EF07F01CC0E1
:1010BA0014F01DC015F01EC016F01FC017F097ECF3
:1010CA0013F0050E216E0F0E206EF10EE82EFED7DC
:1010DA00202EFCD7212EFAD700F0E0EF07F01CC033
:1010EA0014F01DC015F01EC016F01FC017F097ECC3
:1010FA0013F0050E216E0F0E206EF10EE82EFED7AC
:10110A00202EFCD7212EFAD700F01CC014F01DC0E7
:10111A0015F01EC016F01FC017F0EAEC12F050EFDF
:10112A0008F02250206E216A2150000AD8B4A0EF9C
:10113A0008F0C7EF08F02050010AD8B440EF07F0D2
:10114A00030AD8B480EF07F0010AD8B4B6EF07F063
:10115A00070AD8B4F6EF07F0010AD8B424EF08F06A
:10116A00030AD8B45CEF08F0010AD8B474EF08F0A7
:10117A000F0AD8B4C7EF08F0010AD8B4C7EF08F0CD
:10118A00C7EF08F01200010E2F6E2F50020DF3CF99
:10119A0025F0F4CF26F025502124D96E265022209E
:1011AA00DA6EDECF27F0DDCF28F02750195C136EF8
:1011BA0028501A58146E52EC16F013C02DF014C0B1
:1011CA002EF02DC001F02EC002F0000E046E640E47
:1011DA00036ECDEC16F001C007F002C008F02F50E4
:1011EA00020DF3CF25F0F4CF26F025502124D96E35
:1011FA0026502220DA6EDECF09F0DDCF0AF0E3ECCA
:10120A0014F02F50020DF3CF27F0F4CF28F0275017
:10121A002324D96E28502420DA6E07C0DEFF08C0C6
:10122A00DDFF2F50020DF3CF25F0F4CF26F0255025
:10123A002124276E26502220286E120E2724D96ECA
:10124A00000E2820DA6EDECF29F0DDCF2AF02950F1
:10125A001B5C136E2A501C58146E52EC16F013C005
:10126A002DF014C02EF02DC001F02EC002F0000E99
:10127A00046E640E036ECDEC16F001C007F002C0D6
:10128A0008F02F50020DF3CF25F0F4CF26F02550A9
:10129A002124276E26502220286E120E2724D96E6A
:1012AA00000E2820DA6EDECF09F0DDCF0AF0E3EC7B
:1012BA0014F02F50020DF3CF29F0F4CF2AF0295061
:1012CA0023242B6E2A5024202C6E120E2B24D96E26
:1012DA00000E2C20DA6E07C0DEFF08C0DDFF2F509B
:1012EA00020DF3CF25F0F4CF26F025502124276EE6
:1012FA0026502220286E240E2724D96E000E28207C
:10130A00DA6EDECF29F0DDCF2AF029501D5C136E8C
:10131A002A501E58146E52EC16F013C02DF014C049
:10132A002EF02DC001F02EC002F0000E046E640EE5
:10133A00036ECDEC16F001C007F002C008F02F5082
:10134A00020DF3CF25F0F4CF26F025502124276E85
:10135A0026502220286E240E2724D96E000E28201B
:10136A00DA6EDECF09F0DDCF0AF0E3EC14F02F508D
:10137A00020DF3CF29F0F4CF2AF0295023242B6E43
:10138A002A5024202C6E240E2B24D96E000E2C20D9
:10139A00DA6E07C0DEFF08C0DDFF2F50020DF3CF63
:1013AA0025F0F4CF26F025502124276E265022203E
:1013BA00286E360E2724D96E000E2820DA6EDECF6C
:1013CA0029F0DDCF2AF029501F5C136E2A502058CD
:1013DA00146E52EC16F013C02DF014C02EF02DC06E
:1013EA0001F02EC002F0000E046E640E036ECDEC06
:1013FA0016F001C007F002C008F02F50020DF3CF1B
:10140A0025F0F4CF26F025502124276E26502220DD
:10141A00286E360E2724D96E000E2820DA6EDECF0B
:10142A0009F0DDCF0AF0E3EC14F02F50020DF3CFF0
:10143A0029F0F4CF2AF0295023242B6E2A50242095
:10144A002C6E360E2B24D96E000E2C20DA6E07C0B5
:10145A00DEFF08C0DDFF2F2A090E2F6437EF0AF0DE
:10146A0039EF0AF0CAEF08F012001EC034F01FC0AC
:10147A0035F020C036F021C037F022C038F023C042
:10148A0039F024C03AF025C03BF03BBE4FEF0AF0DA
:10149A0052EF0AF0010E53EF0AF0000E3E6E3E5074
:1014AA00D8B45AEF0AF05CEF0AF06CEF0AF03B1E70
:1014BA003A1E391E381E371E361E351E346C000E73
:1014CA00352236223722382239223A223B2200019B
:1014DA00E9BF7AEF0AF0E95106E1E805D8B078EFFA
:1014EA000AF07AEF0AF080EF0AF0000E316E010E70
:1014FA00306E84EF0AF0E8C030F0E9C031F0E6C09F
:10150A0032F0E7C033F03E50D8B48EEF0AF090EFD5
:10151A000AF0A7EF0AF03206D8A033063E50D8A444
:10152A0099EF0AF09BEF0AF0A1EF0AF0000E2F6E76
:10153A002B0E2E6EA5EF0AF0000E2F6E2D0E2E6EBC
:10154A002EC03EF0000E3D6E1F0E3C6E000E0201D4
:10155A006F6F2CEF0BF03C06D8A03D06500E3C24D2
:10156A00D96E020E3D20DA6E34C001F035C002F0A9
:10157A0036C003F037C004F038C005F039C006F0B1
:10158A003AC007F03BC008F00A0E096E000E0A6E58
:10159A00000E0B6E000E0C6E000E0D6E000E0E6E1F
:1015AA00000E0F6E000E106E67EC0FF001C026F0F1
:1015BA0002C027F003C028F004C029F005C02AF0B1
:1015CA0006C02BF007C02CF008C02DF026C013F07F
:1015DA0027C014F052EC16F01350300FDF6E3006AD
:1015EA00D8A031063206D8A0330634C001F035C07F
:1015FA0002F036C003F037C004F038C005F039C035
:10160A0006F03AC007F03BC008F00A0E096E000E59
:10161A000A6E000E0B6E000E0C6E000E0D6E000EA2
:10162A000E6E000E0F6E000E106EEDEC0DF001C086
:10163A0034F002C035F003C036F004C037F005C0FC
:10164A0038F006C039F007C03AF008C03BF03DBE9A
:10165A0037EF0BF03D5008E13C04D8A037EF0BF010
:10166A0039EF0BF055EF0BF03450351036103710B8
:10167A00381039103A103B10D8A446EF0BF048EF57
:10168A000BF0B0EF0AF031BE55EF0BF0315006E126
:10169A003004D8B053EF0BF055EF0BF0B0EF0AF06F
:1016AA003E50D8B45BEF0BF05DEF0BF068EF0BF038
:1016BA003C06D8A03D06500E3C24D96E020E3D20B1
:1016CA00DA6E3EC0DFFF1CC011F01DC012F0500ED2
:1016DA003C24136E020E3D20146E32C015F033C046
:1016EA0016F0A6EC14F01200000E176E000E166E1D
:1016FA00BFEC15F00CC0D9FF0DC0DAFF05C0DEFF44
:10170A0006C0DDFF6FEC15F00EC0D9FF0FC0DAFF7F
:10171A0005C0DEFF06C0DDFF97EC15F010C0D9FF4B
:10172A0011C0DAFF05C0DEFF06C0DDFFE7EC15F0E9
:10173A0012C0D9FF13C0DAFF05C0DEFF06C0DDFF05
:10174A00164A172A17BEB3EF0BF0F50E165C010EF8
:10175A001758D8A0B3EF0BF0B5EF0BF07DEF0BF0F5
:10176A00000E196E000E186EBFEC15F00CC0D9FFF2
:10177A000DC0DAFF0550DE260650DD22110E156E69
:10178A003C0E146ECB0EE82EFED7142EFCD7152E67
:10179A00FAD700F0184A192A19BEDDEF0BF01950D2
:1017AA0009E1030E185CD8A0DDEF0BF0DFEF0BF0B8
:1017BA00B9EF0BF00CC0D9FF0DC0DAFFDECF14F081
:1017CA00DDCF15F0D89015321432D8901532143274
:1017DA000CC0D9FF0DC0DAFF14C0DEFF15C0DDFF53
:1017EA00000E1B6E000E1A6E6FEC15F00EC0D9FFBC
:1017FA000FC0DAFF0550DE260650DD22110E156EE7
:10180A003C0E146ECB0EE82EFED7142EFCD7152EE6
:10181A00FAD700F01A4A1B2A1BBE1DEF0CF01B5008
:10182A0009E1030E1A5CD8A01DEF0CF01FEF0CF0B3
:10183A00F9EF0BF00EC0D9FF0FC0DAFFDECF14F0BC
:10184A00DDCF15F0D89015321432D89015321432F3
:10185A000EC0D9FF0FC0DAFF14C0DEFF15C0DDFFCE
:10186A00000E1D6E000E1C6E97EC15F010C0D9FF0D
:10187A0011C0DAFF0550DE260650DD22110E156E64
:10188A003C0E146ECB0EE82EFED7142EFCD7152E66
:10189A00FAD700F01C4A1D2A1DBE5DEF0CF01D5040
:1018AA0009E1030E1C5CD8A05DEF0CF05FEF0CF0B1
:1018BA0039EF0CF010C0D9FF11C0DAFFDECF14F0F7
:1018CA00DDCF15F0D89015321432D8901532143273
:1018DA0010C0D9FF11C0DAFF14C0DEFF15C0DDFF4A
:1018EA00000E1F6E000E1E6EE7EC15F012C0D9FF37
:1018FA0013C0DAFF0550DE260650DD22110E156EE2
:10190A003C0E146ECB0EE82EFED7142EFCD7152EE5
:10191A00FAD700F01E4A1F2A1FBE9DEF0CF01F5077
:10192A0009E1030E1E5CD8A09DEF0CF09FEF0CF0AE
:10193A0079EF0CF012C0D9FF13C0DAFFDECF14F032
:10194A00DDCF15F0D89015321432D89015321432F2
:10195A0012C0D9FF13C0DAFF14C0DEFF15C0DDFFC5
:10196A001200E0EC16F0A4EC16F072EC16F0DDECC6
:10197A0013F001EC17F086840E01B495BCCFE0F1A8
:10198A00000E0101EA6F010EEB6F010EEC6FAA0E59
:10199A00EF6F0F0EF06FA60EF16F0F0EF26FE0C130
:1019AA00EDF1EE6B000EF36F010EF46F010EF56FA1
:1019BA00250EF86F0F0EF96F210EFA6F0F0EFB6FDF
:1019CA00E0C1F6F1F76BEA0E0E6E010E0F6EB1EC86
:1019DA000EF0F30E0E6E010E0F6EB1EC0EF0000E4D
:1019EA000101E26F000EE16F000EE46F000EE36F7B
:1019FA00000EE66F000EE56F000EE96F000EE86F4D
:101A0A00000EDF6F000EDE6F7C98010EE76F0FEF9E
:101A1A000DF07C888EB414EF0DF016EF0DF00EEF7A
:101A2A000DF07C98290E5E6E960E5D6E7F0EE82E86
:101A3A00FED75D2EFCD75E2EFAD700F0E80E0C6EAC
:101A4A00010E0D6EE10E0E6E010E0F6EE30E106E9C
:101A5A00010E116EE50E126E010E136E79EC0BF08B
:101A6A000101E751020D960EF324D96E010EF420FE
:101A7A00DA6EE8C1DEFFE9C1DDFFE751020D120EA1
:101A8A00F326000EF422960EF324D96E010EF420EA
:101A9A00DA6EE1C1DEFFE2C1DDFFE751020D240E7D
:101AAA00F326000EF422960EF324D96E010EF420CA
:101ABA00DA6EE3C1DEFFE4C1DDFFE751020D360E47
:101ACA00F326000EF422960EF324D96E010EF420AA
:101ADA00DA6EE5C1DEFFE6C1DDFF000E0001606FD0
:101AEA00010E616F010E626F0E0E636FE8C164F042
:101AFA00E9C165F0E1C166F0E2C167F0E3C168F0EF
:101B0A00E4C169F0E5C16AF0E6C16BF0E7C16CF0C7
:101B1A006D6B1DEC15F0000E026E010E036E8CEC5F
:101B2A0016F00101E72B090EE7659EEF0DF0A0EF15
:101B3A000DF00FEF0DF07C88A4EF0DF07C988EB4B9
:101B4A00A9EF0DF0ABEF0DF0A3EF0DF0000E0001C1
:101B5A007B6F010E7C6FE80E7D6F010E7E6FDE0ECD
:101B6A007F6F010E806F6FEC11F0BEEF0DF07C8875
:101B7A007E808EB4C3EF0DF0C5EF0DF0BCEF0DF013
:101B8A007E90000E00017B6F010E7C6FE80E7D6F68
:101B9A00010E7E6FE10E7F6F010E806FE30E816F83
:101BAA00010E826FE50E836F010E846F960E856FAC
:101BBA00010E866FEA0E876F010E886FF30E896F2A
:101BCA00010E8A6FC8EC10F0BEEF0DF000EF00F0C6
:101BDA00000E126E10BEF6EF0DF0F4EF0DF008EFE6
:101BEA000EF0101E0F1E0E1E0D1E0C1E0B1E0A1EC0
:101BFA00096C000E0A220B220C220D220E220F2241
:101C0A001022010E126E08BE0FEF0EF00DEF0EF04D
:101C1A0021EF0EF0081E071E061E051E041E031ED7
:101C2A00021E016C000E0222032204220522062251
:101C3A0007220822010E121A20EE13F0070EDE6A9E
:101C4A00E806FDE209500A100B100C100D100E10D8
:101C5A000F101010D8B434EF0EF036EF0EF088EFF4
:101C6A000EF0010E116E44EF0EF0D89009360A36C6
:101C7A000B360C360D360E360F361036112A10AECC
:101C8A0049EF0EF04BEF0EF03AEF0EF0D890133604
:101C9A001436153616361736183619361A360950C6
:101CAA00015C0A5002580B5003580C5004580D504E
:101CBA0005580E5006580F50075810500858D8A00B
:101CCA0069EF0EF06BEF0EF07CEF0EF00950015E3B
:101CDA000A50025A0B50035A0C50045A0D50055A16
:101CEA000E50065A0F50075A1050085A1380D890AF
:101CFA0010320F320E320D320C320B320A320932E6
:101D0A00112E4BEF0EF01250D8B48EEF0EF090EF6A
:101D1A000EF0A0EF0EF01A1E191E181E171E161E20
:101D2A00151E141E136C000E1422152216221722D9
:101D3A00182219221A2213C001F014C002F015C089
:101D4A0003F016C004F017C005F018C006F019C059
:101D5A0007F01AC008F0120020EE02F00E50D92641
:101D6A000F50DA22DF50D8B4BDEF0EF0BFEF0EF0FD
:101D7A00F3EF0EF00EC0D9FF0FC0DAFFDF50106E7E
:101D8A001050016E026A20EE03F00E50D9260F5051
:101D9A00DA22DECF03F0DDCF04F0CDEC16F001C07D
:101DAA0007F002C008F0000E0A6E640E096EE3EC3A
:101DBA0014F020EE03F00E50D9260F50DA22DF502D
:101DCA00116E0750115C126E20EE03F00E50D926E8
:101DDA000F50DA22DF50136E16EF0FF0000E126E5C
:101DEA000EC0D9FF0FC0DAFFDF50106E1050016E1F
:101DFA00026A20EE03F00E50D9260F50DA22DECF07
:101E0A0003F0DDCF04F0CDEC16F001C007F002C0FC
:101E1A0008F0000E0A6E640E096EE3EC14F0075027
:101E2A00136E20EE01F00E50D9260F50DA22DF5041
:101E3A00D8B422EF0FF024EF0FF046EF0FF020EEA8
:101E4A0005F00E50D9260F50DA22DECF10F0DDCF82
:101E5A0011F010C0D9FF11C0DAFF12C0DFFF20EE67
:101E6A0007F00E50D9260F50DA22DECF10F0DDCF60
:101E7A0011F010C0D9FF11C0DAFF13C0DFFF66EFFF
:101E8A000FF020EE05F00E50D9260F50DA22DECFE1
:101E9A0010F0DDCF11F010C0D9FF11C0DAFF13C066
:101EAA00DFFF20EE07F00E50D9260F50DA22DECFE0
:101EBA0010F0DDCF11F010C0D9FF11C0DAFF12C047
:101ECA00DFFF1200000E126E08BE70EF0FF06EEF09
:101EDA000FF082EF0FF0081E071E061E051E041ED5
:101EEA00031E021E016C000E022203220422052296
:101EFA00062207220822010E126E10BE89EF0FF089
:101F0A0087EF0FF099EF0FF0101E0F1E0E1E0D1E19
:101F1A000C1E0B1E0A1E096C000E0A220B220C2232
:101F2A000D220E220F22102209500A100B100C103B
:101F3A000D100E100F101010D8B4A6EF0FF0A8EF66
:101F4A000FF0F0EF0FF0010E116EB6EF0FF0D89010
:101F5A0009360A360B360C360D360E360F36103663
:101F6A00112A10AEBBEF0FF0BDEF0FF0ACEF0FF080
:101F7A000950015C0A5002580B5003580C5004587F
:101F8A000D5005580E5006580F5007581050085853
:101F9A00D8A0D2EF0FF0D4EF0FF0E4EF0FF0095012
:101FAA00015E0A50025A0B50035A0C50045A0D5043
:101FBA00055A0E50065A0F50075A1050085AD89010
:101FCA0010320F320E320D320C320B320A32093213
:101FDA00112EBDEF0FF01250D8B4F6EF0FF0F8EF54
:101FEA000FF008EF10F0081E071E061E051E041E3D
:101FFA00031E021E016C000E022203220422052285
:10200A0006220722082201C001F002C002F003C022
:10201A0003F004C004F005C005F006C006F007C0CE
:10202A0007F008C008F0120041C0D9FF42C0DAFF29
:10203A00DECFF6FFDDCFF7FF000EF86E0800F55091
:10204A00250AD8A42BEF10F02DEF10F0B1EF10F005
:10205A0041C0D9FF42C0DAFFDE2A000EDD22000E9F
:10206A000001E76F000EE66FE6C0EAF0E869E96989
:10207A0041C0D9FF42C0DAFFDECF4FF0DDCF50F0CA
:10208A004FC0F6FF50C0F7FF000EF86E0800F5507B
:10209A00640AD8B453EF10F055EF10F065EF10F062
:1020AA004FC0F6FF50C0F7FF000EF86E0800F5505B
:1020BA00690AD8A463EF10F065EF10F0A8EF10F0EA
:1020CA0043C0D9FF44C0DAFFDFCF45F0020EDE2657
:1020DA00DFCF46F0000EDD2245C0D9FF46C0DAFF49
:1020EA00DECF47F0DDCF48F0000E48BEFF0E496E46
:1020FA004A6E4B6E4C6E4D6E4E6E010E4F24456EFF
:10210A00000E5020466E41C0D9FF42C0DAFF45C0DA
:10211A00DEFF46C0DDFF3FC01CF040C01DF047C0D7
:10212A001EF048C01FF049C020F04AC021F04BC041
:10213A0022F04CC023F04DC024F04EC025F03AECFA
:10214A000AF0C7EF10F041C0D9FF42C0DAFFDE2A19
:10215A00000EDD22C7EF10F041C0D9FF42C0DAFFFE
:10216A00DECFF6FFDDCFF7FF000EF86E0800F55060
:10217A00016E026A3FC003F040C004F085EC12F021
:10218A00A8EF10F012007DC00CF07EC00DF07FC0E9
:10219A000EF080C00FF081C010F082C011F083C031
:1021AA0012F084C013F079EC0BF07BC060F07CC0B5
:1021BA0061F0330E0001626F0E0E636F7DC0D9FFAE
:1021CA007EC0DAFFDECF64F0DDCF65F07FC0D9FFD5
:1021DA0080C0DAFFDECF66F0DDCF67F081C0D9FFBD
:1021EA0082C0DAFFDECF68F0DDCF69F083C0D9FFA5
:1021FA0084C0DAFFDECF6AF0DDCF6BF01DEC15F09C
:10220A007BC002F07CC003F08CEC16F07BC017F0A8
:10221A007CC018F07DC0D9FF7EC0DAFFDECF19F08E
:10222A00DDCF1AF07FC0D9FF80C0DAFFDECF1BF006
:10223A00DDCF1CF081C0D9FF82C0DAFFDECF1DF0EE
:10224A00DDCF1EF083C0D9FF84C0DAFFDECF1FF0D6
:10225A00DDCF20F085C021F086C022F08B0E236EE0
:10226A00000E246EC8EC08F07BC001F07CC002F0BE
:10227A008B0E036E000E046ED30E056E000E066EF4
:10228A00FFEC11F0D30E016E000E026E64EC14F036
:10229A000001E56F7BC060F07CC061F06E0E626F7A
:1022AA000E0E636FE5C064F0656B1DEC15F07BC024
:1022BA0002F07CC003F08CEC16F087C01CF088C0DA
:1022CA001DF089C01EF08AC01FF00001E5513DECE7
:1022DA0007F01200000E0001826F000E816FBFEC42
:1022EA0015F07DC0D9FF7EC0DAFF05C0DEFF06C04B
:1022FA00DDFF0001814B822B82BF8DEF11F0F50EBD
:10230A00815D010E8259D8A08DEF11F08FEF11F087
:10231A0074EF11F0000E846F000E836FBFEC15F09E
:10232A007DC0D9FF7EC0DAFF0550DE260650DD22C9
:10233A00110E5A6E3C0E596ECB0EE82EFED7592E50
:10234A00FCD75A2EFAD700F00001834B842B84BFA6
:10235A00B8EF11F0845109E1030E835DD8A0B8EFFC
:10236A0011F0BAEF11F093EF11F07DC0D9FF7EC0E2
:10237A00DAFFDECF59F0DDCF5AF0D8905A3259320F
:10238A00D8905A3259327DC0D9FF7EC0DAFF59C07F
:10239A00DEFF5AC0DDFF7BC060F07CC061F0570EE3
:1023AA00626F0E0E636F7DC0D9FF7EC0DAFFDECF8B
:1023BA0064F0DDCF65F01DEC15F07BC002F07CC047
:1023CA0003F08CEC16F07DC0D9FF7EC0DAFFDECFB9
:1023DA0059F0DDCF5AF0200E59245B6E030E5A20B5
:1023EA005C6E7FC0D9FF80C0DAFF5BC0DEFF5CC0D5
:1023FA00DDFF1200010E256E2550020DF3CF07F006
:10240A00F4CF08F007500324096E085004200A6E1E
:10241A00360E0924D96E000E0A20DA6EDECF0BF0D2
:10242A00DDCF0CF02550020DF3CF0DF0F4CF0EF0F6
:10243A000D5003240F6E0E500420106E240E0F242C
:10244A00D96E000E1020DA6EDECF11F0DDCF12F059
:10245A002550020DF3CF13F0F4CF14F013500324D8
:10246A00156E14500420166E120E1524D96E000E25
:10247A001620DA6EDECF17F0DDCF18F02550020DE8
:10248A00F3CF19F0F4CF1AF019500324D96E1A5069
:10249A000420DA6EDECF1BF0DDCF1CF017501B24B0
:1024AA001D6E18501C201E6E11501D241F6E1250D6
:1024BA001E20206E0B501F24216E0C502020226EED
:1024CA00D89022322132D890223221322550020D60
:1024DA00F3CF23F0F4CF24F023500524D96E2450EF
:1024EA000620DA6E21C0DEFF22C0DDFF252A090E92
:1024FA00256482EF12F084EF12F001EF12F012005D
:10250A0003500410D8B48CEF12F08EEF12F097EF4C
:10251A0012F003500410D8A495EF12F097EF12F0BE
:10252A009CEF12F0015042EC17F0E9EF12F020EEA6
:10253A0009F00350D9260450DA22DE50DE10D8B44E
:10254A00A9EF12F0ABEF12F0C6EF12F020EE09F08D
:10255A000350D9260450DA2210EE03F00350E12684
:10256A000450E222DE50E65CE650800A096EDE5034
:10257A00800A0958D8B0C4EF12F0C6EF12F0E9EF9A
:10258A0012F020EE03F00350D9260450DA22DECFEF
:10259A0005F0DDCF06F003C0D9FF04C0DAFFDECFB5
:1025AA0007F0DDCF08F005500724D96E0650082041
:1025BA00DA6E01C0DFFF20EE03F00350D926045083
:1025CA00DA22DE2A000EDD22120020EE01F014507B
:1025DA00D9261550DA22000EDF6E20EE01F01650D1
:1025EA00D9261750DA22010EDF6E000E1B6E000E7E
:1025FA001A6E16C0D9FF17C0DAFF1AC0DFFF14C05F
:10260A00D9FF15C0DAFF1AC0DFFF020E196E380EA5
:10261A00186EAD0EE82EFED7182EFCD7192EFAD753
:10262A0000F014C00EF015C00FF0B1EC0EF016C099
:10263A000EF017C00FF0B1EC0EF00A0E1A26000EBB
:10264A001B221BBE32EF13F01B5009E1500E1A5C1D
:10265A00D8A032EF13F034EF13F0FEEF12F0040EAD
:10266A00196E400E186E260EE82EFED7182EFCD7CD
:10267A00192EFAD700D0120020EE01F01450D926F4
:10268A001550DA22010EDF6E20EE01F01650D9261F
:10269A001750DA22000EDF6E000E1B6E000E1A6E45
:1026AA0016C0D9FF17C0DAFF1AC0DFFF14C0D9FF5E
:1026BA0015C0DAFF1AC0DFFF020E196E380E186E47
:1026CA00AD0EE82EFED7182EFCD7192EFAD700F039
:1026DA0014C00EF015C00FF0B1EC0EF016C00EF0DB
:1026EA0017C00FF0B1EC0EF00A0E1A26000E1B22CC
:1026FA001BBE89EF13F01B5009E1500E1A5CD8A0DB
:10270A0089EF13F08BEF13F055EF13F0040E196EE7
:10271A00A80E186E0C0EE82EFED7182EFCD7192E0E
:10272A00FAD7120020EE01F01450D9261550DA22F9
:10273A00000EDF6E20EE01F01650D9261750DA226D
:10274A00000EDF6E000E1A6E000E196E14C0D9FF4D
:10275A0015C0DAFF19C0DFFF16C0D9FF17C0DAFFAC
:10276A0019C0DFFF14C00EF015C00FF0B1EC0EF067
:10277A0016C00EF017C00FF0B1EC0EF0D00E186EA6
:10278A00CA0EE82EFED7182EFCD70A0E1926000EFE
:10279A001A221ABEDAEF13F01A5009E13C0E195C3C
:1027AA00D8A0DAEF13F0DCEF13F0ABEF13F012005E
:1027BA0085948598839E879C050E0E01746F060E7C
:1027CA00766F070E696F080E886FBD508F0B400930
:1027DA00BD6EE00EBE16BF50F00B0109BF6E630E50
:1027EA00BC6EBD8E000EAA6E000EA66E000E0F0104
:1027FA00256F000E216FFC0EAD16F30EAD16CF0E2F
:10280A00AD163F0EAD16AB88AB50F00B0C09AB6E94
:10281A00AB8EA788A750F00B0C09A76EA78E268946
:10282A002651F00B0C09266F268F22892251F00BB4
:10283A000C09226F228F120036EF14F014C0D9FF50
:10284A0015C0DAFF0A0EDF5E2A0E186E8E0EE82E0B
:10285A00FED7182EFCD714C00EF015C00FF0B1EC3D
:10286A000EF014C0D9FF15C0DAFFDF50D8A440EF2C
:10287A0014F042EF14F023EF14F057EF14F016C0DF
:10288A00D9FF17C0DAFF0A0EDF5E2A0E186E8E0E07
:10289A00E82EFED7182EFCD716C00EF017C00FF080
:1028AA00B1EC0EF016C0D9FF17C0DAFFDF50D8A47A
:1028BA0061EF14F063EF14F044EF14F01200010E0C
:1028CA00096E20EE02F00150D9260250DA22DECF3C
:1028DA0007F0DDCF08F0020E0A6E0A50020DF3CFA0
:1028EA0003F0F4CF04F003500124D96E04500220FF
:1028FA00DA6E0750DE5C0850DE58D8B087EF14F065
:10290A0089EF14F09BEF14F00A50020DF3CF03F095
:10291A00F4CF04F003500124D96E04500220DA6E79
:10292A00DECF07F0DDCF08F00AC009F00A2A090E47
:10293A000A64A2EF14F0A4EF14F072EF14F0095035
:10294A00120016BEABEF14F0ADEF14F0B3EF14F0B3
:10295A0015C01AF016C01BF0B7EF14F0000E1B6E6C
:10296A00000E1A6E000E196E000E186EC9EF14F0E2
:10297A00000E026E200E016E11C003F012C004F0A8
:10298A0085EC12F0184A192A1A50185C1950800A54
:10299A00176E1B50800A1758D8A0D6EF14F0D8EF3C
:1029AA0014F0BDEF14F013C00AF014C00BF011C0FC
:1029BA000CF012C00DF00FEC16F01200000E0C6EA7
:1029CA00000E0B6E09500A10D8B4EEEF14F0F0EFB7
:1029DA0014F018EF15F0010E0D6EF8EF14F0D89000
:1029EA0009360A360D2A0AAEFDEF14F0FFEF14F08D
:1029FA00F4EF14F0D8900B360C360950075C0A50E5
:102A0A000858D8A00BEF15F00DEF15F012EF15F0DE
:102A1A000950075E0A50085A0B80D8900A320932C8
:102A2A000D2EFFEF14F00BC007F00CC008F01200D7
:102A3A00640E00016E6F000E6F6F60C070F061C0AF
:102A4A0071F0000E746F000E736F000E7A6F000E35
:102A5A00796F700E516E000E526E62C053F063C0F1
:102A6A0054F06E0E556E000E566E46EC15F00001CF
:102A7A0073516025D96E74516121DA6E000EDF6ED2
:102A8A00120053C057F054C058F05AEF15F051C015
:102A9A003FF052C040F0570E416E000E426E55C0D4
:102AAA0043F056C044F019EC10F057C0F6FF58C076
:102ABA00F7FF000EF86E0800F5500009D8A468EF79
:102ACA0015F06AEF15F04CEF15F0000E526E000E7D
:102ADA00516E120038EC17F0520E2DEC17F0B60EAC
:102AEA002DEC17F03DEC17F0530E2DEC17F0010EFC
:102AFA0031EC16F0076E07500A6E0B6A000E31ECC5
:102B0A0016F0076E0750096E086A0A5008100A6E16
:102B1A000B5009100B6E33EC17F00AC005F00BC00E
:102B2A0006F0120038EC17F0520E2DEC17F0B80E22
:102B3A002DEC17F03DEC17F0530E2DEC17F0010EAB
:102B4A0031EC16F0076E07500A6E0B6A000E31EC74
:102B5A0016F0076E0750096E086A0A5008100A6EC6
:102B6A000B5009100B6E33EC17F00AC005F00BC0BE
:102B7A0006F0120038EC17F0520E2DEC17F0B40ED6
:102B8A002DEC17F03DEC17F0530E2DEC17F0010E5B
:102B9A0031EC16F0076E07500A6E0B6A000E31EC24
:102BAA0016F0076E0750096E086A0A5008100A6E76
:102BBA000B5009100B6E33EC17F00AC005F00BC06E
:102BCA0006F0120038EC17F0520E2DEC17F0BA0E80
:102BDA002DEC17F03DEC17F0530E2DEC17F0010E0B
:102BEA0031EC16F0076E07500A6E0B6A000E31ECD4
:102BFA0016F0076E0750096E086A0A5008100A6E26
:102C0A000B5009100B6E33EC17F00AC005F00BC01D
:102C1A0006F01200000E106E000E0F6E20EF16F076
:102C2A000EC001F0026A0CC003F00DC004F085EC7E
:102C3A0012F00F4A102A0F500A24D96E10500B2096
:102C4A00DA6EDF500E6E0E50D8A42EEF16F030EF6B
:102C5A0016F015EF16F01200036EB9EC16F00E011D
:102C6A00DA87B9EC16F0D5CE04F0B9EC16F00350B9
:102C7A00D8B442EF16F046EF16F0026A022A47EF7E
:102C8A0016F0026A023A02460E01DA510218DF0B06
:102C9A000218DA6FDA890450120014BE5FEF16F0D8
:102CAA00145006E11304D8B05DEF16F05FEF16F08A
:102CBA006DEF16F013C015F014C016F0151E161E8F
:102CCA00154A162A15C013F016C014F071EF16F043
:102CDA0013C013F014C014F01200A4EC16F0010E85
:102CEA00036E000E11EC17F03F0E056E550EE82E1E
:102CFA00FED7052EFCD700F0030E036E000E11EC72
:102D0A0017F0D50E036E010E11EC17F0120097EFB3
:102D1A0016F002C0D9FF03C0DAFFDF5021EC17F02A
:102D2A00024A032A02C0D9FF03C0DAFFDF50D8A43F
:102D3A00A1EF16F0A3EF16F08EEF16F012000E01B7
:102D4A00D951F00B0809D96FD98B9F0ED66F848A97
:102D5A00848CA79BA79D1D0E1D6F1E0E1C6F1C0E3B
:102D6A006F6F1B0E706F12000E01D8B5BFEF16F011
:102D7A00C1EF16F0B9EF16F0DACE01F01F0E011608
:102D8A00D8A4CAEF16F0CCEF16F0B9EF16F012007D
:102D9A0001500302F3CF05F0F4CF06F0015004020C
:102DAA00F350062602500302F350062605C001F02E
:102DBA0006C002F0120088928890849884968690C1
:102DCA008792869E81987E8E7F8279887C9880926F
:102DDA007E9080907C96120002EE00F0700EEE6AF1
:102DEA00E806FDE100EEE6F0080EEE6AE806FDE10F
:102DFA005F6A0001B6EF0CF0120E0E01626F110E3F
:102E0A00156F8382E997E895330EE56F000EE66F3A
:102E1A00E789E88BE78F1200046E38EC17F0520E40
:102E2A002DEC17F0045080092DEC17F003502DEC0F
:102E3A0017F033EC17F01200016E0E0137A528EFD8
:102E4A0017F02AEF17F022EF17F001C0E4FE120084
:102E5A00026EB9EC16F002C0D5FE1200B9EC16F0FB
:102E6A000E01DA851200B9EC16F00E01DA811200B1
:0C2E7A00B9EC16F00E01DA831200120011
:020000040020DA
:10000000FF0FFF0FFF0FFF0FFF0FFF0FFF0FFF0F80
:020000040030CA
:0C000000AAFFFFFF9FFFFFFFFFFFFFFFB5
:00000001FF
