:0400000006EFFEF019
:020000040001F9
:10FC0C000001CAEFFEF04DECFEF00E01DA8112009D
:10FC1C004DECFEF00E01DA851200026E4DECFEF09A
:10FC2C0002C0D5FE1200046E09ECFEF0520E13EC6D
:10FC3C00FEF00450800913ECFEF0035013ECFEF0C0
:10FC4C000EECFEF012008892889084988496869030
:10FC5C008792869E81987E9E7F9279987C988092DE
:10FC6C007E9080907C96120001500302F3CF05F039
:10FC7C00F4CF06F001500402F350062602500302A2
:10FC8C00F350062605C001F006C002F012000E016A
:10FC9C00D8B553EFFEF055EFFEF04DEFFEF0DACE97
:10FCAC0001F01F0E0116D8A45EEFFEF060EFFEF01F
:10FCBC004DEFFEF012000E01D951F00B0809D96F6F
:10FCCC00D98B9F0ED66F848A848CA79BA79D1D0E03
:10FCDC001D6F1E0E1C6F1C0E6F6F1B0E706F1200B3
:10FCEC0061ECFEF0010E036E000E19ECFEF03F0EFF
:10FCFC00056E550EE82EFED7052EFCD700F0030E30
:10FD0C00036E000E19ECFEF0D50E036E010E19EC0D
:10FD1C00FEF01200000E0C6E000E0B6E09500A1055
:10FD2C00D8B49BEFFEF09DEFFEF0C5EFFEF0010E98
:10FD3C000D6EA5EFFEF0D89009360A360D2A0AAEE4
:10FD4C00AAEFFEF0ACEFFEF0A1EFFEF0D8900B3670
:10FD5C000C360950075C0A500858D8A0B8EFFEF0D2
:10FD6C00BAEFFEF0BFEFFEF00950075E0A50085ADA
:10FD7C000B80D8900A3209320D2EACEFFEF00BC07E
:10FD8C0007F00CC008F0120029ECFEF061ECFEF05C
:10FD9C0076ECFEF006ECFFF0BCCF14F0000E156E06
:10FDAC00010E166E010E176EAA0E1A6E0F0E1B6E3A
:10FDBC00A60E1C6E0F0E1D6E14C018F0196A000EE4
:10FDCC001E6E010E1F6E010E206E250E236E0F0E81
:10FDDC00246E210E256E0F0E266E14C021F0226AA1
:10FDEC00150E0E6E000E0F6E4AECFFF01E0E0E6E10
:10FDFC00000E0F6E4AECFFF002EFFFF000EF00F088
:10FE0C0085948598839E879C050E0E01746F060E53
:10FE1C00766F070E696F080E886FBD508F0B400907
:10FE2C00BD6EE00EBE16BF50F00B0109BF6E630E27
:10FE3C00BC6EBD8E000EAA6E000EA66E000E0F01DB
:10FE4C00256F000E216FFC0EAD16F30EAD16CF0E06
:10FE5C00AD163F0EAD16AB88AB50F00B0C09AB6E6C
:10FE6C00AB8EA788A750F00B0C09A76EA78E26891E
:10FE7C002651F00B0C09266F268F22892251F00B8C
:10FE8C000C09226F228F120020EE02F00E50D926A0
:10FE9C000F50DA22DF50D8B456EFFFF058EFFFF0D6
:10FEAC008CEFFFF00EC0D9FF0FC0DAFFDF50106EE1
:10FEBC001050016E026A20EE03F00E50D9260F503E
:10FECC00DA22DECF03F0DDCF04F03AECFEF001C015
:10FEDC0007F002C008F0000E0A6E640E096E90EC7A
:10FEEC00FEF020EE03F00E50D9260F50DA22DF5030
:10FEFC00116E0750115C126E20EE03F00E50D926D5
:10FF0C000F50DA22DF50136EAFEFFFF0000E126EBF
:10FF1C000EC0D9FF0FC0DAFFDF50106E1050016E0B
:10FF2C00026A20EE03F00E50D9260F50DA22DECFF3
:10FF3C0003F0DDCF04F03AECFEF001C007F002C094
:10FF4C0008F0000E0A6E640E096E90ECFEF007507D
:10FF5C00136E20EE01F00E50D9260F50DA22DF502E
:10FF6C00D8B4BBEFFFF0BDEFFFF0DFEFFFF020EEFA
:10FF7C0005F00E50D9260F50DA22DECF10F0DDCF6F
:10FF8C0011F010C0D9FF11C0DAFF12C0DFFF20EE54
:10FF9C0007F00E50D9260F50DA22DECF10F0DDCF4D
:10FFAC0011F010C0D9FF11C0DAFF13C0DFFFFFEF53
:10FFBC00FFF020EE05F00E50D9260F50DA22DECFDE
:10FFCC0010F0DDCF11F010C0D9FF11C0DAFF13C053
:10FFDC00DFFF20EE07F00E50D9260F50DA22DECFCD
:10FFEC0010F0DDCF11F010C0D9FF11C0DAFF12C034
:04FFFC00DFFF120011
:020000040020DA
:10000000FF0FFF0FFF0FFF0FFF0FFF0FFF0FFF0F80
:020000040030CA
:0C000000AAFFFFFF9FFFFFFFFFFFFFFFB5
:00000001FF
