:040000003BEF00F0E2
:100008005B820E0133A30BEF00F00DEF00F039EF28
:1000180000F00001B651B711D8A415EF00F017EFA2
:1000280000F039EF00F0000EB56F010EB46F7C8E52
:10003800050E046E0F0E036EF10EE82EFED7032E8A
:10004800FCD7042EFAD700F07C9E050E046E0F0E26
:10005800036EF10EE82EFED7032EFCD7042EFAD736
:1000680000F0B7EC11F00E0133935B92110091EFA1
:0200780011F085
:100E0000000A2045585045435445443A2052202575
:100E1000642C20472025642C204220256420204378
:100E20004152443A202564200A000A204156473A9C
:100E300020522025642C20472025642C2042202588
:100E400064200A000A204578706563746564206335
:100E50006C6561723A202564200A00526177202572
:100E6000642C2025642C2025642C202564200A0075
:0B0E700043415244202564200A00008A
:100E7C0060EC11F010EC11F0DEEC10F07AEC0EF0EE
:100E8C0071EC11F0BFEC10F086840E01B495BCCF60
:100E9C00CEF1000E0101DC6F010EDD6F010EDE6F75
:100EAC00AA0EE16F0F0EE26FA60EE36F0F0EE46F4A
:100EBC00CEC1DFF1E06B000EE56F010EE66F010EA7
:100ECC00E76F250EEA6F0F0EEB6F210EEC6F0F0E16
:100EDC00ED6FCEC1E8F1E96BDC0E126E010E136EF4
:100EEC00FEEC0BF0E50E126E010E136EFEEC0BF029
:100EFC00000E0101D46F000ED36F000ED66F000EE2
:100F0C00D56F000ED86F000ED76F7C98000EDB6F7C
:100F1C0091EF07F07C888EB496EF07F098EF07F00E
:100F2C0090EF07F07C98D30E106E010E116ED50E5B
:100F3C00126E010E136ED70E146E010E156E47EC69
:100F4C000AF00101DB51020D960EF324D96E010E4D
:100F5C00F420DA6ED3C1DEFFD4C1DDFFDB51020D0C
:100F6C00120EF326000EF422960EF324D96E010E07
:100F7C00F420DA6ED5C1DEFFD6C1DDFFDB51020DE8
:100F8C00240EF326000EF422960EF324D96E010ED5
:100F9C00F420DA6ED7C1DEFFD8C1DDFF000E0001F0
:100FAC00DF6F010EE06F010EE16F0E0EE26FD3C129
:100FBC00E3F0D4C1E4F0D5C1E5F0D6C1E6F0D7C179
:100FCC00E7F0D8C1E8F0DBC1E9F0EA6B93EC0FF085
:100FDC00000E066E010E076EF8EC10F00101DB2B13
:100FEC00080EDB65FCEF07F0FEEF07F091EF07F062
:100FFC0002EF08F07C8880808EB407EF08F009EFD0
:10100C0008F000EF08F0000E0101D06F000ECF6F5A
:10101C00BCEC0FF009C0D9F10AC0DAF10101CF4BD9
:10102C00D02BD0BF23EF08F0F50ECF5D010ED059B9
:10103C00D8A023EF08F025EF08F00EEF08F0000E13
:10104C00D26F000ED16FBCEC0FF009500101D92703
:10105C000A50DA23110E0001F96F3C0EF86FCB0E1B
:10106C00E82EFED7F82FFCD7F92FFAD70101D14B78
:10107C00D22BD2BF4BEF08F0D25109E1030ED15D58
:10108C00D8A04BEF08F04DEF08F029EF08F0D9C1CC
:10109C00F8F0DAC1F9F00001D890F933F833D890B0
:1010AC00F933F833F8C0D9F1F9C0DAF1000EDF6F7B
:1010BC00010EE06F440EE16F0E0EE26FD9C1E3F04A
:1010CC00DAC1E4F093EC0FF0000E066E010E076E21
:1010DC00F8EC10F0200E0101D925CC6F030EDA21AB
:1010EC00CD6F809688967C9E849EE4EC0FF009C0B0
:1010FC00D3F10AC0D4F134EC10F009C0D7F10AC016
:10110C00D8F10CEC10F009C0D5F10AC0D6F1BCEC4A
:10111C000FF009C0D9F10AC0DAF1000E0001DF6F3F
:10112C00010EE06F5B0EE16F0E0EE26FD3C1E3F0C8
:10113C00D4C1E4F0D5C1E5F0D6C1E6F0D7C1E7F0F3
:10114C00D8C1E8F0D9C1E9F0DAC1EAF093EC0FF0BC
:10115C00000E066E010E076EF8EC10F0090E000181
:10116C00F96F1E0EF86FE40EE82EFED7F82FFCD7A1
:10117C00F92FFAD700F080A6C6EF08F0CBEF08F0F5
:10118C000001F86BF82BCDEF08F00001F86BF84775
:10119C00F847F8478050F819F70BF819806E0101E1
:1011AC00D951CC5DDA51CD59D8B0DFEF08F0E1EF71
:1011BC0008F07BEF08F07CAEE6EF08F0EBEF08F000
:1011CC000001F86BF82BEDEF08F00001F86BF83329
:1011DC00F8337C50F8197F0BF8197C6E80A2F9EF6C
:1011EC0008F0FDEF08F0F86BF82BFFEF08F00001AA
:1011FC00F86BF8478050F819FD0BF819806E7BEFEF
:10120C0008F03BEF00F022C038F023C039F024C0C6
:10121C003AF025C03BF026C03CF027C03DF028C07A
:10122C003EF029C03FF03FBE1EEF09F021EF09F060
:10123C00010E22EF09F0000E406E4050D8B429EF99
:10124C0009F02BEF09F03BEF09F03F1E3E1E3D1E4F
:10125C003C1E3B1E3A1E391E386C000E39223A22B7
:10126C003B223C223D223E223F220001B3BF49EFEC
:10127C0009F0B35106E1B205D8B047EF09F049EFD8
:10128C0009F04FEF09F0000E356E010E346E53EF7E
:10129C0009F0B2C034F0B3C035F0B0C036F0B1C014
:1012AC0037F04050D8B45DEF09F05FEF09F076EFFE
:1012BC0009F03606D8A037064050D8A468EF09F0DC
:1012CC006AEF09F070EF09F0000E336E2B0E326EE0
:1012DC0074EF09F0000E336E2D0E326E32C040F0FA
:1012EC00000E426E1F0E416E000ED86FFAEF09F021
:1012FC004106D8A04206B90E4124D96E000E4220F8
:10130C00DA6E38C005F039C006F03AC007F03BC0C1
:10131C0008F03CC009F03DC00AF03EC00BF03FC0E5
:10132C000CF00A0E0D6E000E0E6E000E0F6E000EFF
:10133C00106E000E116E000E126E000E136E000E6B
:10134C00146EB4EC0CF005C02AF006C02BF007C0EC
:10135C002CF008C02DF009C02EF00AC02FF00BC0E5
:10136C0030F00CC031F02AC017F02BC018F09FECF5
:10137C0010F01750300FDF6E3406D8A03506360645
:10138C00D8A0370638C005F039C006F03AC007F0CF
:10139C003BC008F03CC009F03DC00AF03EC00BF069
:1013AC003FC00CF00A0E0D6E000E0E6E000E0F6E8E
:1013BC00000E106E000E116E000E126E000E136EEB
:1013CC00000E146E3AEC0BF005C038F006C039F084
:1013DC0007C03AF008C03BF009C03CF00AC03DF031
:1013EC000BC03EF00CC03FF042BE05EF0AF042507D
:1013FC0008E14104D8A005EF0AF007EF0AF023EF4B
:10140C000AF0385039103A103B103C103D103E1089
:10141C003F10D8A414EF0AF016EF0AF07EEF09F093
:10142C0035BE23EF0AF0355006E13404D8B021EF75
:10143C000AF023EF0AF07EEF09F04050D8B429EF00
:10144C000AF02BEF0AF036EF0AF04106D8A042065C
:10145C00B90E4124D96E000E4220DA6E40C0DFFF77
:10146C0020C015F021C016F0B90E4124176E000EE5
:10147C004220186E36C019F037C01AF0BEEC0EF0D0
:10148C001200000E196E000E186EE4EC0FF010C076
:10149C00D9FF11C0DAFF09C0DEFF0AC0DDFF0CEC7A
:1014AC0010F012C0D9FF13C0DAFF09C0DEFF0AC06A
:1014BC00DDFF34EC10F014C0D9FF15C0DAFF09C001
:1014CC00DEFF0AC0DDFF184A192A19BE77EF0AF0B1
:1014DC00F50E185C010E1958D8A077EF0AF079EFC9
:1014EC000AF04BEF0AF0000E1B6E000E1A6EE4ECC5
:1014FC000FF010C0D9FF11C0DAFF0950DE260A50D8
:10150C00DD22110E176E3C0E166ECB0EE82EFED79A
:10151C00162EFCD7172EFAD700F01A4A1B2A1BBE20
:10152C00A1EF0AF01B5009E1030E1A5CD8A0A1EF41
:10153C000AF0A3EF0AF07DEF0AF010C0D9FF11C03A
:10154C00DAFFDECF16F0DDCF17F0D8901732163257
:10155C00D8901732163210C0D9FF11C0DAFF16C05E
:10156C00DEFF17C0DDFF000E1D6E000E1C6E0CECB6
:10157C0010F012C0D9FF13C0DAFF0950DE260A5052
:10158C00DD22110E176E3C0E166ECB0EE82EFED71A
:10159C00162EFCD7172EFAD700F01C4A1D2A1DBE9A
:1015AC00E1EF0AF01D5009E1030E1C5CD8A0E1EF3D
:1015BC000AF0E3EF0AF0BDEF0AF012C0D9FF13C036
:1015CC00DAFFDECF16F0DDCF17F0D89017321632D7
:1015DC00D8901732163212C0D9FF13C0DAFF16C0DA
:1015EC00DEFF17C0DDFF000E1F6E000E1E6E34EC0A
:1015FC0010F014C0D9FF15C0DAFF0950DE260A50CE
:10160C00DD22110E176E3C0E166ECB0EE82EFED799
:10161C00162EFCD7172EFAD700F01E4A1F2A1FBE13
:10162C0021EF0BF01F5009E1030E1E5CD8A021EF37
:10163C000BF023EF0BF0FDEF0AF014C0D9FF15C02F
:10164C00DAFFDECF16F0DDCF17F0D8901732163256
:10165C00D8901732163214C0D9FF15C0DAFF16C055
:10166C00DEFF17C0DDFF1200000E166E14BE43EF36
:10167C000BF041EF0BF055EF0BF0141E131E121E66
:10168C00111E101E0F1E0E1E0D6C000E0E220F22B0
:10169C0010221122122213221422010E166E0CBEDD
:1016AC005CEF0BF05AEF0BF06EEF0BF00C1E0B1EF9
:1016BC000A1E091E081E071E061E056C000E0622B9
:1016CC000722082209220A220B220C22010E161ACA
:1016DC0020EE17F0070EDE6AE806FDE20D500E1044
:1016EC000F1010101110121013101410D8B481EF29
:1016FC000BF083EF0BF0D5EF0BF0010E156E91EFA5
:10170C000BF0D8900D360E360F36103611361236C9
:10171C0013361436152A14AE96EF0BF098EF0BF027
:10172C0087EF0BF0D8901736183619361A361B3649
:10173C001C361D361E360D50055C0E5006580F50CB
:10174C000758105008581150095812500A58135085
:10175C000B5814500C58D8A0B6EF0BF0B8EF0BF098
:10176C00C9EF0BF00D50055E0E50065A0F50075A7C
:10177C001050085A1150095A12500A5A13500B5A49
:10178C0014500C5A1780D890143213321232113272
:10179C0010320F320E320D32152E98EF0BF0165010
:1017AC00D8B4DBEF0BF0DDEF0BF0EDEF0BF01E1E02
:1017BC001D1E1C1E1B1E1A1E191E181E176C000E39
:1017CC00182219221A221B221C221D221E2217C08B
:1017DC0005F018C006F019C007F01AC008F01BC0BD
:1017EC0009F01CC00AF01DC00BF01EC00CF012005A
:1017FC0020EE02F01250D9261350DA22DF50D8B462
:10180C000AEF0CF00CEF0CF040EF0CF012C0D9FF0B
:10181C0013C0DAFFDF50146E1450056E066A20EE0A
:10182C0003F01250D9261350DA22DECF07F0DDCFA9
:10183C0008F04DEC11F005C00BF006C00CF0000EDA
:10184C000E6E640E0D6EFBEC0EF020EE03F01250DB
:10185C00D9261350DA22DF50156E0B50155C166E1C
:10186C0020EE03F01250D9261350DA22DF50176EF7
:10187C0063EF0CF0000E166E12C0D9FF13C0DAFF26
:10188C00DF50146E1450056E066A20EE03F01250F1
:10189C00D9261350DA22DECF07F0DDCF08F04DEC5D
:1018AC0011F005C00BF006C00CF0000E0E6E640EAD
:1018BC000D6EFBEC0EF00B50176E20EE01F012507B
:1018CC00D9261350DA22DF50D8B46FEF0CF071EF39
:1018DC000CF093EF0CF020EE05F01250D9261350BB
:1018EC00DA22DECF14F0DDCF15F014C0D9FF15C00D
:1018FC00DAFF16C0DFFF20EE07F01250D926135086
:10190C00DA22DECF14F0DDCF15F014C0D9FF15C0EC
:10191C00DAFF17C0DFFFB3EF0CF020EE05F012502A
:10192C00D9261350DA22DECF14F0DDCF15F014C017
:10193C00D9FF15C0DAFF17C0DFFF20EE07F01250F9
:10194C00D9261350DA22DECF14F0DDCF15F014C0F7
:10195C00D9FF15C0DAFF16C0DFFF1200000E166E9D
:10196C000CBEBDEF0CF0BBEF0CF0CFEF0CF00C1E6F
:10197C000B1E0A1E091E081E071E061E056C000EF5
:10198C0006220722082209220A220B220C22010E0F
:10199C00166E14BED6EF0CF0D4EF0CF0E6EF0CF094
:1019AC00141E131E121E111E101E0F1E0E1E0D6C69
:1019BC00000E0E220F2210221122122213221422A8
:1019CC000D500E100F1010101110121013101410C7
:1019DC00D8B4F3EF0CF0F5EF0CF03DEF0DF0010E79
:1019EC00156E03EF0DF0D8900D360E360F361036FF
:1019FC001136123613361436152A14AE08EF0DF0C4
:101A0C000AEF0DF0F9EF0CF00D50055C0E50065876
:101A1C000F500758105008581150095812500A58B6
:101A2C0013500B5814500C58D8A01FEF0DF021EF89
:101A3C000DF031EF0DF00D50055E0E50065A0F50A3
:101A4C00075A1050085A1150095A12500A5A13507A
:101A5C000B5A14500C5AD8901432133212321132D1
:101A6C0010320F320E320D32152E0AEF0DF01650C9
:101A7C00D8B443EF0DF045EF0DF055EF0DF00C1E03
:101A8C000B1E0A1E091E081E071E061E056C000EE4
:101A9C0006220722082209220A220B220C2205C048
:101AAC0005F006C006F007C007F008C008F009C032
:101ABC0009F00AC00AF00BC00BF00CC00CF01200BD
:101ACC0045C0D9FF46C0DAFFDECFF6FFDDCFF7FF0A
:101ADC00000EF86E0800F550250AD8A478EF0DF02A
:101AEC007AEF0DF0FEEF0DF045C0D9FF46C0DAFFDE
:101AFC00DE2A000EDD22000E0001B16F000EB06F69
:101B0C00B0C0B8F0B269B36945C0D9FF46C0DAFFBE
:101B1C00DECF53F0DDCF54F053C0F6FF54C0F7FFC7
:101B2C00000EF86E0800F550640AD8B4A0EF0DF062
:101B3C00A2EF0DF0B2EF0DF053C0F6FF54C0F7FF5B
:101B4C00000EF86E0800F550690AD8A4B0EF0DF03D
:101B5C00B2EF0DF0F5EF0DF047C0D9FF48C0DAFF3A
:101B6C00DFCF49F0020EDE26DFCF4AF0000EDD2279
:101B7C0049C0D9FF4AC0DAFFDECF4BF0DDCF4CF0C5
:101B8C00000E4CBEFF0E4D6E4E6E4F6E506E516E73
:101B9C00526E010E5324496E000E54204A6E45C0FD
:101BAC00D9FF46C0DAFF49C0DEFF4AC0DDFF43C0A3
:101BBC0020F044C021F04BC022F04CC023F04DC0AB
:101BCC0024F04EC025F04FC026F050C027F051C075
:101BDC0028F052C029F009EC09F014EF0EF045C0C2
:101BEC00D9FF46C0DAFFDE2A000EDD2214EF0EF01C
:101BFC0045C0D9FF46C0DAFFDECFF6FFDDCFF7FFD9
:101C0C00000EF86E0800F550056E066A43C007F02A
:101C1C0044C008F015EC0EF0F5EF0DF01200075073
:101C2C000810D8B41CEF0EF01EEF0EF027EF0EF0DC
:101C3C0007500810D8A425EF0EF027EF0EF02CEF6C
:101C4C000EF00550EFEC11F079EF0EF020EE09F0EC
:101C5C000750D9260850DA22DE50DE10D8B439EFFE
:101C6C000EF03BEF0EF056EF0EF020EE09F00750A1
:101C7C00D9260850DA2210EE03F00750E12608505E
:101C8C00E222DE50E65CE650800A0D6EDE50800AE1
:101C9C000D58D8B054EF0EF056EF0EF079EF0EF061
:101CAC0020EE03F00750D9260850DA22DECF09F0D7
:101CBC00DDCF0AF007C0D9FF08C0DAFFDECF0BF08A
:101CCC00DDCF0CF009500B24D96E0A500C20DA6EC3
:101CDC0005C0DFFF20EE03F00750D9260850DA22AA
:101CEC00DE2A000EDD22120085948598839E879C47
:101CFC00050E0E01746F060E766F070E696F080ED7
:101D0C00886FBD508F0B4009BD6EE00EBE16BF50E4
:101D1C00F00B0109BF6E630EBC6EBD8E000EAA6E79
:101D2C00000EA66E000E0F01256F000E216FFC0E2B
:101D3C00AD16F30EAD16CF0EAD163F0EAD16AB882D
:101D4C00AB50F00B0C09AB6EAB8EA788A750F00B09
:101D5C000C09A76EA78E26892651F00B0C09266F4D
:101D6C00268F22892251F00B0C09226F228F120030
:101D7C001ABEC3EF0EF0C5EF0EF0CBEF0EF019C08C
:101D8C001EF01AC01FF0CFEF0EF0000E1F6E000EEB
:101D9C001E6E000E1D6E000E1C6EE1EF0EF0000E9E
:101DAC00066E200E056E15C007F016C008F015EC77
:101DBC000EF01C4A1D2A1E501C5C1D50800A1B6E06
:101DCC001F50800A1B58D8A0EEEF0EF0F0EF0EF06B
:101DDC00D5EF0EF017C00EF018C00FF015C010F0B4
:101DEC0016C011F05CEC10F01200000E106E000E1C
:101DFC000F6E0D500E10D8B406EF0FF008EF0FF069
:101E0C0030EF0FF0010E116E10EF0FF0D8900D3671
:101E1C000E36112A0EAE15EF0FF017EF0FF00CEF78
:101E2C000FF0D8900F3610360D500B5C0E500C582E
:101E3C00D8A023EF0FF025EF0FF02AEF0FF00D5085
:101E4C000B5E0E500C5A0F80D8900E320D32112EA4
:101E5C0017EF0FF00FC00BF010C00CF012000DC0FC
:101E6C0007F00C0E81EC11F00A50076E050E81EC98
:101E7C0011F0000E0F6E09500A10D8B448EF0FF095
:101E8C004AEF0FF04CEF0FF0010E0F6E0FC007F082
:101E9C00040E81EC11F00C50076E070E81EC11F062
:101EAC00000E106E0B500C10D8B45FEF0FF061EFFA
:101EBC000FF063EF0FF0010E106E10C007F0060E5E
:101ECC0081EC11F01200DBC055F0DCC056F07DEF58
:101EDC000FF0D9C043F0DAC044F0550E456E000E39
:101EEC00466EDDC047F0DEC048F066EC0DF055C024
:101EFC00F6FF56C0F7FF000EF86E0800F55000090B
:101F0C00D8A48BEF0FF08DEF0FF06FEF0FF0000EEA
:101F1C000001DA6F000ED96F1200E30E0001EB6FB7
:101F2C00000EEC6FDFC0EDF0E0C0EEF0000EF16FD4
:101F3C00000EF06F000EF76F000EF66FED0ED96FFE
:101F4C00000EDA6FE1C0DBF0E2C0DCF0EB0EDD6F0F
:101F5C00000EDE6F69EC0FF00001F051DF25D96E39
:101F6C00F151E021DA6E000EDF6E1200E0EC11F0A0
:101F7C00520ECAEC11F0B40ECAEC11F0D6EC11F002
:101F8C00530ECAEC11F0010E7EEC10F00B6E0B50E0
:101F9C000E6E0F6A000E7EEC10F00B6E0B500D6E79
:101FAC000C6A0E500C100E6E0F500D100F6EDBECF9
:101FBC0011F00EC009F00FC00AF01200E0EC11F0A5
:101FCC00520ECAEC11F0B60ECAEC11F0D6EC11F0B0
:101FDC00530ECAEC11F0010E7EEC10F00B6E0B5090
:101FEC000E6E0F6A000E7EEC10F00B6E0B500D6E29
:101FFC000C6A0E500C100E6E0F500D100F6EDBECA9
:10200C0011F00EC009F00FC00AF01200E0EC11F054
:10201C00520ECAEC11F0B80ECAEC11F0D6EC11F05D
:10202C00530ECAEC11F0010E7EEC10F00B6E0B503F
:10203C000E6E0F6A000E7EEC10F00B6E0B500D6ED8
:10204C000C6A0E500C100E6E0F500D100F6EDBEC58
:10205C0011F00EC009F00FC00AF01200E0EC11F004
:10206C00520ECAEC11F0BA0ECAEC11F0D6EC11F00B
:10207C00530ECAEC11F0010E7EEC10F00B6E0B50EF
:10208C000E6E0F6A000E7EEC10F00B6E0B500D6E88
:10209C000C6A0E500C100E6E0F500D100F6EDBEC08
:1020AC0011F00EC009F00FC00AF01200000E146EF1
:1020BC00000E136E6DEF10F012C005F0066A10C022
:1020CC0007F011C008F015EC0EF0134A142A135047
:1020DC000E24D96E14500F20DA6EDF50126E12508F
:1020EC00D8A47BEF10F07DEF10F062EF10F012002F
:1020FC00076E25EC11F00E01DA8725EC11F0D5CE28
:10210C0008F025EC11F00750D8B48FEF10F093EFD6
:10211C0010F0066A062A94EF10F0066A063A064694
:10212C000E01DA510618DF0B0618DA6FDA8908503F
:10213C00120018BEACEF10F0185006E11704D8B01E
:10214C00AAEF10F0ACEF10F0BAEF10F017C019F0C6
:10215C0018C01AF0191E1A1E194A1A2A19C017F09B
:10216C001AC018F0BEEF10F017C017F018C018F016
:10217C001200C2EC11F0000E0A6E010E096E070E71
:10218C000C6ED00E0B6E000E0E6E040E0D6E35EC3A
:10219C000FF082920E019A93090E0D01F16F0E0150
:1021AC0029831F83F292F28CF28AF28CF28E120047
:1021BC0010EC11F0010E076E000E81EC11F03F0EC9
:1021CC00096E550EE82EFED7092EFCD700F0030E33
:1021DC00076E000E81EC11F0D50E076E010E81EC2E
:1021EC0011F0120003EF11F006C0D9FF07C0DAFF9F
:1021FC00DF50A0EC11F0064A072A06C0D9FF07C031
:10220C00DAFFDF50D8A40DEF11F00FEF11F0FAEF59
:10221C0010F012000E01D951F00B0809D96FD98BAF
:10222C009F0ED66F848A848CA79BA79D1D0E1D6F55
:10223C001E0E1C6F1C0E6F6F1B0E706F12000E01AA
:10224C00D8B52BEF11F02DEF11F025EF11F0DACE00
:10225C0005F01F0E0516D8A436EF11F038EF11F06B
:10226C0025EF11F012000E01D8B53FEF11F041EF40
:10227C0011F039EF11F0DACE01F01F0E0116D8A4CF
:10228C004AEF11F04CEF11F039EF11F0120005503C
:10229C000702F3CF09F0F4CF0AF005500802F3500F
:1022AC000A2606500702F3500A2609C005F00AC098
:1022BC0006F0120088928890849884968690879273
:1022CC00869E81987E8E7F8279887C9880927E9083
:1022DC0080907C961200120E0E01626F110E156F1B
:1022EC008382E997E895330EE56F000EE66FE78978
:1022FC00E88BE78F1200086EE0EC11F0520ECAEC7E
:10230C0011F008508009CAEC11F00750CAEC11F01A
:10231C00DBEC11F0120000EE60F0790EEE6AE806CC
:10232C00FDE15A6A596A586A576A5B905B920001E0
:10233C003EEF07F0056E0E0137A5A7EF11F0A9EFE0
:10234C0011F0A1EF11F005C0E4FE1200E0EC11F069
:10235C00520ECAEC11F0E60ECAEC11F0DBEC11F0E7
:10236C001200EAEC11F0520ED0EC11F0E60ED0ECAB
:10237C0011F0E5EC11F01200ACEC11F0130E076E3D
:10238C00000E81EC11F01200066E25EC11F006C067
:10239C00D5FE1200026E39EC11F002C0D5FE12000F
:1023AC0025EC11F00E01DA83120025EC11F00E0170
:1023BC00DA85120025EC11F00E01DA81120039ECED
:1023CC0011F00E01DA85120039EC11F00E01DA81F0
:0423DC0012001200D9
:020000040020DA
:10000000FF0FFF0FFF0FFF0FFF0FFF0FFF0FFF0F80
:020000040030CA
:0C000000AAFFFFFF9FFFFFFFFFFFFFFFB5
:00000001FF
