:0400000092EFFBF090
:020000040001F9
:10F724000001E8EFFDF0D9ECFBF00E01DA811200E4
:10F73400D9ECFBF00E01DA851200026ED9ECFBF075
:10F7440002C0D5FE1200046E95ECFBF0520E9FEC45
:10F75400FBF0045080099FECFBF003509FECFBF09E
:10F764009AECFBF012008892889084988496869094
:10F774008792869E81987E8E7F8279887C988092FB
:10F784007E9080907C96120001500302F3CF05F026
:10F79400F4CF06F001500402F3500626025003028F
:10F7A400F350062605C001F006C002F012000E0157
:10F7B400D8B5DFEFFBF0E1EFFBF0D9EFFBF0DACEE9
:10F7C40001F01F0E0116D8A4EAEFFBF0ECEFFBF0FA
:10F7D400D9EFFBF012000E01D951F00B0809D96FD3
:10F7E400D98B9F0ED66F848A848CA79BA79D1D0EF0
:10F7F4001D6F1E0E1C6F1C0E6F6F1B0E706F1200A0
:10F80400EDECFBF0010E036E000EA5ECFBF03F0ED9
:10F81400056E550EE82EFED7052EFCD700F0030E1C
:10F82400036E000EA5ECFBF0D50E036E010EA5ECE5
:10F83400FBF01200000E0C6E000E0B6E09500A1045
:10F84400D8B427EFFCF029EFFCF051EFFCF0010EE7
:10F854000D6E31EFFCF0D89009360A360D2A0AAE47
:10F8640036EFFCF038EFFCF02DEFFCF0D8900B36BF
:10F874000C360950075C0A500858D8A044EFFCF035
:10F8840046EFFCF04BEFFCF00950075E0A50085AB3
:10F894000B80D8900A3209320D2E38EFFCF00BC0E1
:10F8A40007F00CC008F0120085948598839E879C0D
:10F8B400050E0E01746F060E766F070E696F080E43
:10F8C400886FBD508F0B4009BD6EE00EBE16BF5051
:10F8D400F00B0109BF6E630EBC6EBD8E000EAA6EE6
:10F8E400000EA66E000E0F01256F000E216FFC0E98
:10F8F400AD16F30EAD16CF0EAD163F0EAD16AB889A
:10F90400AB50F00B0C09AB6EAB8EA788A750F00B75
:10F914000C09A76EA78E26892651F00B0C09266FB9
:10F92400268F22892251F00B0C09226F228F12009C
:10F93400B0EFFCF014C0D9FF15C0DAFF0A0EDF5E89
:10F94400680E186EE40EE82EFED7182EFCD700D0F1
:10F9540014C00EF015C00FF04BECFEF014C0D9FF2C
:10F9640015C0DAFFDF50D8A4BAEFFCF0BCEFFCF00E
:10F974009CEFFCF0D2EFFCF016C0D9FF17C0DAFF01
:10F984000A0EDF5E680E186EE40EE82EFED7182EFF
:10F99400FCD700D016C00EF017C00FF04BECFEF0F1
:10F9A40016C0D9FF17C0DAFFDF50D8A4DCEFFCF093
:10F9B400DEEFFCF0BEEFFCF0120020EE01F014507C
:10F9C400D9261550DA22010EDF6E20EE01F0165012
:10F9D400D9261750DA22000EDF6E000E1B6E000EC1
:10F9E4001A6E16C0D9FF17C0DAFF1AC0DFFF14C0A1
:10F9F400D9FF15C0DAFF1AC0DFFF020E196E380EE8
:10FA0400186EAD0EE82EFED7182EFCD7192EFAD795
:10FA140000F014C00EF015C00FF04BECFEF016C051
:10FA24000EF017C00FF04BECFEF00A0E1A26000E73
:10FA34001B221BBE27EFFDF01B5009E1500E1A5C80
:10FA4400D8A027EFFDF029EFFDF0F3EFFCF0040E52
:10FA5400196EA80E186E0C0EE82EFED7182EFCD7C1
:10FA6400192EFAD7120020EE01F01450D9261550A1
:10FA7400DA22000EDF6E20EE01F01650D926175060
:10FA8400DA22010EDF6E000E1B6E000E1A6E16C017
:10FA9400D9FF17C0DAFF1AC0DFFF14C0D9FF15C0A1
:10FAA400DAFF1AC0DFFF020E196E380E186EAD0EA3
:10FAB400E82EFED7182EFCD7192EFAD700F014C062
:10FAC4000EF015C00FF04BECFEF016C00EF017C090
:10FAD4000FF04BECFEF00A0E1A26000E1B221BBE82
:10FAE4007DEFFDF01B5009E1500E1A5CD8A07DEFAC
:10FAF400FDF07FEFFDF049EFFDF0040E196E400EAE
:10FB0400186E260EE82EFED7182EFCD7192EFAD71B
:10FB140000D0120020EE01F01950D9261A50DA2232
:10FB2400000EDF6E20EE01F01B50D9261C50DA22A5
:10FB3400000EDF6E000E206E000E1F6E19C0D9FF7E
:10FB44001AC0DAFF1FC0DFFF1BC0D9FF1CC0DAFFD9
:10FB54001FC0DFFF19C00EF01AC00FF04BECFEF00F
:10FB64001BC00EF01CC00FF04BECFEF0D00E1D6E4F
:10FB7400CA0EE82EFED71D2EFCD70A0E1F26000E35
:10FB8400202220BECFEFFDF0205009E13C0E1F5C87
:10FB9400D8A0CFEFFDF0D1EFFDF0A0EFFDF0520EB5
:10FBA4001E6E2B0E1D6E000EE82EFED71D2EFCD7EA
:10FBB4001E2EFAD700D019C014F01AC015F01BC0BD
:10FBC40016F01CC017F09AECFCF01200B5ECFBF038
:10FBD400EDECFBF002ECFCF056ECFCF0BCCF2BF0AF
:10FBE400000E2C6E010E2D6E010E2E6EAA0E316EBD
:10FBF4000F0E326EA60E336E0F0E346E2BC02FF026
:10FC0400306A000E356E010E366E010E376E250E0B
:10FC14003A6E0F0E3B6E210E3C6E0F0E3D6E2BC0E6
:10FC240038F0396A2C0E0E6E000E0F6E4BECFEF09F
:10FC3400350E0E6E000E0F6E4BECFEF0010E2A6EAA
:10FC44007C8E849E7C882C0E216E000E226E350ED6
:10FC5400236E000E246E2A5001ECFFF02C0E196E58
:10FC6400000E1A6E350E1B6E000E1C6E8CECFDF031
:10FC7400F40E296E820E286E050EE82EFED7282E6D
:10FC8400FCD7292EFAD700F07E8024EFFEF000EF97
:10FC940000F020EE02F00E50D9260F50DA22DF5089
:10FCA400D8B457EFFEF059EFFEF08DEFFEF00EC022
:10FCB400D9FF0FC0DAFFDF50106E1050016E026AD8
:10FCC40020EE03F00E50D9260F50DA22DECF03F0D7
:10FCD400DDCF04F0C6ECFBF001C007F002C008F071
:10FCE400000E0A6E640E096E1CECFCF020EE03F0AC
:10FCF4000E50D9260F50DA22DF50116E0750115CD6
:10FD0400126E20EE03F00E50D9260F50DA22DF5087
:10FD1400136EB0EFFEF0000E126E0EC0D9FF0FC0CE
:10FD2400DAFFDF50106E1050016E026A20EE03F00D
:10FD34000E50D9260F50DA22DECF03F0DDCF04F0C7
:10FD4400C6ECFBF001C007F002C008F0000E0A6E1A
:10FD5400640E096E1CECFCF00750136E20EE01F0EB
:10FD64000E50D9260F50DA22DF50D8B4BCEFFEF083
:10FD7400BEEFFEF0E0EFFEF020EE05F00E50D926C7
:10FD84000F50DA22DECF10F0DDCF11F010C0D9FF12
:10FD940011C0DAFF12C0DFFF20EE07F00E50D926A3
:10FDA4000F50DA22DECF10F0DDCF11F010C0D9FFF2
:10FDB40011C0DAFF13C0DFFF00EFFFF020EE05F003
:10FDC4000E50D9260F50DA22DECF10F0DDCF11F01D
:10FDD40010C0D9FF11C0DAFF13C0DFFF20EE07F017
:10FDE4000E50D9260F50DA22DECF10F0DDCF11F0FD
:10FDF40010C0D9FF11C0DAFF12C0DFFF1200276E56
:10FE0400CEEFFFF021C014F022C015F023C016F08D
:10FE140024C017F0DFECFCF021C014F022C015F070
:10FE240023C016F024C017F09AECFCF0FFEFFFF0AB
:10FE340021C014F022C015F023C016F024C017F01E
:10FE440035ECFDF021C014F022C015F023C016F0EB
:10FE540024C017F035ECFDF021C014F022C015F0D9
:10FE640023C016F024C017F09AECFCF0FFEFFFF06B
:10FE740021C014F022C015F023C016F024C017F0DE
:10FE8400DFECFCF021C014F022C015F023C016F002
:10FE940024C017F0DFECFCF021C014F022C015F0F0
:10FEA40023C016F024C017F09AECFCF0FFEFFFF02B
:10FEB40021C019F022C01AF023C01BF024C01CF08A
:10FEC4008CECFDF021C014F022C015F023C016F014
:10FED40024C017F035ECFDF021C014F022C015F059
:10FEE40023C016F024C017F09AECFCF0FFEFFFF0EB
:10FEF40021C014F022C015F023C016F024C017F05E
:10FF0400DFECFCF021C014F022C015F023C016F081
:10FF140024C017F0DFECFCF021C014F022C015F06F
:10FF240023C016F024C017F0DFECFCF021C014F05D
:10FF340022C015F023C016F024C017F09AECFCF090
:10FF4400FFEFFFF021C014F022C015F023C016F01B
:10FF540024C017F035ECFDF021C014F022C015F0D8
:10FF640023C016F024C017F035ECFDF021C014F0C6
:10FF740022C015F023C016F024C017F035ECFDF0B4
:10FF840021C014F022C015F023C016F024C017F0CD
:10FF94009AECFCF0FFEFFFF02750256E266A2650FE
:10FFA400000AD8B4D8EFFFF0FFEFFFF02550000AA5
:10FFB400D8B404EFFFF0010AD8B41AEFFFF0030A33
:10FFC400D8B43AEFFFF0010AD8B404EFFFF0070AFF
:10FFD400D8B45AEFFFF0010AD8B47AEFFFF0030A5D
:10FFE400D8B4A4EFFFF0010AD8B4FFEFFFF00F0A72
:0CFFF400D8B4FFEFFFF0FFEFFFF01200A9
:020000040020DA
:10000000FF0FFF0FFF0FFF0FFF0FFF0FFF0FFF0F80
:020000040030CA
:0C000000AAFFFFFF9FFFFFFFFFFFFFFFB5
:00000001FF
