:040000002EEF00F0EF
:100018005B80D8CF01F0E8CF02F0E0CF03F00E010B
:1000280033AB19EF00F01BEF00F026EF00F03C0EA9
:10003800D46EAF0ED36E000E0001DC6F010EDB6FC5
:100048000E01339B03C0E0FF02C0E8FF01C0D8FFE8
:080058005B90100034EF95F0FD
:10FEF200000A2045585045435445443A20436C6516
:10FF020061722025642C522025642C204720256410
:10FF12002C20422025642020434152443A2025646B
:10FF2200200A000A204156473A20436C656172203C
:10FF320025642C20522025642C20472025642C2067
:10FF420042202564200A0054696D6572636F756EE4
:10FF5200742061727261792072656164696E6720D2
:10FF62002564200A004361726420676F6E6E61200F
:10FF7200726573706F6E6420746F202564200A00AE
:10FF820054696D6572636F756E742025642C2074DC
:10FF9200696D6520256420200A0043617264636FE5
:10FFA200756E742025642C206361726420256420A0
:10FFB200200A0054696D6520676F6E6E61206D6F57
:10FFC200766520666F72202564200A000A20457833
:10FFD20070656374656420636C6561723A202564A0
:10FFE200200A0043617264636F756E742025642079
:0DFFF2000A0043415244202564200A00000B
:020000040001F9
:10000000B9EF83F084C017F085C018F086C019F0EE
:1000100087C01AF05AEC92F00D0E00018F6F2D0E72
:100020008E6FD70EE82EFED78E2FFCD78F2FFAD7E4
:1000300000D084C017F085C018F086C019F087C0C2
:100040001AF0ACEC91F084C017F085C018F086C0AF
:1000500019F087C01AF013EC94F084C017F085C033
:1000600018F086C019F087C01AF0ACEC91F084C08B
:1000700017F085C018F086C019F087C01AF013EC8D
:1000800094F0EBEF83F084C017F085C018F086C0C1
:1000900019F087C01AF05AEC92F00D0E00018F6F24
:1000A0002D0E8E6FD70EE82EFED78E2FFCD78F2FFA
:1000B000FAD700D084C017F085C018F086C019F0B8
:1000C00087C01AF003EC92F084C017F085C018F0D6
:1000D00086C019F087C01AF013EC94F084C017F0B2
:1000E00085C018F086C019F087C01AF003EC92F0B2
:1000F00037EF80F084C017F085C018F086C019F083
:1001000087C01AF05AEC92F00D0E00018F6F2D0E81
:100110008E6FD70EE82EFED78E2FFCD78F2FFAD7F3
:1001200000D084C017F085C018F086C019F087C0D1
:100130001AF0ACEC91F084C017F085C018F086C0BE
:1001400019F087C01AF013EC94F084C017F085C042
:1001500018F086C019F087C01AF0ACEC91F084C09A
:1001600017F085C018F086C019F087C01AF013EC9C
:1001700094F019EF80F084C017F085C018F086C0A5
:1001800019F087C01AF05AEC92F00D0E00018F6F33
:100190002D0E8E6FD70EE82EFED78E2FFCD78F2F09
:1001A000FAD700D0310E00018F6FB40E8E6F650E3E
:1001B000E82EFED78E2FFCD78F2FFAD700D084C021
:1001C00017F085C018F086C019F087C01AF013EC3C
:1001D00094F084C017F085C018F086C019F087C06D
:1001E0001AF0ACEC91F084C017F085C018F086C00E
:1001F00019F087C01AF013EC94F084C017F085C092
:1002000018F086C019F087C01AF0ACEC91F084C0E9
:1002100017F085C018F086C019F087C01AF013ECEB
:1002200094F0EBEF83F084C017F085C018F086C01F
:1002300019F087C01AF05AEC92F00D0E00018F6F82
:100240002D0E8E6FD70EE82EFED78E2FFCD78F2F58
:10025000FAD700D0310E00018F6FB40E8E6F650E8D
:10026000E82EFED78E2FFCD78F2FFAD700D084C070
:1002700017F085C018F086C019F087C01AF013EC8B
:1002800094F084C017F085C018F086C019F087C0BC
:100290001AF003EC92F084C017F085C018F086C005
:1002A00019F087C01AF013EC94F084C017F085C0E1
:1002B00018F086C019F087C01AF003EC92F084C0E1
:1002C00017F085C018F086C019F087C01AF013EC3B
:1002D00094F0EBEF83F084C017F085C018F086C06F
:1002E00019F087C01AF05AEC92F00D0E00018F6FD2
:1002F0002D0E8E6FD70EE82EFED78E2FFCD78F2FA8
:10030000FAD700D0A5EF80F084C017F085C018F0B0
:1003100086C019F087C01AF05AEC92F00D0E000159
:100320008F6F2D0E8E6FD70EE82EFED78E2FFCD737
:100330008F2FFAD700D084C017F085C018F086C080
:1003400019F087C01AF003EC92F084C017F085C052
:1003500018F086C019F087C01AF013EC94F05AEF29
:1003600080F084C017F085C018F086C019F087C0EF
:100370001AF013EC94F084C017F085C018F086C012
:1003800019F087C01AF003EC92F084C017F085C012
:1003900018F086C019F087C01AF013EC94F084C0EE
:1003A00017F085C018F086C019F087C01AF003EC6A
:1003B00092F084C017F085C018F086C019F087C08D
:1003C0001AF013EC94F084C017F085C018F086C0C2
:1003D00019F087C01AF003EC92F084C017F085C0C2
:1003E00018F086C019F087C01AF013EC94F084C09E
:1003F00017F085C018F086C019F087C01AF003EC1A
:1004000092F084C017F085C018F086C019F087C03C
:100410001AF013EC94F0000E0001996F000E986F23
:1004200081C066F082C067F0820E686FFF0E696F50
:1004300098C06AF099C06BF0D8909835D96E99350C
:10044000DA6E8851D9268951DA22DECF6CF0DDCF01
:100450006DF06BEC94F081C005F082C006F0D5EC35
:1004600095F081C066F082C067F09C0E0001686F55
:10047000FF0E696F98C06AF099C06BF098518A2599
:10048000D96E99518B21DA6EDF508E6F8E516C6F61
:100490006D6B6BEC94F081C005F082C006F0D5EC7A
:1004A00095F0520E00018F6F2B0E8E6F000EE82E0E
:1004B000FED78E2FFCD78F2FFAD700F00001984B74
:1004C000992B99BF6DEF82F0995109E1060E985D65
:1004D000D8A06DEF82F06FEF82F010EF82F0000E87
:1004E0009B6F1C0E9A6F9BBF7AEF82F078EF82F0C1
:1004F0007CEF82F03DEF83F09AC08EF09BC08FF0CE
:10050000D8908E378F378E518825906F8F518921E3
:10051000916F020E9025D96E000E9121DA6EDE5099
:10052000DE10D8B496EF82F098EF82F037EF83F0C8
:1005300084C017F085C018F086C019F087C01AF083
:10054000A0EC92F081C066F082C067F0B50E0001A9
:10055000686FFF0E696F9AC08EF09BC08FF0D890C5
:100560008E378F378E518825906F8F518921916FEB
:10057000020E9025D96E000E9121DA6EDECF6AF060
:10058000DDCF6BF06BEC94F081C005F082C006F01B
:10059000D5EC95F0000E0001956F000E946FE1EF21
:1005A00082F0090E00018F6F1E0E8E6FE40EE82E92
:1005B000FED78E2FFCD78F2FFAD700F00001944B77
:1005C000952B9AC08EF09BC08FF0D8908E378F37C6
:1005D0008E518825906F8F518921916F020E902541
:1005E000D96E000E9121DA6E9451DE5C9551DE5881
:1005F000D8B0FDEF82F0FFEF82F0D1EF82F084C03F
:1006000017F085C018F086C019F087C01AF013ECF7
:1006100094F081C066F082C067F0670E0001686FD9
:10062000FF0E696F9A518A25D96E9B518B21DA6E24
:10063000DF508E6F8E516A6F6B6B6BEC94F081C0E4
:1006400005F082C006F0D5EC95F084C01FF085C09F
:1006500020F086C021F087C022F000019A518A253F
:10066000D96E9B518B21DA6EDF50A6EC86F000012B
:100670009A07D8A09B0773EF82F081C066F082C012
:1006800067F0B50E686FFF0E696F88C0D9FF89C02B
:10069000DAFFDECF6AF0DDCF6BF06BEC94F081C057
:1006A00005F082C006F0D5EC95F084C017F085C047
:1006B00018F086C019F087C01AF0A0EC92F0000E76
:1006C0000001976F000E966F76EF83F0090E000120
:1006D0008F6F1E0E8E6FE40EE82EFED78E2FFCD786
:1006E0008F2FFAD700F00001964B972B88C0D9FFC7
:1006F00089C0DAFF9651DE5C9751DE58D8B083EF9F
:1007000083F085EF83F066EF83F084C017F085C037
:1007100018F086C019F087C01AF013EC94F08CC062
:10072000D9FF8DC0DAFF010EDE6E000EDD6EEBEF3D
:1007300083F08086110E00018F6F3C0E8E6FCB0E02
:10074000E82EFED78E2FFCD78F2FFAD78096EBEFAF
:1007500083F08082290E00018F6F960E8E6F7F0EC0
:10076000E82EFED78E2FFCD78F2FFAD78092EBEF93
:1007700083F0000183518E6F8F6B8F51000AD8B4C4
:10078000C4EF83F0A9EF83F08E51000AD8B402EFD2
:1007900080F0010AD8B443EF80F0030AD8B47AEFAE
:1007A00080F0010AD8B4BBEF80F0070AD8B413EF89
:1007B00081F0010AD8B46BEF81F0030AD8B484EF5A
:1007C00081F0010AD8B4B1EF81F00F0AD8B499EFE3
:1007D00083F0A9EF83F0120002EC96F0EDEC95F0B7
:1007E000BBEC95F0E6EC92F053EC96F017EC96F03B
:1007F00086840E01B495BCCFB3F0000E0101F76FF3
:10080000010EF86F010EF96FAA0EFC6F0F0EFD6F4F
:10081000A60EFE6F0F0EFF6FB3C0FAF1FB6B000E5A
:100820000201A26F010EA36F010EA46F250EA76F28
:100830000F0EA86F210EA96F0F0EAA6FB3C0A5F2FD
:10084000A66BF70E116E010E126E1DEC8EF0A20E4D
:10085000116E020E126E1DEC8EF0000E0001BC6FC8
:10086000000EBB6F000EBE6F000EBD6F000E0101CB
:10087000F36F000EF26F000EF66F000EF56F000EB4
:100880000001B66F000EB56F000E0101F16F000E92
:10089000F06F000E0001B86F000EB76F22EE1EF071
:1008A0003B0EDE6AE806FDE222EEABF012EE00F04F
:1008B0001D0EDBCFE3FFE806FCE2000EBA6F000E70
:1008C000B96F7C98000E0101F46F68EF84F07C88AA
:1008D0008EB46DEF84F06FEF84F067EF84F07C9856
:1008E000090E576E1E0E566EE40EE82EFED7562EDB
:1008F000FCD7572EFAD700D0F70E176E010E186EE0
:10090000A20E196E020E1A6E13EC94F0020E576EC0
:10091000A00E566E920EE82EFED7562EFCD7572EFE
:10092000FAD700D0F70E176E010E186EA20E196ED0
:10093000020E1A6E5AEC92F00F0E576E350E566E6E
:10094000510EE82EFED7562EFCD7572EFAD700F0C0
:10095000F70E176E010E186EA20E196E020E1A6EA9
:1009600013EC94F0F50E0F6E010E106EBB0E116EAF
:10097000000E126EBD0E136E000E146EF20E156E8A
:10098000010E166E63EC8BF00101F451020D5A0E4C
:10099000F324D96E020EF420DA6EBBC0DEFFBCC0B9
:1009A000DDFFF451020D120EF326000EF4225A0E52
:1009B000F324D96E020EF420DA6EBDC0DEFFBEC095
:1009C000DDFFF451020D240EF326000EF4225A0E20
:1009D000F324D96E020EF420DA6EF2C1DEFFF3C109
:1009E000DDFFF451020D360EF326000EF4225A0EEE
:1009F000F324D96E020EF420DA6EF5C1DEFFF6C1E3
:100A0000DDFF5A0E0001666F010E676FF30E686F0F
:100A1000FE0E696FF5C16AF0F6C16BF0BBC06CF0F9
:100A2000BCC06DF0BDC06EF0BEC06FF0F2C170F022
:100A3000F3C171F0F4C172F0736B6BEC94F05A0E69
:100A4000056E010E066ED5EC95F00101F42B080E33
:100A5000F4652DEF85F02FEF85F068EF84F07C884A
:100A600033EF85F07C988EB438EF85F03AEF85F05F
:100A700032EF85F05A0E0001816F010E826FF50E84
:100A8000836F010E846FB70E856F000E866F34EC96
:100A900090F05A0E0001666F010E676FCE0E686F00
:100AA000FF0E696FF5C16AF0F6C16BF06BEC94F064
:100AB0005A0E056E010E066ED5EC95F08EB463EFFE
:100AC00085F065EF85F05EEF85F0F70E176E010E8D
:100AD000186EA20E196E020E1A6EA0EC92F00001B2
:100AE000DB05DC11D8A477EF85F079EF85F0A5EF71
:100AF00085F0B54BB62BB5C004F0B6C005F0000EBE
:100B0000076E0A0E066EE1EC93F004500510D8A4AF
:100B10008CEF85F08EEF85F0A0EF85F080A693EF47
:100B200085F097EF85F0566A562A98EF85F0566A59
:100B300056465646564680505618F70B5618806E45
:100B4000000E0001DC6F000EDB6FE4EC94F008C0D7
:100B5000F5F109C0F6F10101F5510001B75D0101A0
:100B6000F6510001B859D8B0B8EF85F0BAEF85F06A
:100B70006FEF85F0B951BA11D8A4C1EF85F0C3EF7A
:100B800085F06FEF85F05A0E666F010E676FE50E08
:100B9000686FFF0E696FF0C16AF0F1C16BF06BEC2A
:100BA00094F05A0E056E010E066ED5EC95F0FD0E12
:100BB0000001B525566EFF0EB621576ED890010183
:100BC000F035D96EF135DA6E1E0ED926020EDA2214
:100BD00056C0DEFF57C0DDFF5A0E0001666F010EE2
:100BE000676F490E686FFF0E696FD8900101F0358D
:100BF000D96EF135DA6E1E0ED926020EDA22DECF5C
:100C00006AF0DDCF6BF06BEC94F05A0E056E010EBE
:100C1000066ED5EC95F02A0E566E8E0EE82EFED797
:100C2000562EFCD7F70E176E010E186EA20E196E17
:100C3000020E1A6E13EC94F0020E576EA00E566E52
:100C4000920EE82EFED7562EFCD7572EFAD700D09C
:100C5000F70E176E010E186EA20E196E020E1A6EA6
:100C60005AEC92F00F0E576E350E566E510EE82E5E
:100C7000FED7562EFCD7572EFAD700F0F70E176E78
:100C8000010E186EA20E196E020E1A6E13EC94F07D
:100C90002A0E566E8E0EE82EFED7562EFCD75A0E12
:100CA00000019C6F010E9D6FF50E9E6F010E9F6FF0
:100CB000BB0EA06F000EA16FBD0EA26F000EA36F42
:100CC000F20EA46F010EA56F5A0EA66F020EA76F4B
:100CD000B4C0A8F0F70EA96F010EAA6FA20EAB6FF9
:100CE000020EAC6F1E0EAD6F020EAE6F000EAF6F38
:100CF000020EB06FB90EB16F000EB26F64EC8DF0E2
:100D00000001B46F2A0E566E8E0EE82EFED7562EB8
:100D1000FCD7000E0101F025D96E020EF121DA6E2A
:100D2000B4C0DFFFF04BF12B000E0001B66F000ED8
:100D3000B56FB951BA11D8A4A0EF86F0A2EF86F032
:100D40006FEF85F065EF85F02EEF00F0266E000E58
:100D5000256E7C8E090E246E1E0E236EE40EE82E88
:100D6000FED7232EFCD7242EFAD700D07C9E090E66
:100D7000246E1E0E236EE40EE82EFED7232EFCD723
:100D8000242EFAD700D0252A2550265CD8B0CBEFE8
:100D900086F0CDEF86F0A9EF86F085EF88F01FC0D2
:100DA00017F020C018F021C019F022C01AF003EC8F
:100DB00092F01FC017F020C018F021C019F022C017
:100DC0001AF013EC94F01FC017F020C018F021C0E7
:100DD00019F022C01AF003EC92F01FC017F020C0E7
:100DE00018F021C019F022C01AF013EC94F0B2EF01
:100DF00088F01FC017F020C018F021C019F022C0E1
:100E00001AF0ACEC91F01FC017F020C018F021C010
:100E100019F022C01AF013EC94F01FC017F020C094
:100E200018F021C019F022C01AF0ACEC91F01FC0EC
:100E300017F020C018F021C019F022C01AF013ECEE
:100E400094F0B2EF88F01FC017F020C018F021C056
:100E500019F022C01AF0ACEC91F01FC017F020C0BE
:100E600018F021C019F022C01AF013EC94F01FC042
:100E700017F020C018F021C019F022C01AF0ACEC15
:100E800091F01FC017F020C018F021C019F022C047
:100E90001AF013EC94F01FC017F020C018F021C016
:100EA00019F022C01AF0ACEC91F01FC017F020C06E
:100EB00018F021C019F022C01AF013EC94F01FC0F2
:100EC00017F020C018F021C019F022C01AF0ACECC5
:100ED00091F01FC017F020C018F021C019F022C0F7
:100EE0001AF013EC94F0B2EF88F01FC017F020C096
:100EF00018F021C019F022C01AF013EC94F01FC0B2
:100F000017F020C018F021C019F022C01AF003EC2D
:100F100092F01FC017F020C018F021C019F022C0B5
:100F20001AF013EC94F01FC017F020C018F021C085
:100F300019F022C01AF003EC92F01FC017F020C085
:100F400018F021C019F022C01AF013EC94F01FC061
:100F500017F020C018F021C019F022C01AF0A0EC40
:100F600092F0290E246E960E236E7F0EE82EFED789
:100F7000232EFCD7242EFAD700F0B2EF88F01FC042
:100F800017F020C018F021C019F022C01AF013EC9D
:100F900094F01FC017F020C018F021C019F022C033
:100FA0001AF0ACEC91F01FC017F020C018F021C06F
:100FB00019F022C01AF013EC94F01FC017F020C0F3
:100FC00018F021C019F022C01AF0ACEC91F01FC04B
:100FD00017F020C018F021C019F022C01AF013EC4D
:100FE00094F01FC017F020C018F021C019F022C0E3
:100FF0001AF0A0EC92F0B1EF87F01FC017F020C0FC
:1010000018F021C019F022C01AF003EC92F01FC0B2
:1010100017F020C018F021C019F022C01AF013EC0C
:1010200094F01FC017F020C018F021C019F022C0A2
:101030001AF003EC92F01FC017F020C018F021C086
:1010400019F022C01AF013EC94F01FC017F020C062
:1010500018F021C019F022C01AF003EC92F01FC062
:1010600017F020C018F021C019F022C01AF013ECBC
:1010700094F0B2EF88F01FC017F020C018F021C024
:1010800019F022C01AF0ACEC91F01FC017F020C08C
:1010900018F021C019F022C01AF013EC94F01FC010
:1010A00017F020C018F021C019F022C01AF0ACECE3
:1010B00091F01FC017F020C018F021C019F022C015
:1010C0001AF013EC94F01FC017F020C018F021C0E4
:1010D00019F022C01AF0ACEC91F01FC017F020C03C
:1010E00018F021C019F022C01AF013EC94F0B2EFFE
:1010F00088F01FC017F020C018F021C019F022C0DE
:101100001AF013EC94F0B2EF88F02650236E246AA4
:101110002450000AD8B48FEF88F0B2EF88F0235043
:10112000000AD8B4CFEF86F0010AD8B4F9EF86F000
:10113000030AD8B423EF87F0010AD8B475EF87F01B
:10114000070AD8B4BFEF87F0010AD8B4FDEF87F0E3
:10115000030AD8B43BEF88F0010AD8B479EF88F0DD
:10116000B2EF88F01200000E326E3250020DF3CF53
:1011700028F0F4CF29F028502424D96E29502520B6
:10118000DA6EDECF2AF0DDCF2BF02A501E5C166E11
:101190002B501F58176E9BEC95F016C030F017C0FF
:1011A00031F030C004F031C005F0000E076E640E5F
:1011B000066E40EC96F004C00AF005C00BF0325009
:1011C000020DF3CF28F0F4CF29F028502424D96E53
:1011D00029502520DA6EDECF0CF0DDCF0DF0A7EC24
:1011E00093F03250020DF3CF2AF0F4CF2BF02A50B7
:1011F0002624D96E2B502720DA6E0AC0DEFF0BC0E2
:10120000DDFF3250020DF3CF28F0F4CF29F0285043
:1012100024242A6E295025202B6E120E2A24D96EE2
:10122000000E2B20DA6EDECF2CF0DDCF2DF02C500F
:10123000205C166E2D502158176E9BEC95F016C051
:1012400030F017C031F030C004F031C005F0000EAE
:10125000076E640E066E40EC96F004C00AF005C0FE
:101260000BF03250020DF3CF28F0F4CF29F02850C4
:1012700024242A6E295025202B6E120E2A24D96E82
:10128000000E2B20DA6EDECF0CF0DDCF0DF0A7ECD8
:1012900093F03250020DF3CF2CF0F4CF2DF02C5000
:1012A00026242E6E2D5027202F6E120E2E24D96E3E
:1012B000000E2F20DA6E0AC0DEFF0BC0DDFF3250B9
:1012C000020DF3CF28F0F4CF29F0285024242A6E01
:1012D000295025202B6E240E2A24D96E000E2B2097
:1012E000DA6EDECF2CF0DDCF2DF02C50225C166EA6
:1012F0002D502358176E9BEC95F016C030F017C098
:1013000031F030C004F031C005F0000E076E640EFD
:10131000066E40EC96F004C00AF005C00BF03250A7
:10132000020DF3CF28F0F4CF29F0285024242A6EA0
:10133000295025202B6E240E2A24D96E000E2B2036
:10134000DA6EDECF0CF0DDCF0DF0A7EC93F032506B
:10135000020DF3CF2CF0F4CF2DF02C5026242E6E5E
:101360002D5027202F6E240E2E24D96E000E2F20F4
:10137000DA6E0AC0DEFF0BC0DDFF3250020DF3CF84
:1013800028F0F4CF29F0285024242A6E2950252053
:101390002B6E360E2A24D96E000E2B20DA6EDECF8D
:1013A0002CF0DDCF2DF02C501C5C166E2D501D58EE
:1013B000176E9BEC95F016C030F017C031F030C0BE
:1013C00004F031C005F0000E076E640E066E40ECAE
:1013D00096F004C00AF005C00BF03250020DF3CFB6
:1013E00028F0F4CF29F0285024242A6E29502520F3
:1013F0002B6E360E2A24D96E000E2B20DA6EDECF2D
:101400000CF0DDCF0DF0A7EC93F03250020DF3CFCE
:101410002CF0F4CF2DF02C5026242E6E2D502720AA
:101420002F6E360E2E24D96E000E2F20DA6E0AC0D3
:10143000DEFF0BC0DDFF322A080E326422EF8AF095
:1014400024EF8AF0B5EF88F0120021C037F022C0F7
:1014500038F023C039F024C03AF025C03BF026C054
:101460003CF027C03DF028C03EF03EBE3AEF8AF087
:101470003DEF8AF0010E3EEF8AF0000E3F6E3F50C6
:10148000D8B445EF8AF047EF8AF057EF8AF03E1E56
:101490003D1E3C1E3B1E3A1E391E381E376C000E88
:1014A000382239223A223B223C223D223E220001B0
:1014B000D6BF65EF8AF0D65106E1D505D8B063EF07
:1014C0008AF065EF8AF06BEF8AF0000E346E010E41
:1014D000336E6FEF8AF0D5C033F0D6C034F0D3C08E
:1014E00035F0D4C036F03F50D8B479EF8AF07BEFB6
:1014F0008AF092EF8AF03506D8A036063F50D8A47D
:1015000084EF8AF086EF8AF08CEF8AF0000E326E5C
:101510002B0E316E90EF8AF0000E326E2D0E316E72
:1015200031C03FF0000E416E1F0E406E000EFE6F88
:1015300016EF8BF04006D8A04106DF0E4024D96E8E
:10154000000E4120DA6E37C004F038C005F039C013
:1015500006F03AC007F03BC008F03CC009F03DC0BF
:101560000AF03EC00BF00A0E0C6E000E0D6E000E5F
:101570000E6E000E0F6E000E106E000E116E000E3D
:10158000126E000E136ED3EC8EF004C029F005C06D
:101590002AF006C02BF007C02CF008C02DF009C0BF
:1015A0002EF00AC02FF00BC030F029C016F02AC070
:1015B00017F09BEC95F01650300FDF6E3306D8A075
:1015C00034063506D8A0360637C004F038C005F01A
:1015D00039C006F03AC007F03BC008F03CC009F043
:1015E0003DC00AF03EC00BF00A0E0C6E000E0D6EF0
:1015F000000E0E6E000E0F6E000E106E000E116EBD
:10160000000E126E000E136EA0EC8CF004C037F0CA
:1016100005C038F006C039F007C03AF008C03BF00A
:1016200009C03CF00AC03DF00BC03EF041BE21EFC6
:101630008BF0415008E14004D8A021EF8BF023EF5C
:101640008BF03FEF8BF03750381039103A103B10C9
:101650003C103D103E10D8A430EF8BF032EF8BF0F1
:101660009AEF8AF034BE3FEF8BF0345006E133043A
:10167000D8B03DEF8BF03FEF8BF09AEF8AF03F5000
:10168000D8B445EF8BF047EF8BF052EF8BF040066C
:10169000D8A04106DF0E4024D96E000E4120DA6E3C
:1016A0003FC0DFFF1FC014F020C015F0DF0E402444
:1016B000166E000E4120176E35C018F036C019F0B6
:1016C0006AEC93F01200000E1A6E000E196EE4EC34
:1016D00094F00FC0D9FF10C0DAFF08C0DEFF09C0C8
:1016E000DDFF94EC94F011C0D9FF12C0DAFF08C0FE
:1016F000DEFF09C0DDFFBCEC94F013C0D9FF14C0BD
:10170000DAFF08C0DEFF09C0DDFF0CEC95F015C064
:10171000D9FF16C0DAFF08C0DEFF09C0DDFF194A95
:101720001A2A1ABE9DEF8BF0F50E195C010E1A589D
:10173000D8A09DEF8BF09FEF8BF067EF8BF0000E42
:101740001C6E000E1B6EE4EC94F00FC0D9FF10C0AD
:10175000DAFF0850DE260950DD22110E186E3C0E0D
:10176000176ECB0EE82EFED7172EFCD7182EFAD701
:1017700000F01B4A1C2A1CBEC7EF8BF01C5009E16D
:10178000030E1B5CD8A0C7EF8BF0C9EF8BF0A3EF63
:101790008BF00FC0D9FF10C0DAFFDECF17F0DDCF1E
:1017A00018F0D89018321732D890183217320FC06C
:1017B000D9FF10C0DAFF17C0DEFF18C0DDFF000E32
:1017C0001E6E000E1D6E94EC94F011C0D9FF12C075
:1017D000DAFF0850DE260950DD22110E186E3C0E8D
:1017E000176ECB0EE82EFED7172EFCD7182EFAD781
:1017F00000F01D4A1E2A1EBE07EF8CF01E5009E1A4
:10180000030E1D5CD8A007EF8CF009EF8CF0E3EF1E
:101810008BF011C0D9FF12C0DAFFDECF17F0DDCF99
:1018200018F0D89018321732D8901832173211C0E9
:10183000D9FF12C0DAFF17C0DEFF18C0DDFF000EAF
:10184000206E000E1F6EBCEC94F013C0D9FF14C0C4
:10185000DAFF0850DE260950DD22110E186E3C0E0C
:10186000176ECB0EE82EFED7172EFCD7182EFAD700
:1018700000F01F4A202A20BE47EF8CF0205009E1DB
:10188000030E1F5CD8A047EF8CF049EF8CF023EFDC
:101890008CF013C0D9FF14C0DAFFDECF17F0DDCF14
:1018A00018F0D89018321732D8901832173213C067
:1018B000D9FF14C0DAFF17C0DEFF18C0DDFF000E2D
:1018C000226E000E216E0CEC95F015C0D9FF16C0EB
:1018D000DAFF0850DE260950DD22110E186E3C0E8C
:1018E000176ECB0EE82EFED7172EFCD7182EFAD780
:1018F00000F0214A222A22BE87EF8CF0225009E113
:10190000030E215CD8A087EF8CF089EF8CF063EF99
:101910008CF015C0D9FF16C0DAFFDECF17F0DDCF8F
:1019200018F0D89018321732D8901832173215C0E4
:10193000D9FF16C0DAFF17C0DEFF18C0DDFF1200A6
:10194000000E156E13BEA9EF8CF0A7EF8CF0BBEF65
:101950008CF0131E121E111E101E0F1E0E1E0D1EC9
:101960000C6C000E0D220E220F22102211221222C8
:101970001322010E156E0BBEC2EF8CF0C0EF8CF07F
:10198000D4EF8CF00B1E0A1E091E081E071E061E31
:10199000051E046C000E05220622072208220922D9
:1019A0000A220B22010E151A20EE16F0070EDE6A2F
:1019B000E806FDE20C500D100E100F101010111063
:1019C00012101310D8B4E7EF8CF0E9EF8CF03BEF76
:1019D0008DF0010E146EF7EF8CF0D8900C360D36AA
:1019E0000E360F361036113612361336142A13AE51
:1019F000FCEF8CF0FEEF8CF0EDEF8CF0D89016360B
:101A00001736183619361A361B361C361D360C504A
:101A1000045C0D5005580E5006580F5007581050D2
:101A200008581150095812500A5813500B58D8A092
:101A30001CEF8DF01EEF8DF02FEF8DF00C50045E3B
:101A40000D50055A0E50065A0F50075A1050085A9A
:101A50001150095A12500A5A13500B5A1680D89036
:101A600013321232113210320F320E320D320C326A
:101A7000142EFEEF8CF01550D8B441EF8DF043EFEB
:101A80008DF053EF8DF01D1E1C1E1B1E1A1E191EFD
:101A9000181E171E166C000E1722182219221A2261
:101AA0001B221C221D2216C004F017C005F018C00E
:101AB00006F019C007F01AC008F01BC009F01CC0DE
:101AC0000AF01DC00BF012009EC00FF09FC010F076
:101AD000A0C011F0A1C012F0A2C013F0A3C014F076
:101AE000A4C015F0A5C016F063EC8BF09CC066F0A6
:101AF0009DC067F0250E0001686FFF0E696F9EC0E4
:101B0000D9FF9FC0DAFFDECF6AF0DDCF6BF0A0C057
:101B1000D9FFA1C0DAFFDECF6CF0DDCF6DF0A2C03F
:101B2000D9FFA3C0DAFFDECF6EF0DDCF6FF0A4C027
:101B3000D9FFA5C0DAFFDECF70F0DDCF71F06BEC1E
:101B400094F09CC005F09DC006F0D5EC95F09CC0CB
:101B50001AF09DC01BF09EC0D9FF9FC0DAFFDECFF8
:101B60001CF0DDCF1DF0A0C0D9FFA1C0DAFFDECF91
:101B70001EF0DDCF1FF0A2C0D9FFA3C0DAFFDECF79
:101B800020F0DDCF21F0A4C0D9FFA5C0DAFFDECF61
:101B900022F0DDCF23F0A6C024F0A7C025F0000E70
:101BA000266E010E276EB3EC88F09CC004F09DC039
:101BB00005F0000E066E010E076E480E086E010E4F
:101BC000096EC1EC90F0480E046E010E056E2AEC11
:101BD00093F00001A86F9CC066F09DC067F0F40E02
:101BE000686FFF0E696FA8C06AF06B6B6BEC94F0C6
:101BF0009CC005F09DC006F0D5EC95F09CC081F02E
:101C00009DC082F0A8C083F0A9C084F0AAC085F06E
:101C1000ABC086F0ACC087F0ADC088F0AEC089F034
:101C2000AFC08AF0B0C08BF0B1C08CF0B2C08DF004
:101C300000EC80F00001A851120020EE02F01150DB
:101C4000D9261250DA22DF50D8B429EF8EF02BEFCC
:101C50008EF05FEF8EF011C0D9FF12C0DAFFDF50B7
:101C6000136E1350046E056A20EE03F01150D9264E
:101C70001250DA22DECF06F0DDCF07F040EC96F00E
:101C800004C00AF005C00BF0000E0D6E640E0C6E61
:101C9000A7EC93F020EE03F01150D9261250DA226F
:101CA000DF50146E0A50145C156E20EE03F01150D4
:101CB000D9261250DA22DF50166E82EF8EF0000E17
:101CC000156E11C0D9FF12C0DAFFDF50136E13502A
:101CD000046E056A20EE03F01150D9261250DA2264
:101CE000DECF06F0DDCF07F040EC96F004C00AF03E
:101CF00005C00BF0000E0D6E640E0C6EA7EC93F099
:101D00000A50166E20EE01F01150D9261250DA2238
:101D1000DF50D8B48EEF8EF090EF8EF0B2EF8EF0F1
:101D200020EE05F01150D9261250DA22DECF13F042
:101D3000DDCF14F013C0D9FF14C0DAFF15C0DFFFE8
:101D400020EE07F01150D9261250DA22DECF13F020
:101D5000DDCF14F013C0D9FF14C0DAFF16C0DFFFC7
:101D6000D2EF8EF020EE05F01150D9261250DA2273
:101D7000DECF13F0DDCF14F013C0D9FF14C0DAFFAB
:101D800016C0DFFF20EE07F01150D9261250DA22DC
:101D9000DECF13F0DDCF14F013C0D9FF14C0DAFF8B
:101DA00015C0DFFF1200000E156E0BBEDCEF8EF0CB
:101DB000DAEF8EF0EEEF8EF00B1E0A1E091E081EE3
:101DC000071E061E051E046C000E052206220722B1
:101DD000082209220A220B22010E156E13BEF5EF0E
:101DE0008EF0F3EF8EF005EF8FF0131E121E111E12
:101DF000101E0F1E0E1E0D1E0C6C000E0D220E224C
:101E00000F2210221122122213220C500D100E103C
:101E10000F101010111012101310D8B412EF8FF011
:101E200014EF8FF05CEF8FF0010E146E22EF8FF045
:101E3000D8900C360D360E360F3610361136123657
:101E40001336142A13AE27EF8FF029EF8FF018EF17
:101E50008FF00C50045C0D5005580E5006580F5072
:101E60000758105008581150095812500A5813506A
:101E70000B58D8A03EEF8FF040EF8FF050EF8FF06F
:101E80000C50045E0D50055A0E50065A0F50075A5A
:101E90001050085A1150095A12500A5A13500B5A2E
:101EA000D89013321232113210320F320E320D32FC
:101EB0000C32142E29EF8FF01550D8B462EF8FF04A
:101EC00064EF8FF074EF8FF00B1E0A1E091E081EC0
:101ED000071E061E051E046C000E052206220722A0
:101EE000082209220A220B2204C004F005C005F0D2
:101EF00006C006F007C007F008C008F009C009F0E6
:101F00000AC00AF00BC00BF0120044C0D9FF45C054
:101F1000DAFFDECFF6FFDDCFF7FF000EF86E080028
:101F2000F550250AD8A497EF8FF099EF8FF01DEFA9
:101F300090F044C0D9FF45C0DAFFDE2A000EDD2252
:101F4000000E0001D46F000ED36FD3C0DDF0D56951
:101F5000D66944C0D9FF45C0DAFFDECF52F0DDCFED
:101F600053F052C0F6FF53C0F7FF000EF86E0800A2
:101F7000F550640AD8B4BFEF8FF0C1EF8FF0D1EF06
:101F80008FF052C0F6FF53C0F7FF000EF86E080046
:101F9000F550690AD8A4CFEF8FF0D1EF8FF014EF8E
:101FA00090F046C0D9FF47C0DAFFDFCF48F0020EFD
:101FB000DE26DFCF49F0000EDD2248C0D9FF49C040
:101FC000DAFFDECF4AF0DDCF4BF0000E4BBEFF0E46
:101FD0004C6E4D6E4E6E4F6E506E516E010E522411
:101FE000486E000E5320496E44C0D9FF45C0DAFF49
:101FF00048C0DEFF49C0DDFF42C01FF043C020F0F3
:102000004AC021F04BC022F04CC023F04DC024F058
:102010004EC025F04FC026F050C027F051C028F028
:1020200025EC8AF033EF90F044C0D9FF45C0DAFFC9
:10203000DE2A000EDD2233EF90F044C0D9FF45C008
:10204000DAFFDECFF6FFDDCFF7FF000EF86E0800F7
:10205000F550046E056A42C006F043C007F047EC35
:1020600091F014EF90F01200000E00018C6F000E42
:102070008B6FE4EC94F083C0D9FF84C0DAFF08C012
:10208000DEFF09C0DDFF00018B4B8C2B8CBF52EFB4
:1020900090F0F50E8B5D010E8C59D8A052EF90F0A8
:1020A00054EF90F039EF90F0000E8E6F000E8D6FB0
:1020B000E4EC94F083C0D9FF84C0DAFF0850DE2638
:1020C0000950DD22110E0001886F3C0E876FCB0E88
:1020D000E82EFED7872FFCD7882FFAD700018D4B2B
:1020E0008E2B8EBF7DEF90F08E5109E1030E8D5D3A
:1020F000D8A07DEF90F07FEF90F058EF90F083C084
:10210000D9FF84C0DAFFDECF87F0DDCF88F0D8902A
:1021100088338733D8908833873383C0D9FF84C00E
:10212000DAFF87C0DEFF88C0DDFF81C066F082C0B5
:1021300067F0CE0E686FFF0E696F83C06AF084C0CF
:102140006BF06BEC94F081C005F082C006F0D5EC2A
:1021500095F083C0D9FF84C0DAFFDECF87F0DDCFF2
:1021600088F0200E00018725896F030E88218A6F71
:1021700085C0D9FF86C0DAFF89C0DEFF8AC0DDFFD7
:102180001200000E286E2850020DF3CF0AF0F4CF93
:102190000BF00A5006240C6E0B5007200D6E360E05
:1021A0000C24D96E000E0D20DA6EDECF0EF0DDCFDE
:1021B0000FF02850020DF3CF10F0F4CF11F01050B3
:1021C0000624126E11500720136E240E1224D96EAD
:1021D000000E1320DA6EDECF14F0DDCF15F028509C
:1021E000020DF3CF16F0F4CF17F016500624186E38
:1021F00017500720196E120E1824D96E000E1920E0
:10220000DA6EDECF1AF0DDCF1BF02850020DF3CFCF
:102210001CF0F4CF1DF01C500624D96E1D50072071
:10222000DA6EDECF1EF0DDCF1FF01A501E24206EB6
:102230001B501F20216E14502024226E1550212087
:10224000236E0E502224246E0F502320256ED8902A
:1022500025322432D890253224322850020DF3CF73
:1022600026F0F4CF27F026500824D96E27500920F5
:10227000DA6E24C0DEFF25C0DDFF282A080E2864A0
:1022800044EF91F046EF91F0C3EF90F0120006504A
:102290000710D8B44EEF91F050EF91F059EF91F054
:1022A00006500710D8A457EF91F059EF91F05EEF68
:1022B00091F00450A3EC96F0ABEF91F020EE09F012
:1022C0000650D9260750DA22DE50DE10D8B46BEF64
:1022D00091F06DEF91F088EF91F020EE09F006504B
:1022E000D9260750DA2210EE03F00650E1260750F7
:1022F000E222DE50E65CE650800A0C6EDE50800A78
:102300000C58D8B086EF91F088EF91F0ABEF91F0D8
:1023100020EE03F00650D9260750DA22DECF08F06F
:10232000DDCF09F006C0D9FF07C0DAFFDECF0AF023
:10233000DDCF0BF008500A24D96E09500B20DA6E5D
:1023400004C0DFFF20EE03F00650D9260750DA2242
:10235000DE2A000EDD22120020EE01F01750D926F1
:102360001850DA22010EDF6E20EE01F01950D92646
:102370001A50DA22000EDF6E000E1E6E000E1D6E69
:1023800019C0D9FF1AC0DAFF1DC0DFFF17C0D9FF7F
:1023900018C0DAFF1DC0DFFF020E1C6EA00E1B6E00
:1023A000920EE82EFED71B2EFCD71C2EFAD700D09B
:1023B00017C011F018C012F01DEC8EF019C011F00A
:1023C0001AC012F01DEC8EF00A0E1D26000E1E2201
:1023D0001EBEF4EF91F01E5009E1500E1D5CD8A016
:1023E000F4EF91F0F6EF91F0C0EF91F0050E1C6E56
:1023F0000F0E1B6EF10EE82EFED71B2EFCD71C2EE7
:10240000FAD700F0120020EE01F01750D92618502C
:10241000DA22000EDF6E20EE01F01950D9261A5094
:10242000DA22010EDF6E000E1E6E000E1D6E19C048
:10243000D9FF1AC0DAFF1DC0DFFF17C0D9FF18C0CF
:10244000DAFF1DC0DFFF020E1C6EA00E1B6E920E87
:10245000E82EFED71B2EFCD71C2EFAD700D017C0B3
:1024600011F018C012F01DEC8EF019C011F01AC056
:1024700012F01DEC8EF00A0E1D26000E1E221EBE4E
:102480004BEF92F01E5009E1500E1D5CD8A04BEFAF
:1024900092F04DEF92F017EF92F0050E1C6E0F0EBA
:1024A0001B6EF10EE82EFED71B2EFCD71C2EFAD782
:1024B00000F0120020EE01F01750D9261850DA2251
:1024C000000EDF6E20EE01F01950D9261A50DA22E4
:1024D000000EDF6E000E1D6E000E1C6E17C0D9FFC1
:1024E00018C0DAFF1CC0DFFF19C0D9FF1AC0DAFF1D
:1024F0001CC0DFFF17C011F018C012F01DEC8EF0E9
:1025000019C011F01AC012F01DEC8EF0D00E1B6E27
:10251000CA0EE82EFED71B2EFCD70A0E1C26000E74
:102520001D221DBE9DEF92F01D5009E1280E1C5C7E
:10253000D8A09DEF92F09FEF92F06EEF92F0120014
:1025400020EE01F01750D9261850DA22010EDF6E66
:1025500020EE01F01950D9261A50DA22010EDF6E52
:10256000000E1D6E000E1C6E17C0D9FF18C0DAFFDA
:102570001CC0DFFF19C0D9FF1AC0DAFF1CC0DFFF83
:1025800017C011F018C012F01DEC8EF019C011F038
:102590001AC012F01DEC8EF0D00E1B6ECA0EE82E83
:1025A000FED71B2EFCD70A0E1C26000E1D221DBEB8
:1025B000E3EF92F01D5009E1280E1C5CD8A0E3EF78
:1025C00092F0E5EF92F0B4EF92F0120085948598C6
:1025D000839E879C050E0E01746F060E766F070EA4
:1025E000696F080E886FBD508F0B4009BD6EE00EFD
:1025F000BE16BF50F00B0109BF6E630EBC6EBD8EE0
:10260000000EAA6E000EA66E000E0F01256F000EC2
:10261000216FFC0EAD16F30EAD16CF0EAD163F0EAC
:10262000AD16AB88AB50F00B0C09AB6EAB8EA78828
:10263000A750F00B0C09A76EA78E26892651F00B28
:102640000C09266F268F22892251F00B0C09226F6C
:10265000228F1200000E0C6E04C0D9FF05C0DAFFF5
:10266000DECF0AF0DDCF0BF0010E0D6E0D50020D26
:10267000F3CF06F0F4CF07F006500424D96E0750CC
:102680000520DA6E0A50DE5C0B50DE58D8B04BEFF6
:1026900093F04DEF93F05FEF93F00D50020DF3CFF9
:1026A00006F0F4CF07F006500424D96E0750052039
:1026B000DA6EDECF0AF0DDCF0BF00DC00CF00D2A84
:1026C000080E0D6466EF93F068EF93F036EF93F029
:1026D0000C50120019BE6FEF93F071EF93F077EF8B
:1026E00093F018C01DF019C01EF07BEF93F0000EA0
:1026F0001E6E000E1D6E000E1C6E000E1B6E8DEF0A
:1027000093F0000E056E200E046E14C006F015C086
:1027100007F047EC91F01B4A1C2A1D501B5C1C5013
:10272000800A1A6E1E50800A1A58D8A09AEF93F0A9
:102730009CEF93F081EF93F016C00DF017C00EF0F0
:1027400014C00FF015C010F058EC95F01200000EF8
:10275000106E000E0F6E0C500D10D8B4B2EF93F047
:10276000B4EF93F0DCEF93F0010E0E6EBCEF93F03C
:10277000D8900C360D360E2A0DAEC1EF93F0C3EF94
:1027800093F0B8EF93F0D8900F3610360C500A5CE7
:102790000D500B58D8A0CFEF93F0D1EF93F0D6EFB8
:1027A00093F00C500A5E0D500B5A0F80D8900D32EA
:1027B0000C320E2EC3EF93F00FC00AF010C00BF0D6
:1027C000120006500710D8B4E8EF93F0EAEF93F048
:1027D0000EEF94F0010E086EF2EF93F0D8900636EB
:1027E0000736082A07AEF7EF93F0F9EF93F0EEEF14
:1027F00093F00650045C07500558D8A002EF94F0FF
:1028000004EF94F008EF94F00650045E0750055A68
:10281000D89007320632082EF9EF93F004C004F086
:1028200005C005F0120034EF94F017C0D9FF18C0AE
:10283000DAFF0A0EDF5E19C0D9FF1AC0DAFF0A0EEE
:10284000DF5E2A0E1B6E8E0EE82EFED71B2EFCD7E7
:1028500017C011F018C012F01DEC8EF019C011F065
:102860001AC012F01DEC8EF017C0D9FF18C0DAFFA5
:10287000DF50D8A43EEF94F040EF94F015EF94F0C1
:10288000120062C054F063C055F055EF94F060C080
:1028900042F061C043F0540E446E000E456E64C0B9
:1028A00046F065C047F085EC8FF054C0F6FF55C088
:1028B000F7FF000EF86E0800F5500009D8A463EF8A
:1028C00094F065EF94F047EF94F0000E0001616F13
:1028D000000E606F12006A0E0001746F000E756FBB
:1028E00066C076F067C077F0000E7A6F000E796FE1
:1028F000000E806F000E7F6F760E606F000E616FAE
:1029000068C062F069C063F0740E646F000E656F9A
:1029100041EC94F0000179516625D96E7A51672116
:10292000DA6E000EDF6E120099EC96F0520E8EEC0D
:1029300096F0B60E8EEC96F09EEC96F0530E8EEC62
:1029400096F0010E7AEC95F00A6E0A500D6E0E6A42
:10295000000E7AEC95F00A6E0A500C6E0B6A0D5060
:102960000B100D6E0E500C100E6E94EC96F00DC008
:1029700008F00EC009F0120099EC96F0520E8EECA1
:1029800096F0B80E8EEC96F09EEC96F0530E8EEC10
:1029900096F0010E7AEC95F00A6E0A500D6E0E6AF2
:1029A000000E7AEC95F00A6E0A500C6E0B6A0D5010
:1029B0000B100D6E0E500C100E6E94EC96F00DC0B8
:1029C00008F00EC009F0120099EC96F0520E8EEC51
:1029D00096F0B40E8EEC96F09EEC96F0530E8EECC4
:1029E00096F0010E7AEC95F00A6E0A500D6E0E6AA2
:1029F000000E7AEC95F00A6E0A500C6E0B6A0D50C0
:102A00000B100D6E0E500C100E6E94EC96F00DC067
:102A100008F00EC009F0120099EC96F0520E8EEC00
:102A200096F0BA0E8EEC96F09EEC96F0530E8EEC6D
:102A300096F0010E7AEC95F00A6E0A500D6E0E6A51
:102A4000000E7AEC95F00A6E0A500C6E0B6A0D506F
:102A50000B100D6E0E500C100E6E94EC96F00DC017
:102A600008F00EC009F01200E60EF66E2C0EF76E9E
:102A7000010EF86E02EEABF010EE1EF00900F5CF7D
:102A8000EEFFE550E150FAE103EE00F0780EEE6A59
:102A9000E806FDE100EEBFF0400EEE6AE806FDE15B
:102AA0005A6A596A586A5B905B920001ECEF83F0B6
:102AB000000E136E000E126E69EF95F011C004F057
:102AC000056A0FC006F010C007F047EC91F0124AFB
:102AD000132A12500D24D96E13500E20DA6EDF50D7
:102AE000116E1150D8A477EF95F079EF95F05EEF65
:102AF00095F01200066E2CEC96F00E01DA872CECA5
:102B000096F0D5CE07F02CEC96F00650D8B48BEFAB
:102B100095F08FEF95F0056A052A90EF95F0056A1C
:102B2000053A05460E01DA510518DF0B0518DA6F74
:102B3000DA890750120017BEA8EF95F0175006E18A
:102B40001604D8B0A6EF95F0A8EF95F0B6EF95F083
:102B500016C018F017C019F0181E191E184A192AA5
:102B600018C016F019C017F0BAEF95F016C016F09D
:102B700017C017F01200EDEC95F0010E066E000E76
:102B800063EC96F03F0E086E550EE82EFED7082E29
:102B9000FCD700F0030E066E000E63EC96F0D50E27
:102BA000066E010E63EC96F01200E0EF95F005C0A2
:102BB000D9FF06C0DAFFDF5082EC96F0054A062AFC
:102BC00005C0D9FF06C0DAFFDF50D8A4EAEF95F0C0
:102BD000ECEF95F0D7EF95F012000E01D951F00B04
:102BE0000809D96FD98B9F0ED66F848A848CA79BD6
:102BF000A79D1D0E1D6F1E0E1C6F1C0E6F6F1B0EF2
:102C0000706F12008892889084988496869087923C
:102C1000869E81987E8E7F8279887C9880927E9035
:102C200080907C9688968096849E7C9E12000E01F1
:102C3000298BD6501F0B4009D66ED688D650F00B84
:102C40000509D66ED5881F9B3C0ED46EAF0ED36E91
:102C5000D58EF28CF28E12000E01D8B532EF96F0BE
:102C600034EF96F02CEF96F0DACE04F01F0E041637
:102C7000D8A43DEF96F03FEF96F02CEF96F01200BF
:102C800004500602F3CF08F0F4CF09F00450070215
:102C9000F350092605500602F350092608C004F037
:102CA00009C005F01200120E0E01626F110E156FB1
:102CB0008382E997E895330EE56F000EE66FE789AA
:102CC000E88BE78F1200076E99EC96F0520E8EECAF
:102CD00096F0075080098EEC96F006508EEC96F038
:102CE00094EC96F0120008000000000000000000C4
:102CF00000000000000000000000000000000000D4
:102D000000000000046E0E0137A589EF96F08BEFEE
:102D100096F083EF96F004C0E4FE1200056E2CECF2
:102D200096F005C0D5FE12002CEC96F00E01DA8567
:102D300012002CEC96F00E01DA8112002CEC96F0C9
:082D40000E01DA8312001200FB
:020000040020DA
:10000000FF0FFF0FFF0FFF0FFF0FFF0FFF0FFF0F80
:020000040030CA
:0C000000AAFFFFFF9FFFFFFFFFFFFFFFB5
:00000001FF
