:040000002DEF00F0F0
:100008005B820E0133A30BEF00F00DEF00F02BEF36
:1000180000F07C8E050E046E0F0E036EF10EE82EB6
:10002800FED7032EFCD7042EFAD700F07C9E050ECF
:10003800046E0F0E036EF10EE82EFED7032EFCD7CA
:10004800042EFAD700F0F4EC18F00E0133935B920B
:060058001100F9EF17F0A2
:100E0000000A204156473A20522025642C204720D2
:100E100025642C2042202564200A0054696D6572E7
:100E2000636F756E74202564200A0043415244208C
:100E30002564200A00002B6E3DEF09F060C018F019
:100E400061C019F062C01AF063C01BF001EC15F02C
:100E5000050E286E0F0E276EF10EE82EFED7272EF8
:100E6000FCD7282EFAD700F060C018F061C019F046
:100E700062C01AF063C01BF008EC14F060C018F0F8
:100E800061C019F062C01AF063C01BF0D1EC15F01C
:100E900060C018F061C019F062C01AF063C01BF0A6
:100EA00008EC14F060C018F061C019F062C01AF0CC
:100EB00063C01BF0D1EC15F06EEF09F060C018F0C4
:100EC00061C019F062C01AF063C01BF001EC15F0AC
:100ED000050E286E0F0E276EF10EE82EFED7272E78
:100EE000FCD7282EFAD700F060C018F061C019F0C6
:100EF00062C01AF063C01BF05FEC14F060C018F021
:100F000061C019F062C01AF063C01BF0D1EC15F09B
:100F100060C018F061C019F062C01AF063C01BF025
:100F20005FEC14F052EF07F060C018F061C019F0E8
:100F300062C01AF063C01BF001EC15F0050E286EBC
:100F40000F0E276EF10EE82EFED7272EFCD7282E87
:100F5000FAD700F060C018F061C019F062C01AF052
:100F600063C01BF008EC14F060C018F061C019F009
:100F700062C01AF063C01BF0D1EC15F060C018F02D
:100F800061C019F062C01AF063C01BF008EC14F0E5
:100F900060C018F061C019F062C01AF063C01BF0A5
:100FA000D1EC15F034EF07F060C018F061C019F013
:100FB00062C01AF063C01BF001EC15F0050E286E3C
:100FC0000F0E276EF10EE82EFED7272EFCD7282E07
:100FD000FAD700F060C018F061C019F062C01AF0D2
:100FE00063C01BF001EC15F0290E286E960E276EDB
:100FF0007F0EE82EFED7272EFCD7282EFAD700F03A
:10100000C8EF07F060C018F061C019F062C01AF0B4
:1010100063C01BF001EC15F0050E286E0F0E276E55
:10102000F10EE82EFED7272EFCD7282EFAD700F097
:1010300060C018F061C019F062C01AF063C01BF004
:1010400001EC15F0290E286E960E276E7F0EE82E05
:10105000FED7272EFCD7282EFAD700F060C018F054
:1010600061C019F062C01AF063C01BF0D1EC15F03A
:1010700074EF07F060C018F061C019F062C01AF098
:1010800063C01BF001EC15F0050E286E0F0E276EE5
:10109000F10EE82EFED7272EFCD7282EFAD700F027
:1010A000BEEF07F060C018F061C019F062C01AF01E
:1010B00063C01BF001EC15F0050E286E0F0E276EB5
:1010C000F10EE82EFED7272EFCD7282EFAD700F0F7
:1010D00060C018F061C019F062C01AF063C01BF064
:1010E0005FEC14F02EEF08F060C018F061C019F04A
:1010F00062C01AF063C01BF0D1EC15F060C018F0AC
:1011000061C019F062C01AF063C01BF05FEC14F00C
:1011100060C018F061C019F062C01AF063C01BF023
:10112000D1EC15F060C018F061C019F062C01AF07F
:1011300063C01BF05FEC14F060C018F061C019F0E0
:1011400062C01AF063C01BF0D1EC15F060C018F05B
:1011500061C019F062C01AF063C01BF05FEC14F0BC
:1011600060C018F061C019F062C01AF063C01BF0D3
:10117000D1EC15F060C018F061C019F062C01AF02F
:1011800063C01BF05FEC14F060C018F061C019F090
:1011900062C01AF063C01BF0D1EC15F0000E2D6E8A
:1011A0001D0E2C6ED8902C34D96E2D34DA6E640E50
:1011B000D926000EDA22DE50DE10D8B4E2EF08F0B5
:1011C000E4EF08F031EF09F060C018F061C019F0E9
:1011D00062C01AF063C01BF047EC15F0000E2A6ED7
:1011E000000E296E02EF09F0090E286E1E0E276E02
:1011F000E40EE82EFED7272EFCD7282EFAD700D0F3
:101200002C4A2D2AD8902C34D96E2D34DA6E640EE7
:10121000D926000EDA222950DE5C2A50DE58D8B0DA
:1012200014EF09F016EF09F0F4EF08F060C018F0C1
:1012300061C019F062C01AF063C01BF0D1EC15F068
:1012400060C020F061C021F062C022F063C023F0D2
:10125000640E2C24D96E000E2D20DA6EDF506FEC58
:1012600009F02C06D8A02D062DBE3BEF09F039EF72
:1012700009F0D2EF08F06EEF09F02B50276E286AC4
:101280002850000AD8B447EF09F06EEF09F0275054
:10129000000AD8B41EEF07F0010AD8B45EEF07F0D9
:1012A000030AD8B494EF07F0010AD8B4D4EF07F0DA
:1012B000070AD8B402EF08F0010AD8B43AEF08F0F0
:1012C000030AD8B452EF08F0010AD8B474EF08F05A
:1012D0000F0AD8B46EEF09F06EEF09F01200266E17
:1012E0001CEF0BF020C018F021C019F022C01AF03A
:1012F00023C01BF05FEC14F020C018F021C019F0DF
:1013000022C01AF023C01BF0D1EC15F020C018F059
:1013100021C019F022C01AF023C01BF05FEC14F0BA
:1013200020C018F021C019F022C01AF023C01BF011
:10133000D1EC15F045EF0BF020C018F021C019F0EA
:1013400022C01AF023C01BF008EC14F020C018F0E3
:1013500021C019F022C01AF023C01BF0D1EC15F007
:1013600020C018F021C019F022C01AF023C01BF0D1
:1013700008EC14F020C018F021C019F022C01AF0B7
:1013800023C01BF0D1EC15F045EF0BF020C018F096
:1013900021C019F022C01AF023C01BF008EC14F091
:1013A00020C018F021C019F022C01AF023C01BF091
:1013B000D1EC15F020C018F021C019F022C01AF0AD
:1013C00023C01BF008EC14F020C018F021C019F065
:1013D00022C01AF023C01BF0D1EC15F020C018F089
:1013E00021C019F022C01AF023C01BF008EC14F041
:1013F00020C018F021C019F022C01AF023C01BF041
:10140000D1EC15F020C018F021C019F022C01AF05C
:1014100023C01BF008EC14F020C018F021C019F014
:1014200022C01AF023C01BF0D1EC15F045EF0BF0F1
:1014300020C018F021C019F022C01AF023C01BF000
:10144000D1EC15F020C018F021C019F022C01AF01C
:1014500023C01BF05FEC14F020C018F021C019F07D
:1014600022C01AF023C01BF0D1EC15F020C018F0F8
:1014700021C019F022C01AF023C01BF05FEC14F059
:1014800020C018F021C019F022C01AF023C01BF0B0
:10149000D1EC15F020C018F021C019F022C01AF0CC
:1014A00023C01BF047EC15F0290E256E960E246E16
:1014B0007F0EE82EFED7242EFCD7252EFAD700F07B
:1014C00045EF0BF020C018F021C019F022C01AF02F
:1014D00023C01BF0D1EC15F020C018F021C019F08A
:1014E00022C01AF023C01BF008EC14F020C018F042
:1014F00021C019F022C01AF023C01BF0D1EC15F066
:1015000020C018F021C019F022C01AF023C01BF02F
:1015100008EC14F020C018F021C019F022C01AF015
:1015200023C01BF0D1EC15F020C018F021C019F039
:1015300022C01AF023C01BF047EC15F054EF0AF05C
:1015400020C018F021C019F022C01AF023C01BF0EF
:101550005FEC14F020C018F021C019F022C01AF07E
:1015600023C01BF0D1EC15F020C018F021C019F0F9
:1015700022C01AF023C01BF05FEC14F020C018F05A
:1015800021C019F022C01AF023C01BF0D1EC15F0D5
:1015900020C018F021C019F022C01AF023C01BF09F
:1015A0005FEC14F020C018F021C019F022C01AF02E
:1015B00023C01BF0D1EC15F045EF0BF020C018F064
:1015C00021C019F022C01AF023C01BF008EC14F05F
:1015D00020C018F021C019F022C01AF023C01BF05F
:1015E000D1EC15F020C018F021C019F022C01AF07B
:1015F00023C01BF008EC14F020C018F021C019F033
:1016000022C01AF023C01BF0D1EC15F020C018F056
:1016100021C019F022C01AF023C01BF008EC14F00E
:1016200020C018F021C019F022C01AF023C01BF00E
:10163000D1EC15F045EF0BF02650246E256A2550AD
:10164000000AD8B426EF0BF045EF0BF02450000A47
:10165000D8B472EF09F0010AD8B49CEF09F0030A7C
:10166000D8B4C6EF09F0010AD8B418EF0AF0070A97
:10167000D8B462EF0AF0010AD8B4A0EF0AF0030A66
:10168000D8B4DEEF0AF045EF0BF0120022C038F0BC
:1016900023C039F024C03AF025C03BF026C03CF00E
:1016A00027C03DF028C03EF029C03FF03FBE5BEFB1
:1016B0000BF05EEF0BF0010E5FEF0BF0000E406ED3
:1016C0004050D8B466EF0BF068EF0BF078EF0BF0FA
:1016D0003F1E3E1E3D1E3C1E3B1E3A1E391E386CF0
:1016E000000E39223A223B223C223D223E223F225A
:1016F0000001FBBF86EF0BF0FB5106E1FA05D8B005
:1017000084EF0BF086EF0BF08CEF0BF0000E356ED4
:10171000010E346E90EF0BF0FAC034F0FBC035F0E0
:10172000F8C036F0F9C037F04050D8B49AEF0BF05B
:101730009CEF0BF0B3EF0BF03606D8A03706405005
:10174000D8A4A5EF0BF0A7EF0BF0ADEF0BF0000E58
:10175000336E2B0E326EB1EF0BF0000E336E2D0E8A
:10176000326E32C040F0000E426E1F0E416E000E0F
:101770000201E16F38EF0CF04106D8A04206C20E1C
:101780004124D96E020E4220DA6E38C005F039C00D
:1017900006F03AC007F03BC008F03CC009F03DC07D
:1017A0000AF03EC00BF03FC00CF00A0E0D6E000EAA
:1017B0000E6E000E0F6E000E106E000E116E000EFB
:1017C000126E000E136E000E146E3AEC11F005C08E
:1017D0002AF006C02BF007C02CF008C02DF009C07D
:1017E0002EF00AC02FF00BC030F00CC031F02AC030
:1017F00017F02BC018F0D9EC17F01750300FDF6E30
:101800003406D8A035063606D8A0370638C005F00D
:1018100039C006F03AC007F03BC008F03CC009F000
:101820003DC00AF03EC00BF03FC00CF00A0E0D6E3A
:10183000000E0E6E000E0F6E000E106E000E116E7A
:10184000000E126E000E136E000E146EC0EC0FF040
:1018500005C038F006C039F007C03AF008C03BF0C8
:1018600009C03CF00AC03DF00BC03EF00CC03FF098
:1018700042BE43EF0CF0425008E14104D8A043EFD0
:101880000CF045EF0CF061EF0CF0385039103A10C5
:101890003B103C103D103E103F10D8A452EF0CF00E
:1018A00054EF0CF0BCEF0BF035BE61EF0CF035508F
:1018B00006E13404D8B05FEF0CF061EF0CF0BCEF40
:1018C0000BF04050D8B467EF0CF069EF0CF074EFF8
:1018D0000CF04106D8A04206C20E4124D96E020E79
:1018E0004220DA6E40C0DFFF20C015F021C016F0A4
:1018F000C20E4124176E020E4220186E36C019F037
:1019000037C01AF054EC16F01200ACEC18F05CEC96
:1019100018F013EC18F08DEC15F0BDEC18F045EC58
:1019200018F086840E01B495BCCFEDF0000E0101D5
:10193000DE6F010EDF6F010EE06FAA0EE36F0F0E78
:10194000E46FA60EE56F0F0EE66FEDC0E1F1E26BFE
:10195000000EE76F010EE86F010EE96F250EEC6FC8
:101960000F0EED6F210EEE6F0F0EEF6FEDC0EAF16F
:10197000EB6BDE0E126E010E136E84EC10F0E70EB0
:10198000126E010E136E84EC10F0000E0001F26F67
:10199000000EF16F000EF46F000EF36F000EF66F85
:1019A000000EF56F000EEC6F000EEB6F000EF06F87
:1019B000000EEF6F000EF76FDFEF0CF07C888EB437
:1019C000E4EF0CF0E6EF0CF0DEEF0CF07C98F10E9B
:1019D000126E000E136EF30E146E000E156EF50EE1
:1019E000166E000E176ECDEC0EF00001F751020DD1
:1019F000000EF324D96E020EF420DA6EF1C0DEFF81
:101A0000F2C0DDFFF751020D120EF326000EF42294
:101A1000000EF324D96E020EF420DA6EF3C0DEFF5E
:101A2000F4C0DDFFF751020D240EF326000EF42260
:101A3000000EF324D96E020EF420DA6EF5C0DEFF3C
:101A4000F6C0DDFFF72B080EF76529EF0DF02BEF41
:101A50000DF0DFEF0CF02FEF0DF07C887E808EB460
:101A600034EF0DF036EF0DF02DEF0DF07E90000EFF
:101A70000001FD6F010EFC6FD890EF35D96EF03587
:101A8000DA6E360ED926020EDA22F40EDE6E010E62
:101A9000DD6EDE0E186E010E196EE70E1A6E010E67
:101AA0001B6ED1EC15F0480E0001666F010E676FDA
:101AB0001B0E686F0E0E696FD890EF35D96EF0353A
:101AC000DA6E360ED926020EDA22DECF6AF0DDCFCC
:101AD0006BF0F5EC16F0480E066E010E076E2DEC5D
:101AE00018F0480E0001A06F010EA16FF10EA26F59
:101AF000000EA36FF30EA46F000EA56FF50EA66F78
:101B0000000EA76F000EA86F020EA96FEEC0AAF01C
:101B1000DE0EAB6F010EAC6FE70EAD6F010EAE6F58
:101B200022EE36F000EEAFF03B0EDBCFEBFFE80627
:101B3000FCE29BEC12F00001EE6F360EEF25D96E41
:101B4000020EF021DA6EEEC0DFFFEF4BF02B000E3D
:101B5000FD6F000EFC6FDE0E186E010E196EE70EA3
:101B60001A6E010E1B6E47EC15F02FEF0DF02DEFE6
:101B700000F0000E316E3150020DF3CF27F0F4CF9C
:101B800028F027502324D96E28502420DA6EDECF87
:101B900029F0DDCF2AF029501D5C176E2A501E58FF
:101BA000186ED9EC17F017C02FF018C030F02FC006
:101BB00005F030C006F0000E086E640E076E99EC5A
:101BC00018F005C00BF006C00CF03150020DF3CF39
:101BD00027F0F4CF28F027502324D96E2850242052
:101BE000DA6EDECF0DF0DDCF0EF091EC16F0315055
:101BF000020DF3CF29F0F4CF2AF029502524D96E15
:101C00002A502620DA6E0BC0DEFF0CC0DDFF3150FB
:101C1000020DF3CF27F0F4CF28F027502324296EAC
:101C2000285024202A6E120E2924D96E000E2A2054
:101C3000DA6EDECF2BF0DDCF2CF02B501F5C176E51
:101C40002C502058186ED9EC17F017C02FF018C080
:101C500030F02FC005F030C006F0000E086E640EA4
:101C6000076E99EC18F005C00BF006C00CF031506F
:101C7000020DF3CF27F0F4CF28F027502324296E4C
:101C8000285024202A6E120E2924D96E000E2A20F4
:101C9000DA6EDECF0DF0DDCF0EF091EC16F03150A4
:101CA000020DF3CF2BF0F4CF2CF02B5025242D6E0A
:101CB0002C5026202E6E120E2D24D96E000E2E20B2
:101CC000DA6E0BC0DEFF0CC0DDFF3150020DF3CF2A
:101CD00027F0F4CF28F027502324296E2850242001
:101CE0002A6E240E2924D96E000E2A20DA6EDECF49
:101CF0002BF0DDCF2CF02B50215C176E2C5022588E
:101D0000186ED9EC17F017C02FF018C030F02FC0A4
:101D100005F030C006F0000E086E640E076E99ECF8
:101D200018F005C00BF006C00CF03150020DF3CFD7
:101D300027F0F4CF28F027502324296E28502420A0
:101D40002A6E240E2924D96E000E2A20DA6EDECFE8
:101D50000DF0DDCF0EF091EC16F03150020DF3CF07
:101D60002BF0F4CF2CF02B5025242D6E2C50262058
:101D70002E6E240E2D24D96E000E2E20DA6E0BC08E
:101D8000DEFF0CC0DDFF312A080E3164CAEF0EF011
:101D9000CCEF0EF0BBEF0DF01200000E1B6E000E2C
:101DA0001A6E1EEC17F012C0D9FF13C0DAFF09C07B
:101DB000DEFF0AC0DDFF46EC17F014C0D9FF15C0E6
:101DC000DAFF09C0DEFF0AC0DDFF6EEC17F016C0B7
:101DD000D9FF17C0DAFF09C0DEFF0AC0DDFF1A4ACB
:101DE0001B2A1BBEFDEF0EF0F50E1A5C010E1B58F0
:101DF000D8A0FDEF0EF0FFEF0EF0D1EF0EF0000EC9
:101E00001D6E000E1C6E1EEC17F012C0D9FF13C021
:101E1000DAFF0950DE260A50DD22110E196E3C0E43
:101E2000186ECB0EE82EFED7182EFCD7192EFAD737
:101E300000F01C4A1D2A1DBE27EF0FF01D5009E1BE
:101E4000030E1C5CD8A027EF0FF029EF0FF003EF73
:101E50000FF012C0D9FF13C0DAFFDECF0BF0DDCFD9
:101E60000CF0000E0E6E030E0D6E91EC16F012C00B
:101E7000D9FF13C0DAFF0BC0DEFF0CC0DDFF000E80
:101E80001F6E000E1E6E46EC17F014C0D9FF15C071
:101E9000DAFF0950DE260A50DD22110E196E3C0EC3
:101EA000186ECB0EE82EFED7182EFCD7192EFAD7B7
:101EB00000F01E4A1F2A1FBE67EF0FF01F5009E1F6
:101EC000030E1E5CD8A067EF0FF069EF0FF043EF31
:101ED0000FF014C0D9FF15C0DAFFDECF0BF0DDCF55
:101EE0000CF0000E0E6E030E0D6E91EC16F014C089
:101EF000D9FF15C0DAFF0BC0DEFF0CC0DDFF000EFE
:101F0000216E000E206E6EEC17F016C0D9FF17C0C0
:101F1000DAFF0950DE260A50DD22110E196E3C0E42
:101F2000186ECB0EE82EFED7182EFCD7192EFAD736
:101F300000F0204A212A21BEA7EF0FF0215009E12D
:101F4000030E205CD8A0A7EF0FF0A9EF0FF083EFEE
:101F50000FF016C0D9FF17C0DAFFDECF0BF0DDCFD0
:101F60000CF0000E0E6E030E0D6E91EC16F016C006
:101F7000D9FF17C0DAFF0BC0DEFF0CC0DDFF120077
:101F8000000E166E14BEC9EF0FF0C7EF0FF0DBEFB7
:101F90000FF0141E131E121E111E101E0F1E0E1EF9
:101FA0000D6C000E0E220F2210221122122213227B
:101FB0001422010E166E0CBEE2EF0FF0E0EF0FF0F0
:101FC000F4EF0FF00C1E0B1E0A1E091E081E071E42
:101FD000061E056C000E06220722082209220A228C
:101FE0000B220C22010E161A20EE17F0070EDE6AE5
:101FF000E806FDE20D500E100F1010101110121017
:1020000013101410D8B407EF10F009EF10F05BEFC5
:1020100010F0010E156E17EF10F0D8900D360E3639
:102020000F3610361136123613361436152A14AE02
:102030001CEF10F01EEF10F00DEF10F0D8901736D7
:10204000183619361A361B361C361D361E360D50FC
:10205000055C0E5006580F50075810500858115084
:10206000095812500A5813500B5814500C58D8A045
:102070003CEF10F03EEF10F04FEF10F00D50055E0A
:102080000E50065A0F50075A1050085A1150095A4C
:1020900012500A5A13500B5A14500C5A1780D890E9
:1020A000143213321232113210320F320E320D321C
:1020B000152E1EEF10F01650D8B461EF10F063EF3C
:1020C00010F073EF10F01E1E1D1E1C1E1B1E1A1E8C
:1020D000191E181E176C000E182219221A221B2214
:1020E0001C221D221E2217C005F018C006F019C0C0
:1020F00007F01AC008F01BC009F01CC00AF01DC090
:102100000BF01EC00CF0120020EE02F01250D92687
:102110001350DA22DF50D8B490EF10F092EF10F0A5
:10212000C6EF10F012C0D9FF13C0DAFFDF50146EF3
:102130001450056E066A20EE03F01250D926135093
:10214000DA22DECF07F0DDCF08F099EC18F005C0F9
:102150000BF006C00CF0000E0E6E640E0D6E91ECCE
:1021600016F020EE03F01250D9261350DA22DF5079
:10217000156E0B50155C166E20EE03F01250D9262A
:102180001350DA22DF50176EE9EF10F0000E166ED2
:1021900012C0D9FF13C0DAFFDF50146E1450056E61
:1021A000066A20EE03F01250D9261350DA22DECF51
:1021B00007F0DDCF08F099EC18F005C00BF006C071
:1021C0000CF0000E0E6E640E0D6E91EC16F00B50BE
:1021D000176E20EE01F01250D9261350DA22DF508C
:1021E000D8B4F5EF10F0F7EF10F019EF11F020EE82
:1021F00005F01250D9261350DA22DECF14F0DDCFCD
:1022000015F014C0D9FF15C0DAFF16C0DFFF20EEAD
:1022100007F01250D9261350DA22DECF14F0DDCFAA
:1022200015F014C0D9FF15C0DAFF17C0DFFF39EF72
:1022300011F020EE05F01250D9261350DA22DECF2D
:1022400014F0DDCF15F014C0D9FF15C0DAFF17C0A8
:10225000DFFF20EE07F01250D9261350DA22DECF2E
:1022600014F0DDCF15F014C0D9FF15C0DAFF16C089
:10227000DFFF1200000E166E0CBE43EF11F041EFAF
:1022800011F055EF11F00C1E0B1E0A1E091E081E40
:10229000071E061E056C000E0622072208220922D0
:1022A0000A220B220C22010E166E14BE5CEF11F0F6
:1022B0005AEF11F06CEF11F0141E131E121E111EB6
:1022C000101E0F1E0E1E0D6C000E0E220F2210226D
:1022D00011221222132214220D500E100F10101072
:1022E0001110121013101410D8B479EF11F07BEF05
:1022F00011F0C3EF11F0010E156E89EF11F0D890B7
:102300000D360E360F361036113612361336143699
:10231000152A14AE8EEF11F090EF11F07FEF11F04F
:102320000D50055C0E5006580F50075810500858B5
:102330001150095812500A5813500B5814500C5889
:10234000D8A0A5EF11F0A7EF11F0B7EF11F00D50E5
:10235000055E0E50065A0F50075A1050085A115079
:10236000095A12500A5A13500B5A14500C5AD8904A
:10237000143213321232113210320F320E320D3249
:10238000152E90EF11F01650D8B4C9EF11F0CBEF25
:1023900011F0DBEF11F00C1E0B1E0A1E091E081EA9
:1023A000071E061E056C000E0622072208220922BF
:1023B0000A220B220C2205C005F006C006F007C059
:1023C00007F008C008F009C009F00AC00AF00BC005
:1023D0000BF00CC00CF0120045C0D9FF46C0DAFF6C
:1023E000DECFF6FFDDCFF7FF000EF86E0800F550E8
:1023F000250AD8A4FEEF11F000EF12F084EF12F0DE
:1024000045C0D9FF46C0DAFFDE2A000EDD22000EED
:102410000001F96F000EF86FF8C0FEF0FA69FB6971
:1024200045C0D9FF46C0DAFFDECF53F0DDCF54F010
:1024300053C0F6FF54C0F7FF000EF86E0800F550C9
:10244000640AD8B426EF12F028EF12F038EF12F039
:1024500053C0F6FF54C0F7FF000EF86E0800F550A9
:10246000690AD8A436EF12F038EF12F07BEF12F0C1
:1024700047C0D9FF48C0DAFFDFCF49F0020EDE26A1
:10248000DFCF4AF0000EDD2249C0D9FF4AC0DAFF93
:10249000DECF4BF0DDCF4CF0000E4CBEFF0E4D6E8C
:1024A0004E6E4F6E506E516E526E010E5324496E39
:1024B000000E54204A6E45C0D9FF46C0DAFF49C01D
:1024C000DEFF4AC0DDFF43C020F044C021F04BC016
:1024D00022F04CC023F04DC024F04EC025F04FC078
:1024E00026F050C027F051C028F052C029F046EC29
:1024F0000BF09AEF12F045C0D9FF46C0DAFFDE2A92
:10250000000EDD229AEF12F045C0D9FF46C0DAFF77
:10251000DECFF6FFDDCFF7FF000EF86E0800F550B6
:10252000056E066A43C007F044C008F0A3EC13F040
:102530007BEF12F01200A2C012F0A3C013F0A4C0EF
:1025400014F0A5C015F0A6C016F0A7C017F0CDEC8A
:102550000EF0A0C066F0A1C067F0010E0001686F28
:102560000E0E696FA2C0D9FFA3C0DAFFDECF6AF0FA
:10257000DDCF6BF0A4C0D9FFA5C0DAFFDECF6CF0D1
:10258000DDCF6DF0A6C0D9FFA7C0DAFFDECF6EF0B9
:10259000DDCF6FF0F5EC16F0A0C006F0A1C007F09B
:1025A0002DEC18F0A0C01BF0A1C01CF0A2C0D9FFF8
:1025B000A3C0DAFFDECF1DF0DDCF1EF0A4C0D9FF2F
:1025C000A5C0DAFFDECF1FF0DDCF20F0A6C0D9FF17
:1025D000A7C0DAFFDECF21F0DDCF22F0A8C023F0C4
:1025E000A9C024F0000E256E010E266EB9EC0DF088
:1025F000A0C012F0A1C013F0000E146E010E156EF3
:10260000360E166E010E176E39EC13F0360E056E8F
:10261000010E066E14EC16F00001AA6FA0C066F061
:10262000A1C067F02B0E686F0E0E696FAAC06AF02A
:102630006B6BF5EC16F0A0C006F0A1C007F02DEC16
:1026400018F0ABC060F0ACC061F0ADC062F0AEC0DD
:1026500063F020EEAFF000EE64F03B0EDBCFEBFF5B
:10266000E806FCE20001AA511BEC07F00001AA51A8
:102670001200000E2C6E2C50020DF3CF18F0F4CF88
:1026800019F0185014241A6E195015201B6E240EC0
:102690001A24D96E000E1B20DA6EDECF1CF0DDCFBF
:1026A0001DF02C50020DF3CF1EF0F4CF1FF01E5082
:1026B0001424206E1F501520216E120E2024D96E76
:1026C000000E2120DA6EDECF22F0DDCF23F02C5079
:1026D000020DF3CF24F0F4CF25F024501424D96E4A
:1026E00025501520DA6EDECF26F0DDCF27F0225000
:1026F0002624286E23502720296E1C5028240B6E78
:102700001D5029200C6E000E0E6E030E0D6E91EC06
:1027100016F02C50020DF3CF2AF0F4CF2BF02A50F4
:102720001624D96E2B501720DA6E0BC0DEFF0CC0BA
:10273000DDFF2C2A080E2C64A0EF13F0A2EF13F09B
:102740003BEF13F0120007500810D8B4AAEF13F0B3
:10275000ACEF13F0B5EF13F007500810D8A4B3EFA7
:1027600013F0B5EF13F0BAEF13F005502CEC19F09D
:1027700007EF14F020EE09F00750D9260850DA22AE
:10278000DE50DE10D8B4C7EF13F0C9EF13F0E4EF5A
:1027900013F020EE09F00750D9260850DA2210EE87
:1027A00003F00750E1260850E222DE50E65CE650D6
:1027B000800A0D6EDE50800A0D58D8B0E2EF13F09B
:1027C000E4EF13F007EF14F020EE03F00750D926E2
:1027D0000850DA22DECF09F0DDCF0AF007C0D9FFBA
:1027E00008C0DAFFDECF0BF0DDCF0CF009500B2470
:1027F000D96E0A500C20DA6E05C0DFFF20EE03F020
:102800000750D9260850DA22DE2A000EDD221200F7
:1028100020EE01F01850D9261950DA22010EDF6E91
:1028200020EE01F01A50D9261B50DA22000EDF6E7E
:10283000000E1F6E000E1E6E1AC0D9FF1BC0DAFFFD
:102840001EC0DFFF18C0D9FF19C0DAFF1EC0DFFFAE
:10285000020E1D6E380E1C6EAD0EE82EFED71C2E1D
:10286000FCD71D2EFAD700F018C012F019C013F0D3
:1028700084EC10F01AC012F01BC013F084EC10F0BE
:102880000A0E1E26000E1F221FBE50EF14F01F500E
:1028900009E1500E1E5CD8A050EF14F052EF14F076
:1028A0001CEF14F0060E1D6E470E1C6EA00EE82ED7
:1028B000FED71C2EFCD71D2EFAD700D0120020EE1A
:1028C00001F01850D9261950DA22000EDF6E20EEE2
:1028D00001F01A50D9261B50DA22010EDF6E000ECD
:1028E0001F6E000E1E6E1AC0D9FF1BC0DAFF1EC07D
:1028F000DFFF18C0D9FF19C0DAFF1EC0DFFF020ECC
:102900001D6E380E1C6EAD0EE82EFED71C2EFCD7A9
:102910001D2EFAD700F018C012F019C013F084EC85
:1029200010F01AC012F01BC013F084EC10F00A0E65
:102930001E26000E1F221FBEA7EF14F01F5009E134
:10294000500E1E5CD8A0A7EF14F0A9EF14F073EF9F
:1029500014F0060E1D6E470E1C6EA00EE82EFED75C
:102960001C2EFCD71D2EFAD700D012000F6E0AC005
:1029700007F00C0ECDEC18F0000E0B6E0F50D8B413
:10298000C4EF14F0C6EF14F0C8EF14F0010E0B6E94
:102990000BC007F0050ECDEC18F0000E0C6E0F50BA
:1029A000D8B4D5EF14F0D7EF14F0D9EF14F0010E2E
:1029B0000C6E0CC007F0040ECDEC18F0000E0D6E7E
:1029C0000950D8B4E6EF14F0E8EF14F0EAEF14F091
:1029D000010E0D6E0DC007F0070ECDEC18F0000EC5
:1029E0000E6E0950D8B4F7EF14F0F9EF14F0FBEFC6
:1029F00014F0010E0E6E0EC007F0060ECDEC18F0AE
:102A0000120020EE01F01850D9261950DA22000EDB
:102A1000DF6E20EE01F01A50D9261B50DA22000E8C
:102A2000DF6E000E1E6E000E1D6E18C0D9FF19C09D
:102A3000DAFF1DC0DFFF1AC0D9FF1BC0DAFF1DC0BF
:102A4000DFFF18C012F019C013F084EC10F01AC0A8
:102A500012F01BC013F084EC10F0D00E1C6ECA0EE6
:102A6000E82EFED71C2EFCD70A0E1D26000E1E22B5
:102A70001EBE44EF15F01E5009E13C0E1D5CD8A0AF
:102A800044EF15F046EF15F015EF15F0120020EEAB
:102A900001F01850D9261950DA22010EDF6E20EE0F
:102AA00001F01A50D9261B50DA22010EDF6E000EFB
:102AB0001E6E000E1D6E18C0D9FF19C0DAFF1DC0B2
:102AC000DFFF1AC0D9FF1BC0DAFF1DC0DFFF18C02F
:102AD00012F019C013F084EC10F01AC012F01BC0F1
:102AE00013F084EC10F0D00E1C6ECA0EE82EFED748
:102AF0001C2EFCD70A0E1D26000E1E221EBE8AEFBB
:102B000015F01E5009E13C0E1D5CD8A08AEF15F0AF
:102B10008CEF15F05BEF15F0120085948598839E7D
:102B2000879C050E0E01746F060E766F070E696F97
:102B3000080E886FBD508F0B4009BD6EE00EBE16AB
:102B4000BF50F00B0109BF6E630EBC6EBD8E000E50
:102B5000AA6E000EA66E000E0F01256F000E216FEB
:102B6000FC0EAD16F30EAD16CF0EAD163F0EAD1624
:102B7000AB88AB50F00B0C09AB6EAB8EA788A7509F
:102B8000F00B0C09A76EA78E26892651F00B0C09B5
:102B9000266F268F22892251F00B0C09226F228F7B
:102BA0001200E6EF15F018C0D9FF19C0DAFF0A0EBF
:102BB000DF5E2A0E1C6E8E0EE82EFED71C2EFCD772
:102BC00018C012F019C013F084EC10F018C0D9FF2F
:102BD00019C0DAFFDF50D8A4F0EF15F0F2EF15F0CE
:102BE000D3EF15F007EF16F01AC0D9FF1BC0DAFFBC
:102BF0000A0EDF5E2A0E1C6E8E0EE82EFED71C2EED
:102C0000FCD71AC012F01BC013F084EC10F01AC0ED
:102C1000D9FF1BC0DAFFDF50D8A411EF16F013EF75
:102C200016F0F4EF15F01200000E0D6E05C0D9FF7E
:102C300006C0DAFFDECF0BF0DDCF0CF0010E0E6E1A
:102C40000E50020DF3CF07F0F4CF08F00750052423
:102C5000D96E08500620DA6E0B50DE5C0C50DE5840
:102C6000D8B035EF16F037EF16F049EF16F00E50EA
:102C7000020DF3CF07F0F4CF08F007500524D96E0A
:102C800008500620DA6EDECF0BF0DDCF0CF00EC060
:102C90000DF00E2A080E0E6450EF16F052EF16F0EB
:102CA00020EF16F00D5012001ABE59EF16F05BEF30
:102CB00016F061EF16F019C01EF01AC01FF065EF94
:102CC00016F0000E1F6E000E1E6E000E1D6E000E22
:102CD0001C6E77EF16F0000E066E200E056E15C006
:102CE00007F016C008F0A3EC13F01C4A1D2A1E5072
:102CF0001C5C1D50800A1B6E1F50800A1B58D8A0F8
:102D000084EF16F086EF16F06BEF16F017C00EF09A
:102D100018C00FF015C010F016C011F096EC17F0A7
:102D20001200000E106E000E0F6E0D500E10D8B473
:102D30009CEF16F09EEF16F0C6EF16F0010E116E26
:102D4000A6EF16F0D8900D360E36112A0EAEABEF68
:102D500016F0ADEF16F0A2EF16F0D8900F36103641
:102D60000D500B5C0E500C58D8A0B9EF16F0BBEF0D
:102D700016F0C0EF16F00D500B5E0E500C5A0F807F
:102D8000D8900E320D32112EADEF16F00FC00BF0B1
:102D900010C00CF0120062C055F063C056F0DFEFB7
:102DA00016F060C043F061C044F0550E456E000E51
:102DB000466E64C047F065C048F0ECEC11F055C0B9
:102DC000F6FF56C0F7FF000EF86E0800F550000938
:102DD000D8A4EDEF16F0EFEF16F0D1EF16F0000EDD
:102DE0000001616F000E606F12006A0E0001706FCB
:102DF000000E716F66C072F067C073F0000E766FE0
:102E0000000E756F000E7C6F000E7B6F720E606F90
:102E1000000E616F68C062F069C063F0700E646F8D
:102E2000000E656FCBEC16F0000175516625D96E6A
:102E300076516721DA6E000EDF6E12001DEC19F07C
:102E4000520E07EC19F0B60E07EC19F013EC19F05E
:102E5000530E07EC19F0010EB8EC17F00B6E0B5087
:102E60000E6E0F6A000EB8EC17F00B6E0B500D6E65
:102E70000C6A0E500C100E6E0F500D100F6E18ECE9
:102E800019F00EC009F00FC00AF012001DEC19F085
:102E9000520E07EC19F0B80E07EC19F013EC19F00C
:102EA000530E07EC19F0010EB8EC17F00B6E0B5037
:102EB0000E6E0F6A000EB8EC17F00B6E0B500D6E15
:102EC0000C6A0E500C100E6E0F500D100F6E18EC99
:102ED00019F00EC009F00FC00AF012001DEC19F035
:102EE000520E07EC19F0BA0E07EC19F013EC19F0BA
:102EF000530E07EC19F0010EB8EC17F00B6E0B50E7
:102F00000E6E0F6A000EB8EC17F00B6E0B500D6EC4
:102F10000C6A0E500C100E6E0F500D100F6E18EC48
:102F200019F00EC009F00FC00AF01200000E146E66
:102F3000000E136EA7EF17F012C005F0066A10C05E
:102F400007F011C008F0A3EC13F0134A142A135031
:102F50000E24D96E14500F20DA6EDF50126E12500C
:102F6000D8A4B5EF17F0B7EF17F09CEF17F01200E9
:102F7000076E71EC18F00E01DA8771EC18F0D5CEFF
:102F800008F071EC18F00750D8B4C9EF17F0CDEF86
:102F900017F0066A062ACEEF17F0066A063A0646CA
:102FA0000E01DA510618DF0B0618DA6FDA890850BD
:102FB000120018BEE6EF17F0185006E11704D8B05B
:102FC000E4EF17F0E6EF17F0F4EF17F017C019F081
:102FD00018C01AF0191E1A1E194A1A2A19C017F019
:102FE0001AC018F0F8EF17F017C017F018C018F053
:102FF000120002EE72F0700EEE6AE806FDE10101C9
:10300000F36BF26BF16BF06B00EEF8F0070EEE6A0B
:10301000E806FDE15A6A596A586A576A5B905B9202
:10302000000185EF0CF05CEC18F0010E076E000E4D
:10303000CDEC18F03F0E096E550EE82EFED7092E86
:10304000FCD700F0030E076E000ECDEC18F0D50E85
:10305000076E010ECDEC18F0120038EF18F006C024
:10306000D9FF07C0DAFFDF50DDEC18F0064A072A67
:1030700006C0D9FF07C0DAFFDF50D8A442EF18F02E
:1030800044EF18F02FEF18F01200FFEC18F0880E44
:10309000096E040E0A6E050EB6EC14F082820E0163
:1030A0009A93090E0D01F16F0E0129831F83F2928D
:1030B000F28AF28CF28E12000E01D951F00B08093F
:1030C000D96FD98B9F0ED66F848A848CA79BA79DBE
:1030D0001D0E1D6F1E0E1C6F1C0E6F6F1B0E706F72
:1030E00012000E01D8B577EF18F079EF18F071EFF4
:1030F00018F0DACE05F01F0E0516D8A482EF18F0EE
:1031000084EF18F071EF18F012000E01D8B58BEFB4
:1031100018F08DEF18F085EF18F0DACE01F01F0EE1
:103120000116D8A496EF18F098EF18F085EF18F074
:10313000120005500702F3CF09F0F4CF0AF0055052
:103140000802F3500A2606500702F3500A2609C067
:1031500005F00AC006F01200889288908498849640
:1031600086908792869E81987E8E7F8279887C98D1
:1031700080927E9080907C961200120E0E01626FFB
:10318000110E156F8382E997E895330EE56F000EF7
:10319000E66FE789E88BE78F1200086E1DEC19F0E7
:1031A000520E07EC19F00850800907EC19F007508F
:1031B00007EC19F018EC19F01200056E0E0137A596
:1031C000E4EF18F0E6EF18F0DEEF18F005C0E4FECB
:1031D00012001DEC19F0520E07EC19F0E60E07EC88
:1031E00019F018EC19F0120027EC19F0520E0DEC42
:1031F00019F0E60E0DEC19F022EC19F01200E9ECD2
:1032000018F0130E076E000ECDEC18F01200066ECB
:1032100071EC18F006C0D5FE1200026E85EC18F0B5
:1032200002C0D5FE120071EC18F00E01DA83120014
:1032300071EC18F00E01DA85120071EC18F00E0135
:10324000DA81120085EC18F00E01DA85120085ECA7
:0A32500018F00E01DA8112001200DE
:020000040020DA
:10000000FF0FFF0FFF0FFF0FFF0FFF0FFF0FFF0F80
:020000040030CA
:0C000000AAFFFFFF9FFFFFFFFFFFFFFFB5
:00000001FF
