:04000000DEEFFBF044
:020000040001F9
:10F672009BECFBF00E01DA8312009BECFBF00E0117
:10F68200DA8112009BECFBF00E01DA851200026EA9
:10F692009BECFBF002C0D5FE1200C832280A080714
:10F6A200D0206419881330110807F00A046E3EEC6A
:10F6B200FBF0520E48ECFBF00450800948ECFBF0E2
:10F6C200035048ECFBF043ECFBF01200120E0E016B
:10F6D200626F110E156F8382E997E895330EE56F1D
:10F6E200000EE66FE789E88BE78F12008892889018
:10F6F2008498849686908792869E81987E8E7F8259
:10F7020079887C9880927E9080907C96120001503D
:10F712000302F3CF05F0F4CF06F001500402F350D8
:10F72200062602500302F350062605C001F006C069
:10F7320002F012000E01D8B5A1EFFBF0A3EFFBF02F
:10F742009BEFFBF0DACE01F01F0E0116D8A4ACEF4E
:10F75200FBF0AEEFFBF09BEFFBF012000E01D95174
:10F76200F00B0809D96FD98B9F0ED66F848A848CCF
:10F77200A79BA79D1D0E1D6F1E0E1C6F1C0E6F6F8B
:10F782001B0E706F1200AFECFBF0010E036E000E49
:10F7920057ECFBF03F0E056E550EE82EFED7052EF8
:10F7A200FCD700F0030E036E000E57ECFBF0D50EF3
:10F7B200036E010E57ECFBF012009C0EF66EF60E75
:10F7C200F76E010EF86E00EED9F010EE12F009009D
:10F7D200F5CFEEFFE550E150FAE100EE9DF03C0E70
:10F7E200EE6AE806FDE100EE29F0180EEE6AE80680
:10F7F200FDE1000134EFFDF002BE0AEFFCF0025021
:10F8020006E10104D8B008EFFCF00AEFFCF018EFB3
:10F81200FCF001C003F002C004F0031E041E034A00
:10F82200042A03C001F004C002F01CEFFCF001C086
:10F8320001F002C002F01200036E9BECFBF00E011D
:10F84200DA879BECFBF0D5CE04F09BECFBF0035087
:10F85200D8B42EEFFCF032EFFCF0026A022A33EF4A
:10F86200FCF0026A023A02460E01DA510218DF0B7C
:10F872000218DA6FDA89045012003EECFBF0520EE5
:10F8820048ECFBF0BA0E48ECFBF039ECFBF0530EFF
:10F8920048ECFBF0010E1DECFCF0076E07500A6EFF
:10F8A2000B6A000E1DECFCF0076E0750096E086A29
:10F8B2000A5008100A6E0B5009100B6E43ECFBF055
:10F8C2000AC005F00BC006F012003EECFBF0520E2F
:10F8D20048ECFBF0B80E48ECFBF039ECFBF0530EB1
:10F8E20048ECFBF0010E1DECFCF0076E07500A6EAF
:10F8F2000B6A000E1DECFCF0076E0750096E086AD9
:10F902000A5008100A6E0B5009100B6E43ECFBF004
:10F912000AC005F00BC006F012003EECFBF0520EDE
:10F9220048ECFBF0B60E48ECFBF039ECFBF0530E62
:10F9320048ECFBF0010E1DECFCF0076E07500A6E5E
:10F942000B6A000E1DECFCF0076E0750096E086A88
:10F952000A5008100A6E0B5009100B6E43ECFBF0B4
:10F962000AC005F00BC006F01200000E0C6E000E6D
:10F972000B6E09500A10D8B4C1EFFCF0C3EFFCF0D3
:10F98200EBEFFCF0010E0D6ECBEFFCF0D8900936D8
:10F992000A360D2A0AAED0EFFCF0D2EFFCF0C7EF28
:10F9A200FCF0D8900B360C360950075C0A50085808
:10F9B200D8A0DEEFFCF0E0EFFCF0E5EFFCF0095040
:10F9C200075E0A50085A0B80D8900A3209320D2E6F
:10F9D200D2EFFCF00BC007F00CC008F012008594C7
:10F9E2008598839E879C050E0E01746F060E766FB6
:10F9F200070E696F080E886FBD508F0B4009BD6EF0
:10FA0200E00EBE16BF50F00B0109BF6E630EBC6E56
:10FA1200BD8E000EAA6E000EA66E000E0F01256F9F
:10FA2200000E216FFC0EAD16F30EAD16CF0EAD1605
:10FA32003F0EAD16AB88AB50F00B0C09AB6EAB8E24
:10FA4200A788A750F00B0C09A76EA78E268926510E
:10FA5200F00B0C09266F268F22892251F00B0C091C
:10FA6200226F228F120077ECFBF0AFECFBF0C4ECBC
:10FA7200FBF0F0ECFCF067ECFBF0BCCF84F0000E86
:10FA820000018B6F010E8C6F010E8D6FAA0E906FAD
:10FA92000F0E916FA60E926F0F0E936F84C08EF0B1
:10FAA2008F6B000E946F010E956F010E966F250EEF
:10FAB200996F0F0E9A6F210E9B6F0F0E9C6F84C071
:10FAC20097F0986B8B0E0E6E000E0F6E60ECFEF0D0
:10FAD200940E0E6E000E0F6E60ECFEF020EED9F06A
:10FAE20010EE72F0110EDBCFE3FFE806FCE2000E2F
:10FAF2000001866F000E856F000E886F000E876F03
:10FB0200000E8A6F000E896F88EFFDF080828EB43E
:10FB12008DEFFDF08FEFFDF087EFFDF07C9E849E70
:10FB2200850E0E6E000E0F6E870E106E000E116E99
:10FB3200890E126E000E136EBAECFDF0850E0E6E7B
:10FB4200000E0F6E870E106E000E116E890E126E71
:10FB5200000E136E720E146E000E156E600E166E8F
:10FB6200000E176E16ECFFF07E8091EFFDF000EFB5
:10FB720000F0000E166E8EECFCF00EC0D9FF0FC026
:10FB8200DAFF0550DE260650DD22110E156E3C0E00
:10FB9200146ECB0EE82EFED7142EFCD7152EFAD7F4
:10FBA20000F0162A020E1664D9EFFDF0DBEFFDF02D
:10FBB200BCEFFDF00EC0D9FF0FC0DAFFDECF07F0B9
:10FBC200DDCF08F0000E0A6E030E096EB6ECFCF0F3
:10FBD2000EC0D9FF0FC0DAFF07C0DEFF08C0DDFF8D
:10FBE200000E176E66ECFCF010C0D9FF11C0DAFFF0
:10FBF2000550DE260650DD22110E156E3C0E146EE7
:10FC0200CB0EE82EFED7142EFCD7152EFAD700F015
:10FC1200172A020E176410EFFEF012EFFEF0F3EF58
:10FC2200FDF010C0D9FF11C0DAFFDECF07F0DDCF43
:10FC320008F0000E0A6E030E096EB6ECFCF010C05E
:10FC4200D9FF11C0DAFF07C0DEFF08C0DDFF000EDA
:10FC5200186E3EECFCF012C0D9FF13C0DAFF05505B
:10FC6200DE260650DD22110E156E3C0E146ECB0EF2
:10FC7200E82EFED7142EFCD7152EFAD700F0182A3C
:10FC8200020E186447EFFEF049EFFEF02AEFFEF095
:10FC920012C0D9FF13C0DAFFDECF07F0DDCF08F0C4
:10FCA200000E0A6E030E096EB6ECFCF012C0D9FF0C
:10FCB20013C0DAFF07C0DEFF08C0DDFF120020EE2E
:10FCC20002F00E50D9260F50DA22DF50D8B46CEF72
:10FCD200FEF06EEFFEF0A2EFFEF00EC0D9FF0FC0F5
:10FCE200DAFFDF50106E1050016E026A20EE03F050
:10FCF2000E50D9260F50DA22DECF03F0DDCF04F00A
:10FD020088ECFBF001C007F002C008F0000E0A6E9A
:10FD1200640E096EB6ECFCF020EE03F00E50D9260C
:10FD22000F50DA22DF50116E0750115C126E20EE76
:10FD320003F00E50D9260F50DA22DF50136EC5EFB2
:10FD4200FEF0000E126E0EC0D9FF0FC0DAFFDF50B8
:10FD5200106E1050016E026A20EE03F00E50D9268A
:10FD62000F50DA22DECF03F0DDCF04F088ECFBF097
:10FD720001C007F002C008F0000E0A6E640E096EA0
:10FD8200B6ECFCF00750136E20EE01F00E50D926AF
:10FD92000F50DA22DF50D8B4D1EFFEF0D3EFFEF0ED
:10FDA200F5EFFEF020EE05F00E50D9260F50DA22C4
:10FDB200DECF10F0DDCF11F010C0D9FF11C0DAFF95
:10FDC20012C0DFFF20EE07F00E50D9260F50DA22C4
:10FDD200DECF10F0DDCF11F010C0D9FF11C0DAFF75
:10FDE20013C0DFFF15EFFFF020EE05F00E50D9260D
:10FDF2000F50DA22DECF10F0DDCF11F010C0D9FFA4
:10FE020011C0DAFF13C0DFFF20EE07F00E50D92633
:10FE12000F50DA22DECF10F0DDCF11F010C0D9FF83
:10FE220011C0DAFF12C0DFFF1200000E286E14C0EC
:10FE3200D9FF15C0DAFFDECF18F0DDCF19F00EC002
:10FE4200D9FF0FC0DAFFDECF1AF0DDCF1BF018505A
:10FE52001A5C016E19501B58026EFDECFBF001C0DA
:10FE620007F002C008F014C0D9FF15C0DAFFDECFD8
:10FE720009F0DDCF0AF0B6ECFCF016C0D9FF17C0CE
:10FE8200DAFF07C0DEFF08C0DDFF2850060DF3CF02
:10FE920018F0F4CF19F0185014241A6E19501520C6
:10FEA2001B6E020E1A24D96E000E1B20DA6EDECFF4
:10FEB2001CF0DDCF1DF010C0D9FF11C0DAFFDECF7C
:10FEC2001EF0DDCF1FF01C501E5C016E1D501F582E
:10FED200026EFDECFBF001C007F002C008F02850F2
:10FEE200060DF3CF20F0F4CF21F020501424226E1F
:10FEF20021501520236E020E2224D96E000E2320DB
:10FF0200DA6EDECF09F0DDCF0AF0B6ECFCF0285055
:10FF1200060DF3CF24F0F4CF25F024501624266EDC
:10FF220025501720276E020E2624D96E000E272098
:10FF3200DA6E07C0DEFF08C0DDFF2850060DF3CFE2
:10FF420018F0F4CF19F0185014241A6E1950152015
:10FF52001B6E040E1A24D96E000E1B20DA6EDECF41
:10FF62001CF0DDCF1DF012C0D9FF13C0DAFFDECFC7
:10FF72001EF0DDCF1FF01C501E5C016E1D501F587D
:10FF8200026EFDECFBF001C007F002C008F0285041
:10FF9200060DF3CF20F0F4CF21F020501424226E6E
:10FFA20021501520236E040E2224D96E000E232028
:10FFB200DA6EDECF09F0DDCF0AF0B6ECFCF02850A5
:10FFC200060DF3CF24F0F4CF25F024501624266E2C
:10FFD20025501720276E040E2624D96E000E2720E6
:10FFE200DA6E07C0DEFF08C0DDFF282A080E28648B
:0EFFF200FDEFFFF0FFEFFFF018EFFFF0120041
:020000040020DA
:10000000FF0FFF0FFF0FFF0FFF0FFF0FFF0FFF0F80
:020000040030CA
:0C000000AAFFFFFF9FFFFFFFFFFFFFFFB5
:00000001FF
