:04000000A4EFFDF07C
:020000040001F9
:10FB48000001FAEFFEF0F0ECFDF00E01DA81120090
:10FB5800F0ECFDF00E01DA851200F0ECFDF00E017C
:10FB6800DA831200026EF0ECFDF002C0D5FE12003E
:10FB7800046EA7ECFDF0520EB6ECFDF004508009BF
:10FB8800B6ECFDF00350B6ECFDF0ACECFDF0120065
:10FB9800889288908498849686908792869E819889
:10FBA8007E8E7F8279887C9880927E9080907C96E9
:10FBB800120001500302F3CF05F0F4CF06F0015014
:10FBC8000402F350062602500302F350062605C02D
:10FBD80001F006C002F012000E01D8B5F6EFFDF0F4
:10FBE800F8EFFDF0F0EFFDF0DACE01F01F0E011690
:10FBF800D8A401EFFEF003EFFEF0F0EFFDF01200E5
:10FC08000E01D951F00B0809D96FD98B9F0ED66F09
:10FC1800848A848CA79BA79D1D0E1D6F1E0E1C6FCA
:10FC28001C0E6F6F1B0E706F120004ECFEF0010EBD
:10FC3800036E000EBCECFDF03F0E056E550EE82E6F
:10FC4800FED7052EFCD700F0030E036E000EBCECA9
:10FC5800FDF0D50E036E010EBCECFDF01200036E34
:10FC6800F0ECFDF00E01DA87F0ECFDF0D5CE04F0F3
:10FC7800F0ECFDF00350D8B444EFFEF048EFFEF08E
:10FC8800026A022A49EFFEF0026A023A02460E01AF
:10FC9800DA510218DF0B0218DA6FDA890450120001
:10FCA800A7ECFDF0520EB6ECFDF0BA0EB6ECFDF086
:10FCB800B1ECFDF0530EB6ECFDF0010E33ECFEF0A6
:10FCC800076E07500A6E0B6A000E33ECFEF0076EE3
:10FCD8000750096E086A0A5008100A6E0B5009107E
:10FCE8000B6EACECFDF00AC005F00BC006F012007C
:10FCF800000E0C6E000E0B6E09500A10D8B487EF78
:10FD0800FEF089EFFEF0B1EFFEF0010E0D6E91EFFF
:10FD1800FEF0D89009360A360D2A0AAE96EFFEF0A4
:10FD280098EFFEF08DEFFEF0D8900B360C360950A8
:10FD3800075C0A500858D8A0A4EFFEF0A6EFFEF022
:10FD4800ABEFFEF00950075E0A50085A0B80D890B6
:10FD58000A3209320D2E98EFFEF00BC007F00CC0E6
:10FD680008F0120085948598839E879C050E0E01E5
:10FD7800746F060E766F070E696F080E886FBD5098
:10FD88008F0B4009BD6EE00EBE16BF50F00B010987
:10FD9800BF6E630EBC6EBD8E000EAA6E000EA66E00
:10FDA800000E0F01256F000E216FFC0EAD16F30E2D
:10FDB800AD16CF0EAD163F0EAD16AB88AB50F00B9F
:10FDC8000C09AB6EAB8EA788A750F00B0C09A76E79
:10FDD800A78E26892651F00B0C09266F268F2289BB
:10FDE8002251F00B0C09226F228F1200CCECFDF08F
:10FDF80004ECFEF019ECFEF0B6ECFEF0BCCF16F009
:10FE0800000E176E010E186E010E196EAA0E1C6EEA
:10FE18000F0E1D6EA60E1E6E0F0E1F6E16C01AF068
:10FE28001B6A000E206E010E216E010E226E250E39
:10FE3800256E0F0E266E210E276E0F0E286E16C029
:10FE480023F0246A170E0E6E000E0F6E4AECFFF0B8
:10FE5800200E0E6E000E0F6E4AECFFF07C8E849E14
:10FE68007C8854ECFEF005C014F006C015F0145060
:10FE78001510D8B442EFFFF044EFFFF045EFFFF064
:10FE88007C9E7E8034EFFFF000EF00F020EE02F061
:10FE98000E50D9260F50DA22DF50D8B456EFFFF0B3
:10FEA80058EFFFF08CEFFFF00EC0D9FF0FC0DAFF5C
:10FEB800DF50106E1050016E026A20EE03F00E50F3
:10FEC800D9260F50DA22DECF03F0DDCF04F0DDECC7
:10FED800FDF001C007F002C008F0000E0A6E640EC3
:10FEE800096E7CECFEF020EE03F00E50D9260F5080
:10FEF800DA22DF50116E0750115C126E20EE03F00B
:10FF08000E50D9260F50DA22DF50136EAFEFFFF0F4
:10FF1800000E126E0EC0D9FF0FC0DAFFDF50106E50
:10FF28001050016E026A20EE03F00E50D9260F50D1
:10FF3800DA22DECF03F0DDCF04F0DDECFDF001C006
:10FF480007F002C008F0000E0A6E640E096E7CEC21
:10FF5800FEF00750136E20EE01F00E50D9260F5018
:10FF6800DA22DF50D8B4BBEFFFF0BDEFFFF0DFEFD0
:10FF7800FFF020EE05F00E50D9260F50DA22DECF22
:10FF880010F0DDCF11F010C0D9FF11C0DAFF12C098
:10FF9800DFFF20EE07F00E50D9260F50DA22DECF11
:10FFA80010F0DDCF11F010C0D9FF11C0DAFF13C077
:10FFB800DFFFFFEFFFF020EE05F00E50D9260F50BF
:10FFC800DA22DECF10F0DDCF11F010C0D9FF11C05A
:10FFD800DAFF13C0DFFF20EE07F00E50D9260F50CE
:10FFE800DA22DECF10F0DDCF11F010C0D9FF11C03A
:08FFF800DAFF12C0DFFF120066
:020000040020DA
:10000000FF0FFF0FFF0FFF0FFF0FFF0FFF0FFF0F80
:020000040030CA
:0C000000AAFFFFFF9FFFFFFFFFFFFFFFB5
:00000001FF
