:04000000A6EFFDF07A
:020000040001F9
:10FB4C000001FCEFFEF0F2ECFDF00E01DA81120088
:10FB5C00F2ECFDF00E01DA851200F2ECFDF00E0174
:10FB6C00DA831200026EF2ECFDF002C0D5FE120038
:10FB7C00046EA9ECFDF0520EB8ECFDF004508009B7
:10FB8C00B8ECFDF00350B8ECFDF0AEECFDF012005B
:10FB9C00889288908498849686908792869E819885
:10FBAC007E8E7F8279887C9880927E9080907C96E5
:10FBBC00120001500302F3CF05F0F4CF06F0015010
:10FBCC000402F350062602500302F350062605C029
:10FBDC0001F006C002F012000E01D8B5F8EFFDF0EE
:10FBEC00FAEFFDF0F2EFFDF0DACE01F01F0E011688
:10FBFC00D8A403EFFEF005EFFEF0F2EFFDF01200DB
:10FC0C000E01D951F00B0809D96FD98B9F0ED66F05
:10FC1C00848A848CA79BA79D1D0E1D6F1E0E1C6FC6
:10FC2C001C0E6F6F1B0E706F120006ECFEF0010EB7
:10FC3C00036E000EBEECFDF03F0E056E550EE82E69
:10FC4C00FED7052EFCD700F0030E036E000EBEECA3
:10FC5C00FDF0D50E036E010EBEECFDF01200036E2E
:10FC6C00F2ECFDF00E01DA87F2ECFDF0D5CE04F0EB
:10FC7C00F2ECFDF00350D8B446EFFEF04AEFFEF084
:10FC8C00026A022A4BEFFEF0026A023A02460E01A9
:10FC9C00DA510218DF0B0218DA6FDA8904501200FD
:10FCAC00A9ECFDF0520EB8ECFDF0B60EB8ECFDF080
:10FCBC00B3ECFDF0530EB8ECFDF0010E35ECFEF09C
:10FCCC00076E07500A6E0B6A000E35ECFEF0076EDD
:10FCDC000750096E086A0A5008100A6E0B5009107A
:10FCEC000B6EAEECFDF00AC005F00BC006F0120076
:10FCFC00000E0C6E000E0B6E09500A10D8B489EF72
:10FD0C00FEF08BEFFEF0B3EFFEF0010E0D6E93EFF5
:10FD1C00FEF0D89009360A360D2A0AAE98EFFEF09E
:10FD2C009AEFFEF08FEFFEF0D8900B360C360950A0
:10FD3C00075C0A500858D8A0A6EFFEF0A8EFFEF01A
:10FD4C00ADEFFEF00950075E0A50085A0B80D890B0
:10FD5C000A3209320D2E9AEFFEF00BC007F00CC0E0
:10FD6C0008F0120085948598839E879C050E0E01E1
:10FD7C00746F060E766F070E696F080E886FBD5094
:10FD8C008F0B4009BD6EE00EBE16BF50F00B010983
:10FD9C00BF6E630EBC6EBD8E000EAA6E000EA66EFC
:10FDAC00000E0F01256F000E216FFC0EAD16F30E29
:10FDBC00AD16CF0EAD163F0EAD16AB88AB50F00B9B
:10FDCC000C09AB6EAB8EA788A750F00B0C09A76E75
:10FDDC00A78E26892651F00B0C09266F268F2289B7
:10FDEC002251F00B0C09226F228F1200CEECFDF089
:10FDFC0006ECFEF01BECFEF0B8ECFEF0BCCF16F0FF
:10FE0C00000E176E010E186E010E196EAA0E1C6EE6
:10FE1C000F0E1D6EA60E1E6E0F0E1F6E16C01AF064
:10FE2C001B6A000E206E010E216E010E226E250E35
:10FE3C00256E0F0E266E210E276E0F0E286E16C025
:10FE4C0023F0246A170E0E6E000E0F6E4AECFFF0B4
:10FE5C00200E0E6E000E0F6E4AECFFF07C9E849E00
:10FE6C0056ECFEF005C014F006C015F01450151039
:10FE7C00D8B443EFFFF045EFFFF036EFFFF07C8E88
:10FE8C0036EFFFF000EF00F020EE02F00E50D92616
:10FE9C000F50DA22DF50D8B456EFFFF058EFFFF0D6
:10FEAC008CEFFFF00EC0D9FF0FC0DAFFDF50106EE1
:10FEBC001050016E026A20EE03F00E50D9260F503E
:10FECC00DA22DECF03F0DDCF04F0DFECFDF001C071
:10FEDC0007F002C008F0000E0A6E640E096E7EEC8C
:10FEEC00FEF020EE03F00E50D9260F50DA22DF5030
:10FEFC00116E0750115C126E20EE03F00E50D926D5
:10FF0C000F50DA22DF50136EAFEFFFF0000E126EBF
:10FF1C000EC0D9FF0FC0DAFFDF50106E1050016E0B
:10FF2C00026A20EE03F00E50D9260F50DA22DECFF3
:10FF3C0003F0DDCF04F0DFECFDF001C007F002C0F0
:10FF4C0008F0000E0A6E640E096E7EECFEF007508F
:10FF5C00136E20EE01F00E50D9260F50DA22DF502E
:10FF6C00D8B4BBEFFFF0BDEFFFF0DFEFFFF020EEFA
:10FF7C0005F00E50D9260F50DA22DECF10F0DDCF6F
:10FF8C0011F010C0D9FF11C0DAFF12C0DFFF20EE54
:10FF9C0007F00E50D9260F50DA22DECF10F0DDCF4D
:10FFAC0011F010C0D9FF11C0DAFF13C0DFFFFFEF53
:10FFBC00FFF020EE05F00E50D9260F50DA22DECFDE
:10FFCC0010F0DDCF11F010C0D9FF11C0DAFF13C053
:10FFDC00DFFF20EE07F00E50D9260F50DA22DECFCD
:10FFEC0010F0DDCF11F010C0D9FF11C0DAFF12C034
:04FFFC00DFFF120011
:020000040020DA
:10000000FF0FFF0FFF0FFF0FFF0FFF0FFF0FFF0F80
:020000040030CA
:0C000000AAFFFFFF9FFFFFFFFFFFFFFFB5
:00000001FF
