:040000003BEF00F0E2
:100008005B820E0133A30BEF00F00DEF00F039EF28
:1000180000F00001B651B711D8A415EF00F017EFA2
:1000280000F039EF00F0000EB56F010EB46F7C8E52
:10003800050E046E0F0E036EF10EE82EFED7032E8A
:10004800FCD7042EFAD700F07C9E050E046E0F0E26
:10005800036EF10EE82EFED7032EFCD7042EFAD736
:1000680000F08AEC0FF00E0133935B92110019EF48
:020078000EF088
:100E0000005261772025642C2025642C2025642C39
:070E1000202564200A000008
:100E180022C038F023C039F024C03AF025C03BF096
:100E280026C03CF027C03DF028C03EF029C03FF066
:100E38003FBE21EF07F024EF07F0010E25EF07F082
:100E4800000E406E4050D8B42CEF07F02EEF07F09C
:100E58003EEF07F03F1E3E1E3D1E3C1E3B1E3A1E47
:100E6800391E386C000E39223A223B223C223D22A0
:100E78003E223F220001B3BF4CEF07F0B35106E119
:100E8800B205D8B04AEF07F04CEF07F052EF07F081
:100E9800000E356E010E346E56EF07F0B2C034F016
:100EA800B3C035F0B0C036F0B1C037F04050D8B458
:100EB80060EF07F062EF07F079EF07F03606D8A089
:100EC80037064050D8A46BEF07F06DEF07F073EFCB
:100ED80007F0000E336E2B0E326E77EF07F0000E20
:100EE800336E2D0E326E32C040F0000E426E1F0E71
:100EF800416E000EDA6FFDEF07F04106D8A04206FA
:100F0800BB0E4124D96E000E4220DA6E38C005F0BF
:100F180039C006F03AC007F03BC008F03CC009F001
:100F28003DC00AF03EC00BF03FC00CF00A0E0D6E3B
:100F3800000E0E6E000E0F6E000E106E000E116E7B
:100F4800000E126E000E136E000E146EC4EC09F043
:100F580005C02AF006C02BF007C02CF008C02DF001
:100F680009C02EF00AC02FF00BC030F00CC031F0D1
:100F78002AC017F02BC018F081EC0EF01750300F74
:100F8800DF6E3406D8A035063606D8A0370638C036
:100F980005F039C006F03AC007F03BC008F03CC085
:100FA80009F03DC00AF03EC00BF03FC00CF00A0E3D
:100FB8000D6E000E0E6E000E0F6E000E106E000EFF
:100FC800116E000E126E000E136E000E146E4AECB7
:100FD80008F005C038F006C039F007C03AF008C07C
:100FE8003BF009C03CF00AC03DF00BC03EF00CC01D
:100FF8003FF042BE08EF08F0425008E14104D8A093
:1010080008EF08F00AEF08F026EF08F0385039101A
:101018003A103B103C103D103E103F10D8A417EF7B
:1010280008F019EF08F081EF07F035BE26EF08F059
:10103800355006E13404D8B024EF08F026EF08F064
:1010480081EF07F04050D8B42CEF08F02EEF08F0ED
:1010580039EF08F04106D8A04206BB0E4124D96EEC
:10106800000E4220DA6E40C0DFFF20C015F021C01C
:1010780016F0BB0E4124176E000E4220186E36C0C3
:1010880019F037C01AF07BEC0CF01200000E166E47
:1010980014BE53EF08F051EF08F065EF08F0141E86
:1010A800131E121E111E101E0F1E0E1E0D6C000E9A
:1010B8000E220F2210221122122213221422010EB4
:1010C800166E0CBE6CEF08F06AEF08F07EEF08F0C1
:1010D8000C1E0B1E0A1E091E081E071E061E056C86
:1010E800000E06220722082209220A220B220C22BD
:1010F800010E161A20EE17F0070EDE6AE806FDE26A
:101108000D500E100F101010111012101310141093
:10111800D8B491EF08F093EF08F0E5EF08F0010E6E
:10112800156EA1EF08F0D8900D360E360F36103632
:101138001136123613361436152A14AEA6EF08F0F7
:10114800A8EF08F097EF08F0D89017361836193638
:101158001A361B361C361D361E360D50055C0E50D1
:1011680006580F5007581050085811500958125077
:101178000A5813500B5814500C58D8A0C6EF08F052
:10118800C8EF08F0D9EF08F00D50055E0E50065A6A
:101198000F50075A1050085A1150095A12500A5A3B
:1011A80013500B5A14500C5A1780D890143213321B
:1011B8001232113210320F320E320D32152EA8EFC4
:1011C80008F01650D8B4EBEF08F0EDEF08F0FDEF9B
:1011D80008F01E1E1D1E1C1E1B1E1A1E191E181E80
:1011E800176C000E182219221A221B221C221D22FB
:1011F8001E2217C005F018C006F019C007F01AC063
:1012080008F01BC009F01CC00AF01DC00BF01EC07E
:101218000CF0120020EE02F01250D9261350DA22F8
:10122800DF50D8B41AEF09F01CEF09F050EF09F0BD
:1012380012C0D9FF13C0DAFFDF50146E1450056EC8
:10124800066A20EE03F01250D9261350DA22DECFB8
:1012580007F0DDCF08F02FEC0FF005C00BF006C04B
:101268000CF0000E0E6E640E0D6EB8EC0CF020EE55
:1012780003F01250D9261350DA22DF50156E0B50A6
:10128800155C166E20EE03F01250D9261350DA22A0
:10129800DF50176E73EF09F0000E166E12C0D9FFFB
:1012A80013C0DAFFDF50146E1450056E066A20EE84
:1012B80003F01250D9261350DA22DECF07F0DDCF23
:1012C80008F02FEC0FF005C00BF006C00CF0000E74
:1012D8000E6E640E0D6EB8EC0CF00B50176E20EE0F
:1012E80001F01250D9261350DA22DF50D8B47FEF1C
:1012F80009F081EF09F0A3EF09F020EE05F0125094
:10130800D9261350DA22DECF14F0DDCF15F014C041
:10131800D9FF15C0DAFF16C0DFFF20EE07F0125024
:10132800D9261350DA22DECF14F0DDCF15F014C021
:10133800D9FF15C0DAFF17C0DFFFC3EF09F020EEB1
:1013480005F01250D9261350DA22DECF14F0DDCF83
:1013580015F014C0D9FF15C0DAFF17C0DFFF20EE63
:1013680007F01250D9261350DA22DECF14F0DDCF61
:1013780015F014C0D9FF15C0DAFF16C0DFFF120040
:10138800000E166E0CBECDEF09F0CBEF09F0DFEFC3
:1013980009F00C1E0B1E0A1E091E081E071E061E3B
:1013A800056C000E06220722082209220A220B22B7
:1013B8000C22010E166E14BEE6EF09F0E4EF09F0F8
:1013C800F6EF09F0141E131E121E111E101E0F1E1A
:1013D8000E1E0D6C000E0E220F2210221122122258
:1013E800132214220D500E100F101010111012108D
:1013F80013101410D8B403EF0AF005EF0AF04DEFFC
:101408000AF0010E156E13EF0AF0D8900D360E365D
:101418000F3610361136123613361436152A14AE16
:1014280018EF0AF01AEF0AF009EF0AF00D50055C00
:101438000E5006580F5007581050085811500958A8
:1014480012500A5813500B5814500C58D8A02FEFAC
:101458000AF031EF0AF041EF0AF00D50055E0E5028
:10146800065A0F50075A1050085A1150095A12506C
:101478000A5A13500B5A14500C5AD890143213327B
:101488001232113210320F320E320D32152E1AEF7F
:101498000AF01650D8B453EF0AF055EF0AF065EF8A
:1014A8000AF00C1E0B1E0A1E091E081E071E061E29
:1014B800056C000E06220722082209220A220B22A6
:1014C8000C2205C005F006C006F007C007F008C0EA
:1014D80008F009C009F00AC00AF00BC00BF00CC0F4
:1014E8000CF0120045C0D9FF46C0DAFFDECFF6FF88
:1014F800DDCFF7FF000EF86E0800F550250AD8A4D6
:1015080088EF0AF08AEF0AF00EEF0BF045C0D9FF1A
:1015180046C0DAFFDE2A000EDD22000E0001B16FA0
:10152800000EB06FB0C0BAF0B269B36945C0D9FF58
:1015380046C0DAFFDECF53F0DDCF54F053C0F6FFDC
:1015480054C0F7FF000EF86E0800F550640AD8B4CE
:10155800B0EF0AF0B2EF0AF0C2EF0AF053C0F6FF9C
:1015680054C0F7FF000EF86E0800F550690AD8A4B9
:10157800C0EF0AF0C2EF0AF005EF0BF047C0D9FF41
:1015880048C0DAFFDFCF49F0020EDE26DFCF4AF08F
:10159800000EDD2249C0D9FF4AC0DAFFDECF4BF08A
:1015A800DDCF4CF0000E4CBEFF0E4D6E4E6E4F6EF2
:1015B800506E516E526E010E5324496E000E542027
:1015C8004A6E45C0D9FF46C0DAFF49C0DEFF4AC0AF
:1015D800DDFF43C020F044C021F04BC022F04CC0D6
:1015E80023F04DC024F04EC025F04FC026F050C067
:1015F80027F051C028F052C029F00CEC07F024EF76
:101608000BF045C0D9FF46C0DAFFDE2A000EDD2206
:1016180024EF0BF045C0D9FF46C0DAFFDECFF6FF56
:10162800DDCFF7FF000EF86E0800F550056E066A6C
:1016380043C007F044C008F0D2EC0BF005EF0BF004
:10164800120042EC0FF0F2EC0EF0C0EC0EF037ECAA
:101658000CF053EC0FF0A1EC0EF0BCCFA6F1000E8D
:101668000101A76F010EA86F010EA96FAA0EAC6F3A
:101678000F0EAD6FA60EAE6F0F0EAF6FA6C1AAF11B
:10168800AB6B000EB06F010EB16F010EB26F250E7D
:10169800B56F0F0EB66F210EB76F0F0EB86FA6C1DC
:1016A800B3F1B46BA70E126E010E136E0EEC09F0B7
:1016B800B00E126E010E136E0EEC09F021EEB9F0A9
:1016C80011EE78F0110EDBCFE3FFE806FCE221EE25
:1016D80000F0770EDE6AE806FDE2809688967C9E2A
:1016E800849E79EC0DF009C09EF10AC09FF1F1ECDF
:1016F8000DF009C0A2F10AC0A3F1A1EC0DF009C0D8
:10170800A0F10AC0A1F1C9EC0DF009C0A4F10AC00A
:10171800A5F18A0E0001E16F010EE26F010EE36F81
:101728000E0EE46F9EC1E5F09FC1E6F0A0C1E7F0A0
:10173800A1C1E8F0A2C1E9F0A3C1EAF0A4C1EBF0AD
:10174800A5C1ECF050EC0DF08A0E066E010E076E86
:10175800DAEC0EF0290E0001FB6F960EFA6F7F0E81
:10176800E82EFED7FA2FFCD7FB2FFAD780A6BFEFBB
:101778000BF0C4EF0BF00001FA6BFA2BC6EF0BF07D
:101788000001FA6BFA47FA47FA478050FA19F70B43
:10179800FA19806E75EF0BF03BEF00F00750081058
:1017A800D8B4D9EF0BF0DBEF0BF0E4EF0BF00750F8
:1017B8000810D8A4E2EF0BF0E4EF0BF0E9EF0BF020
:1017C8000550CBEC0FF036EF0CF020EE09F0075087
:1017D800D9260850DA22DE50DE10D8B4F6EF0BF026
:1017E800F8EF0BF013EF0CF020EE09F00750D926B4
:1017F8000850DA2210EE03F00750E1260850E222E2
:10180800DE50E65CE650800A0D6EDE50800A0D5808
:10181800D8B011EF0CF013EF0CF036EF0CF020EE0F
:1018280003F00750D9260850DA22DECF09F0DDCFC1
:101838000AF007C0D9FF08C0DAFFDECF0BF0DDCF12
:101848000CF009500B24D96E0A500C20DA6E05C032
:10185800DFFF20EE03F00750D9260850DA22DE2AEF
:10186800000EDD22120085948598839E879C050EC4
:101878000E01746F060E766F070E696F080E886F7B
:10188800BD508F0B4009BD6EE00EBE16BF50F00B69
:101898000109BF6E630EBC6EBD8E000EAA6E000EEF
:1018A800A66E000E0F01256F000E216FFC0EAD16FF
:1018B800F30EAD16CF0EAD163F0EAD16AB88AB507E
:1018C800F00B0C09AB6EAB8EA788A750F00B0C0978
:1018D800A76EA78E26892651F00B0C09266F268F36
:1018E80022892251F00B0C09226F228F12001ABE96
:1018F80080EF0CF082EF0CF088EF0CF019C01EF0AE
:101908001AC01FF08CEF0CF0000E1F6E000E1E6E3A
:10191800000E1D6E000E1C6E9EEF0CF0000E066E83
:10192800200E056E15C007F016C008F0D2EC0BF0BB
:101938001C4A1D2A1E501C5C1D50800A1B6E1F501D
:10194800800A1B58D8A0ABEF0CF0ADEF0CF092EF6B
:101958000CF017C00EF018C00FF015C010F016C02C
:1019680011F03EEC0EF01200000E106E000E0F6E1D
:101978000D500E10D8B4C3EF0CF0C5EF0CF0EDEF1E
:101988000CF0010E116ECDEF0CF0D8900D360E361E
:10199800112A0EAED2EF0CF0D4EF0CF0C9EF0CF018
:1019A800D8900F3610360D500B5C0E500C58D8A03E
:1019B800E0EF0CF0E2EF0CF0E7EF0CF00D500B5EEF
:1019C8000E500C5A0F80D8900E320D32112ED4EFD3
:1019D8000CF00FC00BF010C00CF012000DC007F097
:1019E8000C0E63EC0FF00A50076E050E63EC0FF057
:1019F800000E0F6E09500A10D8B405EF0DF007EF6E
:101A08000DF009EF0DF0010E0F6E0FC007F0040E78
:101A180063EC0FF00C50076E070E63EC0FF0000E2E
:101A2800106E0B500C10D8B41CEF0DF01EEF0DF01B
:101A380020EF0DF0010E106E10C007F0060E63ECDB
:101A48000FF01200DDC055F0DEC056F03AEF0DF091
:101A5800DBC043F0DCC044F0550E456E000E466E08
:101A6800DFC047F0E0C048F076EC0AF055C0F6FF5A
:101A780056C0F7FF000EF86E0800F5500009D8A40C
:101A880048EF0DF04AEF0DF02CEF0DF0000E0001BD
:101A9800DC6F000EDB6F1200E50E0001ED6F000E2B
:101AA800EE6FE1C0EFF0E2C0F0F0000EF36F000E51
:101AB800F26F000EF96F000EF86FEF0EDB6F000E7D
:101AC800DC6FE3C0DDF0E4C0DEF0ED0EDF6F000E8A
:101AD800E06F26EC0DF00001F251E125D96EF351CB
:101AE800E221DA6E000EDF6E1200BCEC0FF0520E2F
:101AF800A6EC0FF0B60EA6EC0FF0B2EC0FF0530EFA
:101B0800A6EC0FF0010E60EC0EF00B6E0B500E6E93
:101B18000F6A000E60EC0EF00B6E0B500D6E0C6A27
:101B28000E500C100E6E0F500D100F6EB7EC0FF01C
:101B38000EC009F00FC00AF01200BCEC0FF0520EF4
:101B4800A6EC0FF0B80EA6EC0FF0B2EC0FF0530EA7
:101B5800A6EC0FF0010E60EC0EF00B6E0B500E6E43
:101B68000F6A000E60EC0EF00B6E0B500D6E0C6AD7
:101B78000E500C100E6E0F500D100F6EB7EC0FF0CC
:101B88000EC009F00FC00AF01200BCEC0FF0520EA4
:101B9800A6EC0FF0B40EA6EC0FF0B2EC0FF0530E5B
:101BA800A6EC0FF0010E60EC0EF00B6E0B500E6EF3
:101BB8000F6A000E60EC0EF00B6E0B500D6E0C6A87
:101BC8000E500C100E6E0F500D100F6EB7EC0FF07C
:101BD8000EC009F00FC00AF01200BCEC0FF0520E54
:101BE800A6EC0FF0BA0EA6EC0FF0B2EC0FF0530E05
:101BF800A6EC0FF0010E60EC0EF00B6E0B500E6EA3
:101C08000F6A000E60EC0EF00B6E0B500D6E0C6A36
:101C18000E500C100E6E0F500D100F6EB7EC0FF02B
:101C28000EC009F00FC00AF012002A0EF66E1F0E41
:101C3800F76E000EF86E01EEB9F010EE12F0090022
:101C4800F5CFEEFFE550E150FAE102EE00F0780E34
:101C5800EE6AE806FDE100EE60F07B0EEE6AE8064B
:101C6800FDE15A6A596A586A576A5B905B920001AB
:101C780025EF0BF0000E146E000E136E4FEF0EF0F2
:101C880012C005F0066A10C007F011C008F0D2ECC7
:101C98000BF0134A142A13500E24D96E14500F2037
:101CA800DA6EDF50126E1250D8A45DEF0EF05FEFBF
:101CB8000EF044EF0EF01200076E07EC0FF00E0165
:101CC800DA8707EC0FF0D5CE08F007EC0FF00750D5
:101CD800D8B471EF0EF075EF0EF0066A062A76EFAB
:101CE8000EF0066A063A06460E01DA510618DF0BB0
:101CF8000618DA6FDA890850120018BE8EEF0EF057
:101D0800185006E11704D8B08CEF0EF08EEF0EF0E5
:101D18009CEF0EF017C019F018C01AF0191E1A1E01
:101D2800194A1A2A19C017F01AC018F0A0EF0EF0B5
:101D380017C017F018C018F012009EEC0FF0000E34
:101D48000A6E010E096E070E0C6ED00E0B6E000E99
:101D58000E6E040E0D6EF2EC0CF082920E019A9348
:101D6800090E0D01F16F0E0129831F83F292F28C87
:101D7800F28AF28CF28E1200F2EC0EF0010E076E6F
:101D8800000E63EC0FF03F0E096E550EE82EFED7DD
:101D9800092EFCD700F0030E076E000E63EC0FF05F
:101DA800D50E076E010E63EC0FF01200E5EF0EF092
:101DB80006C0D9FF07C0DAFFDF5073EC0FF0064A00
:101DC800072A06C0D9FF07C0DAFFDF50D8A4EFEF13
:101DD8000EF0F1EF0EF0DCEF0EF012000E01D9510B
:101DE800F00B0809D96FD98B9F0ED66F848A848C23
:101DF800A79BA79D1D0E1D6F1E0E1C6F1C0E6F6FDF
:101E08001B0E706F12000E01D8B50DEF0FF00FEF1B
:101E18000FF007EF0FF0DACE05F01F0E0516D8A465
:101E280018EF0FF01AEF0FF007EF0FF012000E0186
:101E3800D8B521EF0FF023EF0FF01BEF0FF0DACE3C
:101E480001F01F0E0116D8A42CEF0FF02EEF0FF0A3
:101E58001BEF0FF0120005500702F3CF09F0F4CF83
:101E68000AF005500802F3500A2606500702F350FC
:101E78000A2609C005F00AC006F012008892889068
:101E88008498849686908792869E81987E8E7F829B
:101E980079887C9880927E9080907C961200120EB1
:101EA8000E01626F110E156F8382E997E895330E64
:101EB800E56F000EE66FE789E88BE78F1200086E82
:101EC800BCEC0FF0520EA6EC0FF008508009A6ECFF
:101ED8000FF00750A6EC0FF0B7EC0FF01200056EEC
:101EE8000E0137A57AEF0FF07CEF0FF074EF0FF0CB
:101EF80005C0E4FE1200BCEC0FF0520EA6EC0FF089
:101F0800E60EA6EC0FF0B7EC0FF01200C6EC0FF0DF
:101F1800520EACEC0FF0E60EACEC0FF0C1EC0FF08B
:101F28001200C832280A0807D02064198813301113
:101F38000807F00A7FEC0FF0130E076E000E63EC33
:101F48000FF01200066E07EC0FF006C0D5FE120067
:101F5800026E1BEC0FF002C0D5FE120007EC0FF06A
:101F68000E01DA83120007EC0FF00E01DA85120079
:101F780007EC0FF00E01DA8112001BEC0FF00E01D6
:101F8800DA8512001BEC0FF00E01DA811200120044
:020000040020DA
:10000000FF0FFF0FFF0FFF0FFF0FFF0FFF0FFF0F80
:020000040030CA
:0C000000AAFFFFFF9FFFFFFFFFFFFFFFB5
:00000001FF
