:040000002EEF00F0EF
:100018005B80D8CF01F0E8CF02F0E0CF03F00E010B
:1000280033AB19EF00F01BEF00F026EF00F03C0EA9
:10003800D46EAF0ED36E000E0001DC6F010EDB6FC5
:100048000E01339B03C0E0FF02C0E8FF01C0D8FFE8
:080058005B9010002CEF95F005
:10FEF200000A2045585045435445443A20436C6516
:10FF020061722025642C522025642C204720256410
:10FF12002C20422025642020434152443A2025646B
:10FF2200200A000A204156473A20436C656172203C
:10FF320025642C20522025642C20472025642C2067
:10FF420042202564200A0054696D6572636F756EE4
:10FF5200742061727261792072656164696E6720D2
:10FF62002564200A004361726420676F6E6E61200F
:10FF7200726573706F6E6420746F202564200A00AE
:10FF820054696D6572636F756E742025642C2074DC
:10FF9200696D6520256420200A0043617264636FE5
:10FFA200756E742025642C206361726420256420A0
:10FFB200200A0054696D6520676F6E6E61206D6F57
:10FFC200766520666F72202564200A000A20457833
:10FFD20070656374656420636C6561723A202564A0
:10FFE200200A0043617264636F756E742025642079
:0DFFF2000A0043415244202564200A00000B
:020000040001F9
:1000000050EF83F084C017F085C018F086C019F057
:1000100087C01AF098EC92F0190E00018F6F5A0EFB
:100020008E6FB10EE82EFED78E2FFCD78F2FFAD70A
:1000300000D084C017F085C018F086C019F087C0C2
:100040001AF09DEC91F084C017F085C018F086C0BE
:1000500019F087C01AF00BEC94F084C017F085C03B
:1000600018F086C019F087C01AF09DEC91F084C09A
:1000700017F085C018F086C019F087C01AF00BEC95
:1000800094F082EF83F084C017F085C018F086C02A
:1000900019F087C01AF098EC92F0190E00018F6FDA
:1000A0005A0E8E6FB10EE82EFED78E2FFCD78F2FF3
:1000B000FAD700D084C017F085C018F086C019F0B8
:1000C00087C01AF0F4EC91F084C017F085C018F0E6
:1000D00086C019F087C01AF00BEC94F084C017F0BA
:1000E00085C018F086C019F087C01AF0F4EC91F0C2
:1000F00037EF80F084C017F085C018F086C019F083
:1001000087C01AF098EC92F0190E00018F6F5A0E0A
:100110008E6FB10EE82EFED78E2FFCD78F2FFAD719
:1001200000D084C017F085C018F086C019F087C0D1
:100130001AF09DEC91F084C017F085C018F086C0CD
:1001400019F087C01AF00BEC94F084C017F085C04A
:1001500018F086C019F087C01AF09DEC91F084C0A9
:1001600017F085C018F086C019F087C01AF00BECA4
:1001700094F019EF80F084C017F085C018F086C0A5
:1001800019F087C01AF098EC92F08A0E00018F6F78
:10019000FD0E8E6F4F0EE82EFED78E2FFCD78F2FC1
:1001A000FAD7AFEF80F084C017F085C018F086C092
:1001B00019F087C01AF098EC92F08A0E00018F6F48
:1001C000FD0E8E6F4F0EE82EFED78E2FFCD78F2F91
:1001D000FAD784C017F085C018F086C019F087C020
:1001E0001AF00BEC94F05AEF80F084C017F085C041
:1001F00018F086C019F087C01AF098EC92F0190E2A
:1002000000018F6F5A0E8E6FB10EE82EFED78E2F23
:10021000FCD78F2FFAD700D0A5EF80F084C017F05D
:1002200085C018F086C019F087C01AF098EC92F0DB
:10023000190E00018F6F5A0E8E6FB10EE82EFED789
:100240008E2FFCD78F2FFAD700D084C017F085C02F
:1002500018F086C019F087C01AF0F4EC91F0E9EFBD
:1002600080F084C017F085C018F086C019F087C0F0
:100270001AF098EC92F0190E00018F6F5A0E8E6FE3
:10028000B10EE82EFED78E2FFCD78F2FFAD700D0D5
:1002900084C017F085C018F086C019F087C01AF026
:1002A0000BEC94F084C017F085C018F086C019F0EC
:1002B00087C01AF0F4EC91F084C017F085C018F0F4
:1002C00086C019F087C01AF00BEC94F084C017F0C8
:1002D00085C018F086C019F087C01AF0F4EC91F0D0
:1002E00084C017F085C018F086C019F087C01AF0D6
:1002F0000BEC94F0090E00018F6F1E0E8E6FE40E52
:10030000E82EFED78E2FFCD78F2FFAD700F084C0AF
:1003100017F085C018F086C019F087C01AF0F4EC09
:1003200091F084C017F085C018F086C019F087C01E
:100330001AF00BEC94F084C017F085C018F086C05A
:1003400019F087C01AF0F4EC91F084C017F085C062
:1003500018F086C019F087C01AF00BEC94F0000E6C
:100360000001996F000E986F81C066F082C067F03F
:10037000820E686FFF0E696F98C06AF099C06BF0CB
:10038000D8909835D96E9935DA6E8851D926895129
:10039000DA22DECF6CF0DDCF6DF063EC94F081C03B
:1003A00005F082C006F0CDEC95F081C066F082C009
:1003B00067F09C0E0001686FFF0E696F98C06AF0CD
:1003C00099C06BF098518A25D96E99518B21DA6EBC
:1003D000DF508E6F8E516C6F6D6B63EC94F081C04B
:1003E00005F082C006F0CDEC95F00001984B992BFA
:1003F00099BF04EF82F0995109E1060E985DD8A0EB
:1004000004EF82F006EF82F0B4EF81F0000E9B6FF4
:100410001C0E9A6F9BBF11EF82F00FEF82F013EF6B
:1004200082F0D4EF82F09AC08EF09BC08FF0D8900B
:100430008E378F378E518825906F8F518921916F1C
:10044000020E9025D96E000E9121DA6EDE50DE107C
:10045000D8B42DEF82F02FEF82F0CEEF82F084C07F
:1004600017F085C018F086C019F087C01AF04BEC61
:1004700092F081C066F082C067F0B50E0001686F2F
:10048000FF0E696F9AC08EF09BC08FF0D8908E37A8
:100490008F378E518825906F8F518921916F020E71
:1004A0009025D96E000E9121DA6EDECF6AF0DDCF95
:1004B0006BF063EC94F081C005F082C006F0CDECE7
:1004C00095F0000E0001956F000E946F78EF82F0AA
:1004D000090E00018F6F1E0E8E6FE40EE82EFED700
:1004E0008E2FFCD78F2FFAD700F00001944B952B5D
:1004F0009AC08EF09BC08FF0D8908E378F378E5178
:100500008825906F8F518921916F020E9025D96EA9
:10051000000E9121DA6E9451DE5C9551DE58D8B010
:1005200094EF82F096EF82F068EF82F084C017F0CB
:1005300085C018F086C019F087C01AF00BEC94F053
:1005400081C066F082C067F0670E0001686FFF0E21
:10055000696F9A518A25D96E9B518B21DA6EDF50D3
:100560008E6F8E516A6F6B6B63EC94F081C005F0F7
:1005700082C006F0CDEC95F084C01FF085C020F05D
:1005800086C021F087C022F000019A518A25D96ED9
:100590009B518B21DA6EDF5053EC86F000019A07F5
:1005A000D8A09B070AEF82F081C066F082C067F096
:1005B000B50E686FFF0E696F88C0D9FF89C0DAFF7A
:1005C000DECF6AF0DDCF6BF063EC94F081C005F014
:1005D00082C006F0CDEC95F084C017F085C018F00D
:1005E00086C019F087C01AF04BEC92F0000E0001A3
:1005F000976F000E966F0DEF83F0090E00018F6F5D
:100600001E0E8E6FE40EE82EFED78E2FFCD78F2F96
:10061000FAD700F00001964B972B88C0D9FF89C00C
:10062000DAFF9651DE5C9751DE58D8B01AEF83F0AE
:100630001CEF83F0FDEF82F084C017F085C018F046
:1006400086C019F087C01AF00BEC94F08CC0D9FF6B
:100650008DC0DAFF010EDE6E000EDD6E82EF83F0DC
:100660008086110E00018F6F3C0E8E6FCB0EE82E30
:10067000FED78E2FFCD78F2FFAD7809682EF83F08C
:100680008082290E00018F6F960E8E6F7F0EE82EEE
:10069000FED78E2FFCD78F2FFAD7809282EF83F070
:1006A000000183518E6F8F6B8F51000AD8B45BEFBE
:1006B00083F040EF83F08E51000AD8B402EF80F04F
:1006C000010AD8B443EF80F0030AD8B47AEF80F07F
:1006D000010AD8B4BBEF80F0070AD8B4D3EF80F09A
:1006E000010AD8B4F5EF80F0030AD8B40EEF81F018
:1006F000010AD8B431EF81F00F0AD8B430EF83F09B
:1007000040EF83F01200FAEC95F0E5EC95F0B3ECD5
:1007100095F0DEEC92F04BEC96F00FEC96F08684C0
:100720000E01B4958686B497BCCFB3F0000E0101DC
:10073000F76F010EF86F010EF96FAA0EFC6F0F0E26
:10074000FD6FA60EFE6F0F0EFF6FB3C0FAF1FB6BCD
:10075000000E0201A26F010EA36F010EA46F250E01
:10076000A76F0F0EA86F210EA96F0F0EAA6FB3C04F
:10077000A5F2A66BF70E116E010E126E0EEC8EF046
:10078000A20E116E020E126E0EEC8EF0000E000123
:10079000BC6F000EBB6F000EBE6F000EBD6F000E73
:1007A0000101F36F000EF26F000EF66F000EF56F91
:1007B000000E0001B66F000EB56F000E0101F16F63
:1007C000000EF06F000E0001B86F000EB76F22EE42
:1007D0001EF03B0EDE6AE806FDE222EEABF012EE02
:1007E00000F01D0EDBCFE3FFE806FCE2000EBA6F5F
:1007F000000EB96F7C98000E0101F46F01EF84F0D8
:100800007C888EB406EF84F008EF84F000EF84F06B
:100810007C98090E576E1E0E566EE40EE82EFED71B
:10082000562EFCD7572EFAD700D0F70E176E010EB2
:10083000186EA20E196E020E1A6E0BEC94F0020ED8
:10084000576EA00E566E920EE82EFED7562EFCD78F
:10085000572EFAD700D0F70E176E010E186EA20EA3
:10086000196E020E1A6E98EC92F00D0E576E2D0E48
:10087000566ED80EE82EFED7562EFCD7572EFAD736
:10088000F70E176E010E186EA20E196E020E1A6E7A
:100890000BEC94F0F50E0F6E010E106EBB0E116E88
:1008A000000E126EBD0E136E000E146EF20E156E5B
:1008B000010E166E54EC8BF00101F451020D5A0E2C
:1008C000F324D96E020EF420DA6EBBC0DEFFBCC08A
:1008D000DDFFF451020D120EF326000EF4225A0E23
:1008E000F324D96E020EF420DA6EBDC0DEFFBEC066
:1008F000DDFFF451020D240EF326000EF4225A0EF1
:10090000F324D96E020EF420DA6EF2C1DEFFF3C1D9
:10091000DDFFF451020D360EF326000EF4225A0EBE
:10092000F324D96E020EF420DA6EF5C1DEFFF6C1B3
:10093000DDFF5A0E0001666F010E676FF30E686FE0
:10094000FE0E696FF5C16AF0F6C16BF0BBC06CF0CA
:10095000BCC06DF0BDC06EF0BEC06FF0F2C170F0F3
:10096000F3C171F0F4C172F0736B63EC94F05A0E42
:10097000056E010E066ECDEC95F00101F42B080E0C
:10098000F465C5EF84F0C7EF84F001EF84F07C8854
:10099000CBEF84F07C988EB4D0EF84F0D2EF84F06B
:1009A000CAEF84F05A0E0001816F010E826FF50EBE
:1009B000836F010E846FB70E856F000E866F25EC76
:1009C00090F05A0E0001666F010E676FCE0E686FD1
:1009D000FF0E696FF5C16AF0F6C16BF063EC94F03D
:1009E0005A0E056E010E066ECDEC95F08EB4FBEF3F
:1009F00084F0FDEF84F0F6EF84F0F70E176E010E31
:100A0000186EA20E196E020E1A6E4BEC92F00001D7
:100A1000DB05DC11D8A40FEF85F011EF85F03DEF79
:100A200085F0B54BB62BB5C004F0B6C005F0000E8E
:100A3000076E0A0E066ED9EC93F004500510D8A488
:100A400024EF85F026EF85F038EF85F080A62BEFB8
:100A500085F02FEF85F0566A562A30EF85F0566AFA
:100A600056465646564680505618F70B5618806E16
:100A7000000E0001DC6F000EDB6FDCEC94F008C0B0
:100A8000F5F109C0F6F10101F5510001B75D010171
:100A9000F6510001B859D8B050EF85F052EF85F00B
:100AA00043EF86F0B951BA11D8A459EF85F05BEF46
:100AB00085F043EF86F05A0E666F010E676FE50E04
:100AC000686FFF0E696FF0C16AF0F1C16BF063EC03
:100AD00094F05A0E056E010E066ECDEC95F0FA0EEE
:100AE0000001B525566EFF0EB621576ED890010154
:100AF000F035D96EF135DA6E1E0ED926020EDA22E5
:100B000056C0DEFF57C0DDFF5A0E0001666F010EB2
:100B1000676F490E686FFF0E696FD8900101F0355D
:100B2000D96EF135DA6E1E0ED926020EDA22DECF2C
:100B30006AF0DDCF6BF063EC94F05A0E056E010E97
:100B4000066ECDEC95F02A0E566E8E0EE82EFED770
:100B5000562EFCD7F70E176E010E186EA20E196EE8
:100B6000020E1A6E0BEC94F0020E576EA00E566E2B
:100B7000920EE82EFED7562EFCD7572EFAD700D06D
:100B8000F70E176E010E186EA20E196E020E1A6E77
:100B900098EC92F00D0E576E2D0E566ED80EE82E74
:100BA000FED7562EFCD7572EFAD7F70E176E010E2A
:100BB000186EA20E196E020E1A6E0BEC94F02A0E2D
:100BC000566E8E0EE82EFED7562EFCD75A0E00011A
:100BD0009C6F010E9D6FF50E9E6F010E9F6FBB0EF9
:100BE000A06F000EA16FBD0EA26F000EA36FF20EDC
:100BF000A46F010EA56F5A0EA66F020EA76FB4C0A8
:100C0000A8F0F70EA96F010EAA6FA20EAB6F020E2D
:100C1000AC6F1E0EAD6F020EAE6F000EAF6F020E08
:100C2000B06FB90EB16F000EB26F55EC8DF00001D0
:100C3000B46F2A0E566E8E0EE82EFED7562EFCD7B7
:100C4000000E0101F025D96E020EF121DA6EB4C05A
:100C5000DFFFF04BF12B000E0001B66F000EB56FF9
:100C6000B951BA11D8A437EF86F039EF86F043EFC7
:100C700086F0F70E176E010E186EA20E196E020E98
:100C80001A6E4BEC92F08EB648EF86F04AEF86F083
:100C900007EF85F0000E0001BA6F000EB96F07EF85
:100CA00085F02EEF00F0266E000E256E7C8E090E6C
:100CB000246E1E0E236EE40EE82EFED7232EFCD7E4
:100CC000242EFAD700D07C9E090E246E1E0E236EB1
:100CD000E40EE82EFED7232EFCD7242EFAD700D020
:100CE000252A2550265CD8B078EF86F07AEF86F07A
:100CF00056EF86F076EF88F01FC017F020C018F08E
:100D000021C019F022C01AF0F4EC91F01FC017F0C6
:100D100020C018F021C019F022C01AF00BEC94F09A
:100D20001FC017F020C018F021C019F022C01AF01F
:100D3000F4EC91F01FC017F020C018F021C019F09A
:100D400022C01AF00BEC94F0A3EF88F01FC017F04C
:100D500020C018F021C019F022C01AF09DEC91F0CB
:100D60001FC017F020C018F021C019F022C01AF0DF
:100D70000BEC94F01FC017F020C018F021C019F040
:100D800022C01AF09DEC91F01FC017F020C018F09F
:100D900021C019F022C01AF00BEC94F0A3EF88F0F8
:100DA0001FC017F020C018F021C019F022C01AF09F
:100DB0009DEC91F01FC017F020C018F021C019F071
:100DC00022C01AF00BEC94F01FC017F020C018F0EE
:100DD00021C019F022C01AF09DEC91F01FC017F04D
:100DE00020C018F021C019F022C01AF00BEC94F0CA
:100DF0001FC017F020C018F021C019F022C01AF04F
:100E00009DEC91F01FC017F020C018F021C019F020
:100E100022C01AF00BEC94F01FC017F020C018F09D
:100E200021C019F022C01AF09DEC91F01FC017F0FC
:100E300020C018F021C019F022C01AF00BEC94F079
:100E4000A3EF88F01FC017F020C018F021C019F0E0
:100E500022C01AF00BEC94F01FC017F020C018F05D
:100E600021C019F022C01AF09DEC91F01FC017F0BC
:100E700020C018F021C019F022C01AF00BEC94F039
:100E80001FC017F020C018F021C019F022C01AF0BE
:100E90009DEC91F01FC017F020C018F021C019F090
:100EA00022C01AF00BEC94F01FC017F020C018F00D
:100EB00021C019F022C01AF04BEC92F08A0E246E79
:100EC000FD0E236E4F0EE82EFED7232EFCD7242EC8
:100ED000FAD700F01FC017F020C018F021C019F099
:100EE00022C01AF09DEC91F01FC017F020C018F03E
:100EF00021C019F022C01AF00BEC94F01FC017F0BB
:100F000020C018F021C019F022C01AF09DEC91F019
:100F10001FC017F020C018F021C019F022C01AF02D
:100F20000BEC94F01FC017F020C018F021C019F08E
:100F300022C01AF09DEC91F01FC017F020C018F0ED
:100F400021C019F022C01AF00BEC94F01FC017F06A
:100F500020C018F021C019F022C01AF09DEC91F0C9
:100F60001FC017F020C018F021C019F022C01AF0DD
:100F70000BEC94F0A3EF88F01FC017F020C018F01E
:100F800021C019F022C01AF00BEC94F01FC017F02A
:100F900020C018F021C019F022C01AF0F4EC91F032
:100FA0001FC017F020C018F021C019F022C01AF09D
:100FB0000BEC94F01FC017F020C018F021C019F0FE
:100FC00022C01AF0F4EC91F01FC017F020C018F006
:100FD00021C019F022C01AF00BEC94F01FC017F0DA
:100FE00020C018F021C019F022C01AF04BEC92F08A
:100FF0005EEF87F01FC017F020C018F021C019F075
:1010000022C01AF0F4EC91F01FC017F020C018F0C5
:1010100021C019F022C01AF00BEC94F01FC017F099
:1010200020C018F021C019F022C01AF0F4EC91F0A1
:101030001FC017F020C018F021C019F022C01AF00C
:101040000BEC94F01FC017F020C018F021C019F06D
:1010500022C01AF0F4EC91F01FC017F020C018F075
:1010600021C019F022C01AF00BEC94F0A3EF88F025
:101070001FC017F020C018F021C019F022C01AF0CC
:101080009DEC91F01FC017F020C018F021C019F09E
:1010900022C01AF00BEC94F01FC017F020C018F01B
:1010A00021C019F022C01AF09DEC91F01FC017F07A
:1010B00020C018F021C019F022C01AF00BEC94F0F7
:1010C0001FC017F020C018F021C019F022C01AF07C
:1010D0009DEC91F01FC017F020C018F021C019F04E
:1010E00022C01AF00BEC94F0A3EF88F02650236E88
:1010F000246A2450000AD8B480EF88F0A3EF88F067
:101100002350000AD8B47CEF86F0010AD8B4A6EFC9
:1011100086F0030AD8B4D0EF86F0010AD8B422EFE3
:1011200087F0070AD8B4BCEF87F0010AD8B4FAEF09
:1011300087F0030AD8B438EF88F0010AD8B4B0EFCA
:1011400087F0A3EF88F01200000E326E3250020DCD
:10115000F3CF28F0F4CF29F028502424D96E295059
:101160002520DA6EDECF2AF0DDCF2BF02A501E5C70
:10117000166E2B501F58176E93EC95F016C030F07A
:1011800017C031F030C004F031C005F0000E076E1A
:10119000640E066E38EC96F004C00AF005C00BF041
:1011A0003250020DF3CF28F0F4CF29F02850242438
:1011B000D96E29502520DA6EDECF0CF0DDCF0DF090
:1011C0009FEC93F03250020DF3CF2AF0F4CF2BF0C6
:1011D0002A502624D96E2B502720DA6E0AC0DEFF53
:1011E0000BC0DDFF3250020DF3CF28F0F4CF29F011
:1011F000285024242A6E295025202B6E120E2A24D2
:10120000D96E000E2B20DA6EDECF2CF0DDCF2DF064
:101210002C50205C166E2D502158176E93EC95F0D3
:1012200016C030F017C031F030C004F031C005F006
:10123000000E076E640E066E38EC96F004C00AF0DD
:1012400005C00BF03250020DF3CF28F0F4CF29F097
:10125000285024242A6E295025202B6E120E2A2471
:10126000D96E000E2B20DA6EDECF0CF0DDCF0DF044
:101270009FEC93F03250020DF3CF2CF0F4CF2DF011
:101280002C5026242E6E2D5027202F6E120E2E2429
:10129000D96E000E2F20DA6E0AC0DEFF0BC0DDFF14
:1012A0003250020DF3CF28F0F4CF29F02850242437
:1012B0002A6E295025202B6E240E2A24D96E000E6A
:1012C0002B20DA6EDECF2CF0DDCF2DF02C50225CFF
:1012D000166E2D502358176E93EC95F016C030F013
:1012E00017C031F030C004F031C005F0000E076EB9
:1012F000640E066E38EC96F004C00AF005C00BF0E0
:101300003250020DF3CF28F0F4CF29F028502424D6
:101310002A6E295025202B6E240E2A24D96E000E09
:101320002B20DA6EDECF0CF0DDCF0DF09FEC93F0CA
:101330003250020DF3CF2CF0F4CF2DF02C50262498
:101340002E6E2D5027202F6E240E2E24D96E000EC7
:101350002F20DA6E0AC0DEFF0BC0DDFF3250020D17
:10136000F3CF28F0F4CF29F0285024242A6E2950F6
:1013700025202B6E360E2A24D96E000E2B20DA6E15
:10138000DECF2CF0DDCF2DF02C501C5C166E2D50D6
:101390001D58176E93EC95F016C030F017C031F061
:1013A00030C004F031C005F0000E076E640E066E0A
:1013B00038EC96F004C00AF005C00BF03250020D74
:1013C000F3CF28F0F4CF29F0285024242A6E295096
:1013D00025202B6E360E2A24D96E000E2B20DA6EB5
:1013E000DECF0CF0DDCF0DF09FEC93F03250020D0C
:1013F000F3CF2CF0F4CF2DF02C5026242E6E2D5050
:1014000027202F6E360E2E24D96E000E2F20DA6E76
:101410000AC0DEFF0BC0DDFF322A080E326413EF74
:101420008AF015EF8AF0A6EF88F0120021C037F09D
:1014300022C038F023C039F024C03AF025C03BF078
:1014400026C03CF027C03DF028C03EF03EBE2BEF4A
:101450008AF02EEF8AF0010E2FEF8AF0000E3F6E19
:101460003F50D8B436EF8AF038EF8AF048EF8AF070
:101470003E1E3D1E3C1E3B1E3A1E391E381E376C5A
:10148000000E382239223A223B223C223D223E22C3
:101490000001D6BF56EF8AF0D65106E1D505D8B087
:1014A00054EF8AF056EF8AF05CEF8AF0000E346E4B
:1014B000010E336E60EF8AF0D5C033F0D6C034F041
:1014C000D3C035F0D4C036F03F50D8B46AEF8AF0BC
:1014D0006CEF8AF083EF8AF03506D8A036063F50CD
:1014E000D8A475EF8AF077EF8AF07DEF8AF0000ECE
:1014F000326E2B0E316E81EF8AF0000E326E2D0EA1
:10150000316E31C03FF0000E416E1F0E406E000E76
:10151000FE6F07EF8BF04006D8A04106DF0E402497
:10152000D96E000E4120DA6E37C004F038C005F0E5
:1015300039C006F03AC007F03BC008F03CC009F0E3
:101540003DC00AF03EC00BF00A0E0C6E000E0D6E90
:10155000000E0E6E000E0F6E000E106E000E116E5D
:10156000000E126E000E136EC4EC8EF004C029F053
:1015700005C02AF006C02BF007C02CF008C02DF0E3
:1015800009C02EF00AC02FF00BC030F029C016F0B1
:101590002AC017F093EC95F01650300FDF6E33062B
:1015A000D8A034063506D8A0360637C004F038C0B7
:1015B00005F039C006F03AC007F03BC008F03CC067
:1015C00009F03DC00AF03EC00BF00A0E0C6E000E92
:1015D0000D6E000E0E6E000E0F6E000E106E000EE1
:1015E000116E000E126E000E136E91EC8CF004C0A2
:1015F00037F005C038F006C039F007C03AF008C02F
:101600003BF009C03CF00AC03DF00BC03EF041BECB
:1016100012EF8BF0415008E14004D8A012EF8BF09C
:1016200014EF8BF030EF8BF03750381039103A1040
:101630003B103C103D103E10D8A421EF8BF023EF5F
:101640008BF08BEF8AF034BE30EF8BF0345006E134
:101650003304D8B02EEF8BF030EF8BF08BEF8AF0A5
:101660003F50D8B436EF8BF038EF8BF043EF8BF070
:101670004006D8A04106DF0E4024D96E000E41205E
:10168000DA6E3FC0DFFF1FC014F020C015F0DF0E80
:101690004024166E000E4120176E35C018F036C07B
:1016A00019F062EC93F01200000E1A6E000E196E23
:1016B000DCEC94F00FC0D9FF10C0DAFF08C0DEFFE9
:1016C00009C0DDFF8CEC94F011C0D9FF12C0DAFF25
:1016D00008C0DEFF09C0DDFFB4EC94F013C0D9FFF1
:1016E00014C0DAFF08C0DEFF09C0DDFF04EC95F08E
:1016F00015C0D9FF16C0DAFF08C0DEFF09C0DDFF44
:10170000194A1A2A1ABE8EEF8BF0F50E195C010EDB
:101710001A58D8A08EEF8BF090EF8BF058EF8BF02B
:10172000000E1C6E000E1B6EDCEC94F00FC0D9FF97
:1017300010C0DAFF0850DE260950DD22110E186EA7
:101740003C0E176ECB0EE82EFED7172EFCD7182EA8
:10175000FAD700F01B4A1C2A1CBEB8EF8BF01C50B5
:1017600009E1030E1B5CD8A0B8EF8BF0BAEF8BF049
:1017700094EF8BF00FC0D9FF10C0DAFFDECF17F067
:10178000DDCF18F0D89018321732D89018321732AF
:101790000FC0D9FF10C0DAFF17C0DEFF18C0DDFF91
:1017A000000E1E6E000E1D6E8CEC94F011C0D9FF61
:1017B00012C0DAFF0850DE260950DD22110E186E25
:1017C0003C0E176ECB0EE82EFED7172EFCD7182E28
:1017D000FAD700F01D4A1E2A1EBEF8EF8BF01E50ED
:1017E00009E1030E1D5CD8A0F8EF8BF0FAEF8BF047
:1017F000D4EF8BF011C0D9FF12C0DAFFDECF17F0A3
:10180000DDCF18F0D89018321732D890183217322E
:1018100011C0D9FF12C0DAFF17C0DEFF18C0DDFF0C
:10182000000E206E000E1F6EB4EC94F013C0D9FFB2
:1018300014C0DAFF0850DE260950DD22110E186EA2
:101840003C0E176ECB0EE82EFED7172EFCD7182EA7
:10185000FAD700F01F4A202A20BE38EF8CF0205023
:1018600009E1030E1F5CD8A038EF8CF03AEF8CF042
:1018700014EF8CF013C0D9FF14C0DAFFDECF17F0DD
:10188000DDCF18F0D89018321732D89018321732AE
:1018900013C0D9FF14C0DAFF17C0DEFF18C0DDFF88
:1018A000000E226E000E216E04EC95F015C0D9FFDB
:1018B00016C0DAFF0850DE260950DD22110E186E20
:1018C0003C0E176ECB0EE82EFED7172EFCD7182E27
:1018D000FAD700F0214A222A22BE78EF8CF022505B
:1018E00009E1030E215CD8A078EF8CF07AEF8CF040
:1018F00054EF8CF015C0D9FF16C0DAFFDECF17F019
:10190000DDCF18F0D89018321732D890183217322D
:1019100015C0D9FF16C0DAFF17C0DEFF18C0DDFF03
:101920001200000E156E13BE9AEF8CF098EF8CF03B
:10193000ACEF8CF0131E121E111E101E0F1E0E1E79
:101940000D1E0C6C000E0D220E220F2210221122F1
:1019500012221322010E156E0BBEB3EF8CF0B1EF05
:101960008CF0C5EF8CF00B1E0A1E091E081E071E08
:10197000061E051E046C000E052206220722082200
:1019800009220A220B22010E151A20EE16F0070E6C
:10199000DE6AE806FDE20C500D100E100F1010105C
:1019A000111012101310D8B4D8EF8CF0DAEF8CF0BD
:1019B0002CEF8DF0010E146EE8EF8CF0D8900C3601
:1019C0000D360E360F361036113612361336142AEF
:1019D00013AEEDEF8CF0EFEF8CF0DEEF8CF0D890E3
:1019E00016361736183619361A361B361C361D367B
:1019F0000C50045C0D5005580E5006580F500758F7
:101A0000105008581150095812500A5813500B58CA
:101A1000D8A00DEF8DF00FEF8DF020EF8DF00C5072
:101A2000045E0D50055A0E50065A0F50075A1050BA
:101A3000085A1150095A12500A5A13500B5A16805C
:101A4000D89013321232113210320F320E320D3260
:101A50000C32142EEFEF8CF01550D8B432EF8DF01D
:101A600034EF8DF044EF8DF01D1E1C1E1B1E1A1E40
:101A7000191E181E171E166C000E17221822192286
:101A80001A221B221C221D2216C004F017C005F0CA
:101A900018C006F019C007F01AC008F01BC009F002
:101AA0001CC00AF01DC00BF012009EC00FF09FC0BA
:101AB00010F0A0C011F0A1C012F0A2C013F0A3C09A
:101AC00014F0A4C015F0A5C016F054EC8BF09CC027
:101AD00066F09DC067F0250E0001686FFF0E696F0C
:101AE0009EC0D9FF9FC0DAFFDECF6AF0DDCF6BF07A
:101AF000A0C0D9FFA1C0DAFFDECF6CF0DDCF6DF062
:101B0000A2C0D9FFA3C0DAFFDECF6EF0DDCF6FF049
:101B1000A4C0D9FFA5C0DAFFDECF70F0DDCF71F031
:101B200063EC94F09CC005F09DC006F0CDEC95F000
:101B30009CC01AF09DC01BF09EC0D9FF9FC0DAFF69
:101B4000DECF1CF0DDCF1DF0A0C0D9FFA1C0DAFFB1
:101B5000DECF1EF0DDCF1FF0A2C0D9FFA3C0DAFF99
:101B6000DECF20F0DDCF21F0A4C0D9FFA5C0DAFF81
:101B7000DECF22F0DDCF23F0A6C024F0A7C025F0F1
:101B8000000E266E010E276EA4EC88F09CC004F0B7
:101B90009DC005F0000E066E010E076E480E086E21
:101BA000010E096EB2EC90F0480E046E010E056E47
:101BB00022EC93F00001A86F9CC066F09DC067F016
:101BC000F40E686FFF0E696FA8C06AF06B6B63EC70
:101BD00094F09CC005F09DC006F0CDEC95F09CC043
:101BE00081F09DC082F0A8C083F0A9C084F0AAC093
:101BF00085F0ABC086F0ACC087F0ADC088F0AEC059
:101C000089F0AFC08AF0B0C08BF0B1C08CF0B2C028
:101C10008DF000EC80F00001A851120020EE02F0DF
:101C20001150D9261250DA22DF50D8B41AEF8EF0B4
:101C30001CEF8EF050EF8EF011C0D9FF12C0DAFF0A
:101C4000DF50136E1350046E056A20EE03F011503E
:101C5000D9261250DA22DECF06F0DDCF07F038ECBD
:101C600096F004C00AF005C00BF0000E0D6E640E75
:101C70000C6E9FEC93F020EE03F01150D926125019
:101C8000DA22DF50146E0A50145C156E20EE03F059
:101C90001150D9261250DA22DF50166E73EF8EF0F3
:101CA000000E156E11C0D9FF12C0DAFFDF50136E9F
:101CB0001350046E056A20EE03F01150D92612501D
:101CC000DA22DECF06F0DDCF07F038EC96F004C064
:101CD0000AF005C00BF0000E0D6E640E0C6E9FEC4A
:101CE00093F00A50166E20EE01F01150D9261250D2
:101CF000DA22DF50D8B47FEF8EF081EF8EF0A3EFC1
:101D00008EF020EE05F01150D9261250DA22DECFE7
:101D100013F0DDCF14F013C0D9FF14C0DAFF15C0E3
:101D2000DFFF20EE07F01150D9261250DA22DECF65
:101D300013F0DDCF14F013C0D9FF14C0DAFF16C0C2
:101D4000DFFFC3EF8EF020EE05F01150D9261250C0
:101D5000DA22DECF13F0DDCF14F013C0D9FF14C0A8
:101D6000DAFF16C0DFFF20EE07F01150D92612501F
:101D7000DA22DECF13F0DDCF14F013C0D9FF14C088
:101D8000DAFF15C0DFFF1200000E156E0BBECDEF9F
:101D90008EF0CBEF8EF0DFEF8EF00B1E0A1E091EC9
:101DA000081E071E061E051E046C000E05220622D4
:101DB0000722082209220A220B22010E156E13BEE9
:101DC000E6EF8EF0E4EF8EF0F6EF8EF0131E121EAB
:101DD000111E101E0F1E0E1E0D1E0C6C000E0D226D
:101DE0000E220F2210221122122213220C500D104B
:101DF0000E100F101010111012101310D8B403EFA2
:101E00008FF005EF8FF04DEF8FF0010E146E13EF92
:101E10008FF0D8900C360D360E360F361036113640
:101E200012361336142A13AE18EF8FF01AEF8FF014
:101E300009EF8FF00C50045C0D5005580E500658F9
:101E40000F500758105008581150095812500A588E
:101E500013500B58D8A02FEF8FF031EF8FF041EFD8
:101E60008FF00C50045E0D50055A0E50065A0F505C
:101E7000075A1050085A1150095A12500A5A135052
:101E80000B5AD89013321232113210320F320E32F6
:101E90000D320C32142E1AEF8FF01550D8B453EFC8
:101EA0008FF055EF8FF065EF8FF00B1E0A1E091EA5
:101EB000081E071E061E051E046C000E05220622C3
:101EC0000722082209220A220B2204C004F005C0BE
:101ED00005F006C006F007C007F008C008F009C00A
:101EE00009F00AC00AF00BC00BF0120044C0D9FF81
:101EF00045C0DAFFDECFF6FFDDCFF7FF000EF86E4C
:101F00000800F550250AD8A488EF8FF08AEF8FF0EB
:101F10000EEF90F044C0D9FF45C0DAFFDE2A000E74
:101F2000DD22000E0001D46F000ED36FD3C0DDF0B0
:101F3000D569D66944C0D9FF45C0DAFFDECF52F07B
:101F4000DDCF53F052C0F6FF53C0F7FF000EF86E1E
:101F50000800F550640AD8B4B0EF8FF0B2EF8FF0FC
:101F6000C2EF8FF052C0F6FF53C0F7FF000EF86EBD
:101F70000800F550690AD8A4C0EF8FF0C2EF8FF0C7
:101F800005EF90F046C0D9FF47C0DAFFDFCF48F039
:101F9000020EDE26DFCF49F0000EDD2248C0D9FF59
:101FA00049C0DAFFDECF4AF0DDCF4BF0000E4BBE6A
:101FB000FF0E4C6E4D6E4E6E4F6E506E516E010E9A
:101FC0005224486E000E5320496E44C0D9FF45C0CC
:101FD000DAFF48C0DEFF49C0DDFF42C01FF043C04A
:101FE00020F04AC021F04BC022F04CC023F04DC07D
:101FF00024F04EC025F04FC026F050C027F051C04D
:1020000028F016EC8AF024EF90F044C0D9FF45C0C8
:10201000DAFFDE2A000EDD2224EF90F044C0D9FF63
:1020200045C0DAFFDECFF6FFDDCFF7FF000EF86E1A
:102030000800F550046E056A42C006F043C007F080
:1020400038EC91F005EF90F01200000E00018C6F5B
:10205000000E8B6FDCEC94F083C0D9FF84C0DAFFF4
:1020600008C0DEFF09C0DDFF00018B4B8C2B8CBF4D
:1020700043EF90F0F50E8B5D010E8C59D8A043EF25
:1020800090F045EF90F02AEF90F0000E8E6F000E6A
:102090008D6FDCEC94F083C0D9FF84C0DAFF085068
:1020A000DE260950DD22110E0001886F3C0E876F7D
:1020B000CB0EE82EFED7872FFCD7882FFAD700014A
:1020C0008D4B8E2B8EBF6EEF90F08E5109E1030E7B
:1020D0008D5DD8A06EEF90F070EF90F049EF90F02A
:1020E00083C0D9FF84C0DAFFDECF87F0DDCF88F070
:1020F000D89088338733D8908833873383C0D9FF0B
:1021000084C0DAFF87C0DEFF88C0DDFF81C066F0D3
:1021100082C067F0CE0E686FFF0E696F83C06AF0F1
:1021200084C06BF063EC94F081C005F082C006F0CF
:10213000CDEC95F083C0D9FF84C0DAFFDECF87F005
:10214000DDCF88F0200E00018725896F030E8821DE
:102150008A6F85C0D9FF86C0DAFF89C0DEFF8AC0DA
:10216000DDFF1200000E286E2850020DF3CF0AF09A
:10217000F4CF0BF00A5006240C6E0B5007200D6EA6
:10218000360E0C24D96E000E0D20DA6EDECF0EF066
:10219000DDCF0FF02850020DF3CF10F0F4CF11F087
:1021A00010500624126E11500720136E240E1224B4
:1021B000D96E000E1320DA6EDECF14F0DDCF15F0ED
:1021C0002850020DF3CF16F0F4CF17F01650062466
:1021D000186E17500720196E120E1824D96E000EB3
:1021E0001920DA6EDECF1AF0DDCF1BF02850020D79
:1021F000F3CF1CF0F4CF1DF01C500624D96E1D50F7
:102200000720DA6EDECF1EF0DDCF1FF01A501E243D
:10221000206E1B501F20216E14502024226E15505A
:102220002120236E0E502224246E0F502320256E71
:10223000D89025322432D890253224322850020DED
:10224000F3CF26F0F4CF27F026500824D96E27507C
:102250000920DA6E24C0DEFF25C0DDFF282A080E23
:10226000286435EF91F037EF91F0B4EF90F0120061
:1022700006500710D8B43FEF91F041EF91F04AEFCC
:1022800091F006500710D8A448EF91F04AEF91F072
:102290004FEF91F004509BEC96F09CEF91F020EE04
:1022A00009F00650D9260750DA22DE50DE10D8B4E5
:1022B0005CEF91F05EEF91F079EF91F020EE09F094
:1022C0000650D9260750DA2210EE03F00650E12618
:1022D0000750E222DE50E65CE650800A0C6EDE50CB
:1022E000800A0C58D8B077EF91F079EF91F09CEF1D
:1022F00091F020EE03F00650D9260750DA22DECF07
:1023000008F0DDCF09F006C0D9FF07C0DAFFDECF45
:102310000AF0DDCF0BF008500A24D96E09500B20CB
:10232000DA6E04C0DFFF20EE03F00650D926075016
:10233000DA22DE2A000EDD22120020EE01F0175014
:10234000D9261850DA22010EDF6E20EE01F0195066
:10235000D9261A50DA22000EDF6E000E1E6E000E15
:102360001D6E19C0D9FF1AC0DAFF1DC0DFFF17C0EC
:10237000D9FF18C0DAFF1DC0DFFF020E1C6E380E39
:102380001B6EAD0EE82EFED71B2EFCD71C2EFAD7E7
:1023900000F017C011F018C012F00EEC8EF019C04A
:1023A00011F01AC012F00EEC8EF00A0E1D26000E6F
:1023B0001E221EBEE5EF91F01E5009E1500E1D5C7D
:1023C000D8A0E5EF91F0E7EF91F0B1EF91F0060EB4
:1023D0001C6E850E1B6EF70EE82EFED71B2EFCD74B
:1023E0001C2EFAD700F0120020EE01F01750D9266B
:1023F0001850DA22000EDF6E20EE01F01950D926B7
:102400001A50DA22010EDF6E000E1E6E000E1D6ED7
:1024100019C0D9FF1AC0DAFF1DC0DFFF17C0D9FFEE
:1024200018C0DAFF1DC0DFFF020E1C6E380E1B6ED7
:10243000AD0EE82EFED71B2EFCD71C2EFAD700F0CF
:1024400017C011F018C012F00EEC8EF019C011F088
:102450001AC012F00EEC8EF00A0E1D26000E1E227F
:102460001EBE3CEF92F01E5009E1500E1D5CD8A03C
:102470003CEF92F03EEF92F008EF92F0060E1C6EE9
:10248000850E1B6EF70EE82EFED71B2EFCD71C2EDA
:10249000FAD700F0120020EE01F01750D92618509C
:1024A000DA22010EDF6E20EE01F01950D9261A5003
:1024B000DA22010EDF6E000E1D6E000E1C6E17C0BC
:1024C000D9FF18C0DAFF1CC0DFFF19C0D9FF1AC03E
:1024D000DAFF1CC0DFFF17C011F018C012F00EECBD
:1024E0008EF019C011F01AC012F00EEC8EF0D00E62
:1024F0001B6ECA0EE82EFED71B2EFCD70A0E1C261A
:10250000000E1D221DBE8EEF92F01D5009E1280E17
:102510001C5CD8A08EEF92F090EF92F05FEF92F0FB
:10252000D00E1B6ECA0EE82EFED71B2EFCD7120053
:1025300020EE01F01750D9261850DA22000EDF6E77
:1025400020EE01F01950D9261A50DA22000EDF6E63
:10255000000E1D6E000E1C6E17C0D9FF18C0DAFFEA
:102560001CC0DFFF19C0D9FF1AC0DAFF1CC0DFFF93
:1025700017C011F018C012F00EEC8EF019C011F057
:102580001AC012F00EEC8EF0D00E1B6ECA0EE82EA2
:10259000FED71B2EFCD70A0E1C26000E1D221DBEC8
:1025A000DBEF92F01D5009E1280E1C5CD8A0DBEF98
:1025B00092F0DDEF92F0ACEF92F0120085948598E6
:1025C000839E879C050E0E01746F060E766F070EB4
:1025D000696F080E886FBD508F0B4009BD6EE00E0D
:1025E000BE16BF50F00B0109BF6E630EBC6EBD8EF0
:1025F000000EAA6E000EA66E000E0F01256F000ED3
:10260000216FFC0EAD16F30EAD16CF0EAD163F0EBC
:10261000AD16AB88AB50F00B0C09AB6EAB8EA78838
:10262000A750F00B0C09A76EA78E26892651F00B38
:102630000C09266F268F22892251F00B0C09226F7C
:10264000228F1200000E0C6E04C0D9FF05C0DAFF05
:10265000DECF0AF0DDCF0BF0010E0D6E0D50020D36
:10266000F3CF06F0F4CF07F006500424D96E0750DC
:102670000520DA6E0A50DE5C0B50DE58D8B043EF0E
:1026800093F045EF93F057EF93F00D50020DF3CF19
:1026900006F0F4CF07F006500424D96E0750052049
:1026A000DA6EDECF0AF0DDCF0BF00DC00CF00D2A94
:1026B000080E0D645EEF93F060EF93F02EEF93F051
:1026C0000C50120019BE67EF93F069EF93F06FEFB3
:1026D00093F018C01DF019C01EF073EF93F0000EB8
:1026E0001E6E000E1D6E000E1C6E000E1B6E85EF22
:1026F00093F0000E056E200E046E14C006F015C097
:1027000007F038EC91F01B4A1C2A1D501B5C1C5032
:10271000800A1A6E1E50800A1A58D8A092EF93F0C1
:1027200094EF93F079EF93F016C00DF017C00EF010
:1027300014C00FF015C010F050EC95F01200000E10
:10274000106E000E0F6E0C500D10D8B4AAEF93F05F
:10275000ACEF93F0D4EF93F0010E0E6EB4EF93F064
:10276000D8900C360D360E2A0DAEB9EF93F0BBEFB4
:1027700093F0B0EF93F0D8900F3610360C500A5CFF
:102780000D500B58D8A0C7EF93F0C9EF93F0CEEFE0
:1027900093F00C500A5E0D500B5A0F80D8900D32FA
:1027A0000C320E2EBBEF93F00FC00AF010C00BF0EE
:1027B000120006500710D8B4E0EF93F0E2EF93F068
:1027C00006EF94F0010E086EEAEF93F0D89006360B
:1027D0000736082A07AEEFEF93F0F1EF93F0E6EF3C
:1027E00093F00650045C07500558D8A0FAEF93F018
:1027F000FCEF93F000EF94F00650045E0750055A8A
:10280000D89007320632082EF1EF93F004C004F09E
:1028100005C005F012002CEF94F017C0D9FF18C0C6
:10282000DAFF0A0EDF5E19C0D9FF1AC0DAFF0A0EFE
:10283000DF5E2A0E1B6E8E0EE82EFED71B2EFCD7F7
:1028400017C011F018C012F00EEC8EF019C011F084
:102850001AC012F00EEC8EF017C0D9FF18C0DAFFC4
:10286000DF50D8A436EF94F038EF94F00DEF94F0E9
:10287000120062C054F063C055F04DEF94F060C098
:1028800042F061C043F0540E446E000E456E64C0C9
:1028900046F065C047F076EC8FF054C0F6FF55C0A7
:1028A000F7FF000EF86E0800F5500009D8A45BEFA2
:1028B00094F05DEF94F03FEF94F0000E0001616F33
:1028C000000E606F12006A0E0001746F000E756FCB
:1028D00066C076F067C077F0000E7A6F000E796FF1
:1028E000000E806F000E7F6F760E606F000E616FBE
:1028F00068C062F069C063F0740E646F000E656FAB
:1029000039EC94F0000179516625D96E7A5167212E
:10291000DA6E000EDF6E120091EC96F0520E86EC2D
:1029200096F0B60E86EC96F096EC96F0530E86EC8A
:1029300096F0010E72EC95F00A6E0A500D6E0E6A5A
:10294000000E72EC95F00A6E0A500C6E0B6A0D5078
:102950000B100D6E0E500C100E6E8CEC96F00DC020
:1029600008F00EC009F0120091EC96F0520E86ECC1
:1029700096F0B80E86EC96F096EC96F0530E86EC38
:1029800096F0010E72EC95F00A6E0A500D6E0E6A0A
:10299000000E72EC95F00A6E0A500C6E0B6A0D5028
:1029A0000B100D6E0E500C100E6E8CEC96F00DC0D0
:1029B00008F00EC009F0120091EC96F0520E86EC71
:1029C00096F0B40E86EC96F096EC96F0530E86ECEC
:1029D00096F0010E72EC95F00A6E0A500D6E0E6ABA
:1029E000000E72EC95F00A6E0A500C6E0B6A0D50D8
:1029F0000B100D6E0E500C100E6E8CEC96F00DC080
:102A000008F00EC009F0120091EC96F0520E86EC20
:102A100096F0BA0E86EC96F096EC96F0530E86EC95
:102A200096F0010E72EC95F00A6E0A500D6E0E6A69
:102A3000000E72EC95F00A6E0A500C6E0B6A0D5087
:102A40000B100D6E0E500C100E6E8CEC96F00DC02F
:102A500008F00EC009F01200D60EF66E2C0EF76EBE
:102A6000010EF86E02EEABF010EE1EF00900F5CF8D
:102A7000EEFFE550E150FAE103EE00F0780EEE6A69
:102A8000E806FDE100EEBFF0400EEE6AE806FDE16B
:102A90005A6A596A586A5B905B92000183EF83F02F
:102AA000000E136E000E126E61EF95F011C004F06F
:102AB000056A0FC006F010C007F038EC91F0124A1A
:102AC000132A12500D24D96E13500E20DA6EDF50E7
:102AD000116E1150D8A46FEF95F071EF95F056EF8D
:102AE00095F01200066E24EC96F00E01DA8724ECC5
:102AF00096F0D5CE07F024EC96F00650D8B483EFCC
:102B000095F087EF95F0056A052A88EF95F0056A3C
:102B1000053A05460E01DA510518DF0B0518DA6F84
:102B2000DA890750120017BEA0EF95F0175006E1A2
:102B30001604D8B09EEF95F0A0EF95F0AEEF95F0AB
:102B400016C018F017C019F0181E191E184A192AB5
:102B500018C016F019C017F0B2EF95F016C016F0B5
:102B600017C017F01200E5EC95F0010E066E000E8E
:102B70005BEC96F03F0E086E550EE82EFED7082E41
:102B8000FCD700F0030E066E000E5BEC96F0D50E3F
:102B9000066E010E5BEC96F01200D8EF95F005C0C2
:102BA000D9FF06C0DAFFDF507AEC96F0054A062A14
:102BB00005C0D9FF06C0DAFFDF50D8A4E2EF95F0D8
:102BC000E4EF95F0CFEF95F012000E01D951F00B24
:102BD0000809D96FD98B9F0ED66F848A848CA79BE6
:102BE000A79D1D0E1D6F1E0E1C6F1C0E6F6F1B0E02
:102BF000706F12008892889084988496869087924D
:102C0000869E81987E8E7F8279887C9880927E9045
:102C100080907C9688968096849E7C9E12000E0101
:102C2000298BD6501F0B4009D66ED688D650F00B94
:102C30000509D66ED5881F9B3C0ED46EAF0ED36EA1
:102C4000D58EF28CF28E12000E01D8B52AEF96F0D6
:102C50002CEF96F024EF96F0DACE04F01F0E041657
:102C6000D8A435EF96F037EF96F024EF96F01200E7
:102C700004500602F3CF08F0F4CF09F00450070225
:102C8000F350092605500602F350092608C004F047
:102C900009C005F01200120E0E01626F110E156FC1
:102CA0008382E997E895330EE56F000EE66FE789BA
:102CB000E88BE78F1200076E91EC96F0520E86ECCF
:102CC00096F00750800986EC96F0065086EC96F058
:102CD0008CEC96F0120008000000000000000000DC
:102CE00000000000000000000000000000000000E4
:102CF00000000000046E0E0137A581EF96F083EF0F
:102D000096F07BEF96F004C0E4FE1200056E24EC12
:102D100096F005C0D5FE120024EC96F00E01DA857F
:102D2000120024EC96F00E01DA81120024EC96F0E9
:082D30000E01DA83120012000B
:020000040020DA
:10000000FF0FFF0FFF0FFF0FFF0FFF0FFF0FFF0F80
:020000040030CA
:0C000000AAFFFFFF9FFFFFFFFFFFFFFFB5
:00000001FF
