:040000003BEF00F0E2
:100008005B820E0133A30BEF00F00DEF00F039EF28
:1000180000F00001F251F311D8A415EF00F017EF2A
:1000280000F039EF00F0000EF16F010EF06F7C8EDA
:10003800050E046E0F0E036EF10EE82EFED7032E8A
:10004800FCD7042EFAD700F07C9E050E046E0F0E26
:10005800036EF10EE82EFED7032EFCD7042EFAD736
:1000680000F06BEC16F00E0133935B921100BEEFBB
:0200780015F081
:100E0000000A2045585045435445443A2052202575
:100E1000642C20472025642C204220256420204378
:100E20004152443A202564200A000A204156473A9C
:100E300020522025642C20472025642C2042202588
:100E400064200A000A204578706563746564206335
:100E50006C6561723A202564200A004341524420A7
:100E60002564200A0000266E8CEF08F020C018F0E0
:100E700021C019F022C01AF023C01BF05FEC12F061
:100E8000050E256E0F0E246EF10EE82EFED7242ED1
:100E9000FCD7252EFAD700F020C018F021C019F099
:100EA00022C01AF023C01BF0B1EC11F020C018F0E2
:100EB00021C019F022C01AF023C01BF0E9EC12F097
:100EC00020C018F021C019F022C01AF023C01BF076
:100ED000B1EC11F020C018F021C019F022C01AF0B6
:100EE00023C01BF0E9EC12F0BDEF08F020C018F0B1
:100EF00021C019F022C01AF023C01BF05FEC12F0E1
:100F0000050E256E0F0E246EF10EE82EFED7242E50
:100F1000FCD7252EFAD700F020C018F021C019F018
:100F200022C01AF023C01BF008EC12F020C018F009
:100F300021C019F022C01AF023C01BF0E9EC12F016
:100F400020C018F021C019F022C01AF023C01BF0F5
:100F500008EC12F06AEF07F020C018F021C019F079
:100F600022C01AF023C01BF05FEC12F0050E256EB4
:100F70000F0E246EF10EE82EFED7242EFCD7252E60
:100F8000FAD700F020C018F021C019F022C01AF0E2
:100F900023C01BF0B1EC11F020C018F021C019F0F3
:100FA00022C01AF023C01BF0E9EC12F020C018F0A8
:100FB00021C019F022C01AF023C01BF0B1EC11F0CF
:100FC00020C018F021C019F022C01AF023C01BF075
:100FD000E9EC12F04CEF07F020C018F021C019F036
:100FE00022C01AF023C01BF05FEC12F0050E256E34
:100FF0000F0E246EF10EE82EFED7242EFCD7252EE0
:10100000FAD700F020C018F021C019F022C01AF061
:1010100023C01BF05FEC12F0290E256E960E246E95
:101020007F0EE82EFED7242EFCD7252EFAD700F00F
:10103000E0EF07F020C018F021C019F022C01AF02C
:1010400023C01BF05FEC12F0050E256E0F0E246E10
:10105000F10EE82EFED7242EFCD7252EFAD700F06D
:1010600020C018F021C019F022C01AF023C01BF0D4
:101070005FEC12F0290E256E960E246E7F0EE82E80
:10108000FED7242EFCD7252EFAD700F020C018F06A
:1010900021C019F022C01AF023C01BF0E9EC12F0B5
:1010A0008CEF07F020C018F021C019F022C01AF010
:1010B00023C01BF05FEC12F0050E256E0F0E246EA0
:1010C000F10EE82EFED7242EFCD7252EFAD700F0FD
:1010D000D6EF07F020C018F021C019F022C01AF096
:1010E00023C01BF05FEC12F0050E256E0F0E246E70
:1010F000F10EE82EFED7242EFCD7252EFAD700F0CD
:1011000020C018F021C019F022C01AF023C01BF033
:1011100008EC12F046EF08F02650246E256A2550A0
:10112000000AD8B496EF08F0BDEF08F02450000A8A
:10113000D8B436EF07F0010AD8B476EF07F0030A07
:10114000D8B4ACEF07F0010AD8B4ECEF07F0070A07
:10115000D8B41AEF08F0010AD8B452EF08F0030A25
:10116000D8B46AEF08F0010AD8B4BDEF08F00F0A4E
:10117000D8B4BDEF08F0BDEF08F0120023EC16F074
:10118000D3EC15F08CEC15F0A5EC12F034EC16F065
:101190006DEC15F086840E01B495BCCFCCF1000E39
:1011A0000101DA6F010EDB6F010EDC6FAA0EDF6F3B
:1011B0000F0EE06FA60EE16F0F0EE26FCCC1DDF1F6
:1011C000DE6B000EE36F010EE46F010EE56F250E7E
:1011D000E86F0F0EE96F210EEA6F0F0EEB6FCCC1B7
:1011E000E6F1E76BDA0E126E010E136E38EC0EF0BC
:1011F000E30E126E010E136E38EC0EF0000E0101BC
:10120000D46F000ED36F000ED66F000ED56F000E98
:10121000D86F000ED76F7C98000ED96F11EF09F0D0
:101220007C888EB416EF09F018EF09F010EF09F082
:101230007C98D30E106E010E116ED50E126E010E3B
:10124000136ED70E146E010E156E81EC0CF00101B9
:10125000D951020D960EF324D96E010EF420DA6EE8
:10126000D3C1DEFFD4C1DDFFD951020D120EF3262A
:10127000000EF422960EF324D96E010EF420DA6EDD
:10128000D5C1DEFFD6C1DDFFD951020D240EF326F4
:10129000000EF422960EF324D96E010EF420DA6EBD
:1012A000D7C1DEFFD8C1DDFF000E0001666F010E61
:1012B000676F010E686F0E0E696FD3C16AF0D4C1FB
:1012C0006BF0D5C16CF0D6C16DF0D7C16EF0D8C14E
:1012D0006FF0D9C170F0716B41EC14F0000E066E26
:1012E000010E076EA6EC15F00101D92B080ED96589
:1012F0007CEF09F07EEF09F011EF09F082EF09F0C1
:101300007C8880808EB487EF09F089EF09F080EF48
:1013100009F0000E0101CE6F000ECD6F6AEC14F0E3
:1013200009C0D1F10AC0D2F10101CD4BCE2BCEBF05
:10133000A3EF09F0F50ECD5D010ECE59D8A0A3EFB5
:1013400009F0A5EF09F08EEF09F0000ED06F000E46
:10135000CF6F6AEC14F009500101D1270A50D22353
:10136000110E0001D76F3C0ED66FCB0EE82EFED7C4
:10137000D62FFCD7D72FFAD70101CF4BD02BD0BF18
:10138000CBEF09F0D05109E1030ECF5DD8A0CBEF30
:1013900009F0CDEF09F0A9EF09F0D1C1D6F0D2C123
:1013A000D7F00001D890D733D633D890D733D6337F
:1013B000D6C0D1F1D7C0D2F1000E666F010E676FB3
:1013C000440E686F0E0E696FD1C16AF0D2C16BF026
:1013D00041EC14F0000E066E010E076EA6EC15F03F
:1013E000F4EF09F07C887E808EB4F9EF09F0FBEF12
:1013F00009F0F2EF09F0809688967C9E849E03EFB8
:101400000AF07C887E808EB408EF0AF00AEF0AF0BA
:1014100001EF0AF07E90000E00017F6F010E806FD9
:10142000D30E816F010E826FD50E836F010E846F14
:10143000D70E856F010E866F960E876F010E886F2F
:10144000DA0E896F010E8A6FE30E8B6F010E8C6FBF
:101450004FEC10F003EF0AF03BEF00F022C038F041
:1014600023C039F024C03AF025C03BF026C03CF040
:1014700027C03DF028C03EF029C03FF03FBE43EFFB
:101480000AF046EF0AF0010E47EF0AF0000E406E38
:101490004050D8B44EEF0AF050EF0AF060EF0AF077
:1014A0003F1E3E1E3D1E3C1E3B1E3A1E391E386C22
:1014B000000E39223A223B223C223D223E223F228C
:1014C0000001EFBF6EEF0AF0EF5106E1EE05D8B074
:1014D0006CEF0AF06EEF0AF074EF0AF0000E356E52
:1014E000010E346E78EF0AF0EEC034F0EFC035F044
:1014F000ECC036F0EDC037F04050D8B482EF0AF0BF
:1015000084EF0AF09BEF0AF03606D8A03706405069
:10151000D8A48DEF0AF08FEF0AF095EF0AF0000ED5
:10152000336E2B0E326E99EF0AF0000E336E2D0ED5
:10153000326E32C040F0000E426E1F0E416E000E41
:1015400002015B6F20EF0BF04106D8A042063C0E73
:101550004124D96E020E4220DA6E38C005F039C03F
:1015600006F03AC007F03BC008F03CC009F03DC0AF
:101570000AF03EC00BF03FC00CF00A0E0D6E000EDC
:101580000E6E000E0F6E000E106E000E116E000E2D
:10159000126E000E136E000E146EEEEC0EF005C00F
:1015A0002AF006C02BF007C02CF008C02DF009C0AF
:1015B0002EF00AC02FF00BC030F00CC031F02AC062
:1015C00017F02BC018F04DEC15F01750300FDF6EF0
:1015D0003406D8A035063606D8A0370638C005F040
:1015E00039C006F03AC007F03BC008F03CC009F033
:1015F0003DC00AF03EC00BF03FC00CF00A0E0D6E6D
:10160000000E0E6E000E0F6E000E106E000E116EAC
:10161000000E126E000E136E000E146E74EC0DF0C0
:1016200005C038F006C039F007C03AF008C03BF0FA
:1016300009C03CF00AC03DF00BC03EF00CC03FF0CA
:1016400042BE2BEF0BF0425008E14104D8A02BEF33
:101650000BF02DEF0BF049EF0BF0385039103A102A
:101660003B103C103D103E103F10D8A43AEF0BF059
:101670003CEF0BF0A4EF0AF035BE49EF0BF035500C
:1016800006E13404D8B047EF0BF049EF0BF0A4EFBC
:101690000AF04050D8B44FEF0BF051EF0BF05CEF75
:1016A0000BF04106D8A042063C0E4124D96E020E32
:1016B0004220DA6E40C0DFFF20C015F021C016F0D6
:1016C0003C0E4124176E020E4220186E36C019F0EF
:1016D00037C01AF06CEC13F01200000E316E31506E
:1016E000020DF3CF27F0F4CF28F027502324D96E32
:1016F00028502420DA6EDECF29F0DDCF2AF02950E1
:101700001D5C176E2A501E58186E4DEC15F017C050
:101710002FF018C030F02FC005F030C006F0000EDA
:10172000086E640E076E10EC16F005C00BF006C0D4
:101730000CF03150020DF3CF27F0F4CF28F02750F2
:101740002324D96E28502420DA6EDECF0DF0DDCFB1
:101750000EF0A9EC13F03150020DF3CF29F0F4CFC5
:101760002AF029502524D96E2A502620DA6E0BC083
:10177000DEFF0CC0DDFF3150020DF3CF27F0F4CFB8
:1017800028F027502324296E285024202A6E120E78
:101790002924D96E000E2A20DA6EDECF2BF0DDCFA1
:1017A0002CF02B501F5C176E2C502058186E4DECEF
:1017B00015F017C02FF018C030F02FC005F030C062
:1017C00006F0000E086E640E076E10EC16F005C0F1
:1017D0000BF006C00CF03150020DF3CF27F0F4CF20
:1017E00028F027502324296E285024202A6E120E18
:1017F0002924D96E000E2A20DA6EDECF0DF0DDCF5F
:101800000EF0A9EC13F03150020DF3CF2BF0F4CF12
:101810002CF02B5025242D6E2C5026202E6E120ECF
:101820002D24D96E000E2E20DA6E0BC0DEFF0CC008
:10183000DDFF3150020DF3CF27F0F4CF28F0275011
:101840002324296E285024202A6E240E2924D96EA0
:10185000000E2A20DA6EDECF2BF0DDCF2CF02B50DD
:10186000215C176E2C502258186E4DEC15F017C0E5
:101870002FF018C030F02FC005F030C006F0000E79
:10188000086E640E076E10EC16F005C00BF006C073
:101890000CF03150020DF3CF27F0F4CF28F0275091
:1018A0002324296E285024202A6E240E2924D96E40
:1018B000000E2A20DA6EDECF0DF0DDCF0EF0A9EC9F
:1018C00013F03150020DF3CF2BF0F4CF2CF02B504E
:1018D00025242D6E2C5026202E6E240E2D24D96EFC
:1018E000000E2E20DA6E0BC0DEFF0CC0DDFF312AA9
:1018F000080E31647EEF0CF080EF0CF06FEF0BF010
:101900001200000E196E000E186E92EC14F010C04A
:10191000D9FF11C0DAFF09C0DEFF0AC0DDFFBAEC53
:1019200014F012C0D9FF13C0DAFF09C0DEFF0AC0ED
:10193000DDFFE2EC14F014C0D9FF15C0DAFF09C0D6
:10194000DEFF0AC0DDFF184A192A19BEB1EF0CF0FC
:10195000F50E185C010E1958D8A0B1EF0CF0B3EFDA
:101960000CF085EF0CF0000E1B6E000E1A6E92EC60
:1019700014F010C0D9FF11C0DAFF0950DE260A505A
:10198000DD22110E176E3C0E166ECB0EE82EFED722
:10199000162EFCD7172EFAD700F01A4A1B2A1BBEA8
:1019A000DBEF0CF01B5009E1030E1A5CD8A0DBEF53
:1019B0000CF0DDEF0CF0B7EF0CF010C0D9FF11C048
:1019C000DAFFDECF16F0DDCF17F0D89017321632DF
:1019D000D8901732163210C0D9FF11C0DAFF16C0E6
:1019E000DEFF17C0DDFF000E1D6E000E1C6EBAEC90
:1019F00014F012C0D9FF13C0DAFF0950DE260A50D6
:101A0000DD22110E176E3C0E166ECB0EE82EFED7A1
:101A1000162EFCD7172EFAD700F01C4A1D2A1DBE21
:101A20001BEF0DF01D5009E1030E1C5CD8A01BEF4D
:101A30000DF01DEF0DF0F7EF0CF012C0D9FF13C041
:101A4000DAFFDECF16F0DDCF17F0D890173216325E
:101A5000D8901732163212C0D9FF13C0DAFF16C061
:101A6000DEFF17C0DDFF000E1F6E000E1E6EE2ECE3
:101A700014F014C0D9FF15C0DAFF0950DE260A5051
:101A8000DD22110E176E3C0E166ECB0EE82EFED721
:101A9000162EFCD7172EFAD700F01E4A1F2A1FBE9B
:101AA0005BEF0DF01F5009E1030E1E5CD8A05BEF49
:101AB0000DF05DEF0DF037EF0DF014C0D9FF15C03C
:101AC000DAFFDECF16F0DDCF17F0D89017321632DE
:101AD000D8901732163214C0D9FF15C0DAFF16C0DD
:101AE000DEFF17C0DDFF1200000E166E14BE7DEF84
:101AF0000DF07BEF0DF08FEF0DF0141E131E121E74
:101B0000111E101E0F1E0E1E0D6C000E0E220F2237
:101B100010221122122213221422010E166E0CBE64
:101B200096EF0DF094EF0DF0A8EF0DF00C1E0B1ECC
:101B30000A1E091E081E071E061E056C000E062240
:101B40000722082209220A220B220C22010E161A51
:101B500020EE17F0070EDE6AE806FDE20D500E10CB
:101B60000F1010101110121013101410D8B4BBEF76
:101B70000DF0BDEF0DF00FEF0EF0010E156ECBEF77
:101B80000DF0D8900D360E360F361036113612364F
:101B900013361436152A14AED0EF0DF0D2EF0DF037
:101BA000C1EF0DF0D8901736183619361A361B3695
:101BB0001C361D361E360D50055C0E5006580F5053
:101BC0000758105008581150095812500A5813500D
:101BD0000B5814500C58D8A0F0EF0DF0F2EF0DF0A8
:101BE00003EF0EF00D50055E0E50065A0F50075AC7
:101BF0001050085A1150095A12500A5A13500B5AD1
:101C000014500C5A1780D8901432133212321132F9
:101C100010320F320E320D32152ED2EF0DF016505B
:101C2000D8B415EF0EF017EF0EF027EF0EF01E1ED2
:101C30001D1E1C1E1B1E1A1E191E181E176C000EC0
:101C4000182219221A221B221C221D221E2217C012
:101C500005F018C006F019C007F01AC008F01BC044
:101C600009F01CC00AF01DC00BF01EC00CF01200E1
:101C700020EE02F01250D9261350DA22DF50D8B4E9
:101C800044EF0EF046EF0EF07AEF0EF012C0D9FFDF
:101C900013C0DAFFDF50146E1450056E066A20EE92
:101CA00003F01250D9261350DA22DECF07F0DDCF31
:101CB00008F010EC16F005C00BF006C00CF0000E9A
:101CC0000E6E640E0D6EA9EC13F020EE03F01250B0
:101CD000D9261350DA22DF50156E0B50155C166EA4
:101CE00020EE03F01250D9261350DA22DF50176E7F
:101CF0009DEF0EF0000E166E12C0D9FF13C0DAFF72
:101D0000DF50146E1450056E066A20EE03F0125078
:101D1000D9261350DA22DECF07F0DDCF08F010EC21
:101D200016F005C00BF006C00CF0000E0E6E640E2F
:101D30000D6EA9EC13F00B50176E20EE01F012504F
:101D4000D9261350DA22DF50D8B4A9EF0EF0ABEF4A
:101D50000EF0CDEF0EF020EE05F01250D926135004
:101D6000DA22DECF14F0DDCF15F014C0D9FF15C094
:101D7000DAFF16C0DFFF20EE07F01250D92613500D
:101D8000DA22DECF14F0DDCF15F014C0D9FF15C074
:101D9000DAFF17C0DFFFEDEF0EF020EE05F0125076
:101DA000D9261350DA22DECF14F0DDCF15F014C09F
:101DB000D9FF15C0DAFF17C0DFFF20EE07F0125081
:101DC000D9261350DA22DECF14F0DDCF15F014C07F
:101DD000D9FF15C0DAFF16C0DFFF1200000E166E25
:101DE0000CBEF7EF0EF0F5EF0EF009EF0FF00C1E42
:101DF0000B1E0A1E091E081E071E061E056C000E7D
:101E000006220722082209220A220B220C22010E96
:101E1000166E14BE10EF0FF00EEF0FF020EF0FF064
:101E2000141E131E121E111E101E0F1E0E1E0D6CF0
:101E3000000E0E220F22102211221222132214222F
:101E40000D500E100F10101011101210131014104E
:101E5000D8B42DEF0FF02FEF0FF077EF0FF0010E4A
:101E6000156E3DEF0FF0D8900D360E360F3610364A
:101E70001136123613361436152A14AE42EF0FF00F
:101E800044EF0FF033EF0FF00D50055C0E50065885
:101E90000F500758105008581150095812500A583E
:101EA00013500B5814500C58D8A059EF0FF05BEF9B
:101EB0000FF06BEF0FF00D50055E0E50065A0F50ED
:101EC000075A1050085A1150095A12500A5A135002
:101ED0000B5A14500C5AD890143213321232113259
:101EE00010320F320E320D32152E44EF0FF0165015
:101EF000D8B47DEF0FF07FEF0FF08FEF0FF00C1ED7
:101F00000B1E0A1E091E081E071E061E056C000E6B
:101F100006220722082209220A220B220C2205C0CF
:101F200005F006C006F007C007F008C008F009C0B9
:101F300009F00AC00AF00BC00BF00CC00CF0120044
:101F400045C0D9FF46C0DAFFDECFF6FFDDCFF7FF91
:101F5000000EF86E0800F550250AD8A4B2EF0FF075
:101F6000B4EF0FF038EF10F045C0D9FF46C0DAFFEC
:101F7000DE2A000EDD22000E0001ED6F000EEC6F78
:101F8000ECC0F4F0EE69EF6945C0D9FF46C0DAFF56
:101F9000DECF53F0DDCF54F053C0F6FF54C0F7FF4F
:101FA000000EF86E0800F550640AD8B4DAEF0FF0AE
:101FB000DCEF0FF0ECEF0FF053C0F6FF54C0F7FF6B
:101FC000000EF86E0800F550690AD8A4EAEF0FF089
:101FD000ECEF0FF02FEF10F047C0D9FF48C0DAFF49
:101FE000DFCF49F0020EDE26DFCF4AF0000EDD2201
:101FF00049C0D9FF4AC0DAFFDECF4BF0DDCF4CF04D
:10200000000E4CBEFF0E4D6E4E6E4F6E506E516EFA
:10201000526E010E5324496E000E54204A6E45C084
:10202000D9FF46C0DAFF49C0DEFF4AC0DDFF43C02A
:1020300020F044C021F04BC022F04CC023F04DC032
:1020400024F04EC025F04FC026F050C027F051C0FC
:1020500028F052C029F02EEC0AF04EEF10F045C0E7
:10206000D9FF46C0DAFFDE2A000EDD224EEF10F067
:1020700045C0D9FF46C0DAFFDECFF6FFDDCFF7FF60
:10208000000EF86E0800F550056E066A43C007F0B2
:1020900044C008F04CEC11F02FEF10F0120081C09A
:1020A00010F082C011F083C012F084C013F085C01C
:1020B00014F086C015F081EC0CF07FC066F080C093
:1020C00067F02A0E0001686F0E0E696F81C0D9FF9C
:1020D00082C0DAFFDECF6AF0DDCF6BF083C0D9FFBC
:1020E00084C0DAFFDECF6CF0DDCF6DF085C0D9FFA4
:1020F00086C0DAFFDECF6EF0DDCF6FF041EC14F07A
:102100007FC006F080C007F0A6EC15F07FC01BF082
:1021100080C01CF081C0D9FF82C0DAFFDECF1DF085
:10212000DDCF1EF083C0D9FF84C0DAFFDECF1FF001
:10213000DDCF20F085C0D9FF86C0DAFFDECF21F0E9
:10214000DDCF22F087C023F088C024F08D0E256EED
:10215000000E266E6DEC0BF07FC012F080C013F005
:102160008D0E146E000E156EC30E166E000E176ED9
:10217000E2EC10F0C30E056E000E066E2CEC13F0B0
:102180000001D56F7FC066F080C067F05B0E686F9E
:102190000E0E696FD5C06AF06B6B41EC14F07FC016
:1021A00006F080C007F0A6EC15F089C020F08AC0C8
:1021B00021F08BC022F08CC023F00001D55133EC0C
:1021C00007F01200000E2C6E2C50020DF3CF18F009
:1021D000F4CF19F0185014241A6E195015201B6EE4
:1021E000240E1A24D96E000E1B20DA6EDECF1CF0EE
:1021F000DDCF1DF02C50020DF3CF1EF0F4CF1FF0F9
:102200001E501424206E1F501520216E120E202403
:10221000D96E000E2120DA6EDECF22F0DDCF23F062
:102220002C50020DF3CF24F0F4CF25F024501424C9
:10223000D96E25501520DA6EDECF26F0DDCF27F0DF
:1022400022502624286E23502720296E1C50282433
:102250000B6E1D5029200C6E000E0E6E030E0D6EBF
:10226000A9EC13F02C50020DF3CF2AF0F4CF2BF091
:102270002A501624D96E2B501720DA6E0BC0DEFFC1
:102280000CC0DDFF2C2A080E2C6449EF11F04BEF37
:1022900011F0E4EF10F0120007500810D8B453EF1B
:1022A00011F055EF11F05EEF11F007500810D8A4AF
:1022B0005CEF11F05EEF11F063EF11F00550A3EC4D
:1022C00016F0B0EF11F020EE09F00750D9260850B3
:1022D000DA22DE50DE10D8B470EF11F072EF11F098
:1022E0008DEF11F020EE09F00750D9260850DA22C0
:1022F00010EE03F00750E1260850E222DE50E65CC3
:10230000E650800A0D6EDE50800A0D58D8B08BEF73
:1023100011F08DEF11F0B0EF11F020EE03F0075047
:10232000D9260850DA22DECF09F0DDCF0AF007C047
:10233000D9FF08C0DAFFDECF0BF0DDCF0CF009507B
:102340000B24D96E0A500C20DA6E05C0DFFF20EE98
:1023500003F00750D9260850DA22DE2A000EDD22CB
:10236000120020EE01F01850D9261950DA22010E81
:10237000DF6E20EE01F01A50D9261B50DA22000E33
:10238000DF6E000E1F6E000E1E6E1AC0D9FF1BC03E
:10239000DAFF1EC0DFFF18C0D9FF19C0DAFF1EC068
:1023A000DFFF020E1D6E380E1C6EAD0EE82EFED73E
:1023B0001C2EFCD71D2EFAD700F018C012F019C041
:1023C00013F038EC0EF01AC012F01BC013F038EC0A
:1023D0000EF00A0E1E26000E1F221FBEF9EF11F08E
:1023E0001F5009E1500E1E5CD8A0F9EF11F0FBEF71
:1023F00011F0C5EF11F0060E1D6E470E1C6EA00EFB
:10240000E82EFED71C2EFCD71D2EFAD700D01200C6
:1024100020EE01F01850D9261950DA22000EDF6E96
:1024200020EE01F01A50D9261B50DA22010EDF6E81
:10243000000E1F6E000E1E6E1AC0D9FF1BC0DAFF01
:102440001EC0DFFF18C0D9FF19C0DAFF1EC0DFFFB2
:10245000020E1D6E380E1C6EAD0EE82EFED71C2E21
:10246000FCD71D2EFAD700F018C012F019C013F0D7
:1024700038EC0EF01AC012F01BC013F038EC0EF05E
:102480000A0E1E26000E1F221FBE50EF12F01F5014
:1024900009E1500E1E5CD8A050EF12F052EF12F07E
:1024A0001CEF12F0060E1D6E470E1C6EA00EE82EDD
:1024B000FED71C2EFCD71D2EFAD700D0120020EE1E
:1024C00001F01850D9261950DA22000EDF6E20EEE6
:1024D00001F01A50D9261B50DA22000EDF6E000ED2
:1024E0001E6E000E1D6E18C0D9FF19C0DAFF1DC088
:1024F000DFFF1AC0D9FF1BC0DAFF1DC0DFFF18C005
:1025000012F019C013F038EC0EF01AC012F01BC014
:1025100013F038EC0EF0D00E1C6ECA0EE82EFED76B
:102520001C2EFCD70A0E1D26000E1E221EBEA2EF78
:1025300012F01E5009E13C0E1D5CD8A0A2EF12F073
:10254000A4EF12F073EF12F0120085948598839E29
:10255000879C050E0E01746F060E766F070E696F6D
:10256000080E886FBD508F0B4009BD6EE00EBE1681
:10257000BF50F00B0109BF6E630EBC6EBD8E000E26
:10258000AA6E000EA66E000E0F01256F000E216FC1
:10259000FC0EAD16F30EAD16CF0EAD163F0EAD16FA
:1025A000AB88AB50F00B0C09AB6EAB8EA788A75075
:1025B000F00B0C09A76EA78E26892651F00B0C098B
:1025C000266F268F22892251F00B0C09226F228F51
:1025D0001200FEEF12F018C0D9FF19C0DAFF0A0E80
:1025E000DF5E2A0E1C6E8E0EE82EFED71C2EFCD748
:1025F00018C012F019C013F038EC0EF018C0D9FF53
:1026000019C0DAFFDF50D8A408EF13F00AEF13F077
:10261000EBEF12F01FEF13F01AC0D9FF1BC0DAFF67
:102620000A0EDF5E2A0E1C6E8E0EE82EFED71C2EC2
:10263000FCD71AC012F01BC013F038EC0EF01AC011
:10264000D9FF1BC0DAFFDF50D8A429EF13F02BEF1E
:1026500013F00CEF13F01200000E0D6E05C0D9FF41
:1026600006C0DAFFDECF0BF0DDCF0CF0010E0E6EF0
:102670000E50020DF3CF07F0F4CF08F007500524F9
:10268000D96E08500620DA6E0B50DE5C0C50DE5816
:10269000D8B04DEF13F04FEF13F061EF13F00E5081
:1026A000020DF3CF07F0F4CF08F007500524D96EE0
:1026B00008500620DA6EDECF0BF0DDCF0CF00EC036
:1026C0000DF00E2A080E0E6468EF13F06AEF13F097
:1026D00038EF13F00D5012001ABE71EF13F073EFC4
:1026E00013F079EF13F019C01EF01AC01FF07DEF40
:1026F00013F0000E1F6E000E1E6E000E1D6E000EFB
:102700001C6E8FEF13F0000E066E200E056E15C0C6
:1027100007F016C008F04CEC11F01C4A1D2A1E50A0
:102720001C5C1D50800A1B6E1F50800A1B58D8A0CD
:102730009CEF13F09EEF13F083EF13F017C00EF031
:1027400018C00FF015C010F016C011F00AEC15F00B
:102750001200000E106E000E0F6E0D500E10D8B449
:10276000B4EF13F0B6EF13F0DEEF13F0010E116EBD
:10277000BEEF13F0D8900D360E36112A0EAEC3EF11
:1027800013F0C5EF13F0BAEF13F0D8900F361036F0
:102790000D500B5C0E500C58D8A0D1EF13F0D3EFB6
:1027A00013F0D8EF13F00D500B5E0E500C5A0F8043
:1027B000D8900E320D32112EC5EF13F00FC00BF072
:1027C00010C00CF012000DC007F00C0E44EC16F017
:1027D0000A50076E050E44EC16F0000E0F6E0950FD
:1027E0000A10D8B4F6EF13F0F8EF13F0FAEF13F085
:1027F000010E0F6E0FC007F0040E44EC16F00C50E3
:10280000076E070E44EC16F0000E106E0B500C1005
:10281000D8B40DEF14F00FEF14F011EF14F0010E17
:10282000106E10C007F0060E44EC16F0120062C0E5
:1028300055F063C056F02BEF14F060C043F061C058
:1028400044F0550E456E000E466E64C047F065C0FC
:1028500048F0A0EC0FF055C0F6FF56C0F7FF000E91
:10286000F86E0800F5500009D8A439EF14F03BEFDA
:1028700014F01DEF14F0000E0001616F000E606F88
:1028800012006A0E0001726F000E736F66C074F062
:1028900067C075F0000E786F000E776F000E7E6FC8
:1028A000000E7D6F740E606F000E616F68C062F085
:1028B00069C063F0720E646F000E656F17EC14F060
:1028C000000177516625D96E78516721DA6E000EC6
:1028D000DF6E120094EC16F0520E7EEC16F0B40E81
:1028E0007EEC16F08AEC16F0530E7EEC16F0010E1C
:1028F0002CEC15F00B6E0B500E6E0F6A000E2CECCC
:1029000015F00B6E0B500D6E0C6A0E500C100E6E07
:102910000F500D100F6E8FEC16F00EC009F00FC0A7
:102920000AF0120094EC16F0520E7EEC16F0B60E81
:102930007EEC16F08AEC16F0530E7EEC16F0010ECB
:102940002CEC15F00B6E0B500E6E0F6A000E2CEC7B
:1029500015F00B6E0B500D6E0C6A0E500C100E6EB7
:102960000F500D100F6E8FEC16F00EC009F00FC057
:102970000AF0120094EC16F0520E7EEC16F0B80E2F
:102980007EEC16F08AEC16F0530E7EEC16F0010E7B
:102990002CEC15F00B6E0B500E6E0F6A000E2CEC2B
:1029A00015F00B6E0B500D6E0C6A0E500C100E6E67
:1029B0000F500D100F6E8FEC16F00EC009F00FC007
:1029C0000AF0120094EC16F0520E7EEC16F0BA0EDD
:1029D0007EEC16F08AEC16F0530E7EEC16F0010E2B
:1029E0002CEC15F00B6E0B500E6E0F6A000E2CECDB
:1029F00015F00B6E0B500D6E0C6A0E500C100E6E17
:102A00000F500D100F6E8FEC16F00EC009F00FC0B6
:102A10000AF01200000E146E000E136E1BEF15F07C
:102A200012C005F0066A10C007F011C008F04CECA7
:102A300011F0134A142A13500E24D96E14500F208B
:102A4000DA6EDF50126E1250D8A429EF15F02BEF7A
:102A500015F010EF15F01200076EE8EC15F00E01FE
:102A6000DA87E8EC15F0D5CE08F0E8EC15F0075061
:102A7000D8B43DEF15F041EF15F0066A062A42EF93
:102A800015F0066A063A06460E01DA510618DF0B03
:102A90000618DA6FDA890850120018BE5AEF15F0DE
:102AA000185006E11704D8B058EF15F05AEF15F09A
:102AB00068EF15F017C019F018C01AF0191E1A1E89
:102AC000194A1A2A19C017F01AC018F06CEF15F03D
:102AD00017C017F018C018F0120076EC16F0000EB0
:102AE0000A6E010E096E070E0C6ED00E0B6E000EF4
:102AF0000E6E040E0D6EE3EC13F082920E019A93AB
:102B0000090E0D01F16F0E0129831F83F292F28CE1
:102B1000F28AF28CF28E1200D3EC15F0010E076EE1
:102B2000000E44EC16F03F0E096E550EE82EFED74F
:102B3000092EFCD700F0030E076E000E44EC16F0D1
:102B4000D50E076E010E44EC16F01200B1EF15F031
:102B500006C0D9FF07C0DAFFDF5054EC16F0064A72
:102B6000072A06C0D9FF07C0DAFFDF50D8A4BBEFA1
:102B700015F0BDEF15F0A8EF15F0120002EE00F011
:102B80005C0EEE6AE806FDE100EED8F01D0EEE6A7E
:102B9000E806FDE15A6A596A586A576A5B905B9287
:102BA0000001BEEF08F00E01D951F00B0809D96FF2
:102BB000D98B9F0ED66F848A848CA79BA79D1D0EF0
:102BC0001D6F1E0E1C6F1C0E6F6F1B0E706F1200A0
:102BD0000E01D8B5EEEF15F0F0EF15F0E8EF15F0B7
:102BE000DACE05F01F0E0516D8A4F9EF15F0FBEFAD
:102BF00015F0E8EF15F012000E01D8B502EF16F04F
:102C000004EF16F0FCEF15F0DACE01F01F0E0116FE
:102C1000D8A40DEF16F00FEF16F0FCEF15F0120030
:102C200005500702F3CF09F0F4CF0AF0055008026F
:102C3000F3500A2606500702F3500A2609C005F091
:102C40000AC006F012008892889084988496869034
:102C50008792869E81987E8E7F8279887C988092EA
:102C60007E9080907C961200120E0E01626F110E03
:102C7000156F8382E997E895330EE56F000EE66FD6
:102C8000E789E88BE78F1200086E94EC16F0520E7D
:102C90007EEC16F0085080097EEC16F007507EECB2
:102CA00016F08FEC16F01200056E0E0137A55BEFE3
:102CB00016F05DEF16F055EF16F005C0E4FE1200B9
:102CC00094EC16F0520E7EEC16F0E60E7EEC16F04A
:102CD0008FEC16F012009EEC16F0520E84EC16F0FB
:102CE000E60E84EC16F099EC16F0120060EC16F08B
:102CF000130E076E000E44EC16F01200066EE8ECA0
:102D000015F006C0D5FE1200026EFCEC15F002C0F4
:102D1000D5FE1200E8EC15F00E01DA831200E8ECA3
:102D200015F00E01DA851200E8EC15F00E01DA81DB
:102D30001200FCEC15F00E01DA851200FCEC15F027
:082D40000E01DA8112001200FD
:020000040020DA
:10000000FF0FFF0FFF0FFF0FFF0FFF0FFF0FFF0F80
:020000040030CA
:0C000000AAFFFFFF9FFFFFFFFFFFFFFFB5
:00000001FF
