:040000002DEF00F0F0
:100008005B820E0133A30BEF00F00DEF00F02BEF36
:1000180000F07C8E050E046E0F0E036EF10EE82EB6
:10002800FED7032EFCD7042EFAD700F07C9E050ECF
:10003800046E0F0E036EF10EE82EFED7032EFCD7CA
:10004800042EFAD700F08FEC0FF00E0133935B9279
:0600580011001FEF0EF085
:100E0000005261772025642C2025642C2025642C39
:070E1000202564200A000008
:100E180022C038F023C039F024C03AF025C03BF096
:100E280026C03CF027C03DF028C03EF029C03FF066
:100E38003FBE21EF07F024EF07F0010E25EF07F082
:100E4800000E406E4050D8B42CEF07F02EEF07F09C
:100E58003EEF07F03F1E3E1E3D1E3C1E3B1E3A1E47
:100E6800391E386C000E39223A223B223C223D22A0
:100E78003E223F220001D9BF4CEF07F0D95106E1CD
:100E8800D805D8B04AEF07F04CEF07F052EF07F05B
:100E9800000E356E010E346E56EF07F0D8C034F0F0
:100EA800D9C035F0D6C036F0D7C037F04050D8B4E6
:100EB80060EF07F062EF07F079EF07F03606D8A089
:100EC80037064050D8A46BEF07F06DEF07F073EFCB
:100ED80007F0000E336E2B0E326E77EF07F0000E20
:100EE800336E2D0E326E32C040F0000E426E1F0E71
:100EF800416E000E01015B6FFEEF07F04106D8A0BE
:100F080042063C0E4124D96E010E4220DA6E38C0EA
:100F180005F039C006F03AC007F03BC008F03CC005
:100F280009F03DC00AF03EC00BF03FC00CF00A0EBD
:100F38000D6E000E0E6E000E0F6E000E106E000E7F
:100F4800116E000E126E000E136E000E146E77EC0A
:100F58000AF005C02AF006C02BF007C02CF008C024
:100F68002DF009C02EF00AC02FF00BC030F00CC0D5
:100F780031F02AC017F02BC018F087EC0EF017508C
:100F8800300FDF6E3406D8A035063606D8A03706EF
:100F980038C005F039C006F03AC007F03BC008F089
:100FA8003CC009F03DC00AF03EC00BF03FC00CF059
:100FB8000A0E0D6E000E0E6E000E0F6E000E106EF5
:100FC800000E116E000E126E000E136E000E146EDF
:100FD8004BEC08F005C038F006C039F007C03AF00D
:100FE80008C03BF009C03CF00AC03DF00BC03EF021
:100FF8000CC03FF042BE09EF08F0425008E141043E
:10100800D8A009EF08F00BEF08F027EF08F03850E8
:1010180039103A103B103C103D103E103F10D8A438
:1010280018EF08F01AEF08F082EF07F035BE27EF47
:1010380008F0355006E13404D8B025EF08F027EF62
:1010480008F082EF07F04050D8B42DEF08F02FEFEA
:1010580008F03AEF08F04106D8A042063C0E4124B9
:10106800D96E010E4220DA6E40C0DFFF20C015F0B5
:1010780021C016F03C0E4124176E010E4220186E56
:1010880036C019F037C01AF081EC0CF01200000ECF
:10109800166E14BE54EF08F052EF08F066EF08F031
:1010A800141E131E121E111E101E0F1E0E1E0D6C76
:1010B800000E0E220F2210221122122213221422B5
:1010C800010E166E0CBE6DEF08F06BEF08F07FEFA7
:1010D80008F00C1E0B1E0A1E091E081E071E061EFF
:1010E800056C000E06220722082209220A220B227A
:1010F8000C22010E161A20EE17F0070EDE6AE8061B
:10110800FDE20D500E100F101010111012101310D8
:101118001410D8B492EF08F094EF08F0E6EF08F056
:10112800010E156EA2EF08F0D8900D360E360F3668
:1011380010361136123613361436152A14AEA7EFA8
:1011480008F0A9EF08F098EF08F0D890173618368D
:1011580019361A361B361C361D361E360D50055CE0
:101168000E5006580F50075810500858115009587B
:1011780012500A5813500B5814500C58D8A0C7EFE7
:1011880008F0C9EF08F0DAEF08F00D50055E0E50D0
:10119800065A0F50075A1050085A1150095A12503F
:1011A8000A5A13500B5A14500C5A1780D8901432FC
:1011B80013321232113210320F320E320D32152E16
:1011C800A9EF08F01650D8B4ECEF08F0EEEF08F0ED
:1011D800FEEF08F01E1E1D1E1C1E1B1E1A1E191EC9
:1011E800181E176C000E182219221A221B221C2204
:1011F8001D221E2217C005F018C006F019C007F0FE
:101208001AC008F01BC009F01CC00AF01DC00BF082
:101218001EC00CF0120020EE02F01250D926135016
:10122800DA22DF50D8B41BEF09F01DEF09F051EFB7
:1012380009F012C0D9FF13C0DAFFDF50146E145042
:10124800056E066A20EE03F01250D9261350DA22F2
:10125800DECF07F0DDCF08F034EC0FF005C00BF05F
:1012680006C00CF0000E0E6E640E0D6EBEEC0CF097
:1012780020EE03F01250D9261350DA22DF50156EF3
:101288000B50155C166E20EE03F01250D926135041
:10129800DA22DF50176E74EF09F0000E166E12C0D6
:1012A800D9FF13C0DAFFDF50146E1450056E066ABA
:1012B80020EE03F01250D9261350DA22DECF07F0C1
:1012C800DDCF08F034EC0FF005C00BF006C00CF0D1
:1012D800000E0E6E640E0D6EBEEC0CF00B50176E09
:1012E80020EE01F01250D9261350DA22DF50D8B47C
:1012F80080EF09F082EF09F0A4EF09F020EE05F085
:101308001250D9261350DA22DECF14F0DDCF15F0B3
:1013180014C0D9FF15C0DAFF16C0DFFF20EE07F0B2
:101328001250D9261350DA22DECF14F0DDCF15F093
:1013380014C0D9FF15C0DAFF17C0DFFFC4EF09F0EA
:1013480020EE05F01250D9261350DA22DECF14F021
:10135800DDCF15F014C0D9FF15C0DAFF17C0DFFFC5
:1013680020EE07F01250D9261350DA22DECF14F0FF
:10137800DDCF15F014C0D9FF15C0DAFF16C0DFFFA6
:10138800120047EC0FF0F7EC0EF0C5EC0EF03DEC58
:101398000CF058EC0FF0A7EC0EF0BCCFAFF0000E3D
:1013A8000001B06F010EB16F010EB26FAA0EB56FDA
:1013B8000F0EB66FA60EB76F0F0EB86FAFC0B3F0B3
:1013C800B46B000EB96F010EBA6F010EBB6F250E1C
:1013D800BE6F0F0EBF6F210EC06F0F0EC16FAFC073
:1013E800BCF0BD6BB00E126E000E136E0FEC09F060
:1013F800B90E126E000E136E0FEC09F020EEDBF042
:1014080010EE81F0110EDBCFE3FFE806FCE20EEFF1
:101418000AF080828EB413EF0AF015EF0AF00DEF90
:101428000AF0809688967C9E849E7FEC0DF009C019
:10143800A7F00AC0A8F0F7EC0DF009C0ABF00AC09D
:10144800ACF0A7EC0DF009C0A9F00AC0AAF0CFECE7
:101458000DF009C0ADF00AC0AEF0930E0001666F42
:10146800000E676F010E686F0E0E696FA7C06AF0F5
:10147800A8C06BF0A9C06CF0AAC06DF0ABC06EF04C
:10148800ACC06FF0ADC070F0AEC071F056EC0DF0AE
:10149800930E066E000E076EDFEC0EF0090E0001CB
:1014A800806F1E0E7F6FE40EE82EFED77F2FFCD7CD
:1014B800802FFAD700F080A664EF0AF069EF0AF0EF
:1014C80000017F6B7F2B6BEF0AF000017F6B7F477A
:1014D8007F477F4780507F19F70B7F19806E19EF80
:1014E8000AF02DEF00F0000E166E0CBE80EF0AF029
:1014F8007EEF0AF092EF0AF00C1E0B1E0A1E091E60
:10150800081E071E061E056C000E0622072208226A
:1015180009220A220B220C22010E166E14BE99EF24
:101528000AF097EF0AF0A9EF0AF0141E131E121E14
:10153800111E101E0F1E0E1E0D6C000E0E220F2205
:10154800102211221222132214220D500E100F10F5
:1015580010101110121013101410D8B4B6EF0AF0AE
:10156800B8EF0AF000EF0BF0010E156EC6EF0AF0A7
:10157800D8900D360E360F36103611361236133611
:101588001436152A14AECBEF0AF0CDEF0AF0BCEFF3
:101598000AF00D50055C0E5006580F5007581050B1
:1015A80008581150095812500A5813500B58145023
:1015B8000C58D8A0E2EF0AF0E4EF0AF0F4EF0AF0D2
:1015C8000D50055E0E50065A0F50075A1050085A13
:1015D8001150095A12500A5A13500B5A14500C5AE7
:1015E800D890143213321232113210320F320E32B6
:1015F8000D32152ECDEF0AF01650D8B406EF0BF0C9
:1016080008EF0BF018EF0BF00C1E0B1E0A1E091E3C
:10161800081E071E061E056C000E06220722082259
:1016280009220A220B220C2205C005F006C006F08A
:1016380007C007F008C008F009C009F00AC00AF09E
:101648000BC00BF00CC00CF0120045C0D9FF46C00F
:10165800DAFFDECFF6FFDDCFF7FF000EF86E0800E9
:10166800F550250AD8A43BEF0BF03DEF0BF0C1EF86
:101678000BF045C0D9FF46C0DAFFDE2A000EDD2296
:10168800000E0001D76F000ED66FD6C0DAF0D86909
:10169800D96945C0D9FF46C0DAFFDECF53F0DDCFA8
:1016A80054F053C0F6FF54C0F7FF000EF86E080060
:1016B800F550640AD8B463EF0BF065EF0BF075EFE3
:1016C8000BF053C0F6FF54C0F7FF000EF86E080089
:1016D800F550690AD8A473EF0BF075EF0BF0B8EF6B
:1016E8000BF047C0D9FF48C0DAFFDFCF49F0020E40
:1016F800DE26DFCF4AF0000EDD2249C0D9FF4AC0FE
:10170800DAFFDECF4BF0DDCF4CF0000E4CBEFF0E03
:101718004D6E4E6E4F6E506E516E526E010E5324CA
:10172800496E000E54204A6E45C0D9FF46C0DAFF04
:1017380049C0DEFF4AC0DDFF43C020F044C021F0AD
:101748004BC022F04CC023F04DC024F04EC025F011
:101758004FC026F050C027F051C028F052C029F0E1
:101768000CEC07F0D7EF0BF045C0D9FF46C0DAFF05
:10177800DE2A000EDD22D7EF0BF045C0D9FF46C0A8
:10178800DAFFDECFF6FFDDCFF7FF000EF86E0800B8
:10179800F550056E066A43C007F044C008F0D8EC5F
:1017A8000BF0B8EF0BF0120007500810D8B4DFEFB9
:1017B8000BF0E1EF0BF0EAEF0BF007500810D8A49C
:1017C800E8EF0BF0EAEF0BF0EFEF0BF00550D0EC81
:1017D8000FF03CEF0CF020EE09F00750D926085026
:1017E800DA22DE50DE10D8B4FCEF0BF0FEEF0BF07F
:1017F80019EF0CF020EE09F00750D9260850DA222C
:1018080010EE03F00750E1260850E222DE50E65CB5
:10181800E650800A0D6EDE50800A0D58D8B017EFDA
:101828000CF019EF0CF03CEF0CF020EE03F0075031
:10183800D9260850DA22DECF09F0DDCF0AF007C03A
:10184800D9FF08C0DAFFDECF0BF0DDCF0CF009506E
:101858000B24D96E0A500C20DA6E05C0DFFF20EE8B
:1018680003F00750D9260850DA22DE2A000EDD22BE
:10187800120085948598839E879C050E0E01746FCF
:10188800060E766F070E696F080E886FBD508F0BB6
:101898004009BD6EE00EBE16BF50F00B0109BF6EC9
:1018A800630EBC6EBD8E000EAA6E000EA66E000EF4
:1018B8000F01256F000E216FFC0EAD16F30EAD164D
:1018C800CF0EAD163F0EAD16AB88AB50F00B0C0922
:1018D800AB6EAB8EA788A750F00B0C09A76EA78E2E
:1018E80026892651F00B0C09266F268F2289225152
:1018F800F00B0C09226F228F12001ABE86EF0CF033
:1019080088EF0CF08EEF0CF019C01EF01AC01FF013
:1019180092EF0CF0000E1F6E000E1E6E000E1D6E74
:10192800000E1C6EA4EF0CF0000E066E200E056E65
:1019380015C007F016C008F0D8EC0BF01C4A1D2A99
:101948001E501C5C1D50800A1B6E1F50800A1B58BD
:10195800D8A0B1EF0CF0B3EF0CF098EF0CF017C073
:101968000EF018C00FF015C010F016C011F044ECBE
:101978000EF01200000E106E000E0F6E0D500E10BD
:10198800D8B4C9EF0CF0CBEF0CF0F3EF0CF0010E6C
:10199800116ED3EF0CF0D8900D360E36112A0EAE1C
:1019A800D8EF0CF0DAEF0CF0CFEF0CF0D8900F3640
:1019B80010360D500B5C0E500C58D8A0E6EF0CF00A
:1019C800E8EF0CF0EDEF0CF00D500B5E0E500C5ADA
:1019D8000F80D8900E320D32112EDAEF0CF00FC0B6
:1019E8000BF010C00CF012000DC007F00C0E68ECE4
:1019F8000FF00A50076E050E68EC0FF0000E0F6E20
:101A080009500A10D8B40BEF0DF00DEF0DF00FEFE1
:101A18000DF0010E0F6E0FC007F0040E68EC0FF00A
:101A28000C50076E070E68EC0FF0000E106E0B508E
:101A38000C10D8B422EF0DF024EF0DF026EF0DF0C6
:101A4800010E106E10C007F0060E68EC0FF01200C1
:101A580062C055F063C056F040EF0DF060C043F02F
:101A680061C044F0550E456E000E466E64C047F0E6
:101A780065C048F029EC0BF055C0F6FF56C0F7FFDB
:101A8800000EF86E0800F5500009D8A44EEF0DF0CE
:101A980050EF0DF032EF0DF0000E0001616F000EF7
:101AA800606F12006A0E0001726F000E736F66C0DD
:101AB80074F067C075F0000E786F000E776F000E37
:101AC8007E6F000E7D6F740E606F000E616F68C0D0
:101AD80062F069C063F0720E646F000E656F2CECE3
:101AE8000DF0000177516625D96E78516721DA6EBD
:101AF800000EDF6E1200C1EC0FF0520EABEC0FF0CF
:101B0800B60EABEC0FF0B7EC0FF0530EABEC0FF0DA
:101B1800010E66EC0EF00B6E0B500E6E0F6A000E87
:101B280066EC0EF00B6E0B500D6E0C6A0E500C101E
:101B38000E6E0F500D100F6EBCEC0FF00EC009F0BA
:101B48000FC00AF01200C1EC0FF0520EABEC0FF010
:101B5800B80EABEC0FF0B7EC0FF0530EABEC0FF088
:101B6800010E66EC0EF00B6E0B500E6E0F6A000E37
:101B780066EC0EF00B6E0B500D6E0C6A0E500C10CE
:101B88000E6E0F500D100F6EBCEC0FF00EC009F06A
:101B98000FC00AF01200C1EC0FF0520EABEC0FF0C0
:101BA800B40EABEC0FF0B7EC0FF0530EABEC0FF03C
:101BB800010E66EC0EF00B6E0B500E6E0F6A000EE7
:101BC80066EC0EF00B6E0B500D6E0C6A0E500C107E
:101BD8000E6E0F500D100F6EBCEC0FF00EC009F01A
:101BE8000FC00AF01200C1EC0FF0520EABEC0FF070
:101BF800BA0EABEC0FF0B7EC0FF0530EABEC0FF0E6
:101C0800010E66EC0EF00B6E0B500E6E0F6A000E96
:101C180066EC0EF00B6E0B500D6E0C6A0E500C102D
:101C28000E6E0F500D100F6EBCEC0FF00EC009F0C9
:101C38000FC00AF01200340EF66E1F0EF76E000E7B
:101C4800F86E00EEDBF010EE12F00900F5CFEEFFB3
:101C5800E550E150FAE101EE00F05C0EEE6AE806AC
:101C6800FDE100EEC2F0190EEE6AE806FDE15A6ADF
:101C7800596A586A576A5B905B920001C5EF09F090
:101C8800000E146E000E136E55EF0EF012C005F024
:101C9800066A10C007F011C008F0D8EC0BF0134A20
:101CA800142A13500E24D96E14500F20DA6EDF5008
:101CB800126E1250D8A463EF0EF065EF0EF04AEFE3
:101CC8000EF01200076E0CEC0FF00E01DA870CEC28
:101CD8000FF0D5CE08F00CEC0FF00750D8B477EF22
:101CE8000EF07BEF0EF0066A062A7CEF0EF0066A0D
:101CF800063A06460E01DA510618DF0B0618DA6FA7
:101D0800DA890850120018BE94EF0EF0185006E158
:101D18001704D8B092EF0EF094EF0EF0A2EF0EF089
:101D280017C019F018C01AF0191E1A1E194A1A2AD3
:101D380019C017F01AC018F0A6EF0EF017C017F068
:101D480018C018F01200A3EC0FF0000E0A6E050E72
:101D5800096E130E0C6E880E0B6E000E0E6E040EBE
:101D68000D6EF8EC0CF082820E019A93090E0D01AB
:101D7800F16F0E0129831F83F292F28AF28CF28EA0
:101D88001200F7EC0EF0010E076E000E68EC0FF073
:101D98003F0E096E550EE82EFED7092EFCD700F02F
:101DA800030E076E000E68EC0FF0D50E076E010EDD
:101DB80068EC0FF01200EAEF0EF006C0D9FF07C07A
:101DC800DAFFDF5078EC0FF0064A072A06C0D9FF81
:101DD80007C0DAFFDF50D8A4F4EF0EF0F6EF0EF0EC
:101DE800E1EF0EF012000E01D951F00B0809D96F7E
:101DF800D98B9F0ED66F848A848CA79BA79D1D0EB6
:101E08001D6F1E0E1C6F1C0E6F6F1B0E706F120065
:101E18000E01D8B512EF0FF014EF0FF00CEF0FF022
:101E2800DACE05F01F0E0516D8A41DEF0FF01FEF30
:101E38000FF00CEF0FF012000E01D8B526EF0FF0DF
:101E480028EF0FF020EF0FF0DACE01F01F0E011689
:101E5800D8A431EF0FF033EF0FF020EF0FF012009E
:101E680005500702F3CF09F0F4CF0AF00550080235
:101E7800F3500A2606500702F3500A2609C005F057
:101E88000AC006F0120088928890849884968690FA
:101E98008792869E81987E8E7F8279887C988092B0
:101EA8007E9080907C961200120E0E01626F110EC9
:101EB800156F8382E997E895330EE56F000EE66F9C
:101EC800E789E88BE78F1200086EC1EC0FF0520E1D
:101ED800ABEC0FF008508009ABEC0FF00750ABECFF
:101EE8000FF0BCEC0FF01200056E0E0137A57FEF66
:101EF8000FF081EF0FF079EF0FF005C0E4FE12004C
:101F0800C1EC0FF0520EABEC0FF0E60EABEC0FF09D
:101F1800BCEC0FF01200CBEC0FF0520EB1EC0FF04E
:101F2800E60EB1EC0FF0C6EC0FF01200C832280A2A
:101F38000807D0206419881330110807F00A84ECC8
:101F48000FF0130E076E000E68EC0FF01200066E0D
:101F58000CEC0FF006C0D5FE1200026E20EC0FF05C
:101F680002C0D5FE12000CEC0FF00E01DA8312004D
:101F78000CEC0FF00E01DA8512000CEC0FF00E01DC
:101F8800DA81120020EC0FF00E01DA85120020EC45
:0A1F98000FF00E01DA8112001200B2
:020000040020DA
:10000000FF0FFF0FFF0FFF0FFF0FFF0FFF0FFF0F80
:020000040030CA
:0C000000AAFFFFFF9FFFFFFFFFFFFFFFB5
:00000001FF
