:04000000D1EFFAF052
:020000040001F9
:10F5A200000110EFFDF018ECFBF00E01DA81120001
:10F5B20018ECFBF00E01DA851200026E18ECFBF07B
:10F5C20002C0D5FE1200046ED4ECFAF0520EDEEC4C
:10F5D200FAF004508009DEECFAF00350DEECFAF0A7
:10F5E200D9ECFAF0120088928890849884968690DA
:10F5F2008792869E81987E8E7F8279887C9880927F
:10F602007E9080907C96120001500302F3CF05F0A9
:10F61200F4CF06F001500402F35006260250030212
:10F62200F350062605C001F006C002F012000E01DA
:10F63200D8B51EEFFBF020EFFBF018EFFBF0DACEAF
:10F6420001F01F0E0116D8A429EFFBF02BEFFBF0FF
:10F6520018EFFBF012000E01D951F00B0809D96F17
:10F66200D98B9F0ED66F848A848CA79BA79D1D0E73
:10F672001D6F1E0E1C6F1C0E6F6F1B0E706F120023
:10F682002CECFBF0010E036E000EE4ECFAF03F0EE0
:10F69200056E550EE82EFED7052EFCD700F0030EA0
:10F6A200036E000EE4ECFAF0D50E036E010EE4ECEC
:10F6B200FAF01200000E0C6E000E0B6E09500A10CA
:10F6C200D8B466EFFBF068EFFBF090EFFBF0010EB1
:10F6D2000D6E70EFFBF0D89009360A360D2A0AAE8D
:10F6E20075EFFBF077EFFBF06CEFFBF0D8900B3689
:10F6F2000C360950075C0A500858D8A083EFFBF07B
:10F7020085EFFBF08AEFFBF00950075E0A50085ABA
:10F712000B80D8900A3209320D2E77EFFBF00BC026
:10F7220007F00CC008F01200AAEFFBF014C0D9FFDA
:10F7320015C0DAFF0A0EDF5E2A0E186E8E0EE82E54
:10F74200FED7182EFCD714C00EF015C00FF069ECCE
:10F75200FDF014C0D9FF15C0DAFFDF50D8A4B4EF12
:10F76200FBF0B6EFFBF097EFFBF0CBEFFBF016C030
:10F77200D9FF17C0DAFF0A0EDF5E2A0E186E8E0E50
:10F78200E82EFED7182EFCD716C00EF017C00FF0C9
:10F7920069ECFDF016C0D9FF17C0DAFFDF50D8A41C
:10F7A200D5EFFBF0D7EFFBF0B8EFFBF0120085943A
:10F7B2008598839E879C050E0E01746F060E766FE8
:10F7C200070E696F080E886FBD508F0B4009BD6E22
:10F7D200E00EBE16BF50F00B0109BF6E630EBC6E89
:10F7E200BD8E000EAA6E000EA66E000E0F01256FD2
:10F7F200000E216FFC0EAD16F30EAD16CF0EAD1638
:10F802003F0EAD16AB88AB50F00B0C09AB6EAB8E56
:10F81200A788A750F00B0C09A76EA78E2689265140
:10F82200F00B0C09266F268F22892251F00B0C094E
:10F83200226F228F120020EE01F01450D9261550AB
:10F84200DA22000EDF6E20EE01F01650D926175094
:10F85200DA22000EDF6E000E1A6E000E196E14C050
:10F86200D9FF15C0DAFF19C0DFFF16C0D9FF17C0D4
:10F87200DAFF19C0DFFF14C00EF015C00FF069ECFB
:10F88200FDF016C00EF017C00FF069ECFDF0D00EBF
:10F89200186ECA0EE82EFED7182EFCD70A0E1926AD
:10F8A200000E1A221ABE5FEFFCF01A5009E13C0E5C
:10F8B200195CD8A05FEFFCF061EFFCF030EFFCF0D8
:10F8C200120020EE01F01450D9261550DA22000E53
:10F8D200DF6E20EE01F01650D9261750DA22010E03
:10F8E200DF6E000E1B6E000E1A6E16C0D9FF17C017
:10F8F200DAFF1AC0DFFF14C0D9FF15C0DAFF1AC041
:10F90200DFFF020E196E380E186EAD0EE82EFED70E
:10F91200182EFCD7192EFAD700F014C00EF015C01D
:10F922000FF069ECFDF016C00EF017C00FF069EC95
:10F93200FDF00A0E1A26000E1B221BBEAAEFFCF0D7
:10F942001B5009E1500E1A5CD8A0AAEFFCF0ACEFF4
:10F95200FCF076EFFCF0060E196E470E186EA00E44
:10F96200E82EFED7182EFCD7192EFAD700D0120097
:10F9720020EE01F01450D9261550DA22010EDF6E66
:10F9820020EE01F01650D9261750DA22000EDF6E53
:10F99200000E1B6E000E1A6E16C0D9FF17C0DAFFDA
:10F9A2001AC0DFFF14C0D9FF15C0DAFF1AC0DFFF8B
:10F9B200020E196E380E186EAD0EE82EFED7182EF6
:10F9C200FCD7192EFAD700F014C00EF015C00FF0B4
:10F9D20069ECFDF016C00EF017C00FF069ECFDF0F7
:10F9E2000A0E1A26000E1B221BBE01EFFDF01B5051
:10F9F20009E1500E1A5CD8A001EFFDF003EFFDF013
:10FA0200CDEFFCF0060E196E470E186EA00EE82E12
:10FA1200FED7182EFCD7192EFAD700D01200F4EC1C
:10FA2200FAF02CECFBF041ECFBF0D8ECFBF0BCCF95
:10FA320026F0000E276E010E286E010E296EAA0E08
:10FA42002C6E0F0E2D6EA60E2E6E0F0E2F6E26C072
:10FA52002AF02B6A000E306E010E316E010E326EEC
:10FA6200250E356E0F0E366E210E376E0F0E386E66
:10FA720026C033F0346A270E0E6E000E0F6E69EC4C
:10FA8200FDF0300E0E6E000E0F6E69ECFDF0010EF1
:10FA9200256E7C8E849E7C88270E1C6E000E1D6E49
:10FAA200300E1E6E000E1F6E25501FECFEF0F40E7F
:10FAB200246E820E236E050EE82EFED7232EFCD76F
:10FAC200242EFAD700F07E804CEFFDF000EF00F01C
:10FAD20020EE02F00E50D9260F50DA22DF50D8B4B1
:10FAE20075EFFDF077EFFDF0ABEFFDF00EC0D9FF43
:10FAF2000FC0DAFFDF50106E1050016E026A20EE66
:10FB020003F00E50D9260F50DA22DECF03F0DDCFFC
:10FB120004F005ECFBF001C007F002C008F0000E93
:10FB22000A6E640E096E5BECFBF020EE03F00E50E1
:10FB3200D9260F50DA22DF50116E0750115C126E77
:10FB420020EE03F00E50D9260F50DA22DF50136E4A
:10FB5200CEEFFDF0000E126E0EC0D9FF0FC0DAFF1D
:10FB6200DF50106E1050016E026A20EE03F00E504C
:10FB7200D9260F50DA22DECF03F0DDCF04F005ECF8
:10FB8200FBF001C007F002C008F0000E0A6E640E1E
:10FB9200096E5BECFBF00750136E20EE01F00E5085
:10FBA200D9260F50DA22DF50D8B4DAEFFDF0DCEFBD
:10FBB200FDF0FEEFFDF020EE05F00E50D9260F50BD
:10FBC200DA22DECF10F0DDCF11F010C0D9FF11C064
:10FBD200DAFF12C0DFFF20EE07F00E50D9260F50D9
:10FBE200DA22DECF10F0DDCF11F010C0D9FF11C044
:10FBF200DAFF13C0DFFF1EEFFEF020EE05F00E501D
:10FC0200D9260F50DA22DECF10F0DDCF11F010C06E
:10FC1200D9FF11C0DAFF13C0DFFF20EE07F00E504C
:10FC2200D9260F50DA22DECF10F0DDCF11F010C04E
:10FC3200D9FF11C0DAFF12C0DFFF1200226ECEEF31
:10FC4200FFF01CC014F01DC015F01EC016F01FC03E
:10FC520017F0B9ECFCF01CC014F01DC015F01EC06A
:10FC620016F01FC017F095ECFBF01CC014F01DC07D
:10FC720015F01EC016F01FC017F0B9ECFCF01CC046
:10FC820014F01DC015F01EC016F01FC017F095EC41
:10FC9200FBF0FFEFFFF01CC014F01DC015F01EC0FA
:10FCA20016F01FC017F062ECFCF01CC014F01DC06F
:10FCB20015F01EC016F01FC017F095ECFBF01CC02B
:10FCC20014F01DC015F01EC016F01FC017F062EC34
:10FCD200FCF01CC014F01DC015F01EC016F01FC0B1
:10FCE20017F095ECFBF0FFEFFFF01CC014F01DC005
:10FCF20015F01EC016F01FC017F0B9ECFCF01CC0C6
:10FD020014F01DC015F01EC016F01FC017F095ECC0
:10FD1200FBF01CC014F01DC015F01EC016F01FC071
:10FD220017F0B9ECFCF01CC014F01DC015F01EC099
:10FD320016F01FC017F095ECFBF01CC014F01DC0AC
:10FD420015F01EC016F01FC017F0B9ECFCF01CC075
:10FD520014F01DC015F01EC016F01FC017F095EC70
:10FD6200FBF01CC014F01DC015F01EC016F01FC021
:10FD720017F0B9ECFCF01CC014F01DC015F01EC049
:10FD820016F01FC017F095ECFBF0FFEFFFF01CC060
:10FD920014F01DC015F01EC016F01FC017F01CECA9
:10FDA200FCF0290E216E960E206E7F0EE82EFED7F5
:10FDB200202EFCD7212EFAD700F01CC014F01DC053
:10FDC20015F01EC016F01FC017F095ECFBF01CC01A
:10FDD20014F01DC015F01EC016F01FC017F0B9ECCC
:10FDE200FCF01CC014F01DC015F01EC016F01FC0A0
:10FDF20017F095ECFBF01CC014F01DC015F01EC0EE
:10FE020016F01FC017F0B9ECFCF01CC014F01DC0B6
:10FE120015F01EC016F01FC017F095ECFBF0FFEFB7
:10FE2200FFF01CC014F01DC015F01EC016F01FC05C
:10FE320017F01CECFCF0290E216E960E206E7F0E40
:10FE4200E82EFED7202EFCD7212EFAD700F01CC0B8
:10FE520014F01DC015F01EC016F01FC017F095EC6F
:10FE6200FBF01CC014F01DC015F01EC016F01FC020
:10FE720017F062ECFCF01CC014F01DC015F01EC09F
:10FE820016F01FC017F095ECFBF01CC014F01DC05B
:10FE920015F01EC016F01FC017F062ECFCF006EF62
:10FEA200FFF01CC014F01DC015F01EC016F01FC0DC
:10FEB20017F0B9ECFCF01CC014F01DC015F01EC008
:10FEC20016F01FC017F095ECFBF01CC014F01DC01B
:10FED20015F01EC016F01FC017F0B9ECFCF01CC0E4
:10FEE20014F01DC015F01EC016F01FC017F095ECDF
:10FEF200FBF01CC014F01DC015F01EC016F01FC090
:10FF020017F0B9ECFCF01CC014F01DC015F01EC0B7
:10FF120016F01FC017F095ECFBF0FFEFFFF01CC0CE
:10FF220014F01DC015F01EC016F01FC017F062ECD1
:10FF3200FCF01CC014F01DC015F01EC016F01FC04E
:10FF420017F095ECFBF01CC014F01DC015F01EC09C
:10FF520016F01FC017F062ECFCF01CC014F01DC0BC
:10FF620015F01EC016F01FC017F095ECFBF01CC078
:10FF720014F01DC015F01EC016F01FC017F062EC81
:10FF8200FCF01CC014F01DC015F01EC016F01FC0FE
:10FF920017F095ECFBF0FFEFFFF02250206E216A84
:10FFA2002150000AD8B4D8EFFFF0FFEFFFF0205045
:10FFB200000AD8B422EFFEF0010AD8B44CEFFEF0EA
:10FFC200030AD8B476EFFEF0010AD8B4C8EFFEF007
:10FFD200070AD8B412EFFFF0010AD8B452EFFFF0CB
:10FFE200030AD8B490EFFFF0010AD8B4FFEFFFF094
:0EFFF2000F0AD8B4FFEFFFF0FFEFFFF0120090
:020000040020DA
:10000000FF0FFF0FFF0FFF0FFF0FFF0FFF0FFF0F80
:020000040030CA
:0C000000AAFFFFFF9FFFFFFFFFFFFFFFB5
:00000001FF
