:04000000B9EF8CF0D8
:10FEE00000475245454E3A20526561642025642CF6
:10FEF0002065787065637465642025642C206469CE
:10FF000066666572656E63652025642C206E6F726F
:10FF10006D616C69736564202564200A00424C554C
:10FF2000453A20526561642025642C20657870650F
:10FF3000637465642025642C206469666665726557
:10FF40006E63652025642C206E6F726D616C697321
:10FF50006564202564200A004D43204176673A20DD
:10FF60006E6F726D5245442025642C206E6F726D49
:10FF7000475245454E2025642C206E6F726D424CD1
:10FF800055452025642C206D6173746572202564AD
:10FF9000200A005245443A20526561642025642CB1
:10FFA0002065787065637465642025642C2064691D
:10FFB00066666572656E63652025642C206E6F72BF
:10FFC0006D616C69736564202564200A000A204114
:10FFD00056473A20522025642C20472025642C20A7
:10FFE00042202564200A000A204578706563746504
:10FFF000642076616C7565733A202575200A0000CF
:020000040001F9
:10000000000E0001976F9751060DF3CF85F0F4CFE6
:1000100086F085518125D96E86518221DA6EDECF38
:1000200087F0DDCF88F087517B5D136E88517C5956
:10003000146EFBEC8CF013C091F014C092F091C0E0
:1000400001F092C002F0000E046E640E036E76ECB6
:100050008DF001C007F002C008F000019751060DB5
:10006000F3CF85F0F4CF86F085518125D96E865186
:100070008221DA6EDECF09F0DDCF0AF093EC8BF04F
:1000800007C08BF008C08CF079C060F07AC061F0D6
:10009000930E0001626FFF0E636F7BC064F07CC043
:1000A00065F09751060DF3CF85F0F4CF86F08551BA
:1000B0008125D96E86518221DA6EDECF66F0DDCFE2
:1000C00067F091C068F092C069F08BC06AF08CC094
:1000D0006BF0CDEC8BF079C002F07AC003F035EC18
:1000E0008DF0520E0001866F2B0E856F000EE82EEC
:1000F000FED7852FFCD7862FFAD700F00001975145
:10010000060DF3CF85F0F4CF86F085518125876FFA
:1001100086518221886F020E8725D96E000E8821B4
:10012000DA6EDECF89F0DDCF8AF089517D5D136E06
:100130008A517E59146EFBEC8CF013C093F014C0FE
:1001400094F093C001F094C002F0000E046E640EAF
:10015000036E76EC8DF001C007F002C008F00001DC
:100160009751060DF3CF85F0F4CF86F085518125A8
:10017000876F86518221886F020E8725D96E000E07
:100180008821DA6EDECF09F0DDCF0AF093EC8BF038
:1001900007C08DF008C08EF079C060F07AC061F0C1
:1001A000E10E0001626FFE0E636F7DC064F07EC0E1
:1001B00065F09751060DF3CF85F0F4CF86F08551A9
:1001C0008125876F86518221886F020E8725D96E1F
:1001D000000E8821DA6EDECF66F0DDCF67F093C0C7
:1001E00068F094C069F08DC06AF08EC06BF0CDEC01
:1001F0008BF079C002F07AC003F035EC8DF0520E2E
:100200000001866F2B0E856F000EE82EFED7852F1E
:10021000FCD7862FFAD700F000019751060DF3CFD7
:1002200085F0F4CF86F085518125876F8651822134
:10023000886F040E8725D96E000E8821DA6EDECF16
:1002400089F0DDCF8AF089517F5D136E8A51805924
:10025000146EFBEC8CF013C095F014C096F095C0B2
:1002600001F096C002F0000E046E640E036E76EC90
:100270008DF001C007F002C008F000019751060D93
:10028000F3CF85F0F4CF86F085518125876F8651B5
:100290008221886F040E8725D96E000E8821DA6EC0
:1002A000DECF09F0DDCF0AF093EC8BF007C08FF0C2
:1002B00008C090F079C060F07AC061F01D0E0001B6
:1002C000626FFF0E636F7FC064F080C065F097516E
:1002D000060DF3CF85F0F4CF86F085518125876F29
:1002E00086518221886F040E8725D96E000E8821E1
:1002F000DA6EDECF66F0DDCF67F095C068F096C0AD
:1003000069F08FC06AF090C06BF0CDEC8BF079C0D3
:1003100002F07AC003F035EC8DF0520E0001866FCA
:100320002B0E856F000EE82EFED7852FFCD7862F6B
:10033000FAD700F00001972B020E9765A2EF81F02B
:10034000A4EF81F003EF80F012001EC034F01FC054
:1003500035F020C036F021C037F022C038F023C07D
:1003600039F024C03AF025C03BF03BBEBAEF81F033
:10037000BDEF81F0010EBEEF81F0000E3E6E3E50EB
:10038000D8B4C5EF81F0C7EF81F0D7EF81F03B1E05
:100390003A1E391E381E371E361E351E346C000EAE
:1003A000352236223722382239223A223B220001D6
:1003B000F2BFE5EF81F0F25106E1F105D8B0E3EFCD
:1003C00081F0E5EF81F0EBEF81F0000E316E010E70
:1003D000306EEFEF81F0F1C030F0F2C031F0EFC0DD
:1003E00032F0F0C033F03E50D8B4F9EF81F0FBEFBB
:1003F00081F012EF82F03206D8A033063E50D8A426
:1004000004EF82F006EF82F00CEF82F0000E2F6E08
:100410002B0E2E6E10EF82F0000E2F6E2D0E2E6E14
:100420002EC03EF0000E3D6E1F0E3C6E000E010110
:100430006F6F97EF82F03C06D8A03D06500E3C242B
:10044000D96E010E3D20DA6E34C001F035C002F0E5
:1004500036C003F037C004F038C005F039C006F0EC
:100460003AC007F03BC008F00A0E096E000E0A6E93
:10047000000E0B6E000E0C6E000E0D6E000E0E6E5A
:10048000000E0F6E000E106E35EC88F001C026F0E5
:1004900002C027F003C028F004C029F005C02AF0EC
:1004A00006C02BF007C02CF008C02DF026C013F0BA
:1004B00027C014F0FBEC8CF01350300FDF6E3006C9
:1004C000D8A031063206D8A0330634C001F035C0BA
:1004D00002F036C003F037C004F038C005F039C070
:1004E00006F03AC007F03BC008F00A0E096E000E95
:1004F0000A6E000E0B6E000E0C6E000E0D6E000EDE
:100500000E6E000E0F6E000E106EBBEC86F001C07A
:1005100034F002C035F003C036F004C037F005C037
:1005200038F006C039F007C03AF008C03BF03DBED5
:10053000A2EF82F03D5008E13C04D8A0A2EF82F087
:10054000A4EF82F0C0EF82F034503510361037102F
:10055000381039103A103B10D8A4B1EF82F0B3EF45
:1005600082F01BEF82F031BEC0EF82F0315006E125
:100570003004D8B0BEEF82F0C0EF82F01BEF82F003
:100580003E50D8B4C6EF82F0C8EF82F0D3EF82F0CD
:100590003C06D8A03D06500E3C24D96E010E3D20ED
:1005A000DA6E3EC0DFFF1CC011F01DC012F0500E0D
:1005B0003C24136E010E3D20146E32C015F033C082
:1005C00016F056EC8BF0120041C0D9FF42C0DAFFA2
:1005D000DECFF6FFDDCFF7FF000EF86E0800F55016
:1005E000250AD8A4F6EF82F0F8EF82F0EAEF83F064
:1005F00041C0D9FF42C0DAFFDE2A000EDD22000E24
:100600000001F06F000EEF6FEFC0F3F0F169F269D7
:1006100041C0D9FF42C0DAFFDECF51F0DDCF52F04A
:1006200051C0F6FF52C0F7FF000EF86E0800F550FB
:10063000640AD8B41EEF83F020EF83F030EF83F02C
:1006400051C0F6FF52C0F7FF000EF86E0800F550DB
:10065000690AD8A42EEF83F030EF83F073EF83F0B4
:1006600043C0D9FF44C0DAFFDFCF45F0020EDE26DB
:10067000DFCF46F0000EDD2245C0D9FF46C0DAFFCD
:10068000DECF49F0DDCF4AF0000E4ABEFF0E4B6EC2
:100690004C6E4D6E4E6E4F6E506E010E5124456E77
:1006A000000E5220466E41C0D9FF42C0DAFF45C05D
:1006B000DEFF46C0DDFF3FC01CF040C01DF049C05A
:1006C0001EF04AC01FF04BC020F04CC021F04DC0BE
:1006D00022F04EC023F04FC024F050C025F0A5EC0E
:1006E00081F000EF84F051C0F6FF52C0F7FF000E1A
:1006F000F86E0800F550750AD8A481EF83F083EFF7
:1007000083F0E1EF83F043C0D9FF44C0DAFFDFCFCD
:1007100045F0020EDE26DFCF46F0000EDD2245C09A
:10072000D9FF46C0DAFFDECF47F0DDCF48F047C043
:1007300049F048C04AF04B6A4C6A4D6A4E6A4F6AAB
:10074000506A010E5124456E000E5220466E41C083
:10075000D9FF42C0DAFF45C0DEFF46C0DDFFC9EF6A
:1007600083F03FC01CF040C01DF049C01EF04AC0DD
:100770001FF04BC020F04CC021F04DC022F04EC005
:1007800023F04FC024F050C025F005EC85F000EFB9
:1007900084F051C0F6FF52C0F7FF000EF86E08005B
:1007A000F550456E466A4650000AD8B4DAEF83F039
:1007B000E1EF83F04550750AD8B4B1EF83F0E1EF73
:1007C00083F041C0D9FF42C0DAFFDE2A000EDD22ED
:1007D00000EF84F041C0D9FF42C0DAFFDECFF6FF60
:1007E000DDCFF7FF000EF86E0800F550016E026ACB
:1007F0003FC003F040C004F06DEC8AF0E1EF83F0FD
:10080000120089EC8DF04DEC8DF01BEC8DF0D2ECEC
:100810008AF09AEC8DF0BCCFD6F0000E0001DD6FAF
:10082000010EDE6F010EDF6FAA0EE26F0F0EE36F97
:10083000A60EE46F0F0EE56FD6C0E0F0E16B000E80
:10084000E66F010EE76F010EE86F250EEB6F0F0EDE
:10085000EC6F210EED6F0F0EEE6FD6C0E9F0EA6B74
:10086000DD0E0E6E000E0F6E7FEC87F0E60E0E6E44
:10087000000E0F6E7FEC87F021EE70F010EEBEF0F0
:10088000110EDBCFE3FFE806FCE2000E0001D86F9B
:10089000000ED76F000EDA6F000ED96F000EDC6FFE
:1008A000000EDB6FD70E0E6E000E0F6ED90E106E9F
:1008B000000E116EDB0E126E000E136EE7EC88F068
:1008C000980E0001606F000E616FCD0E626FFF0E1B
:1008D000636FD7C064F0D8C065F0D9C066F0DAC0E5
:1008E00067F0DBC068F0DCC069F0CDEC8BF0980EEF
:1008F000026E000E036E35EC8DF0520E5D6E2B0E07
:100900005C6E000EE82EFED75C2EFCD75D2EFAD76B
:1009100000D0980E0001606F000E616FE70E626FED
:10092000FF0E636FC6C064F0C7C065F0CDEC8BF0FE
:10093000980E026E000E036E35EC8DF0520E5D6E59
:100940002B0E5C6E000EE82EFED75C2EFCD75D2EC3
:10095000FAD700D07E90980E0001796F000E7A6F62
:10096000D7C07BF0D8C07CF0D9C07DF0DAC07EF073
:10097000DBC07FF0DCC080F0BE0E816F000E826FA6
:10098000AC0E836F000E846F00EC80F0520E5D6E33
:100990002B0E5C6E000EE82EFED75C2EFCD75D2E73
:1009A000FAD700D0980E0001796F000E7A6FAC0E66
:1009B0007B6F000E7C6FD00E7D6F000E7E6FE6ECBD
:1009C00085F0D00E016E000E026E16EC8BF07E806C
:1009D0007C88F40E5D6E820E5C6E050EE82EFED7EE
:1009E0005C2EFCD75D2EFAD700F0F40E5D6E820E01
:1009F0005C6E050EE82EFED75C2EFCD75D2EFAD776
:100A000000F052EF84F000EF00F00001F2BF13EFAE
:100A100085F0F25106E1F105D8B011EF85F013EF42
:100A200085F019EF85F0000E316E010E306E1DEF6E
:100A300085F0F1C030F0F2C031F0EFC02EF0F0C020
:100A40002FF01EC032F01FC033F020C034F021C0A0
:100A500035F022C036F023C037F024C038F025C06E
:100A600039F0000E3B6E1F0E3A6E000E01016F6FE3
:100A7000B0EF85F03A06D8A03B06500E3A24D96E66
:100A8000010E3B20DA6E32C001F033C002F034C0F8
:100A900003F035C004F036C005F037C006F038C0AA
:100AA00007F039C008F00A0E096E000E0A6E000E3B
:100AB0000B6E000E0C6E000E0D6E000E0E6E000E14
:100AC0000F6E000E106E05EC8AF001C026F002C019
:100AD00027F003C028F004C029F005C02AF006C0A2
:100AE0002BF007C02CF008C02DF02650300FDF6E21
:100AF0003006D8A031062E06D8A02F0632C001F04D
:100B000033C002F034C003F035C004F036C005F045
:100B100037C006F038C007F039C008F00A0E096E79
:100B2000000E0A6E000E0B6E000E0C6E000E0D6EA7
:100B3000000E0E6E000E0F6E000E106E8DEC89F022
:100B400001C032F002C033F003C034F004C035F00D
:100B500005C036F006C037F007C038F008C039F0DD
:100B60003A503B10D8B4B7EF85F0B9EF85F0D5EF28
:100B700085F03250331034103510361037103810DD
:100B80003910D8A4C6EF85F0C8EF85F03AEF85F0AC
:100B900031BED5EF85F0315006E13004D8B0D3EF47
:100BA00085F0D5EF85F03AEF85F01CC011F01DC03F
:100BB00012F0500E3A24136E010E3B20146E2EC01C
:100BC00015F02FC016F056EC8BF01200000E5B6E85
:100BD0005B50060DF3CF7FF0F4CF80F000017F5122
:100BE0007B25816F80517C21826F040E8125D96E17
:100BF000000E8221DA6EDECF83F0DDCF84F05B5011
:100C0000060DF3CF85F0F4CF86F085517B25876FF5
:100C100086517C21886F020E8725D96E000E8821AF
:100C2000DA6EDECF89F0DDCF8AF05B50060DF3CFB0
:100C30008BF0F4CF8CF08B517B25D96E8C517C21BD
:100C4000DA6EDECF8DF0DDCF8EF089518D258F6F7E
:100C50008A518E21906F83518F25076E8451902188
:100C6000086E000E0A6E030E096E93EC8BF05B505B
:100C7000020DF3CF91F0F4CF92F0000191517D2558
:100C8000D96E92517E21DA6E07C0DEFF08C0DDFF0B
:100C900079C060F07AC061F0580E626FFF0E636F2A
:100CA0005B50060DF3CF7FF0F4CF80F07F517B25B2
:100CB000D96E80517C21DA6EDECF64F0DDCF65F035
:100CC0005B50060DF3CF81F0F4CF82F081517B258C
:100CD000836F82517C21846F020E8325D96E000EB2
:100CE0008421DA6EDECF66F0DDCF67F05B50060D53
:100CF000F3CF85F0F4CF86F085517B25876F865141
:100D00007C21886F040E8725D96E000E8821DA6E4B
:100D1000DECF68F0DDCF69F05B50020DF3CF89F0D4
:100D2000F4CF8AF089517D25D96E8A517E21DA6E01
:100D3000DECF6AF0DDCF6BF0CDEC8BF0520E000110
:100D4000806F2B0E7F6F000EE82EFED77F2FFCD713
:100D5000802FFAD700F079C002F07AC003F035ECAA
:100D60008DF05B2A080E5B64B8EF86F0BAEF86F070
:100D7000E8EF85F01200000E126E10BEC4EF86F090
:100D8000C2EF86F0D6EF86F0101E0F1E0E1E0D1E4F
:100D90000C1E0B1E0A1E096C000E0A220B220C22CE
:100DA0000D220E220F221022010E126E08BEDDEF60
:100DB00086F0DBEF86F0EFEF86F0081E071E061EBA
:100DC000051E041E031E021E016C000E02220322D9
:100DD00004220522062207220822010E121A20EE02
:100DE00013F0070EDE6AE806FDE209500A100B1048
:100DF0000C100D100E100F101010D8B402EF87F069
:100E000004EF87F056EF87F0010E116E12EF87F0B6
:100E1000D89009360A360B360C360D360E360F369C
:100E20001036112A10AE17EF87F019EF87F008EF90
:100E300087F0D8901336143615361636173618360E
:100E400019361A360950015C0A5002580B500358E3
:100E50000C5004580D5005580E5006580F500758A6
:100E600010500858D8A037EF87F039EF87F04AEFD5
:100E700087F00950015E0A50025A0B50035A0C5079
:100E8000045A0D50055A0E50065A0F50075A10506A
:100E9000085A1380D89010320F320E320D320C32B5
:100EA0000B320A320932112E19EF87F01250D8B4E2
:100EB0005CEF87F05EEF87F06EEF87F01A1E191E69
:100EC000181E171E161E151E141E136C000E14225B
:100ED000152216221722182219221A2213C001F0F5
:100EE00014C002F015C003F016C004F017C005F0DE
:100EF00018C006F019C007F01AC008F0120020EE62
:100F000002F00E50D9260F50DA22DF50D8B48BEF02
:100F100087F08DEF87F0C1EF87F00EC0D9FF0FC0CB
:100F2000DAFFDF50106E1050016E026A20EE03F0FF
:100F30000E50D9260F50DA22DECF03F0DDCF04F0B9
:100F400076EC8DF001C007F002C008F0000E0A6ECA
:100F5000640E096E93EC8BF020EE03F00E50D92650
:100F60000F50DA22DF50116E0750115C126E20EE26
:100F700003F00E50D9260F50DA22DF50136EE4EF43
:100F800087F0000E126E0EC0D9FF0FC0DAFFDF50DF
:100F9000106E1050016E026A20EE03F00E50D9263A
:100FA0000F50DA22DECF03F0DDCF04F076EC8DF0C7
:100FB00001C007F002C008F0000E0A6E640E096E50
:100FC00093EC8BF00750136E20EE01F00E50D926F3
:100FD0000F50DA22DF50D8B4F0EF87F0F2EF87F04D
:100FE00014EF88F020EE05F00E50D9260F50DA22CB
:100FF000DECF10F0DDCF11F010C0D9FF11C0DAFF45
:1010000012C0DFFF20EE07F00E50D9260F50DA2273
:10101000DECF10F0DDCF11F010C0D9FF11C0DAFF24
:1010200013C0DFFF34EF88F020EE05F00E50D92614
:101030000F50DA22DECF10F0DDCF11F010C0D9FF53
:1010400011C0DAFF13C0DFFF20EE07F00E50D926E3
:101050000F50DA22DECF10F0DDCF11F010C0D9FF33
:1010600011C0DAFF12C0DFFF1200000E126E08BEC0
:101070003EEF88F03CEF88F050EF88F0081E071E26
:10108000061E051E041E031E021E016C000E022217
:10109000032204220522062207220822010E126ED4
:1010A00010BE57EF88F055EF88F067EF88F0101EFC
:1010B0000F1E0E1E0D1E0C1E0B1E0A1E096C000EAE
:1010C0000A220B220C220D220E220F22102209507E
:1010D0000A100B100C100D100E100F101010D8B4B9
:1010E00074EF88F076EF88F0BEEF88F0010E116E95
:1010F00084EF88F0D89009360A360B360C360D3658
:101100000E360F361036112A10AE89EF88F08BEFAD
:1011100088F07AEF88F00950015C0A5002580B50B1
:1011200003580C5004580D5005580E5006580F50D7
:10113000075810500858D8A0A0EF88F0A2EF88F008
:10114000B2EF88F00950015E0A50025A0B50035A60
:101150000C50045A0D50055A0E50065A0F50075A9B
:101160001050085AD89010320F320E320D320C3215
:101170000B320A320932112E8BEF88F01250D8B49C
:10118000C4EF88F0C6EF88F0D6EF88F0081E071E7F
:10119000061E051E041E031E021E016C000E022206
:1011A00003220422052206220722082201C001F0A0
:1011B00002C002F003C003F004C004F005C005F053
:1011C00006C006F007C007F008C008F01200000EC5
:1011D000166E1FEC8CF00EC0D9FF0FC0DAFF055061
:1011E000DE260650DD22110E156E3C0E146ECB0E5F
:1011F000E82EFED7142EFCD7152EFAD700F0162AAB
:10120000020E166406EF89F008EF89F0E9EF88F026
:101210000EC0D9FF0FC0DAFFDECF07F0DDCF08F038
:10122000000E0A6E030E096E93EC8BF00EC0D9FF10
:101230000FC0DAFF07C0DEFF08C0DDFF000E176E2B
:1012400047EC8CF010C0D9FF11C0DAFF0550DE2644
:101250000650DD22110E156E3C0E146ECB0EE82EDC
:10126000FED7142EFCD7152EFAD700F0172A020E3F
:1012700017643DEF89F03FEF89F020EF89F010C04F
:10128000D9FF11C0DAFFDECF07F0DDCF08F0000E86
:101290000A6E030E096E93EC8BF010C0D9FF11C0DB
:1012A000DAFF07C0DEFF08C0DDFF000E186E6FEC2E
:1012B0008CF012C0D9FF13C0DAFF0550DE260650AD
:1012C000DD22110E156E3C0E146ECB0EE82EFED7ED
:1012D000142EFCD7152EFAD700F0182A020E186427
:1012E00074EF89F076EF89F057EF89F012C0D9FFDB
:1012F00013C0DAFFDECF07F0DDCF08F0000E0A6E74
:10130000030E096E93EC8BF012C0D9FF13C0DAFF05
:1013100007C0DEFF08C0DDFF120020EE11F0070E4F
:10132000DE6AE806FDE209500A100B100C100D10E1
:101330000E100F101010D8B4A0EF89F0A2EF89F0B2
:10134000F4EF89F0010E196EB0EF89F0D8900936EC
:101350000A360B360C360D360E360F361036192A75
:1013600010AEB5EF89F0B7EF89F0A6EF89F0D8900D
:101370001136123613361436153616361736183619
:101380000950015C0A5002580B5003580C50045885
:101390000D5005580E5006580F5007581050085859
:1013A000D8A0D5EF89F0D7EF89F0E8EF89F00950A0
:1013B000015E0A50025A0B50035A0C50045A0D5049
:1013C000055A0E50065A0F50075A1050085A1180ED
:1013D000D89010320F320E320D320C320B320A32EC
:1013E0000932192EB7EF89F011C001F012C002F0D6
:1013F00013C003F014C004F015C005F016C006F0C9
:1014000017C007F018C008F0120009500A100B109E
:101410000C100D100E100F101010D8B412EF8AF02F
:1014200014EF8AF05CEF8AF0010E116E22EF8AF061
:10143000D89009360A360B360C360D360E360F3676
:101440001036112A10AE27EF8AF029EF8AF018EF34
:101450008AF00950015C0A5002580B5003580C5096
:1014600004580D5005580E5006580F50075810508C
:101470000858D8A03EEF8AF040EF8AF050EF8AF08B
:101480000950015E0A50025A0B50035A0C50045A7C
:101490000D50055A0E50065A0F50075A1050085A50
:1014A000D89010320F320E320D320C320B320A321B
:1014B0000932112E29EF8AF001C001F002C002F0BA
:1014C00003C003F004C004F005C005F006C006F038
:1014D00007C007F008C008F0120003500410D8B489
:1014E00074EF8AF076EF8AF07FEF8AF003500410F1
:1014F000D8A47DEF8AF07FEF8AF084EF8AF0015064
:10150000E4EC8DF0D1EF8AF020EE09F00350D926FB
:101510000450DA22DE50DE10D8B491EF8AF093EF57
:101520008AF0AEEF8AF020EE09F00350D92604507D
:10153000DA2210EE03F00350E1260450E222DE50DE
:10154000E65CE650800A096EDE50800A0958D8B081
:10155000ACEF8AF0AEEF8AF0D1EF8AF020EE03F024
:101560000350D9260450DA22DECF05F0DDCF06F095
:1015700003C0D9FF04C0DAFFDECF07F0DDCF08F0EB
:1015800005500724D96E06500820DA6E01C0DFFF2F
:1015900020EE03F00350D9260450DA22DE2A000E92
:1015A000DD22120085948598839E879C050E0E018E
:1015B000746F060E766F070E696F080E886FBD5048
:1015C0008F0B4009BD6EE00EBE16BF50F00B010937
:1015D000BF6E630EBC6EBD8E000EAA6E000EA66EB0
:1015E000000E0F01256F000E216FFC0EAD16F30EDD
:1015F000AD16CF0EAD163F0EAD16AB88AB50F00B4F
:101600000C09AB6EAB8EA788A750F00B0C09A76E28
:10161000A78E26892651F00B0C09266F268F22896A
:101620002251F00B0C09226F228F1200000E096E5E
:1016300001C0D9FF02C0DAFFDECF07F0DDCF08F02E
:10164000010E0A6E0A50020DF3CF03F0F4CF04F03E
:1016500003500124D96E04500220DA6E0750DE5C7C
:101660000850DE58D8B037EF8BF039EF8BF04BEFE6
:101670008BF00A50020DF3CF03F0F4CF04F00350C7
:101680000124D96E04500220DA6EDECF07F0DDCFE0
:1016900008F00AC009F00A2A080E0A6452EF8BF01B
:1016A00054EF8BF022EF8BF00950120016BE5BEF67
:1016B0008BF05DEF8BF063EF8BF015C01AF016C066
:1016C0001BF067EF8BF0000E1B6E000E1A6E000E03
:1016D000196E000E186E79EF8BF0000E026E200E60
:1016E000016E11C003F012C004F06DEC8AF0184ACC
:1016F000192A1A50185C1950800A176E1B50800A5C
:101700001758D8A086EF8BF088EF8BF06DEF8BF039
:1017100013C00AF014C00BF011C00CF012C00DF091
:1017200097EC8CF01200000E0C6E000E0B6E095040
:101730000A10D8B49EEF8BF0A0EF8BF0C8EF8BF0BF
:10174000010E0D6EA8EF8BF0D89009360A360D2ADF
:101750000AAEADEF8BF0AFEF8BF0A4EF8BF0D8902B
:101760000B360C360950075C0A500858D8A0BBEF5E
:101770008BF0BDEF8BF0C2EF8BF00950075E0A5083
:10178000085A0B80D8900A3209320D2EAFEF8BF039
:101790000BC007F00CC008F01200640E00016C6F63
:1017A000000E6D6F60C06EF061C06FF0000E726F62
:1017B000000E716F000E786F000E776F6E0E536E15
:1017C000000E546E62C055F063C056F06C0E576E3A
:1017D000000E586EF6EC8BF0000171516025D96E49
:1017E00072516121DA6E000EDF6E120055C059F0A1
:1017F00056C05AF00AEF8CF053C03FF054C040F08E
:10180000590E416E000E426E57C043F058C044F06E
:10181000E4EC82F059C0F6FF5AC0F7FF000EF86EF4
:101820000800F5500009D8A418EF8CF01AEF8CF0DE
:10183000FCEF8BF0000E546E000E536E1200DAECCB
:101840008DF0520ECFEC8DF0B60ECFEC8DF0DFECBC
:101850008DF0530ECFEC8DF0010EDAEC8CF0076EAC
:1018600007500A6E0B6A000EDAEC8CF0076E075018
:10187000096E086A0A5008100A6E0B5009100B6EA8
:10188000D5EC8DF00AC005F00BC006F01200DAECC2
:101890008DF0520ECFEC8DF0B80ECFEC8DF0DFEC6A
:1018A0008DF0530ECFEC8DF0010EDAEC8CF0076E5C
:1018B00007500A6E0B6A000EDAEC8CF0076E0750C8
:1018C000096E086A0A5008100A6E0B5009100B6E58
:1018D000D5EC8DF00AC005F00BC006F01200DAEC72
:1018E0008DF0520ECFEC8DF0BA0ECFEC8DF0DFEC18
:1018F0008DF0530ECFEC8DF0010EDAEC8CF0076E0C
:1019000007500A6E0B6A000EDAEC8CF0076E075077
:10191000096E086A0A5008100A6E0B5009100B6E07
:10192000D5EC8DF00AC005F00BC006F01200000ED9
:10193000106E000E0F6EA8EF8CF00EC001F0026A60
:101940000CC003F00DC004F06DEC8AF00F4A102AB1
:101950000F500A24D96E10500B20DA6EDF500E6E35
:101960000E50D8A4B6EF8CF0B8EF8CF09DEF8CF051
:1019700012008C0EF66E1B0EF76E010EF86E01EE65
:1019800070F010EE12F00900F5CFEEFFE550E150D7
:10199000FAE101EE00F0700EEE6AE806FDE100EEFD
:1019A000EFF0070EEE6AE806FDE15F6A5E6A00018D
:1019B00001EF84F0036E62EC8DF00E01DA8762ECC9
:1019C0008DF0D5CE04F062EC8DF00350D8B4EBEF7F
:1019D0008CF0EFEF8CF0026A022AF0EF8CF0026AD2
:1019E000023A02460E01DA510218DF0B0218DA6FD2
:1019F000DA890450120014BE08EF8DF0145006E18D
:101A00001304D8B006EF8DF008EF8DF016EF8DF0CF
:101A100013C015F014C016F0151E161E154A162A0E
:101A200015C013F016C014F01AEF8DF013C013F0A8
:101A300014C014F012004DEC8DF0010E036E000E78
:101A4000AAEC8DF03F0E056E550EE82EFED7052E42
:101A5000FCD700F0030E036E000EAAEC8DF0D50E3D
:101A6000036E010EAAEC8DF0120040EF8DF002C063
:101A7000D9FF03C0DAFFDF50BAEC8DF0024A032A27
:101A800002C0D9FF03C0DAFFDF50D8A44AEF8DF0BF
:101A90004CEF8DF037EF8DF012000E01D951F00BA5
:101AA0000809D96FD98B9F0ED66F848A848CA79B27
:101AB000A79D1D0E1D6F1E0E1C6F1C0E6F6F1B0E43
:101AC000706F12000E01D8B568EF8DF06AEF8DF0DF
:101AD00062EF8DF0DACE01F01F0E0116D8A473EF7D
:101AE0008DF075EF8DF062EF8DF012000150030262
:101AF000F3CF05F0F4CF06F001500402F3500626B0
:101B000002500302F350062605C001F006C002F0A1
:101B10001200889288908498849686908792869EF8
:101B200081987E8E7F8279887C9880927E9080904A
:101B30007C961200120E0E01626F110E156F8382D9
:101B4000E997E895330EE56F000EE66FE789E88BBD
:101B5000E78F1200046EDAEC8DF0520ECFEC8DF0B0
:101B600004508009CFEC8DF00350CFEC8DF0D5EC14
:101B70008DF01200016E0E0137A5C1EF8DF0C3EF9D
:101B80008DF0BBEF8DF001C0E4FE120001000200F9
:101B90000300040005000600070008000900026EAB
:101BA00062EC8DF002C0D5FE120062EC8DF00E01E9
:101BB000DA85120062EC8DF00E01DA81120062EC1F
:0A1BC0008DF00E01DA83120012000E
:020000040020DA
:10000000FF0FFF0FFF0FFF0FFF0FFF0FFF0FFF0F80
:020000040030CA
:0C000000AAFFFFFF9FFFFFFFFFFFFFFFB5
:00000001FF
