:04000000A9EF11F063
:100E0000000A204156473A20522025642C204720D2
:100E100025642C2042202564200A004341524420AE
:100E20002564200A00001EC034F01FC035F020C029
:100E300036F021C037F022C038F023C039F024C08A
:100E40003AF025C03BF03BBE28EF07F02BEF07F050
:100E5000010E2CEF07F0000E3E6E3E50D8B433EF7B
:100E600007F035EF07F045EF07F03B1E3A1E391E3D
:100E7000381E371E361E351E346C000E35223622C3
:100E80003722382239223A223B220001FBBF53EF9E
:100E900007F0FB5106E1FA05D8B051EF07F053EF28
:100EA00007F059EF07F0000E316E010E306E5DEF66
:100EB00007F0FAC030F0FBC031F0F8C032F0F9C0F2
:100EC00033F03E50D8B467EF07F069EF07F080EFDA
:100ED00007F03206D8A033063E50D8A472EF07F0D0
:100EE00074EF07F07AEF07F0000E2F6E2B0E2E6EC8
:100EF0007EEF07F0000E2F6E2D0E2E6E2EC03EF0F0
:100F0000000E3D6E1F0E3C6E000E0101DB6F05EF03
:100F100008F03C06D8A03D06BC0E3C24D96E010E5C
:100F20003D20DA6E34C001F035C002F036C003F067
:100F300037C004F038C005F039C006F03AC007F0F9
:100F40003BC008F00A0E096E000E0A6E000E0B6E12
:100F5000000E0C6E000E0D6E000E0E6E000E0F6E6B
:100F6000000E106E13EC0DF001C026F002C027F049
:100F700003C028F004C029F005C02AF006C02BF0F9
:100F800007C02CF008C02DF026C013F027C014F0C5
:100F900057EC11F01350300FDF6E3006D8A0310639
:100FA0003206D8A0330634C001F035C002F036C096
:100FB00003F037C004F038C005F039C006F03AC07D
:100FC00007F03BC008F00A0E096E000E0A6E000E14
:100FD0000B6E000E0C6E000E0D6E000E0E6E000EEF
:100FE0000F6E000E106E99EC0BF001C034F002C0D1
:100FF00035F003C036F004C037F005C038F006C045
:1010000039F007C03AF008C03BF03DBE10EF08F0E1
:101010003D5008E13C04D8A010EF08F012EF08F0B2
:101020002EEF08F0345035103610371038103910C4
:101030003A103B10D8A41FEF08F021EF08F089EF19
:1010400007F031BE2EEF08F0315006E13004D8B081
:101050002CEF08F02EEF08F089EF07F03E50D8B4DF
:1010600034EF08F036EF08F041EF08F03C06D8A066
:101070003D06BC0E3C24D96E010E3D20DA6E3EC00A
:10108000DFFF1CC011F01DC012F0BC0E3C24136E1B
:10109000010E3D20146E32C015F033C016F0D3ECB3
:1010A0000FF01200000E2D6E2D50120DF3CF23F015
:1010B000F4CF24F023501F24D96E24502020DA6E60
:1010C000DECF25F0DDCF26F02550195C136E2650BB
:1010D0001A58146E57EC11F013C02BF014C02CF0FA
:1010E0002BC001F02CC002F0000E046E640E036EE3
:1010F000E8EC11F001C007F002C008F02D50120D0D
:10110000F3CF23F0F4CF24F023501F24D96E2450C2
:101110002020DA6EDECF09F0DDCF0AF010EC10F0FF
:101120002D50120DF3CF25F0F4CF26F025502124B9
:10113000D96E26502220DA6E07C0DEFF08C0DDFF20
:10114000520E246E2B0E236E000EE82EFED7232E99
:10115000FCD7242EFAD700D02D50120DF3CF23F058
:10116000F4CF24F023501F24256E24502020266E17
:10117000020E2524D96E000E2620DA6EDECF27F06F
:10118000DDCF28F027501B5C136E28501C58146EBE
:1011900057EC11F013C02BF014C02CF02BC001F051
:1011A0002CC002F0000E046E640E036EE8EC11F029
:1011B00001C007F002C008F02D50120DF3CF23F04C
:1011C000F4CF24F023501F24256E24502020266EB7
:1011D000020E2524D96E000E2620DA6EDECF09F02D
:1011E000DDCF0AF010EC10F02D50120DF3CF27F0E8
:1011F000F4CF28F027502124296E285022202A6E6F
:10120000020E2924D96E000E2A20DA6E07C0DEFFF6
:1012100008C0DDFF520E246E2B0E236E000EE82E4A
:10122000FED7232EFCD7242EFAD700D02D50120D36
:10123000F3CF23F0F4CF24F023501F24256E245045
:101240002020266E040E2524D96E000E2620DA6E8C
:10125000DECF27F0DDCF28F027501D5C136E28501D
:101260001E58146E57EC11F013C02BF014C02CF064
:101270002BC001F02CC002F0000E046E640E036E51
:10128000E8EC11F001C007F002C008F02D50120D7B
:10129000F3CF23F0F4CF24F023501F24256E2450E5
:1012A0002020266E040E2524D96E000E2620DA6E2C
:1012B000DECF09F0DDCF0AF010EC10F02D50120D4A
:1012C000F3CF27F0F4CF28F027502124296E28509F
:1012D00022202A6E040E2924D96E000E2A20DA6EEE
:1012E00007C0DEFF08C0DDFF520E246E2B0E236EFA
:1012F000000EE82EFED7232EFCD7242EFAD700D0DE
:101300002D2A080E2D6487EF09F089EF09F054EFBC
:1013100008F01200FBEC11F0BFEC11F077EC11F0CB
:101320004FEC0FF00CEC12F0BCCF5AF0000E0101A4
:10133000966F010E976F010E986FAA0E9B6F0F0E9E
:101340009C6FA60E9D6F0F0E9E6F5AC099F19A6BFF
:10135000000E9F6F010EA06F010EA16F250EA46FEE
:101360000F0EA56F210EA66F0F0EA76F5AC0A2F128
:10137000A36B960E0E6E010E0F6E5DEC0CF09F0EC1
:101380000E6E010E0F6E5DEC0CF0000E5C6E000E2A
:101390005B6E000E5E6E000E5D6E000E0001F76F5C
:1013A000000EF66F7C9886840E01B495000E000145
:1013B000F56FDCEF09F07C888EB4E1EF09F0E3EF24
:1013C00009F0DBEF09F07C985B0E0E6E000E0F6EDD
:1013D0005D0E106E000E116EF60E126E000E136E84
:1013E000A6EC0AF00001F551120DAD0EF324D96EF2
:1013F000000EF420DA6E5BC0DEFF5CC0DDFFF5514D
:10140000120D020EF326000EF422AD0EF324D96E57
:10141000000EF420DA6E5DC0DEFF5EC0DDFFF55128
:10142000120D040EF326000EF422AD0EF324D96E35
:10143000000EF420DA6EF6C0DEFFF7C0DDFFF52BFC
:10144000080EF56526EF0AF028EF0AF0DCEF09F048
:101450002CEF0AF07C887E808EB431EF0AF033EFF7
:101460000AF02AEF0AF07E905B0E0E6E000E0F6EF1
:101470005D0E106E000E116EF60E126E000E136EE3
:10148000A6EC0AF0000E0001606F010E616F010E04
:10149000626F0E0E636F5BC064F05CC065F05DC090
:1014A00066F05EC067F0F6C068F0F7C069F04AEC1D
:1014B00010F0000E026E010E036E91EC11F0000EA2
:1014C000176E010E186E5BC019F05CC01AF05DC09B
:1014D0001BF05EC01CF0F6C01DF0F7C01EF0AD0E94
:1014E0001F6E000E206E770E216E000E226E52ECE3
:1014F00008F0000E0E6E010E0F6E770E106E000ECD
:10150000116EE30E126E000E136E74EC0EF0E30E0D
:10151000016E000E026E93EC0FF0596E000E00018A
:10152000606F010E616F1B0E626F0E0E636F59C00C
:1015300064F0656B4AEC10F0000E026E010E036E53
:1015400091EC11F02CEF0AF000EF00F0000E176E96
:10155000000E166E9CEC10F00EC0D9FF0FC0DAFF23
:1015600005C0DEFF06C0DDFFC4EC10F010C0D9FFDF
:1015700011C0DAFF05C0DEFF06C0DDFFECEC10F0A5
:1015800012C0D9FF13C0DAFF05C0DEFF06C0DDFFC1
:10159000164A172A17BED6EF0AF0F50E165C010E92
:1015A0001758D8A0D6EF0AF0D8EF0AF0AAEF0AF041
:1015B000000E196E000E186E9CEC10F00EC0D9FFD4
:1015C0000FC0DAFF0550DE260650DD22110E156E23
:1015D0003C0E146ECB0EE82EFED7142EFCD7152E23
:1015E000FAD700F0184A192A19BE00EF0BF019506B
:1015F00009E1030E185CD8A000EF0BF002EF0BF02E
:10160000DCEF0AF00EC0D9FF0FC0DAFFDECF07F023
:10161000DDCF08F0000E0A6E030E096E10EC10F01C
:101620000EC0D9FF0FC0DAFF07C0DEFF08C0DDFF24
:10163000000E1B6E000E1A6EC4EC10F010C0D9FF25
:1016400011C0DAFF0550DE260650DD22110E156EA0
:101650003C0E146ECB0EE82EFED7142EFCD7152EA2
:10166000FAD700F01A4A1B2A1BBE40EF0BF01B50A2
:1016700009E1030E1A5CD8A040EF0BF042EF0BF02B
:101680001CEF0BF010C0D9FF11C0DAFFDECF07F05E
:10169000DDCF08F0000E0A6E030E096E10EC10F09C
:1016A00010C0D9FF11C0DAFF07C0DEFF08C0DDFFA0
:1016B000000E1D6E000E1C6EECEC10F012C0D9FF77
:1016C00013C0DAFF0550DE260650DD22110E156E1E
:1016D0003C0E146ECB0EE82EFED7142EFCD7152E22
:1016E000FAD700F01C4A1D2A1DBE80EF0BF01D50DA
:1016F00009E1030E1C5CD8A080EF0BF082EF0BF029
:101700005CEF0BF012C0D9FF13C0DAFFDECF07F099
:10171000DDCF08F0000E0A6E030E096E10EC10F01B
:1017200012C0D9FF13C0DAFF07C0DEFF08C0DDFF1B
:101730001200000E126E10BEA2EF0BF0A0EF0BF025
:10174000B4EF0BF0101E0F1E0E1E0D1E0C1E0B1EF6
:101750000A1E096C000E0A220B220C220D220E22F8
:101760000F221022010E126E08BEBBEF0BF0B9EF74
:101770000BF0CDEF0BF0081E071E061E051E041E03
:10178000031E021E016C000E022203220422052207
:10179000062207220822010E121A20EE13F0070E6D
:1017A000DE6AE806FDE209500A100B100C100D105D
:1017B0000E100F101010D8B4E0EF0BF0E2EF0BF0AA
:1017C00034EF0CF0010E116EF0EF0BF0D8900936EB
:1017D0000A360B360C360D360E360F361036112AF9
:1017E00010AEF5EF0BF0F7EF0BF0E6EF0BF0D89043
:1017F00013361436153616361736183619361A3685
:101800000950015C0A5002580B5003580C50045800
:101810000D5005580E5006580F50075810500858D4
:10182000D8A015EF0CF017EF0CF028EF0CF00950D2
:10183000015E0A50025A0B50035A0C50045A0D50C4
:10184000055A0E50065A0F50075A1050085A138066
:10185000D89010320F320E320D320C320B320A3267
:101860000932112EF7EF0BF01250D8B43AEF0CF00A
:101870003CEF0CF04CEF0CF01A1E191E181E171E30
:10188000161E151E141E136C000E1422152216228D
:101890001722182219221A2213C001F014C002F0D4
:1018A00015C003F016C004F017C005F018C006F00C
:1018B00019C007F01AC008F0120020EE02F00E5016
:1018C000D9260F50DA22DF50D8B469EF0CF06BEF55
:1018D0000CF09FEF0CF00EC0D9FF0FC0DAFFDF5005
:1018E000106E1050016E026A20EE03F00E50D926E1
:1018F0000F50DA22DECF03F0DDCF04F0E8EC11F078
:1019000001C007F002C008F0000E0A6E640E096EF6
:1019100010EC10F020EE03F00E50D9260F50DA2212
:10192000DF50116E0750115C126E20EE03F00E5066
:10193000D9260F50DA22DF50136EC2EF0CF0000EE2
:10194000126E0EC0D9FF0FC0DAFFDF50106E1050BC
:10195000016E026A20EE03F00E50D9260F50DA22F3
:10196000DECF03F0DDCF04F0E8EC11F001C007F0AA
:1019700002C008F0000E0A6E640E096E10EC10F042
:101980000750136E20EE01F00E50D9260F50DA22C8
:10199000DF50D8B4CEEF0CF0D0EF0CF0F2EF0CF03B
:1019A00020EE05F00E50D9260F50DA22DECF10F0CF
:1019B000DDCF11F010C0D9FF11C0DAFF12C0DFFF78
:1019C00020EE07F00E50D9260F50DA22DECF10F0AD
:1019D000DDCF11F010C0D9FF11C0DAFF13C0DFFF57
:1019E00012EF0DF020EE05F00E50D9260F50DA223E
:1019F000DECF10F0DDCF11F010C0D9FF11C0DAFF3B
:101A000013C0DFFF20EE07F00E50D9260F50DA2268
:101A1000DECF10F0DDCF11F010C0D9FF11C0DAFF1A
:101A200012C0DFFF1200000E126E08BE1CEF0DF098
:101A30001AEF0DF02EEF0DF0081E071E061E051EF4
:101A4000041E031E021E016C000E02220322042249
:101A50000522062207220822010E126E10BE35EF63
:101A60000DF033EF0DF045EF0DF0101E0F1E0E1EA2
:101A70000D1E0C1E0B1E0A1E096C000E0A220B22E4
:101A80000C220D220E220F22102209500A100B10D8
:101A90000C100D100E100F101010D8B452EF0DF0E6
:101AA00054EF0DF09CEF0DF0010E116E62EF0DF092
:101AB000D89009360A360B360C360D360E360F36F0
:101AC0001036112A10AE67EF0DF069EF0DF058EFE8
:101AD0000DF00950015C0A5002580B5003580C508D
:101AE00004580D5005580E5006580F500758105006
:101AF0000858D8A07EEF0DF080EF0DF090EF0DF0BC
:101B00000950015E0A50025A0B50035A0C50045AF5
:101B10000D50055A0E50065A0F50075A1050085AC9
:101B2000D89010320F320E320D320C320B320A3294
:101B30000932112E69EF0DF01250D8B4A2EF0DF05A
:101B4000A4EF0DF0B4EF0DF0081E071E061E051ED3
:101B5000041E031E021E016C000E02220322042238
:101B6000052206220722082201C001F002C002F06D
:101B700003C003F004C004F005C005F006C006F081
:101B800007C007F008C008F0120041C0D9FF42C0EA
:101B9000DAFFDECFF6FFDDCFF7FF000EF86E0800AC
:101BA000F550250AD8A4D7EF0DF0D9EF0DF05DEF71
:101BB0000EF041C0D9FF42C0DAFFDE2A000EDD225E
:101BC000000E0001F96F000EF86FF8C0FCF0FA6922
:101BD000FB6941C0D9FF42C0DAFFDECF4FF0DDCF55
:101BE00050F04FC0F6FF50C0F7FF000EF86E08002F
:101BF000F550640AD8B4FFEF0DF001EF0EF011EFCD
:101C00000EF04FC0F6FF50C0F7FF000EF86E080050
:101C1000F550690AD8A40FEF0EF011EF0EF054EF53
:101C20000EF043C0D9FF44C0DAFFDFCF45F0020E0B
:101C3000DE26DFCF46F0000EDD2245C0D9FF46C0CC
:101C4000DAFFDECF47F0DDCF48F0000E48BEFF0ED2
:101C5000496E4A6E4B6E4C6E4D6E4E6E010E4F24A9
:101C6000456E000E5020466E41C0D9FF42C0DAFFDB
:101C700045C0DEFF46C0DDFF3FC01CF040C01DF088
:101C800047C01EF048C01FF049C020F04AC021F0F4
:101C90004BC022F04CC023F04DC024F04EC025F0C4
:101CA00013EC07F073EF0EF041C0D9FF42C0DAFF2A
:101CB000DE2A000EDD2273EF0EF041C0D9FF42C0D4
:101CC000DAFFDECFF6FFDDCFF7FF000EF86E08007B
:101CD000F550016E026A3FC003F040C004F0EAEC28
:101CE0000EF054EF0EF01200000E286E2850120D68
:101CF000F3CF14F0F4CF15F014501024166E1550D5
:101D00001120176E040E1624D96E000E1720DA6EFD
:101D1000DECF18F0DDCF19F02850120DF3CF1AF0F6
:101D2000F4CF1BF01A5010241C6E1B5011201D6E96
:101D3000020E1C24D96E000E1D20DA6EDECF1EF0BE
:101D4000DDCF1FF02850120DF3CF20F0F4CF21F09B
:101D500020501024D96E21501120DA6EDECF22F0EF
:101D6000DDCF23F01E502224246E1F502320256E29
:101D700018502424076E19502520086E000E0A6E94
:101D8000030E096E10EC10F02850020DF3CF26F070
:101D9000F4CF27F026501224D96E27501320DA6E84
:101DA00007C0DEFF08C0DDFF520E156E2B0E146E4D
:101DB000000EE82EFED7142EFCD7152EFAD700D031
:101DC000282A080E2864E7EF0EF0E9EF0EF076EF10
:101DD0000EF0120003500410D8B4F1EF0EF0F3EF40
:101DE0000EF0FCEF0EF003500410D8A4FAEF0EF042
:101DF000FCEF0EF001EF0FF001504DEC12F04EEF42
:101E00000FF020EE09F00350D9260450DA22DE50FC
:101E1000DE10D8B40EEF0FF010EF0FF02BEF0FF035
:101E200020EE09F00350D9260450DA2210EE03F018
:101E30000350E1260450E222DE50E65CE650800AC0
:101E4000096EDE50800A0958D8B029EF0FF02BEF49
:101E50000FF04EEF0FF020EE03F00350D9260450A0
:101E6000DA22DECF05F0DDCF06F003C0D9FF04C0D3
:101E7000DAFFDECF07F0DDCF08F005500724D96E7A
:101E800006500820DA6E01C0DFFF20EE03F0035099
:101E9000D9260450DA22DE2A000EDD2212008594B3
:101EA0008598839E879C050E0E01746F060E766FD3
:101EB000070E696F080E886FBD508F0B4009BD6E0D
:101EC000E00EBE16BF50F00B0109BF6E630EBC6E74
:101ED000BD8E000EAA6E000EA66E000E0F01256FBD
:101EE000000E216FFC0EAD16F30EAD16CF0EAD1623
:101EF0003F0EAD16AB88AB50F00B0C09AB6EAB8E42
:101F0000A788A750F00B0C09A76EA78E268926512B
:101F1000F00B0C09266F268F22892251F00B0C0939
:101F2000226F228F1200000E096E01C0D9FF02C07D
:101F3000DAFFDECF07F0DDCF08F0010E0A6E0A509F
:101F4000020DF3CF03F0F4CF04F003500124D96E57
:101F500004500220DA6E0750DE5C0850DE58D8B01C
:101F6000B4EF0FF0B6EF0FF0C8EF0FF00A50020D0C
:101F7000F3CF03F0F4CF04F003500124D96E0450E2
:101F80000220DA6EDECF07F0DDCF08F00AC009F0DC
:101F90000A2A080E0A64CFEF0FF0D1EF0FF09FEF7F
:101FA0000FF00950120016BED8EF0FF0DAEF0FF065
:101FB000E0EF0FF015C01AF016C01BF0E4EF0FF0C1
:101FC000000E1B6E000E1A6E000E196E000E186EBB
:101FD000F6EF0FF0000E026E200E016E11C003F03E
:101FE00012C004F0EAEC0EF0184A192A1A50185CD4
:101FF0001950800A176E1B50800A1758D8A003EF9B
:1020000010F005EF10F0EAEF0FF013C00AF014C063
:102010000BF011C00CF012C00DF014EC11F0120016
:10202000000E0C6E000E0B6E09500A10D8B41BEF98
:1020300010F01DEF10F045EF10F0010E0D6E25EFC2
:1020400010F0D89009360A360D2A0AAE2AEF10F0A1
:102050002CEF10F021EF10F0D8900B360C36095011
:10206000075C0A500858D8A038EF10F03AEF10F08B
:102070003FEF10F00950075E0A50085A0B80D890C5
:102080000A3209320D2E2CEF10F00BC007F00CC0F5
:1020900008F01200640E00016A6F000E6B6F60C0E2
:1020A0006CF061C06DF0000E706F000E6F6F000E6F
:1020B000766F000E756F6C0E516E000E526E62C020
:1020C00053F063C054F06A0E556E000E566E73ECFA
:1020D00010F000016F516025D96E70516121DA6EE8
:1020E000000EDF6E120053C057F054C058F087EF57
:1020F00010F051C03FF052C040F0570E416E000E3C
:10210000426E55C043F056C044F0C5EC0DF057C0C8
:10211000F6FF58C0F7FF000EF86E0800F5500009F2
:10212000D8A495EF10F097EF10F079EF10F0000EB3
:10213000526E000E516E120043EC12F0520E38EC4B
:1021400012F0B60E38EC12F048EC12F0530E38ECE8
:1021500012F0010E36EC11F0076E07500A6E0B6A92
:10216000000E36EC11F0076E0750096E086A0A502F
:1021700008100A6E0B5009100B6E3EEC12F00AC0EC
:1021800005F00BC006F0120043EC12F0520E38ECD2
:1021900012F0B80E38EC12F048EC12F0530E38EC96
:1021A00012F0010E36EC11F0076E07500A6E0B6A42
:1021B000000E36EC11F0076E0750096E086A0A50DF
:1021C00008100A6E0B5009100B6E3EEC12F00AC09C
:1021D00005F00BC006F0120043EC12F0520E38EC82
:1021E00012F0BA0E38EC12F048EC12F0530E38EC44
:1021F00012F0010E36EC11F0076E07500A6E0B6AF2
:10220000000E36EC11F0076E0750096E086A0A508E
:1022100008100A6E0B5009100B6E3EEC12F00AC04B
:1022200005F00BC006F01200000E106E000E0F6ECF
:1022300025EF11F00EC001F0026A0CC003F00DC0D2
:1022400004F0EAEC0EF00F4A102A0F500A24D96E5F
:1022500010500B20DA6EDF500E6E0E50D8A433EF04
:1022600011F035EF11F01AEF11F01200036ED4ECFB
:1022700011F00E01DA87D4EC11F0D5CE04F0D4ECD5
:1022800011F00350D8B447EF11F04BEF11F0026A90
:10229000022A4CEF11F0026A023A02460E01DA51AC
:1022A0000218DF0B0218DA6FDA890450120014BE2C
:1022B00064EF11F0145006E11304D8B062EF11F08E
:1022C00064EF11F072EF11F013C015F014C016F0A6
:1022D000151E161E154A162A15C013F016C014F046
:1022E00076EF11F013C013F014C014F01200BFEC1D
:1022F00011F0010E036E000E1CEC12F03F0E056E85
:10230000550EE82EFED7052EFCD700F0030E036E07
:10231000000E1CEC12F0D50E036E010E1CEC12F038
:1023200012009CEF11F002C0D9FF03C0DAFFDF50AA
:102330002CEC12F0024A032A02C0D9FF03C0DAFFD4
:10234000DF50D8A4A6EF11F0A8EF11F093EF11F031
:10235000120002EE00F03C0EEE6AE806FDE101EE2E
:10236000A8F0340EEE6AE806FDE100EEF8F0080E83
:10237000EE6AE806FDE15F6A00018AEF09F00E01EE
:10238000D951F00B0809D96FD98B9F0ED66F848A6B
:10239000848CA79BA79D1D0E1D6F1E0E1C6F1C0E0F
:1023A0006F6F1B0E706F12000E01D8B5DAEF11F0CF
:1023B000DCEF11F0D4EF11F0DACE01F01F0E0116B0
:1023C000D8A4E5EF11F0E7EF11F0D4EF11F012000F
:1023D00001500302F3CF05F0F4CF06F001500402E0
:1023E000F350062602500302F350062605C001F002
:1023F00006C002F012008892889084988496869095
:102400008792869E81987E8E7F8279887C98809242
:102410007E9080907C961200120E0E01626F110E5B
:10242000156F8382E997E895330EE56F000EE66F2E
:10243000E789E88BE78F1200046E43EC12F0520E2E
:1024400038EC12F00450800938EC12F0035038ECEC
:1024500012F03EEC12F01200016E0E0137A533EFC0
:1024600012F035EF12F02DEF12F001C0E4FE120071
:10247000026ED4EC11F002C0D5FE1200D4EC11F0C3
:102480000E01DA851200D4EC11F00E01DA8112008F
:0C249000D4EC11F00E01DA8312001200EF
:020000040020DA
:10000000FF0FFF0FFF0FFF0FFF0FFF0FFF0FFF0F80
:020000040030CA
:0C000000AAFFFFFF9FFFFFFFFFFFFFFFB5
:00000001FF
