:040000002EEF00F0EF
:100018005B80D8CF01F0E8CF02F0E0CF03F00E010B
:1000280033AB19EF00F01BEF00F026EF00F03C0EA9
:10003800D46EAF0ED36E000E0101F86F010EF76F8C
:100048000E01339B03C0E0FF02C0E8FF01C0D8FFE8
:080058005B90100027EF19F086
:100E0000000A204156473A20522025642C204720D2
:100E100025642C2042202564200A000A2045787091
:100E2000656374656420636C6561723A2025642093
:100E30000A005261772025642C2025642C2025642B
:100E40002C202564200A0054696D6572636F756EED
:100E500074202564200A0043415244202564200A5E
:100E600000002A6E53EF09F060C017F061C018F05F
:100E700062C019F063C01AF0D5EC15F0050E276EAC
:100E80000F0E266EF10EE82EFED7262EFCD7272E4B
:100E9000FAD700F060C017F061C018F062C019F016
:100EA00063C01AF027EC15F060C017F061C018F0AD
:100EB00062C019F063C01AF0A5EC16F060C017F01C
:100EC00061C018F062C019F063C01AF027EC15F089
:100ED00060C017F061C018F062C019F063C01AF06A
:100EE000A5EC16F084EF09F060C017F061C018F0AF
:100EF00062C019F063C01AF0D5EC15F0050E276E2C
:100F00000F0E266EF10EE82EFED7262EFCD7272ECA
:100F1000FAD700F060C017F061C018F062C019F095
:100F200063C01AF07EEC15F060C017F061C018F0D5
:100F300062C019F063C01AF0A5EC16F060C017F09B
:100F400061C018F062C019F063C01AF07EEC15F0B1
:100F500068EF07F060C017F061C018F062C019F0C8
:100F600063C01AF0D5EC15F0050E276E0F0E266E35
:100F7000F10EE82EFED7262EFCD7272EFAD700F04A
:100F800060C017F061C018F062C019F063C01AF0B9
:100F900027EC15F060C017F061C018F062C019F0BE
:100FA00063C01AF0A5EC16F060C017F061C018F02D
:100FB00062C019F063C01AF027EC15F060C017F09A
:100FC00061C018F062C019F063C01AF0A5EC16F009
:100FD0004AEF07F060C017F061C018F062C019F066
:100FE00063C01AF0D5EC15F0050E276E0F0E266EB5
:100FF000F10EE82EFED7262EFCD7272EFAD700F0CA
:1010000060C017F061C018F062C019F063C01AF038
:10101000D5EC15F0290E276E960E266E7F0EE82E63
:10102000FED7262EFCD7272EFAD700F0DEEF07F0EA
:1010300060C017F061C018F062C019F063C01AF008
:10104000D5EC15F0050E276E0F0E266EF10EE82E6C
:10105000FED7262EFCD7272EFAD700F060C017F057
:1010600061C018F062C019F063C01AF0D5EC15F039
:10107000290E276E960E266E7F0EE82EFED7262EA0
:10108000FCD7272EFAD700F060C017F061C018F027
:1010900062C019F063C01AF0A5EC16F08AEF07F0F1
:1010A00060C017F061C018F062C019F063C01AF098
:1010B000D5EC15F0050E276E0F0E266EF10EE82EFC
:1010C000FED7262EFCD7272EFAD700F0D4EF07F054
:1010D00060C017F061C018F062C019F063C01AF068
:1010E000D5EC15F0050E276E0F0E266EF10EE82ECC
:1010F000FED7262EFCD7272EFAD700F060C017F0B7
:1011000061C018F062C019F063C01AF07EEC15F0EF
:1011100044EF08F060C017F061C018F062C019F029
:1011200063C01AF0A5EC16F060C017F061C018F0AB
:1011300062C019F063C01AF07EEC15F060C017F0C1
:1011400061C018F062C019F063C01AF0A5EC16F087
:1011500060C017F061C018F062C019F063C01AF0E7
:101160007EEC15F060C017F061C018F062C019F095
:1011700063C01AF0A5EC16F060C017F061C018F05B
:1011800062C019F063C01AF07EEC15F060C017F071
:1011900061C018F062C019F063C01AF0A5EC16F037
:1011A00060C017F061C018F062C019F063C01AF097
:1011B0007EEC15F060C017F061C018F062C019F045
:1011C00063C01AF0A5EC16F0000E2C6E1D0E2B6EEF
:1011D000D8902B34D96E2C34DA6E640ED926000EDA
:1011E000DA22DE50DE10D8B4F8EF08F0FAEF08F09B
:1011F00047EF09F060C017F061C018F062C019F045
:1012000063C01AF01BEC16F0000E296E000E286E5B
:1012100018EF09F0090E276E1E0E266EE40EE82E5A
:10122000FED7262EFCD7272EFAD700D02B4A2C2A01
:10123000D8902B34D96E2C34DA6E640ED926000E79
:10124000DA222850DE5C2950DE58D8B02AEF09F0A7
:101250002CEF09F00AEF09F060C017F061C018F038
:1012600062C019F063C01AF0A5EC16F060C01FF060
:1012700061C020F062C021F063C022F0640E2B2414
:10128000D96E000E2C20DA6EDF50C2EC0BF02B066C
:10129000D8A02C062CBE51EF09F04FEF09F0E8EF73
:1012A00008F084EF09F02A50266E276A2750000ABA
:1012B000D8B45DEF09F084EF09F02650000AD8B4E5
:1012C00034EF07F0010AD8B474EF07F0030AD8B47A
:1012D000AAEF07F0010AD8B4EAEF07F0070AD8B47A
:1012E00018EF08F0010AD8B450EF08F0030AD8B498
:1012F00068EF08F0010AD8B48AEF08F00F0AD8B4F2
:1013000084EF09F084EF09F012008EEC19F03DEC47
:1013100019F0F5EC18F061EC16F09FEC19F052ECB6
:1013200019F086840E01B495BCCFEDF0000E0101DA
:10133000E16F010EE26F010EE36FAA0EE66F0F0E72
:10134000E76FA60EE86F0F0EE96FEDC0E4F1E56BF5
:10135000000EEA6F010EEB6F010EEC6F250EEF6FC2
:101360000F0EF06F210EF16F0F0EF26FEDC0EDF169
:10137000EE6BE10E116E010E126EA3EC11F0EA0E8F
:10138000116E010E126EA3EC11F0000E0001F86F49
:10139000000EF76F000EFA6F000EF96F000EFC6F73
:1013A000000EFB6F000EF46F000EF36F000EF66F71
:1013B000000EF56F000E0101DE6FE0EF09F07C8892
:1013C0008EB4E5EF09F0E7EF09F0DFEF09F07C9864
:1013D000F70E116E000E126EF90E136E000E146EE3
:1013E000FB0E156E000E166EECEC0FF00101DE51D7
:1013F000020D000EF324D96E020EF420DA6EF7C04F
:10140000DEFFF8C0DDFFDE51020D120EF326000EE6
:10141000F422000EF324D96E020EF420DA6EF9C025
:10142000DEFFFAC0DDFFDE51020D240EF326000EB2
:10143000F422000EF324D96E020EF420DA6EFBC003
:10144000DEFFFCC0DDFFDE2B080EDE652AEF0AF0B2
:101450002CEF0AF0E0EF09F0000E0001F06F000E33
:10146000EF6FF2EC17F008C0DFF109C0E0F1000106
:10147000EF4BF02BF0BF46EF0AF0F50EEF5D010EDB
:10148000F059D8A046EF0AF048EF0AF031EF0AF021
:10149000000EF26F000EF16FF2EC17F00850010130
:1014A000DF270950E023110E576E3C0E566ECB0E0F
:1014B000E82EFED7562EFCD7572EFAD700F00001A3
:1014C000F14BF22BF2BF6EEF0AF0F25109E1030E7D
:1014D000F15DD8A06EEF0AF070EF0AF04CEF0AF061
:1014E000DFC156F0E0C157F0D89057325632D8904D
:1014F0005732563256C0DFF157C0E0F1480E666FE2
:10150000010E676F1B0E686F0E0E696FDFC16AF008
:10151000E0C16BF0C9EC17F0480E056E010E066EC7
:101520000FEC19F0200E0101DF250001EB6F030E17
:101530000101E0210001EC6FE10E176E010E186E43
:10154000EA0E196E010E1A6E1BEC16F00101F7057A
:10155000F811D8A4AEEF0AF0B0EF0AF0D9EF0AF014
:101560000001F34BF42B0A0EF319F411D8A4BBEFCE
:101570000AF0BDEF0AF0D4EF0AF080A6C2EF0AF03D
:10158000C6EF0AF0566A562AC7EF0AF0566A564660
:101590005646564680505618F70B5618806E000E69
:1015A0000001F46F000EF36F000E0101F86F000EE2
:1015B000F76FF2EC17F008C0DFF109C0E0F10101AC
:1015C000DF510001EB5D0101E0510001EC59D8B0A1
:1015D000ECEF0AF0EEEF0AF067EF0BF0D890F5357C
:1015E000D96EF635DA6E360ED926020EDA22F40EF0
:1015F000DE6E010EDD6EE10E176E010E186EEA0E44
:10160000196E010E1A6EA5EC16F0480E0001666FF9
:10161000010E676F470E686F0E0E696FD890F53533
:10162000D96EF635DA6E360ED926020EDA22DECF04
:101630006AF0DDCF6BF0C9EC17F0480E056E010EB5
:10164000066E0FEC19F0480E0001A06F010EA16F9D
:10165000F70EA26F000EA36FF90EA46F000EA56F18
:10166000FB0EA66F000EA76F000EA86F020EA96FEB
:10167000EEC0AAF0E10EAB6F010EAC6FEA0EAD6FDB
:10168000010EAE6F22EE36F000EEAFF03B0EDBCF78
:10169000EBFFE806FCE2BAEC13F00001EE6F360E49
:1016A000F525D96E020EF621DA6EEEC0DFFFF54B9E
:1016B000F62B000EF46F000EF36FE10E176E010EA5
:1016C000186EEA0E196E010E1A6E1BEC16F01AEC6B
:1016D00018F008C0F7F009C0F8F06AEC18F008C07C
:1016E000FBF009C0FCF042EC18F008C0F9F009C0AA
:1016F000FAF0F2EC17F008C0DFF109C0E0F1480E93
:101700000001666F010E676F320E686F0E0E696F13
:10171000F7C06AF0F8C06BF0F9C06CF0FAC06DF079
:10172000FBC06EF0FCC06FF0DFC170F0E0C171F083
:10173000C9EC17F0480E056E010E066E0FEC19F09D
:10174000290E576E960E566E7F0EE82EFED7562E39
:10175000FCD7572EFAD700F080A6B1EF0BF0B5EF0B
:101760000BF0566A562AB6EF0BF0566A56465646A6
:10177000564680505618F70B5618806EA6EF0AF0A2
:101780002EEF00F0256E6FEF0DF01FC017F020C098
:1017900018F021C019F022C01AF07EEC15F01FC01D
:1017A00017F020C018F021C019F022C01AF0A5ECE3
:1017B00016F01FC017F020C018F021C019F022C089
:1017C0001AF07EEC15F01FC017F020C018F021C0F1
:1017D00019F022C01AF0A5EC16F098EF0DF01FC01A
:1017E00017F020C018F021C019F022C01AF027EC21
:1017F00015F01FC017F020C018F021C019F022C04A
:101800001AF0A5EC16F01FC017F020C018F021C088
:1018100019F022C01AF027EC15F01FC017F020C0F5
:1018200018F021C019F022C01AF0A5EC16F098EFBC
:101830000DF01FC017F020C018F021C019F022C011
:101840001AF027EC15F01FC017F020C018F021C0C7
:1018500019F022C01AF0A5EC16F01FC017F020C036
:1018600018F021C019F022C01AF027EC15F01FC0A3
:1018700017F020C018F021C019F022C01AF0A5EC12
:1018800016F01FC017F020C018F021C019F022C0B8
:101890001AF027EC15F01FC017F020C018F021C077
:1018A00019F022C01AF0A5EC16F01FC017F020C0E6
:1018B00018F021C019F022C01AF027EC15F01FC053
:1018C00017F020C018F021C019F022C01AF0A5ECC2
:1018D00016F098EF0DF01FC017F020C018F021C0CF
:1018E00019F022C01AF0A5EC16F01FC017F020C0A6
:1018F00018F021C019F022C01AF07EEC15F01FC0BC
:1019000017F020C018F021C019F022C01AF0A5EC81
:1019100016F01FC017F020C018F021C019F022C027
:101920001AF07EEC15F01FC017F020C018F021C08F
:1019300019F022C01AF0A5EC16F01FC017F020C055
:1019400018F021C019F022C01AF01BEC16F0290E75
:10195000246E960E236E7F0EE82EFED7232EFCD724
:10196000242EFAD700F098EF0DF01FC017F020C01A
:1019700018F021C019F022C01AF0A5EC16F01FC013
:1019800017F020C018F021C019F022C01AF027EC7F
:1019900015F01FC017F020C018F021C019F022C0A8
:1019A0001AF0A5EC16F01FC017F020C018F021C0E7
:1019B00019F022C01AF027EC15F01FC017F020C054
:1019C00018F021C019F022C01AF0A5EC16F01FC0C3
:1019D00017F020C018F021C019F022C01AF01BEC3B
:1019E00016F0A7EF0CF01FC017F020C018F021C0B0
:1019F00019F022C01AF07EEC15F01FC017F020C0BD
:101A000018F021C019F022C01AF0A5EC16F01FC082
:101A100017F020C018F021C019F022C01AF07EEC97
:101A200015F01FC017F020C018F021C019F022C017
:101A30001AF0A5EC16F01FC017F020C018F021C056
:101A400019F022C01AF07EEC15F01FC017F020C06C
:101A500018F021C019F022C01AF0A5EC16F098EF8A
:101A60000DF01FC017F020C018F021C019F022C0DF
:101A70001AF027EC15F01FC017F020C018F021C095
:101A800019F022C01AF0A5EC16F01FC017F020C004
:101A900018F021C019F022C01AF027EC15F01FC071
:101AA00017F020C018F021C019F022C01AF0A5ECE0
:101AB00016F01FC017F020C018F021C019F022C086
:101AC0001AF027EC15F01FC017F020C018F021C045
:101AD00019F022C01AF0A5EC16F098EF0DF0255081
:101AE000236E246A2450000AD8B479EF0DF098EFE1
:101AF0000DF02350000AD8B4C5EF0BF0010AD8B49A
:101B0000EFEF0BF0030AD8B419EF0CF0010AD8B4C8
:101B10006BEF0CF0070AD8B4B5EF0CF0010AD8B49B
:101B2000F3EF0CF0030AD8B431EF0DF098EF0DF09D
:101B3000120021C037F022C038F023C039F024C091
:101B40003AF025C03BF026C03CF027C03DF028C04D
:101B50003EF03EBEAEEF0DF0B1EF0DF0010EB2EF74
:101B60000DF0000E416E4150D8B4B9EF0DF0BBEF4F
:101B70000DF0CBEF0DF03E1E3D1E3C1E3B1E3A1EEF
:101B8000391E381E376C000E382239223A223B2289
:101B90003C223D223E220101F6BFD9EF0DF0F65165
:101BA00006E1F505D8B0D7EF0DF0D9EF0DF0DFEF76
:101BB0000DF0000E346E010E336EE3EF0DF0F5C143
:101BC00033F0F6C134F0F3C135F0F4C136F04150D2
:101BD000D8B4EDEF0DF0EFEF0DF006EF0EF0350697
:101BE000D8A036064150D8A4F8EF0DF0FAEF0DF06A
:101BF00000EF0EF0000E326E2B0E316E04EF0EF081
:101C0000000E326E2D0E316E31C041F0000E406E6E
:101C10001F0E3F6E000E0201E16F8BEF0EF03F06CC
:101C2000D8A04006C20E3F24D96E020E4020DA6EC4
:101C300037C004F038C005F039C006F03AC007F0EC
:101C40003BC008F03CC009F03DC00AF03EC00BF0BC
:101C50000A0E0C6E000E0D6E000E0E6E000E0F6E54
:101C6000000E106E000E116E000E126E000E136E3E
:101C700059EC12F004C029F005C02AF006C02BF080
:101C800007C02CF008C02DF009C02EF00AC02FF0BC
:101C90000BC030F029C016F02AC017F0D5EC18F0B0
:101CA0001650300FDF6E3306D8A034063506D8A0A4
:101CB000360637C004F038C005F039C006F03AC027
:101CC00007F03BC008F03CC009F03DC00AF03EC040
:101CD0000BF00A0E0C6E000E0D6E000E0E6E000E56
:101CE0000F6E000E106E000E116E000E126E000EC2
:101CF000136EDFEC10F004C037F005C038F006C0FA
:101D000039F007C03AF008C03BF009C03CF00AC007
:101D10003DF00BC03EF040BE96EF0EF0405008E1A3
:101D20003F04D8A096EF0EF098EF0EF0B4EF0EF04F
:101D30003750381039103A103B103C103D103E100F
:101D4000D8A4A5EF0EF0A7EF0EF00FEF0EF034BE03
:101D5000B4EF0EF0345006E13304D8B0B2EF0EF019
:101D6000B4EF0EF00FEF0EF04150D8B4BAEF0EF012
:101D7000BCEF0EF0C7EF0EF03F06D8A04006C20E33
:101D80003F24D96E020E4020DA6E41C0DFFF1FC033
:101D900014F020C015F0C20E3F24166E020E402033
:101DA000176E35C018F036C019F028EC17F0120085
:101DB000000E306E3050020DF3CF26F0F4CF27F036
:101DC00026502224D96E27502320DA6EDECF28F049
:101DD000DDCF29F028501C5C166E29501D58176E57
:101DE000D5EC18F016C02EF017C02FF02EC004F05E
:101DF0002FC005F0000E076E640E066E7BEC19F026
:101E000004C00AF005C00BF03050020DF3CF26F0ED
:101E1000F4CF27F026502224D96E27502320DA6EE3
:101E2000DECF0CF0DDCF0DF065EC17F03050020D79
:101E3000F3CF28F0F4CF29F028502424D96E29506C
:101E40002520DA6E0AC0DEFF0BC0DDFF3050020D28
:101E5000F3CF26F0F4CF27F026502224286E275007
:101E60002320296E120E2824D96E000E2920DA6E46
:101E7000DECF2AF0DDCF2BF02A501E5C166E2B50E1
:101E80001F58176ED5EC18F016C02EF017C02FF0A3
:101E90002EC004F02FC005F0000E076E640E066E13
:101EA0007BEC19F004C00AF005C00BF03050020DB5
:101EB000F3CF26F0F4CF27F026502224286E2750A7
:101EC0002320296E120E2824D96E000E2920DA6EE6
:101ED000DECF0CF0DDCF0DF065EC17F03050020DC9
:101EE000F3CF2AF0F4CF2BF02A5024242C6E2B5061
:101EF00025202D6E120E2C24D96E000E2D20DA6EA8
:101F00000AC0DEFF0BC0DDFF3050020DF3CF26F01C
:101F1000F4CF27F026502224286E27502320296E44
:101F2000240E2824D96E000E2920DA6EDECF2AF086
:101F3000DDCF2BF02A50205C166E2B502158176EE7
:101F4000D5EC18F016C02EF017C02FF02EC004F0FC
:101F50002FC005F0000E076E640E066E7BEC19F0C4
:101F600004C00AF005C00BF03050020DF3CF26F08C
:101F7000F4CF27F026502224286E27502320296EE4
:101F8000240E2824D96E000E2920DA6EDECF0CF044
:101F9000DDCF0DF065EC17F03050020DF3CF2AF0D5
:101FA000F4CF2BF02A5024242C6E2B5025202D6E9C
:101FB000240E2C24D96E000E2D20DA6E0AC0DEFF0E
:101FC0000BC0DDFF302A080E3064E9EF0FF0EBEFB5
:101FD0000FF0DAEF0EF01200000E1A6E000E196EFE
:101FE0001AEC18F011C0D9FF12C0DAFF08C0DEFFEA
:101FF00009C0DDFF42EC18F013C0D9FF14C0DAFFAE
:1020000008C0DEFF09C0DDFF6AEC18F015C0D9FF7B
:1020100016C0DAFF08C0DEFF09C0DDFF194A1A2A20
:102020001ABE1CEF10F0F50E195C010E1A58D8A05C
:102030001CEF10F01EEF10F0F0EF0FF0000E1C6E12
:10204000000E1B6E1AEC18F011C0D9FF12C0DAFF97
:102050000850DE260950DD22110E186E3C0E176E58
:10206000CB0EE82EFED7172EFCD7182EFAD700F08D
:102070001B4A1C2A1CBE46EF10F01C5009E1030E3F
:102080001B5CD8A046EF10F048EF10F022EF10F0E4
:1020900011C0D9FF12C0DAFFDECF0AF0DDCF0BF09E
:1020A000000E0D6E030E0C6E65EC17F011C0D9FF1B
:1020B00012C0DAFF0AC0DEFF0BC0DDFF000E1E6E8D
:1020C000000E1D6E42EC18F013C0D9FF14C0DAFFE9
:1020D0000850DE260950DD22110E186E3C0E176ED8
:1020E000CB0EE82EFED7172EFCD7182EFAD700F00D
:1020F0001D4A1E2A1EBE86EF10F01E5009E1030E77
:102100001D5CD8A086EF10F088EF10F062EF10F0A1
:1021100013C0D9FF14C0DAFFDECF0AF0DDCF0BF019
:10212000000E0D6E030E0C6E65EC17F013C0D9FF98
:1021300014C0DAFF0AC0DEFF0BC0DDFF000E206E08
:10214000000E1F6E6AEC18F015C0D9FF16C0DAFF3A
:102150000850DE260950DD22110E186E3C0E176E57
:10216000CB0EE82EFED7172EFCD7182EFAD700F08C
:102170001F4A202A20BEC6EF10F0205009E1030EAE
:102180001F5CD8A0C6EF10F0C8EF10F0A2EF10F05F
:1021900015C0D9FF16C0DAFFDECF0AF0DDCF0BF095
:1021A000000E0D6E030E0C6E65EC17F015C0D9FF16
:1021B00016C0DAFF0AC0DEFF0BC0DDFF1200000E02
:1021C000156E13BEE8EF10F0E6EF10F0FAEF10F026
:1021D000131E121E111E101E0F1E0E1E0D1E0C6C45
:1021E000000E0D220E220F22102211221222132283
:1021F000010E156E0BBE01EF11F0FFEF10F013EFA3
:1022000011F00B1E0A1E091E081E071E061E051EC3
:10221000046C000E052206220722082209220A2247
:102220000B22010E151A20EE16F0070EDE6AE806E4
:10223000FDE20C500D100E100F10101011101210A6
:102240001310D8B426EF11F028EF11F07AEF11F047
:10225000010E146E36EF11F0D8900C360D360E3696
:102260000F361036113612361336142A13AE3BEFE2
:1022700011F03DEF11F02CEF11F0D8901636173613
:10228000183619361A361B361C361D360C50045CAF
:102290000D5005580E5006580F500758105008584A
:1022A0001150095812500A5813500B58D8A05BEF20
:1022B00011F05DEF11F06EEF11F00C50045E0D5057
:1022C000055A0E50065A0F50075A1050085A11500E
:1022D000095A12500A5A13500B5A1680D8901332CA
:1022E0001232113210320F320E320D320C32142EE5
:1022F0003DEF11F01550D8B480EF11F082EF11F0DE
:1023000092EF11F01D1E1C1E1B1E1A1E191E181EF8
:10231000171E166C000E1722182219221A221B22D1
:102320001C221D2216C004F017C005F018C006F0CC
:1023300019C007F01AC008F01BC009F01CC00AF051
:102340001DC00BF0120020EE02F01150D9261250E1
:10235000DA22DF50D8B4AFEF11F0B1EF11F0E5EFB2
:1023600011F011C0D9FF12C0DAFFDF50136E135005
:10237000046E056A20EE03F01150D9261250DA22BD
:10238000DECF06F0DDCF07F07BEC19F004C00AF0D9
:1023900005C00BF0000E0D6E640E0C6E65EC17F0B0
:1023A00020EE03F01150D9261250DA22DF50146EBD
:1023B0000A50145C156E20EE03F01150D92612500D
:1023C000DA22DF50166E08EF12F0000E156E11C003
:1023D000D9FF12C0DAFFDF50136E1350046E056A86
:1023E00020EE03F01150D9261250DA22DECF06F08B
:1023F000DDCF07F07BEC19F004C00AF005C00BF04C
:10240000000E0D6E640E0C6E65EC17F00A50166E21
:1024100020EE01F01150D9261250DA22DF50D8B444
:1024200014EF12F016EF12F038EF12F020EE05F074
:102430001150D9261250DA22DECF13F0DDCF14F07E
:1024400013C0D9FF14C0DAFF15C0DFFF20EE07F07C
:102450001150D9261250DA22DECF13F0DDCF14F05E
:1024600013C0D9FF14C0DAFF16C0DFFF58EF12F017
:1024700020EE05F01150D9261250DA22DECF13F0EB
:10248000DDCF14F013C0D9FF14C0DAFF16C0DFFF90
:1024900020EE07F01150D9261250DA22DECF13F0C9
:1024A000DDCF14F013C0D9FF14C0DAFF15C0DFFF71
:1024B0001200000E156E0BBE62EF12F060EF12F00C
:1024C00074EF12F00B1E0A1E091E081E071E061EC0
:1024D000051E046C000E052206220722082209228E
:1024E0000A220B22010E156E13BE7BEF12F079EF5C
:1024F00012F08BEF12F0131E121E111E101E0F1E73
:102500000E1E0D1E0C6C000E0D220E220F2210222C
:102510001122122213220C500D100E100F10101049
:10252000111012101310D8B498EF12F09AEF12F0A5
:10253000E2EF12F0010E146EA8EF12F0D8900C36F4
:102540000D360E360F361036113612361336142A63
:1025500013AEADEF12F0AFEF12F09EEF12F00C5091
:10256000045C0D5005580E5006580F500758105077
:1025700008581150095812500A5813500B58D8A037
:10258000C4EF12F0C6EF12F0D6EF12F00C50045E5A
:102590000D50055A0E50065A0F50075A1050085A3F
:1025A0001150095A12500A5A13500B5AD89013322C
:1025B0001232113210320F320E320D320C32142E12
:1025C000AFEF12F01550D8B4E8EF12F0EAEF12F0C6
:1025D000FAEF12F00B1E0A1E091E081E071E061E29
:1025E000051E046C000E052206220722082209227D
:1025F0000A220B2204C004F005C005F006C006F054
:1026000007C007F008C008F009C009F00AC00AF0C6
:102610000BC00BF0120044C0D9FF45C0DAFFDECF7B
:10262000F6FFDDCFF7FF000EF86E0800F550250A23
:10263000D8A41DEF13F01FEF13F0A3EF13F044C065
:10264000D9FF45C0DAFFDE2A000EDD22000E0101AF
:10265000F46F000EF36FF3C1F9F1F569F66944C048
:10266000D9FF45C0DAFFDECF52F0DDCF53F052C0C4
:10267000F6FF53C0F7FF000EF86E0800F550640A2D
:10268000D8B445EF13F047EF13F057EF13F052C0F3
:10269000F6FF53C0F7FF000EF86E0800F550690A08
:1026A000D8A455EF13F057EF13F09AEF13F046C08C
:1026B000D9FF47C0DAFFDFCF48F0020EDE26DFCFBA
:1026C00049F0000EDD2248C0D9FF49C0DAFFDECF55
:1026D0004AF0DDCF4BF0000E4BBEFF0E4C6E4D6E40
:1026E0004E6E4F6E506E516E010E5224486E000EAB
:1026F0005320496E44C0D9FF45C0DAFF48C0DEFF11
:1027000049C0DDFF42C01FF043C020F04AC021F0A5
:102710004BC022F04CC023F04DC024F04EC025F039
:102720004FC026F050C027F051C028F099EC0DF0B2
:10273000B9EF13F044C0D9FF45C0DAFFDE2A000E1E
:10274000DD22B9EF13F044C0D9FF45C0DAFFDECF78
:10275000F6FFDDCFF7FF000EF86E0800F550046EAF
:10276000056A42C006F043C007F0C2EC14F09AEFCD
:1027700013F01200A2C011F0A3C012F0A4C013F015
:10278000A5C014F0A6C015F0A7C016F0ECEC0FF031
:10279000A0C066F0A1C067F0010E0001686F0E0EC8
:1027A000696FA2C0D9FFA3C0DAFFDECF6AF0DDCF28
:1027B0006BF0A4C0D9FFA5C0DAFFDECF6CF0DDCF8F
:1027C0006DF0A6C0D9FFA7C0DAFFDECF6EF0DDCF77
:1027D0006FF0C9EC17F0A0C005F0A1C006F00FEC37
:1027E00019F0A0C01AF0A1C01BF0A2C0D9FFA3C06D
:1027F000DAFFDECF1CF0DDCF1DF0A4C0D9FFA5C0ED
:10280000DAFFDECF1EF0DDCF1FF0A6C0D9FFA7C0D4
:10281000DAFFDECF20F0DDCF21F0A8C022F0A9C082
:1028200023F0000E246E010E256ED8EC0EF0A0C031
:1028300011F0A1C012F0000E136E010E146E360ED0
:10284000156E010E166E58EC14F0360E046E010E65
:10285000056EE8EC16F00001AA6FA0C066F0A1C0FA
:1028600067F0570E686F0E0E696FAAC06AF06B6B47
:10287000C9EC17F0A0C005F0A1C006F00FEC19F0EC
:10288000ABC060F0ACC061F0ADC062F0AEC063F050
:1028900020EEAFF000EE64F03B0EDBCFEBFFE8067E
:1028A000FCE20001AA5131EC07F00001AA5112002C
:1028B000000E2B6E2B50020DF3CF17F0F4CF18F053
:1028C00017501324196E185014201A6E240E192450
:1028D000D96E000E1A20DA6EDECF1BF0DDCF1CF0B1
:1028E0002B50020DF3CF1DF0F4CF1EF01D5013241A
:1028F0001F6E1E501420206E120E1F24D96E000E63
:102900002020DA6EDECF21F0DDCF22F02B50020D39
:10291000F3CF23F0F4CF24F023501324D96E2450A6
:102920001420DA6EDECF25F0DDCF26F021502524ED
:10293000276E22502620286E1B5027240A6E1C501A
:1029400028200B6E000E0D6E030E0C6E65EC17F05A
:102950002B50020DF3CF29F0F4CF2AF02950152483
:10296000D96E2A501620DA6E0AC0DEFF0BC0DDFFDA
:102970002B2A080E2B64BFEF14F0C1EF14F05AEFAE
:1029800014F0120006500710D8B4C9EF14F0CBEFC2
:1029900014F0D4EF14F006500710D8A4D2EF14F0BE
:1029A000D4EF14F0D9EF14F00450E0EC19F026EF56
:1029B00015F020EE09F00650D9260750DA22DE5035
:1029C000DE10D8B4E6EF14F0E8EF14F003EF15F0E2
:1029D00020EE09F00650D9260750DA2210EE03F057
:1029E0000650E1260750E222DE50E65CE650800AFF
:1029F0000C6EDE50800A0C58D8B001EF15F003EFD2
:102A000015F026EF15F020EE03F00650D9260750FA
:102A1000DA22DECF08F0DDCF09F006C0D9FF07C00B
:102A2000DAFFDECF0AF0DDCF0BF008500A24D96EB2
:102A300009500B20DA6E04C0DFFF20EE03F00650D1
:102A4000D9260750DA22DE2A000EDD22120020EEFF
:102A500001F01750D9261850DA22010EDF6E20EE51
:102A600001F01950D9261A50DA22000EDF6E000E3E
:102A70001E6E000E1D6E19C0D9FF1AC0DAFF1DC0F0
:102A8000DFFF17C0D9FF18C0DAFF1DC0DFFF020E3D
:102A90001C6E380E1B6EAD0EE82EFED71B2EFCD71B
:102AA0001C2EFAD700F017C011F018C012F0A3ECDA
:102AB00011F019C011F01AC012F0A3EC11F00A0EB7
:102AC0001D26000E1E221EBE6FEF15F01E5009E1DE
:102AD000500E1D5CD8A06FEF15F071EF15F03BEFB5
:102AE00015F0060E1C6E470E1B6EA00EE82EFED7CC
:102AF0001B2EFCD71C2EFAD700D0120020EE01F0BE
:102B00001750D9261850DA22000EDF6E20EE01F0A1
:102B10001950D9261A50DA22010EDF6E000E1E6EF1
:102B2000000E1D6E19C0D9FF1AC0DAFF1DC0DFFFED
:102B300017C0D9FF18C0DAFF1DC0DFFF020E1C6EE0
:102B4000380E1B6EAD0EE82EFED71B2EFCD71C2EAA
:102B5000FAD700F017C011F018C012F0A3EC11F072
:102B600019C011F01AC012F0A3EC11F00A0E1D26C4
:102B7000000E1E221EBEC6EF15F01E5009E1500EBB
:102B80001D5CD8A0C6EF15F0C8EF15F092EF15F058
:102B9000060E1C6E470E1B6EA00EE82EFED71B2ED7
:102BA000FCD71C2EFAD700D0120020EE01F01750EF
:102BB000D9261850DA22000EDF6E20EE01F01950EF
:102BC000D9261A50DA22000EDF6E000E1D6E000E9E
:102BD0001C6E17C0D9FF18C0DAFF1CC0DFFF19C078
:102BE000D9FF1AC0DAFF1CC0DFFF17C011F018C0F0
:102BF00012F0A3EC11F019C011F01AC012F0A3ECFE
:102C000011F0D00E1B6ECA0EE82EFED71B2EFCD77D
:102C10000A0E1C26000E1D221DBE18EF16F01D50B8
:102C200009E13C0E1C5CD8A018EF16F01AEF16F064
:102C3000E9EF15F0120020EE01F01750D9261850D8
:102C4000DA22010EDF6E20EE01F01950D9261A505B
:102C5000DA22010EDF6E000E1D6E000E1C6E17C014
:102C6000D9FF18C0DAFF1CC0DFFF19C0D9FF1AC096
:102C7000DAFF1CC0DFFF17C011F018C012F0A3EC80
:102C800011F019C011F01AC012F0A3EC11F0D00E1F
:102C90001B6ECA0EE82EFED71B2EFCD70A0E1C2672
:102CA000000E1D221DBE5EEF16F01D5009E13C0E08
:102CB0001C5CD8A05EEF16F060EF16F02FEF16F058
:102CC000120085948598839E879C050E0E01746F73
:102CD000060E766F070E696F080E886FBD508F0B5A
:102CE0004009BD6EE00EBE16BF50F00B0109BF6E6D
:102CF000630EBC6EBD8E000EAA6E000EA66E000E98
:102D00000F01256F000E216FFC0EAD16F30EAD16F0
:102D1000CF0EAD163F0EAD16AB88AB50F00B0C09C5
:102D2000AB6EAB8EA788A750F00B0C09A76EA78ED1
:102D300026892651F00B0C09266F268F22892251F5
:102D4000F00B0C09226F228F1200BAEF16F017C099
:102D5000D9FF18C0DAFF0A0EDF5E2A0E1B6E8E0E38
:102D6000E82EFED71B2EFCD717C011F018C012F0AA
:102D7000A3EC11F017C0D9FF18C0DAFFDF50D8A4B8
:102D8000C4EF16F0C6EF16F0A7EF16F0DBEF16F063
:102D900019C0D9FF1AC0DAFF0A0EDF5E2A0E1B6EB9
:102DA0008E0EE82EFED71B2EFCD719C011F01AC0CC
:102DB00012F0A3EC11F019C0D9FF1AC0DAFFDF50EE
:102DC000D8A4E5EF16F0E7EF16F0C8EF16F0120002
:102DD000000E0C6E04C0D9FF05C0DAFFDECF0AF08A
:102DE000DDCF0BF0010E0D6E0D50020DF3CF06F08E
:102DF000F4CF07F006500424D96E07500520DA6E90
:102E00000A50DE5C0B50DE58D8B009EF17F00BEF1C
:102E100017F01DEF17F00D50020DF3CF06F0F4CFB1
:102E200007F006500424D96E07500520DA6EDECF75
:102E30000AF0DDCF0BF00DC00CF00D2A080E0D646A
:102E400024EF17F026EF17F0F4EF16F00C501200F5
:102E500019BE2DEF17F02FEF17F035EF17F018C050
:102E60001DF019C01EF039EF17F0000E1E6E000E97
:102E70001D6E000E1C6E000E1B6E4BEF17F0000E49
:102E8000056E200E046E14C006F015C007F0C2ECEB
:102E900014F01B4A1C2A1D501B5C1C50800A1A6E21
:102EA0001E50800A1A58D8A058EF17F05AEF17F0A2
:102EB0003FEF17F016C00DF017C00EF014C00FF062
:102EC00015C010F092EC18F01200000E0F6E000EFC
:102ED0000E6E0C500D10D8B470EF17F072EF17F0A3
:102EE0009AEF17F0010E106E7AEF17F0D8900C36AB
:102EF0000D36102A0DAE7FEF17F081EF17F076EF49
:102F000017F0D8900E360F360C500A5C0D500B5847
:102F1000D8A08DEF17F08FEF17F094EF17F00C504B
:102F20000A5E0D500B5A0E80D8900D320C32102EC6
:102F300081EF17F00EC00AF00FC00BF0120062C054
:102F400054F063C055F0B3EF17F060C042F061C0B9
:102F500043F0540E446E000E456E64C046F065C0EA
:102F600047F00BEC13F054C0F6FF55C0F7FF000E0E
:102F7000F86E0800F5500009D8A4C1EF17F0C3EFB0
:102F800017F0A5EF17F0000E0001616F000E606FE3
:102F900012006A0E0001726F000E736F66C074F04B
:102FA00067C075F0000E786F000E776F000E7E6FB1
:102FB000000E7D6F740E606F000E616F68C062F06E
:102FC00069C063F0720E646F000E656F9FEC17F0BE
:102FD000000177516625D96E78516721DA6E000EAF
:102FE000DF6E1200D6EC19F0520ECBEC19F0B40ED5
:102FF000CBEC19F0DBEC19F0530ECBEC19F0010E11
:10300000B4EC18F00A6E0A500D6E0E6A000EB4ECA5
:1030100018F00A6E0A500C6E0B6A0D500B100D6EF4
:103020000E500C100E6ED1EC19F00DC008F00EC051
:1030300009F01200D6EC19F0520ECBEC19F0B60ED6
:10304000CBEC19F0DBEC19F0530ECBEC19F0010EC0
:10305000B4EC18F00A6E0A500D6E0E6A000EB4EC55
:1030600018F00A6E0A500C6E0B6A0D500B100D6EA4
:103070000E500C100E6ED1EC19F00DC008F00EC001
:1030800009F01200D6EC19F0520ECBEC19F0B80E84
:10309000CBEC19F0DBEC19F0530ECBEC19F0010E70
:1030A000B4EC18F00A6E0A500D6E0E6A000EB4EC05
:1030B00018F00A6E0A500C6E0B6A0D500B100D6E54
:1030C0000E500C100E6ED1EC19F00DC008F00EC0B1
:1030D00009F01200D6EC19F0520ECBEC19F0BA0E32
:1030E000CBEC19F0DBEC19F0530ECBEC19F0010E20
:1030F000B4EC18F00A6E0A500D6E0E6A000EB4ECB5
:1031000018F00A6E0A500C6E0B6A0D500B100D6E03
:103110000E500C100E6ED1EC19F00DC008F00EC060
:1031200009F01200000E136E000E126EA3EF18F0DD
:1031300011C004F0056A0FC006F010C007F0C2EC21
:1031400014F0124A132A12500D24D96E13500E2077
:10315000DA6EDF50116E1150D8A4B1EF18F0B3EF52
:1031600018F098EF18F01200066E67EC19F00E01D7
:10317000DA8767EC19F0D5CE07F067EC19F0065046
:10318000D8B4C5EF18F0C9EF18F0056A052ACAEFE0
:1031900018F0056A053A05460E01DA510518DF0BED
:1031A0000518DA6FDA890750120017BEE2EF18F03F
:1031B000175006E11604D8B0E0EF18F0E2EF18F06F
:1031C000F0EF18F016C018F017C019F0181E191EED
:1031D000184A192A18C016F019C017F0F4EF18F0A1
:1031E00016C016F017C017F012003DEC19F0010ED2
:1031F000066E000EAFEC19F03F0E086E550EE82E6D
:10320000FED7082EFCD700F0030E066E000EAFECC2
:1032100019F0D50E066E010EAFEC19F012001AEF80
:1032200019F005C0D9FF06C0DAFFDF50BFEC19F076
:10323000054A062A05C0D9FF06C0DAFFDF50D8A428
:1032400024EF19F026EF19F011EF19F0120002EE39
:1032500072F0700EEE6AE806FDE101EEF3F0070E83
:10326000EE6AE806FDE10001FD6B5A6A596A586A88
:103270005B905B92000185EF09F00E01D951F00BD4
:103280000809D96FD98B9F0ED66F848A848CA79B2F
:10329000A79D1D0E1D6F1E0E1C6F1C0E6F6F1B0E4B
:1032A000706F12000E01298BD6501F0B4009D66E8D
:1032B000D688D650F00B0509D66ED5881F9B3C0EDC
:1032C000D46EAF0ED36ED58EF28CF28E12000E013C
:1032D000D8B56DEF19F06FEF19F067EF19F0DACE8E
:1032E00004F01F0E0416D8A478EF19F07AEF19F045
:1032F00067EF19F0120004500602F3CF08F0F4CF84
:1033000009F004500702F350092605500602F35055
:10331000092608C004F009C005F0120088928890C0
:103320008498849686908792869E81987E8E7F82EE
:1033300079887C9880927E9080907C961200120E04
:103340000E01626F110E156F8382E997E895330EB7
:10335000E56F000EE66FE789E88BE78F1200076ED6
:10336000D6EC19F0520ECBEC19F007508009CBECDB
:1033700019F00650CBEC19F0D1EC19F01200046EE4
:103380000E0137A5C6EF19F0C8EF19F0C0EF19F01C
:1033900004C0E4FE1200056E67EC19F005C0D5FE0E
:1033A000120067EC19F00E01DA85120067EC19F0D3
:1033B0000E01DA81120067EC19F00E01DA831200B7
:0233C0001200F9
:020000040020DA
:10000000FF0FFF0FFF0FFF0FFF0FFF0FFF0FFF0F80
:020000040030CA
:0C000000AAFFFFFF9FFFFFFFFFFFFFFFB5
:00000001FF
