:040000003BEF00F0E2
:100008005B820E0133A30BEF00F00DEF00F039EF28
:1000180000F00001F451F511D8A415EF00F017EF26
:1000280000F039EF00F0000EF36F010EF26F7C8ED6
:10003800050E046E0F0E036EF10EE82EFED7032E8A
:10004800FCD7042EFAD700F07C9E050E046E0F0E26
:10005800036EF10EE82EFED7032EFCD7042EFAD736
:1000680000F0F3EC18F00E0133935B92110046EFA9
:0200780018F07E
:100E0000000A2045585045435445443A20436C65F8
:100E100061722025642C522025642C2047202564F3
:100E20002C20422025642020434152443A2025644E
:100E3000200A000A204156473A20436C656172201F
:100E400025642C20522025642C20472025642C204A
:100E500042202564200A000A204578706563746585
:100E60006420636C6561723A202564200A00434166
:090E70005244202564200A000010
:100E7A00266E07EF09F020C018F021C019F022C031
:100E8A001AF023C01BF0E5EC14F00D0E256E2D0EA2
:100E9A00246ED80EE82EFED7242EFCD7252EFAD79C
:100EAA0020C018F021C019F022C01AF023C01BF08C
:100EBA00F3EC13F020C018F021C019F022C01AF088
:100ECA0023C01BF06FEC15F020C018F021C019F0F8
:100EDA0022C01AF023C01BF0F3EC13F020C018F064
:100EEA0021C019F022C01AF023C01BF06FEC15F0D4
:100EFA0038EF09F020C018F021C019F022C01AF00A
:100F0A0023C01BF0E5EC14F00D0E256E2D0E246E99
:100F1A00D80EE82EFED7242EFCD7252EFAD720C0CD
:100F2A0018F021C019F022C01AF023C01BF049ECB6
:100F3A0014F020C018F021C019F022C01AF023C002
:100F4A001BF06FEC15F020C018F021C019F022C078
:100F5A001AF023C01BF049EC14F073EF07F020C01D
:100F6A0018F021C019F022C01AF023C01BF0E5ECDA
:100F7A0014F00D0E256E2D0E246ED80EE82EFED717
:100F8A00242EFCD7252EFAD720C018F021C019F03C
:100F9A0022C01AF023C01BF0F3EC13F020C018F0A3
:100FAA0021C019F022C01AF023C01BF06FEC15F013
:100FBA0020C018F021C019F022C01AF023C01BF07B
:100FCA00F3EC13F020C018F021C019F022C01AF077
:100FDA0023C01BF06FEC15F055EF07F020C018F096
:100FEA0021C019F022C01AF023C01BF0E5EC14F05E
:100FFA000D0E256E2D0E246ED80EE82EFED7242E49
:10100A00FCD7252EFAD720C018F021C019F022C02B
:10101A001AF023C01BF06FEC15F0110E256E3C0E72
:10102A00246ECB0EE82EFED7242EFCD7252EFAD717
:10103A0000F020C018F021C019F022C01AF023C015
:10104A001BF0E5EC14F0290E256E960E246E7F0E29
:10105A00E82EFED7242EFCD7252EFAD700F020C082
:10106A0018F021C019F022C01AF023C01BF06FEC4F
:10107A0015F020C018F021C019F022C01AF023C0C0
:10108A001BF0F3EC13F020C018F021C019F022C0B5
:10109A001AF023C01BF06FEC15F020C018F021C025
:1010AA0019F022C01AF023C01BF0F3EC13F020C091
:1010BA0018F021C019F022C01AF023C01BF06FECFF
:1010CA0015F038EF09F020C018F021C019F022C03D
:1010DA001AF023C01BF0E5EC14F00D0E256E2D0E50
:1010EA00246ED80EE82EFED7242EFCD7252EFAD74A
:1010FA0020C018F021C019F022C01AF023C01BF03A
:10110A00E5EC14F0290E256E960E246E7F0EE82E5D
:10111A00FED7242EFCD7252EFAD700F020C018F0CF
:10112A0021C019F022C01AF023C01BF06FEC15F091
:10113A0094EF07F020C018F021C019F022C01AF06D
:10114A0023C01BF0E5EC14F00D0E256E2D0E246E57
:10115A00D80EE82EFED7242EFCD7252EFAD7DDEF9F
:10116A0007F020C018F021C019F022C01AF023C0DD
:10117A001BF0E5EC14F00D0E256E2D0E246ED80E24
:10118A00E82EFED7242EFCD7252EFAD720C018F039
:10119A0021C019F022C01AF023C01BF049EC14F048
:1011AA0093EF08F07C8E110E256E3C0E246ECB0E4A
:1011BA00E82EFED7242EFCD7252EFAD700F07C9EE7
:1011CA0038EF09F08086110E256E3C0E246ECB0E88
:1011DA00E82EFED7242EFCD7252EFAD700F08096CB
:1011EA0038EF09F08082290E256E960E246E7F0E46
:1011FA00E82EFED7242EFCD7252EFAD700F08092AF
:10120A0038EF09F02650246E256A2550000AD8B412
:10121A0011EF09F0F7EF08F02450010AD8B440EFB3
:10122A0007F0030AD8B47FEF07F0010AD8B4B4EF85
:10123A0007F0070AD8B4F3EF07F0010AD8B468EF49
:10124A0008F0030AD8B49FEF08F0010AD8B4B6EF41
:10125A0008F00F0AD8B4D7EF08F0010AD8B4E7EFBC
:10126A0008F0F7EF08F01200ABEC18F05BEC18F09E
:10127A0014EC18F02BEC15F0BCEC18F0F5EC17F0A8
:10128A0086840E01B495BCCFDEF1000E0101EA6F2F
:10129A00010EEB6F010EEC6FAA0EEF6F0F0EF06FDF
:1012AA00A60EF16F0F0EF26FDEC1EDF1EE6B000EBE
:1012BA00F36F010EF46F010EF56F250EF86F0F0E26
:1012CA00F96F210EFA6F0F0EFB6FDEC1F6F1F76BA5
:1012DA00EA0E126E010E136EBDEC0FF0F30E126ED3
:1012EA00010E136EBDEC0FF0000E0101E26F000E4D
:1012FA00E16F000EE46F000EE36F000EE66F000E62
:10130A00E56F000EE96F000EE86F000EE06F000E49
:10131A00DF6F7C98010EE76F94EF09F07C888EB43A
:10132A0099EF09F09BEF09F093EF09F07C98290EE9
:10133A000001ED6F960EEC6F7F0EE82EFED7EC2FB4
:10134A00FCD7ED2FFAD7EA0E186E010E196EF30EBE
:10135A001A6E010E1B6E6FEC15F0020E0001ED6F96
:10136A00A00EEC6F920EE82EFED7EC2FFCD7ED2FD5
:10137A00FAD700F0EA0E186E010E196EF30E1A6E05
:10138A00010E1B6EE5EC14F00D0E0001ED6F2D0E33
:10139A00EC6FD70EE82EFED7EC2FFCD7ED2FFAD73D
:1013AA0000D0EA0E186E010E196EF30E1A6E010EB7
:1013BA001B6E6FEC15F0E80E106E010E116EE10E49
:1013CA00126E010E136EE30E146E010E156EE50E0B
:1013DA00166E010E176EBCEC0DF00101E751020DFD
:1013EA00960EF324D96E010EF420DA6EE8C1DEFF00
:1013FA00E9C1DDFFE751020D120EF326000EF422B9
:10140A00960EF324D96E010EF420DA6EE1C1DEFFE6
:10141A00E2C1DDFFE751020D240EF326000EF4228D
:10142A00960EF324D96E010EF420DA6EE3C1DEFFC4
:10143A00E4C1DDFFE751020D360EF326000EF42259
:10144A00960EF324D96E010EF420DA6EE5C1DEFFA2
:10145A00E6C1DDFF000E0001666F010E676F010E27
:10146A00686F0E0E696FE8C16AF0E9C16BF0E1C1FD
:10147A006CF0E2C16DF0E3C16EF0E4C16FF0E5C15A
:10148A0070F0E6C171F0E7C172F0736BC9EC16F047
:10149A00000E066E010E076E2EEC18F00101E72B06
:1014AA00090EE7655BEF0AF05DEF0AF094EF09F0C9
:1014BA007C8861EF0AF07C988EB466EF0AF068EFD8
:1014CA000AF060EF0AF0000E0001816F010E826FD0
:1014DA00E80E836F010E846FDF0E856F010E866F33
:1014EA007BEC12F08EB47CEF0AF07EEF0AF077EF15
:1014FA000AF0EA0E186E010E196EF30E1A6E010E3C
:10150A001B6E9FEC14F042EC17F009C0E8F10AC018
:10151A00E9F10101E851DF5DE951E059D8B098EFEE
:10152A000AF09AEF0AF088EF0AF0EA0E186E010E36
:10153A00196EF30E1A6E010E1B6E6FEC15F0020E89
:10154A000001ED6FA00EEC6F920EE82EFED7EC2F85
:10155A00FCD7ED2FFAD700F0EA0E186E010E196EBD
:10156A00F30E1A6E010E1B6EE5EC14F00D0E00015F
:10157A00ED6F2D0EEC6FD70EE82EFED7EC2FFCD7B1
:10158A00ED2FFAD700D0EA0E186E010E196EF30E7F
:10159A001A6E010E1B6E6FEC15F02A0E0001EC6F2D
:1015AA008D0EE82EFED7EC2FFCD700D0000E0001DE
:1015BA00816F010E826FE80E836F010E846FE10E58
:1015CA00856F010E866FE30E876F010E886FE50E39
:1015DA00896F010E8A6F960E8B6F010E8C6FEA0E61
:1015EA008D6F010E8E6FF30E8F6F010E906FD4EC1C
:1015FA0011F02A0E0001EC6F8D0EE82EFED7EC2FAB
:10160A00FCD700D07EEF0AF03BEF00F0010E336EFC
:10161A003350020DF3CF29F0F4CF2AF029502524B4
:10162A00D96E2A502620DA6EDECF2BF0DDCF2CF0D1
:10163A002B501D5C176E2C501E58186ED5EC17F0E7
:10164A0017C031F018C032F031C005F032C006F0D0
:10165A00000E086E640E076E98EC18F005C00BF0C9
:10166A0006C00CF03350020DF3CF29F0F4CF2AF064
:10167A0029502524D96E2A502620DA6EDECF0DF0A5
:10168A00DDCF0EF031EC16F03350020DF3CF2BF014
:10169A00F4CF2CF02B502724D96E2C502820DA6E48
:1016AA000BC0DEFF0CC0DDFF3350020DF3CF29F073
:1016BA00F4CF2AF0295025242B6E2A5026202C6E8E
:1016CA00120E2B24D96E000E2C20DA6EDECF2DF0EE
:1016DA00DDCF2EF02D501F5C176E2E502058186E3D
:1016EA00D5EC17F017C031F018C032F031C005F050
:1016FA0032C006F0000E086E640E076E98EC18F001
:10170A0005C00BF006C00CF03350020DF3CF29F0E0
:10171A00F4CF2AF0295025242B6E2A5026202C6E2D
:10172A00120E2B24D96E000E2C20DA6EDECF0DF0AD
:10173A00DDCF0EF031EC16F03350020DF3CF2DF061
:10174A00F4CF2EF02D5027242F6E2E502820306EE5
:10175A00120E2F24D96E000E3020DA6E0BC0DEFF77
:10176A000CC0DDFF3350020DF3CF29F0F4CF2AF07D
:10177A00295025242B6E2A5026202C6E240E2B2429
:10178A00D96E000E2C20DA6EDECF2DF0DDCF2EF0D2
:10179A002D50215C176E2E502258186ED5EC17F07A
:1017AA0017C031F018C032F031C005F032C006F06F
:1017BA00000E086E640E076E98EC18F005C00BF068
:1017CA0006C00CF03350020DF3CF29F0F4CF2AF003
:1017DA00295025242B6E2A5026202C6E240E2B24C9
:1017EA00D96E000E2C20DA6EDECF0DF0DDCF0EF0B2
:1017FA0031EC16F03350020DF3CF2DF0F4CF2EF06A
:10180A002D5027242F6E2E502820306E240E2F2480
:10181A00D96E000E3020DA6E0BC0DEFF0CC0DDFF81
:10182A003350020DF3CF29F0F4CF2AF029502524A2
:10183A002B6E2A5026202C6E360E2B24D96E000EC3
:10184A002C20DA6EDECF2DF0DDCF2EF02D50235C6A
:10185A00176E2E502458186ED5EC17F017C031F0B9
:10186A0018C032F031C005F032C006F0000E086E22
:10187A00640E076E98EC18F005C00BF006C00CF069
:10188A003350020DF3CF29F0F4CF2AF02950252442
:10189A002B6E2A5026202C6E360E2B24D96E000E63
:1018AA002C20DA6EDECF0DF0DDCF0EF031EC16F023
:1018BA003350020DF3CF2DF0F4CF2EF02D50272404
:1018CA002F6E2E502820306E360E2F24D96E000E21
:1018DA003020DA6E0BC0DEFF0CC0DDFF332A090EA2
:1018EA0033647AEF0CF07CEF0CF00DEF0BF0120082
:1018FA0022C038F023C039F024C03AF025C03BF0AA
:10190A0026C03CF027C03DF028C03EF029C03FF079
:10191A003FBE92EF0CF095EF0CF0010E96EF0CF033
:10192A00000E406E4050D8B49DEF0CF09FEF0CF0C3
:10193A00AFEF0CF03F1E3E1E3D1E3C1E3B1E3A1EE4
:10194A00391E386C000E39223A223B223C223D22B3
:10195A003E223F220001F1BFBDEF0CF0F15106E13A
:10196A00F005D8B0BBEF0CF0BDEF0CF0C3EF0CF0F4
:10197A00000E356E010E346EC7EF0CF0F0C034F075
:10198A00F1C035F0EEC036F0EFC037F04050D8B4B1
:10199A00D1EF0CF0D3EF0CF0EAEF0CF03606D8A03A
:1019AA0037064050D8A4DCEF0CF0DEEF0CF0E4EF81
:1019BA000CF0000E336E2B0E326EE8EF0CF0000EB8
:1019CA00336E2D0E326E32C040F0000E426E1F0E84
:1019DA00416E000E02016F6F6FEF0DF04106D8A045
:1019EA004206500E4124D96E020E4220DA6E38C0E9
:1019FA0005F039C006F03AC007F03BC008F03CC019
:101A0A0009F03DC00AF03EC00BF03FC00CF00A0ED0
:101A1A000D6E000E0E6E000E0F6E000E106E000E92
:101A2A00116E000E126E000E136E000E146E73EC21
:101A3A0010F005C02AF006C02BF007C02CF008C031
:101A4A002DF009C02EF00AC02FF00BC030F00CC0E8
:101A5A0031F02AC017F02BC018F0D5EC17F0175048
:101A6A00300FDF6E3406D8A035063606D8A0370602
:101A7A0038C005F039C006F03AC007F03BC008F09C
:101A8A003CC009F03DC00AF03EC00BF03FC00CF06C
:101A9A000A0E0D6E000E0E6E000E0F6E000E106E08
:101AAA00000E116E000E126E000E136E000E146EF2
:101ABA00F9EC0EF005C038F006C039F007C03AF06C
:101ACA0008C03BF009C03CF00AC03DF00BC03EF034
:101ADA000CC03FF042BE7AEF0DF0425008E14104DB
:101AEA00D8A07AEF0DF07CEF0DF098EF0DF038509A
:101AFA0039103A103B103C103D103E103F10D8A44C
:101B0A0089EF0DF08BEF0DF0F3EF0CF035BE98EF87
:101B1A000DF0355006E13404D8B096EF0DF098EF89
:101B2A000DF0F3EF0CF04050D8B49EEF0DF0A0EF9B
:101B3A000DF0ABEF0DF04106D8A04206500E41243D
:101B4A00D96E020E4220DA6E40C0DFFF20C015F0C7
:101B5A0021C016F0500E4124176E020E4220186E54
:101B6A0036C019F037C01AF0F4EC15F01200000E66
:101B7A001B6E000E1A6E42EC17F010C0D9FF11C08E
:101B8A00DAFF09C0DEFF0AC0DDFFF2EC16F012C070
:101B9A00D9FF13C0DAFF09C0DEFF0AC0DDFF1AEC65
:101BAA0017F014C0D9FF15C0DAFF09C0DEFF0AC05A
:101BBA00DDFF6AEC17F016C0D9FF17C0DAFF09C0BB
:101BCA00DEFF0AC0DDFF1A4A1B2A1BBEF6EF0DF024
:101BDA00F50E1A5C010E1B58D8A0F6EF0DF0F8EFBF
:101BEA000DF0C0EF0DF0000E1D6E000E1C6E42ECE3
:101BFA0017F010C0D9FF11C0DAFF0950DE260A50CB
:101C0A00DD22110E196E3C0E186ECB0EE82EFED791
:101C1A00182EFCD7192EFAD700F01C4A1D2A1DBE11
:101C2A0020EF0EF01D5009E1030E1C5CD8A020EF36
:101C3A000EF022EF0EF0FCEF0DF010C0D9FF11C02C
:101C4A00DAFFDECF18F0DDCF19F0D890193218324A
:101C5A00D8901932183210C0D9FF11C0DAFF18C053
:101C6A00DEFF19C0DDFF000E1F6E000E1E6EF2ECC5
:101C7A0016F012C0D9FF13C0DAFF0950DE260A5047
:101C8A00DD22110E196E3C0E186ECB0EE82EFED711
:101C9A00182EFCD7192EFAD700F01E4A1F2A1FBE8B
:101CAA0060EF0EF01F5009E1030E1E5CD8A060EF32
:101CBA000EF062EF0EF03CEF0EF012C0D9FF13C027
:101CCA00DAFFDECF18F0DDCF19F0D89019321832CA
:101CDA00D8901932183212C0D9FF13C0DAFF18C0CF
:101CEA00DEFF19C0DDFF000E216E000E206E1AEC19
:101CFA0017F014C0D9FF15C0DAFF0950DE260A50C2
:101D0A00DD22110E196E3C0E186ECB0EE82EFED790
:101D1A00182EFCD7192EFAD700F0204A212A21BE04
:101D2A00A0EF0EF0215009E1030E205CD8A0A0EF2D
:101D3A000EF0A2EF0EF07CEF0EF014C0D9FF15C022
:101D4A00DAFFDECF18F0DDCF19F0D8901932183249
:101D5A00D8901932183214C0D9FF15C0DAFF18C04A
:101D6A00DEFF19C0DDFF000E236E000E226E6AEC44
:101D7A0017F016C0D9FF17C0DAFF0950DE260A503D
:101D8A00DD22110E196E3C0E186ECB0EE82EFED710
:101D9A00182EFCD7192EFAD700F0224A232A23BE7E
:101DAA00E0EF0EF0235009E1030E225CD8A0E0EF29
:101DBA000EF0E2EF0EF0BCEF0EF016C0D9FF17C01E
:101DCA00DAFFDECF18F0DDCF19F0D89019321832C9
:101DDA00D8901932183216C0D9FF17C0DAFF18C0C6
:101DEA00DEFF19C0DDFF1200000E166E14BE02EFF0
:101DFA000FF000EF0FF014EF0FF0141E131E121E57
:101E0A00111E101E0F1E0E1E0D6C000E0E220F222A
:101E1A0010221122122213221422010E166E0CBE57
:101E2A001BEF0FF019EF0FF02DEF0FF00C1E0B1E2A
:101E3A000A1E091E081E071E061E056C000E062233
:101E4A000722082209220A220B220C22010E161A44
:101E5A0020EE17F0070EDE6AE806FDE20D500E10BE
:101E6A000F1010101110121013101410D8B440EFE4
:101E7A000FF042EF0FF094EF0FF0010E156E50EFD6
:101E8A000FF0D8900D360E360F3610361136123640
:101E9A0013361436152A14AE55EF0FF057EF0FF01C
:101EAA0046EF0FF0D8901736183619361A361B3601
:101EBA001C361D361E360D50055C0E5006580F5046
:101ECA000758105008581150095812500A58135000
:101EDA000B5814500C58D8A075EF0FF077EF0FF08D
:101EEA0088EF0FF00D50055E0E50065A0F50075A34
:101EFA001050085A1150095A12500A5A13500B5AC4
:101F0A0014500C5A1780D8901432133212321132EC
:101F1A0010320F320E320D32152E57EF0FF01650C7
:101F2A00D8B49AEF0FF09CEF0FF0ACEF0FF01E1E33
:101F3A001D1E1C1E1B1E1A1E191E181E176C000EB3
:101F4A00182219221A221B221C221D221E2217C005
:101F5A0005F018C006F019C007F01AC008F01BC037
:101F6A0009F01CC00AF01DC00BF01EC00CF01200D4
:101F7A0020EE02F01250D9261350DA22DF50D8B4DC
:101F8A00C9EF0FF0CBEF0FF0FFEF0FF012C0D9FF40
:101F9A0013C0DAFFDF50146E1450056E066A20EE85
:101FAA0003F01250D9261350DA22DECF07F0DDCF24
:101FBA0008F098EC18F005C00BF006C00CF0000E03
:101FCA000E6E640E0D6E31EC16F020EE03F0125018
:101FDA00D9261350DA22DF50156E0B50155C166E97
:101FEA0020EE03F01250D9261350DA22DF50176E72
:101FFA0022EF10F0000E166E12C0D9FF13C0DAFFDE
:10200A00DF50146E1450056E066A20EE03F012506B
:10201A00D9261350DA22DECF07F0DDCF08F098EC8C
:10202A0018F005C00BF006C00CF0000E0E6E640E20
:10203A000D6E31EC16F00B50176E20EE01F01250B7
:10204A00D9261350DA22DF50D8B42EEF10F030EF31
:10205A0010F052EF10F020EE05F01250D92613506E
:10206A00DA22DECF14F0DDCF15F014C0D9FF15C087
:10207A00DAFF16C0DFFF20EE07F01250D926135000
:10208A00DA22DECF14F0DDCF15F014C0D9FF15C067
:10209A00DAFF17C0DFFF72EF10F020EE05F01250E2
:1020AA00D9261350DA22DECF14F0DDCF15F014C092
:1020BA00D9FF15C0DAFF17C0DFFF20EE07F0125074
:1020CA00D9261350DA22DECF14F0DDCF15F014C072
:1020DA00D9FF15C0DAFF16C0DFFF1200000E166E18
:1020EA000CBE7CEF10F07AEF10F08EEF10F00C1EA1
:1020FA000B1E0A1E091E081E071E061E056C000E70
:10210A0006220722082209220A220B220C22010E89
:10211A00166E14BE95EF10F093EF10F0A5EF10F0C5
:10212A00141E131E121E111E101E0F1E0E1E0D6CE3
:10213A00000E0E220F221022112212221322142222
:10214A000D500E100F101010111012101310141041
:10215A00D8B4B2EF10F0B4EF10F0FCEF10F0010EAB
:10216A00156EC2EF10F0D8900D360E360F361036B7
:10217A001136123613361436152A14AEC7EF10F07C
:10218A00C9EF10F0B8EF10F00D50055C0E5006586C
:10219A000F500758105008581150095812500A5831
:1021AA0013500B5814500C58D8A0DEEF10F0E0EF83
:1021BA0010F0F0EF10F00D50055E0E50065A0F5059
:1021CA00075A1050085A1150095A12500A5A1350F5
:1021DA000B5A14500C5AD89014321332123211324C
:1021EA0010320F320E320D32152EC9EF10F0165082
:1021FA00D8B402EF11F004EF11F014EF11F00C1E35
:10220A000B1E0A1E091E081E071E061E056C000E5E
:10221A0006220722082209220A220B220C2205C0C2
:10222A0005F006C006F007C007F008C008F009C0AC
:10223A0009F00AC00AF00BC00BF00CC00CF0120037
:10224A0045C0D9FF46C0DAFFDECFF6FFDDCFF7FF84
:10225A00000EF86E0800F550250AD8A437EF11F0E1
:10226A0039EF11F0BDEF11F045C0D9FF46C0DAFFD2
:10227A00DE2A000EDD22000E0001EF6F000EEE6F67
:10228A00EEC0F6F0F069F16945C0D9FF46C0DAFF41
:10229A00DECF53F0DDCF54F053C0F6FF54C0F7FF42
:1022AA00000EF86E0800F550640AD8B45FEF11F01A
:1022BA0061EF11F071EF11F053C0F6FF54C0F7FF50
:1022CA00000EF86E0800F550690AD8A46FEF11F0F5
:1022DA0071EF11F0B4EF11F047C0D9FF48C0DAFF2F
:1022EA00DFCF49F0020EDE26DFCF4AF0000EDD22F4
:1022FA0049C0D9FF4AC0DAFFDECF4BF0DDCF4CF040
:10230A00000E4CBEFF0E4D6E4E6E4F6E506E516EED
:10231A00526E010E5324496E000E54204A6E45C077
:10232A00D9FF46C0DAFF49C0DEFF4AC0DDFF43C01D
:10233A0020F044C021F04BC022F04CC023F04DC025
:10234A0024F04EC025F04FC026F050C027F051C0EF
:10235A0028F052C029F07DEC0CF0D3EF11F045C003
:10236A00D9FF46C0DAFFDE2A000EDD22D3EF11F0D4
:10237A0045C0D9FF46C0DAFFDECFF6FFDDCFF7FF53
:10238A00000EF86E0800F550056E066A43C007F0A5
:10239A0044C008F08EEC13F0B4EF11F0120083C0C1
:1023AA0010F084C011F085C012F086C013F087C007
:1023BA0014F088C015F089C016F08AC017F0BCEC7A
:1023CA000DF081C066F082C067F0330E0001686FBD
:1023DA000E0E696F83C0D9FF84C0DAFFDECF6AF0C0
:1023EA00DDCF6BF085C0D9FF86C0DAFFDECF6CF097
:1023FA00DDCF6DF087C0D9FF88C0DAFFDECF6EF07F
:10240A00DDCF6FF089C0D9FF8AC0DAFFDECF70F066
:10241A00DDCF71F0C9EC16F081C006F082C007F07A
:10242A002EEC18F081C01BF082C01CF083C0D9FFCB
:10243A0084C0DAFFDECF1DF0DDCF1EF085C0D9FFE4
:10244A0086C0DAFFDECF1FF0DDCF20F087C0D9FFCC
:10245A0088C0DAFFDECF21F0DDCF22F089C0D9FFB4
:10246A008AC0DAFFDECF23F0DDCF24F08BC025F05F
:10247A008CC026F0910E276E000E286E0BEC0BF026
:10248A0081C005F082C006F0910E076E000E086E3C
:10249A00D90E096E000E0A6E08EC13F0D90E056EFD
:1024AA00000E066EB2EC15F00001EB6F81C066F00B
:1024BA0082C067F06E0E686F0E0E696FEBC06AF02D
:1024CA006B6BC9EC16F081C006F082C007F02EECE7
:1024DA0018F08DC020F08EC021F08FC022F090C07D
:1024EA0023F00001EB513DEC07F01200000E000151
:1024FA008C6F000E8B6F42EC17F083C0D9FF84C03B
:10250A00DAFF09C0DEFF0AC0DDFF00018B4B8C2B0E
:10251A008CBF99EF12F0F50E8B5D010E8C59D8A085
:10252A0099EF12F09BEF12F080EF12F0000E8E6F0F
:10253A00000E8D6F42EC17F083C0D9FF84C0DAFF1A
:10254A000950DE260A50DD22110E0001886F3C0E6A
:10255A00876FCB0EE82EFED7872FFCD7882FFAD7A6
:10256A0000018D4B8E2B8EBFC4EF12F08E5109E104
:10257A00030E8D5DD8A0C4EF12F0C6EF12F09FEFE4
:10258A0012F083C0D9FF84C0DAFFDECF87F0DDCF37
:10259A0088F0D89088338733D8908833873383C0BC
:1025AA00D9FF84C0DAFF87C0DEFF88C0DDFF81C0A3
:1025BA0066F082C067F0570E686F0E0E696F83C0AF
:1025CA006AF084C06BF0C9EC16F081C006F082C0D4
:1025DA0007F02EEC18F083C0D9FF84C0DAFFDECFF3
:1025EA0087F0DDCF88F0200E00018725896F030E62
:1025FA0088218A6F85C0D9FF86C0DAFF89C0DEFFCD
:10260A008AC0DDFF1200010E296E2950020DF3CF98
:10261A000BF0F4CF0CF00B5007240D6E0C50082071
:10262A000E6E360E0D24D96E000E0E20DA6EDECF37
:10263A000FF0DDCF10F02950020DF3CF11F0F4CFD7
:10264A0012F011500724136E12500820146E240E33
:10265A001324D96E000E1420DA6EDECF15F0DDCF0A
:10266A0016F02950020DF3CF17F0F4CF18F01750D7
:10267A000724196E185008201A6E120E1924D96EE2
:10268A00000E1A20DA6EDECF1BF0DDCF1CF02950C7
:10269A00020DF3CF1DF0F4CF1EF01D500724D96EA2
:1026AA001E500820DA6EDECF1FF0DDCF20F01B505F
:1026BA001F24216E1C502020226E15502124236EC7
:1026CA0016502220246E0F502324256E10502420E9
:1026DA00266ED89026322532D890263225322950B5
:1026EA00020DF3CF27F0F4CF28F027500924D96E32
:1026FA0028500A20DA6E25C0DEFF26C0DDFF292A0F
:10270A00090E29648BEF13F08DEF13F00AEF13F023
:10271A00120007500810D8B495EF13F097EF13F092
:10272A00A0EF13F007500810D8A49EEF13F0A0EF03
:10273A0013F0A5EF13F005502BEC19F0F2EF13F09C
:10274A0020EE09F00750D9260850DA22DE50DE10B2
:10275A00D8B4B2EF13F0B4EF13F0CFEF13F020EECA
:10276A0009F00750D9260850DA2210EE03F0075074
:10277A00E1260850E222DE50E65CE650800A0D6E41
:10278A00DE50800A0D58D8B0CDEF13F0CFEF13F01A
:10279A00F2EF13F020EE03F00750D9260850DA22A0
:1027AA00DECF09F0DDCF0AF007C0D9FF08C0DAFF93
:1027BA00DECF0BF0DDCF0CF009500B24D96E0A5096
:1027CA000C20DA6E05C0DFFF20EE03F00750D92691
:1027DA000850DA22DE2A000EDD22120020EE01F075
:1027EA001850D9261950DA22010EDF6E20EE01F0B8
:1027FA001A50D9261B50DA22000EDF6E000E1F6E09
:10280A00000E1E6E1AC0D9FF1BC0DAFF1EC0DFFF02
:10281A0018C0D9FF19C0DAFF1EC0DFFF020E1D6EF5
:10282A00380E1C6EAD0EE82EFED71C2EFCD71D2EC0
:10283A00FAD700F018C012F019C013F0BDEC0FF06F
:10284A001AC012F01BC013F0BDEC0FF00A0E1E26C0
:10285A00000E1F221FBE3BEF14F01F5009E1500E5D
:10286A001E5CD8A03BEF14F03DEF14F007EF14F014
:10287A00080E1D6E4F0E1C6E1A0EE82EFED71C2E69
:10288A00FCD71D2EFAD7120020EE01F01850D926D7
:10289A001950DA22000EDF6E20EE01F01A50D92606
:1028AA001B50DA22010EDF6E000E1F6E000E1E6E26
:1028BA001AC0D9FF1BC0DAFF1EC0DFFF18C0D9FF3C
:1028CA0019C0DAFF1EC0DFFF020E1D6E380E1C6E25
:1028DA00AD0EE82EFED71C2EFCD71D2EFAD700F01F
:1028EA0018C012F019C013F0BDEC0FF01AC012F0A4
:1028FA001BC013F0BDEC0FF00A0E1E26000E1F229D
:10290A001FBE91EF14F01F5009E1500E1E5CD8A0B3
:10291A0091EF14F093EF14F05DEF14F0080E1D6EB2
:10292A004F0E1C6E1A0EE82EFED71C2EFCD71D2E3B
:10293A00FAD7120020EE01F01850D9261950DA22DF
:10294A00010EDF6E20EE01F01A50D9261B50DA2252
:10295A00010EDF6E000E1E6E000E1D6E18C0D9FF2E
:10296A0019C0DAFF1DC0DFFF1AC0D9FF1BC0DAFF8A
:10297A001DC0DFFF18C012F019C013F0BDEC0FF034
:10298A001AC012F01BC013F0BDEC0FF0D00E1C6E73
:10299A00CA0EE82EFED71C2EFCD70A0E1D26000EE4
:1029AA001E221EBEE2EF14F01E5009E13C0E1D5C11
:1029BA00D8A0E2EF14F0E4EF14F0B3EF14F0120031
:1029CA0020EE01F01850D9261950DA22000EDF6ED7
:1029DA0020EE01F01A50D9261B50DA22000EDF6EC3
:1029EA00000E1E6E000E1D6E18C0D9FF19C0DAFF48
:1029FA001DC0DFFF1AC0D9FF1BC0DAFF1DC0DFFFF1
:102A0A0018C012F019C013F0BDEC0FF01AC012F082
:102A1A001BC013F0BDEC0FF0D00E1C6ECA0EE82ED0
:102A2A00FED71C2EFCD70A0E1D26000E1E221EBE25
:102A3A0028EF15F01E5009E13C0E1D5CD8A028EFC6
:102A4A0015F02AEF15F0F9EF14F012008594859825
:102A5A00839E879C050E0E01746F060E766F070E15
:102A6A00696F080E886FBD508F0B4009BD6EE00E6E
:102A7A00BE16BF50F00B0109BF6E630EBC6EBD8E51
:102A8A00000EAA6E000EA66E000E0F01256F000E34
:102A9A00216FFC0EAD16F30EAD16CF0EAD163F0E1E
:102AAA00AD16AB88AB50F00B0C09AB6EAB8EA7889A
:102ABA00A750F00B0C09A76EA78E26892651F00B9A
:102ACA000C09266F268F22892251F00B0C09226FDE
:102ADA00228F120084EF15F018C0D9FF19C0DAFF4F
:102AEA000A0EDF5E2A0E1C6E8E0EE82EFED71C2EF4
:102AFA00FCD718C012F019C013F0BDEC0FF018C0C3
:102B0A00D9FF19C0DAFFDF50D8A48EEF15F090EF85
:102B1A0015F071EF15F0A5EF15F01AC0D9FF1BC01B
:102B2A00DAFF0A0EDF5E2A0E1C6E8E0EE82EFED724
:102B3A001C2EFCD71AC012F01BC013F0BDEC0FF00C
:102B4A001AC0D9FF1BC0DAFFDF50D8A4AFEF15F0C7
:102B5A00B1EF15F092EF15F01200010E0D6E20EE96
:102B6A0002F00550D9260650DA22DECF0BF0DDCF6F
:102B7A000CF0020E0E6E0E50020DF3CF07F0F4CFDA
:102B8A0008F007500524D96E08500620DA6E0B505B
:102B9A00DE5C0C50DE58D8B0D5EF15F0D7EF15F043
:102BAA00E9EF15F00E50020DF3CF07F0F4CF08F05D
:102BBA0007500524D96E08500620DA6EDECF0BF0D6
:102BCA00DDCF0CF00EC00DF00E2A090E0E64F0EFE8
:102BDA0015F0F2EF15F0C0EF15F00D5012001ABE05
:102BEA00F9EF15F0FBEF15F001EF16F019C01EF022
:102BFA001AC01FF005EF16F0000E1F6E000E1E6EB3
:102C0A00000E1D6E000E1C6E17EF16F0000E066EFB
:102C1A00200E056E15C007F016C008F08EEC13F0F2
:102C2A001C4A1D2A1E501C5C1D50800A1B6E1F5018
:102C3A00800A1B58D8A024EF16F026EF16F00BEFE7
:102C4A0016F017C00EF018C00FF015C010F016C01D
:102C5A0011F092EC17F01200000E106E000E0F6EBB
:102C6A000D500E10D8B43CEF16F03EEF16F066EF9A
:102C7A0016F0010E116E46EF16F0D8900D360E368C
:102C8A00112A0EAE4BEF16F04DEF16F042EF16F08A
:102C9A00D8900F3610360D500B5C0E500C58D8A039
:102CAA0059EF16F05BEF16F060EF16F00D500B5E61
:102CBA000E500C5A0F80D8900E320D32112E4DEF55
:102CCA0016F00FC00BF010C00CF012000DC007F088
:102CDA000C0ECCEC18F00A50076E050ECCEC18F06E
:102CEA00000E0F6E09500A10D8B47EEF16F080EF6E
:102CFA0016F082EF16F0010E0F6E0FC007F0040EE9
:102D0A00CCEC18F00C50076E070ECCEC18F0000E45
:102D1A00106E0B500C10D8B495EF16F097EF16F012
:102D2A0099EF16F0010E106E10C007F0060ECCECEB
:102D3A0018F0120062C055F063C056F0B3EF16F0F7
:102D4A0060C043F061C044F0550E456E000E466EF9
:102D5A0064C047F065C048F025EC11F055C0F6FF95
:102D6A0056C0F7FF000EF86E0800F5500009D8A407
:102D7A00C1EF16F0C3EF16F0A5EF16F0000E000132
:102D8A00616F000E606F12006A0E0001746F000E10
:102D9A00756F66C076F067C077F0000E7A6F000E26
:102DAA00796F000E806F000E7F6F760E606F000ED7
:102DBA00616F68C062F069C063F0740E646F000EE0
:102DCA00656F9FEC16F0000179516625D96E7A512C
:102DDA006721DA6E000EDF6E12001CEC19F0520E3B
:102DEA0006EC19F0B60E06EC19F012EC19F0530EB7
:102DFA0006EC19F0010EB4EC17F00B6E0B500E6EC8
:102E0A000F6A000EB4EC17F00B6E0B500D6E0C6AC5
:102E1A000E500C100E6E0F500D100F6E17EC19F0AD
:102E2A000EC009F00FC00AF012001CEC19F0520E85
:102E3A0006EC19F0B80E06EC19F012EC19F0530E64
:102E4A0006EC19F0010EB4EC17F00B6E0B500E6E77
:102E5A000F6A000EB4EC17F00B6E0B500D6E0C6A75
:102E6A000E500C100E6E0F500D100F6E17EC19F05D
:102E7A000EC009F00FC00AF012001CEC19F0520E35
:102E8A0006EC19F0B40E06EC19F012EC19F0530E18
:102E9A0006EC19F0010EB4EC17F00B6E0B500E6E27
:102EAA000F6A000EB4EC17F00B6E0B500D6E0C6A25
:102EBA000E500C100E6E0F500D100F6E17EC19F00D
:102ECA000EC009F00FC00AF012001CEC19F0520EE5
:102EDA0006EC19F0BA0E06EC19F012EC19F0530EC2
:102EEA0006EC19F0010EB4EC17F00B6E0B500E6ED7
:102EFA000F6A000EB4EC17F00B6E0B500D6E0C6AD5
:102F0A000E500C100E6E0F500D100F6E17EC19F0BC
:102F1A000EC009F00FC00AF01200000E146E000E67
:102F2A00136EA3EF17F012C005F0066A10C007F07F
:102F3A0011C008F08EEC13F0134A142A13500E2411
:102F4A00D96E14500F20DA6EDF50126E1250D8A4C8
:102F5A00B1EF17F0B3EF17F098EF17F01200076E02
:102F6A0070EC18F00E01DA8770EC18F0D5CE08F084
:102F7A0070EC18F00750D8B4C5EF17F0C9EF17F086
:102F8A00066A062ACAEF17F0066A063A06460E01CC
:102F9A00DA510618DF0B0618DA6FDA8908501200C0
:102FAA0018BEE2EF17F0185006E11704D8B0E0EFA8
:102FBA0017F0E2EF17F0F0EF17F017C019F018C08A
:102FCA001AF0191E1A1E194A1A2A19C017F01AC01D
:102FDA0018F0F4EF17F017C017F018C018F0120025
:102FEA00FEEC18F0000E0A6E010E096E070E0C6E4A
:102FFA00D00E0B6E000E0E6E040E0D6E6BEC16F0FC
:10300A0082920E019A93090E0D01F16F0E01298326
:10301A001F83F292F28CF28AF28CF28E12005BEC2F
:10302A0018F0010E076E000ECCEC18F03F0E096E78
:10303A00550EE82EFED7092EFCD700F0030E076EB8
:10304A00000ECCEC18F0D50E076E010ECCEC18F081
:10305A00120039EF18F006C0D9FF07C0DAFFDF50B7
:10306A00DCEC18F0064A072A06C0D9FF07C0DAFFC7
:10307A00DF50D8A443EF18F045EF18F030EF18F0FE
:10308A00120002EE00F0700EEE6AE806FDE100EEB4
:10309A00EEF0090EEE6AE806FDE15A6A596A586AC4
:1030AA00576A5B905B92000139EF09F00E01D95122
:1030BA00F00B0809D96FD98B9F0ED66F848A848C3E
:1030CA00A79BA79D1D0E1D6F1E0E1C6F1C0E6F6FFA
:1030DA001B0E706F12000E01D8B576EF18F078EF5C
:1030EA0018F070EF18F0DACE05F01F0E0516D8A406
:1030FA0081EF18F083EF18F070EF18F012000E014C
:10310A00D8B58AEF18F08CEF18F084EF18F0DACE01
:10311A0001F01F0E0116D8A495EF18F097EF18F0DA
:10312A0084EF18F0120005500702F3CF09F0F4CF2C
:10313A000AF005500802F3500A2606500702F35017
:10314A000A2609C005F00AC006F012008892889083
:10315A008498849686908792869E81987E8E7F82B6
:10316A0079887C9880927E9080907C961200120ECC
:10317A000E01626F110E156F8382E997E895330E7F
:10318A00E56F000EE66FE789E88BE78F1200086E9D
:10319A001CEC19F0520E06EC19F00850800906ECE6
:1031AA0019F0075006EC19F017EC19F01200056E29
:1031BA000E0137A5E3EF18F0E5EF18F0DDEF18F090
:1031CA0005C0E4FE12001CEC19F0520E06EC19F0D0
:1031DA00E60E06EC19F017EC19F0120026EC19F0BD
:1031EA00520E0CEC19F0E60E0CEC19F021EC19F069
:1031FA001200E8EC18F0130E076E000ECCEC18F073
:10320A001200066E70EC18F006C0D5FE1200026EAF
:10321A0084EC18F002C0D5FE120070EC18F00E0112
:10322A00DA83120070EC18F00E01DA85120070ECE5
:10323A0018F00E01DA81120084EC18F00E01DA851A
:0E324A00120084EC18F00E01DA81120012005E
:020000040020DA
:10000000FF0FFF0FFF0FFF0FFF0FFF0FFF0FFF0F80
:020000040030CA
:0C000000AAFFFFFF9FFFFFFFFFFFFFFFB5
:00000001FF
