:040000003BEF00F0E2
:100008005B820E0133A30BEF00F00DEF00F039EF28
:1000180000F00001F451F511D8A415EF00F017EF26
:1000280000F039EF00F0000EF36F010EF26F7C8ED6
:10003800050E046E0F0E036EF10EE82EFED7032E8A
:10004800FCD7042EFAD700F07C9E050E046E0F0E26
:10005800036EF10EE82EFED7032EFCD7042EFAD736
:1000680000F07CEC18F00E0133935B921100CFEF97
:0200780017F07F
:100E0000000A2045585045435445443A20436C65F8
:100E100061722025642C522025642C2047202564F3
:100E20002C20422025642020434152443A2025644E
:100E3000200A000A204156473A20436C656172201F
:100E400025642C20522025642C20472025642C204A
:100E500042202564200A000A204578706563746585
:100E60006420636C6561723A202564200A00434166
:090E70005244202564200A000010
:100E7A00266EC6EF08F020C018F021C019F022C073
:100E8A001AF023C01BF06EEC14F0110E256E3C0E06
:100E9A00246ECB0EE82EFED7242EFCD7252EFAD7A9
:100EAA0000F020C018F021C019F022C01AF023C0A7
:100EBA001BF07AEC13F020C018F021C019F022C000
:100ECA001AF023C01BF0F8EC14F020C018F021C06F
:100EDA0019F022C01AF023C01BF07AEC13F020C0DC
:100EEA0018F021C019F022C01AF023C01BF0F8EC48
:100EFA0014F0F7EF08F020C018F021C019F022C052
:100F0A001AF023C01BF06EEC14F0110E256E3C0E85
:100F1A00246ECB0EE82EFED7242EFCD7252EFAD728
:100F2A0000F020C018F021C019F022C01AF023C026
:100F3A001BF0D1EC13F020C018F021C019F022C028
:100F4A001AF023C01BF0F8EC14F020C018F021C0EE
:100F5A0019F022C01AF023C01BF0D1EC13F074EF81
:100F6A0007F020C018F021C019F022C01AF023C0DF
:100F7A001BF06EEC14F0110E256E3C0E246ECB0E97
:100F8A00E82EFED7242EFCD7252EFAD700F020C053
:100F9A0018F021C019F022C01AF023C01BF07AEC15
:100FAA0013F020C018F021C019F022C01AF023C093
:100FBA001BF0F8EC14F020C018F021C019F022C080
:100FCA001AF023C01BF07AEC13F020C018F021C0ED
:100FDA0019F022C01AF023C01BF0F8EC14F056EFF7
:100FEA0007F020C018F021C019F022C01AF023C05F
:100FFA001BF06EEC14F0110E256E3C0E246ECB0E17
:10100A00E82EFED7242EFCD7252EFAD700F020C0D2
:10101A0018F021C019F022C01AF023C01BF06EECA0
:10102A0014F0290E256E960E246E7F0EE82EFED73A
:10103A00242EFCD7252EFAD700F0EAEF07F020C0BD
:10104A0018F021C019F022C01AF023C01BF06EEC70
:10105A0014F0110E256E3C0E246ECB0EE82EFED730
:10106A00242EFCD7252EFAD700F020C018F021C074
:10107A0019F022C01AF023C01BF06EEC14F0290EEE
:10108A00256E960E246E7F0EE82EFED7242EFCD7F0
:10109A00252EFAD700F020C018F021C019F022C07E
:1010AA001AF023C01BF0F8EC14F096EF07F020C0FA
:1010BA0018F021C019F022C01AF023C01BF06EEC00
:1010CA0014F0110E256E3C0E246ECB0EE82EFED7C0
:1010DA00242EFCD7252EFAD700F0E0EF07F020C027
:1010EA0018F021C019F022C01AF023C01BF06EECD0
:1010FA0014F0110E256E3C0E246ECB0EE82EFED790
:10110A00242EFCD7252EFAD700F020C018F021C0D3
:10111A0019F022C01AF023C01BF0D1EC13F050EFE3
:10112A0008F07C8E090E256E1E0E246EE40EE82E43
:10113A00FED7242EFCD7252EFAD700D07C9EF7EFB7
:10114A0008F08086090E256E1E0E246EE40EE82E27
:10115A00FED7242EFCD7252EFAD700D08096F7EF9B
:10116A0008F08082290E256E960E246E7F0EE82ED8
:10117A00FED7242EFCD7252EFAD700F08092F7EF5F
:10118A0008F02650246E256A2550000AD8B4D0EFFC
:10119A0008F0B6EF08F02450010AD8B440EF07F07F
:1011AA00030AD8B480EF07F0010AD8B4B6EF07F003
:1011BA00070AD8B4F6EF07F0010AD8B424EF08F00A
:1011CA00030AD8B45CEF08F0010AD8B474EF08F047
:1011DA000F0AD8B496EF08F0010AD8B4A6EF08F0BF
:1011EA00B6EF08F0120034EC18F0E4EC17F09DECBE
:1011FA0017F0B4EC14F045EC18F07EEC17F0868486
:10120A000E01B495BCCFDEF1000E0101EA6F010EAA
:10121A00EB6F010EEC6FAA0EEF6F0F0EF06FA60EBA
:10122A00F16F0F0EF26FDEC1EDF1EE6B000EF36F90
:10123A00010EF46F010EF56F250EF86F0F0EF96FA0
:10124A00210EFA6F0F0EFB6FDEC1F6F1F76BEA0E95
:10125A00126E010E136E44EC0FF0F30E126E010EB5
:10126A00136E44EC0FF0000E0101E26F000EE16F05
:10127A00000EE46F000EE36F000EE66F000EE56FDE
:10128A00000EE96F000EE86F000EE06F000EDF6FD0
:10129A007C98010EE76F53EF09F07C888EB458EF03
:1012AA0009F05AEF09F052EF09F07C98290E000173
:1012BA00ED6F960EEC6F7F0EE82EFED7EC2FFCD763
:1012CA00ED2FFAD7E80E106E010E116EE10E126EB6
:1012DA00010E136EE30E146E010E156EE50E166EF8
:1012EA00010E176E43EC0DF00101E751020D960E47
:1012FA00F324D96E010EF420DA6EE8C1DEFFE9C1EB
:10130A00DDFFE751020D120EF326000EF422960EAF
:10131A00F324D96E010EF420DA6EE1C1DEFFE2C1D8
:10132A00DDFFE751020D240EF326000EF422960E7D
:10133A00F324D96E010EF420DA6EE3C1DEFFE4C1B4
:10134A00DDFFE751020D360EF326000EF422960E4B
:10135A00F324D96E010EF420DA6EE5C1DEFFE6C190
:10136A00DDFF000E0001666F010E676F010E686FE8
:10137A000E0E696FE8C16AF0E9C16BF0E1C16CF069
:10138A00E2C16DF0E3C16EF0E4C16FF0E5C170F047
:10139A00E6C171F0E7C172F0736B52EC16F0000E01
:1013AA00066E010E076EB7EC17F00101E72B090E66
:1013BA00E765E2EF09F0E4EF09F053EF09F07C8802
:1013CA00E8EF09F07C988EB4EDEF09F0EFEF09F041
:1013DA00E7EF09F0000E0001816F010E826FE80E3F
:1013EA00836F010E846FDF0E856F010E866F02EC2C
:1013FA0012F08EB403EF0AF005EF0AF0FEEF09F0DF
:10140A00EA0E186E010E196EF30E1A6E010E1B6E9D
:10141A0028EC14F0CBEC16F009C0E8F10AC0E9F1A7
:10142A000101E851DF5DE951E059D8B01FEF0AF038
:10143A0021EF0AF00FEF0AF0EA0E186E010E196E8C
:10144A00F30E1A6E010E1B6EF8EC14F0020E000178
:10145A00ED6FA00EEC6F920EE82EFED7EC2FFCD7A4
:10146A00ED2FFAD700F0EA0E186E010E196EF30E80
:10147A001A6E010E1B6E6EEC14F0090E0001ED6F70
:10148A001E0EEC6FE40EE82EFED7EC2FFCD7ED2FE4
:10149A00FAD700F0EA0E186E010E196EF30E1A6EE4
:1014AA00010E1B6EF8EC14F02A0E0001EC6F8D0E83
:1014BA00E82EFED7EC2FFCD700D0000E0001816F7A
:1014CA00010E826FE80E836F010E846FE10E856F45
:1014DA00010E866FE30E876F010E886FE50E896F26
:1014EA00010E8A6F960E8B6F010E8C6FEA0E8D6F4E
:1014FA00010E8E6FF30E8F6F010E906F5BEC11F081
:10150A002A0E0001EC6F8D0EE82EFED7EC2FFCD7C9
:10151A0000D005EF0AF03BEF00F0010E336E3350B6
:10152A00020DF3CF29F0F4CF2AF029502524D96EE1
:10153A002A502620DA6EDECF2BF0DDCF2CF02B508E
:10154A001D5C176E2C501E58186E5EEC17F017C0F3
:10155A0031F018C032F031C005F032C006F0000E8A
:10156A00086E640E076E21EC18F005C00BF006C079
:10157A000CF03350020DF3CF29F0F4CF2AF02950A2
:10158A002524D96E2A502620DA6EDECF0DF0DDCF63
:10159A000EF0BAEC15F03350020DF3CF2BF0F4CF66
:1015AA002CF02B502724D96E2C502820DA6E0BC031
:1015BA00DEFF0CC0DDFF3350020DF3CF29F0F4CF6C
:1015CA002AF0295025242B6E2A5026202C6E120E22
:1015DA002B24D96E000E2C20DA6EDECF2DF0DDCF53
:1015EA002EF02D501F5C176E2E502058186E5EEC90
:1015FA0017F017C031F018C032F031C005F032C010
:10160A0006F0000E086E640E076E21EC18F005C095
:10161A000BF006C00CF03350020DF3CF29F0F4CFD3
:10162A002AF0295025242B6E2A5026202C6E120EC1
:10163A002B24D96E000E2C20DA6EDECF0DF0DDCF12
:10164A000EF0BAEC15F03350020DF3CF2DF0F4CFB3
:10165A002EF02D5027242F6E2E502820306E120E79
:10166A002F24D96E000E3020DA6E0BC0DEFF0CC0BC
:10167A00DDFF3350020DF3CF29F0F4CF2AF02950C1
:10168A0025242B6E2A5026202C6E240E2B24D96E4C
:10169A00000E2C20DA6EDECF2DF0DDCF2EF02D508D
:1016AA00215C176E2E502258186E5EEC17F017C088
:1016BA0031F018C032F031C005F032C006F0000E29
:1016CA00086E640E076E21EC18F005C00BF006C018
:1016DA000CF03350020DF3CF29F0F4CF2AF0295041
:1016EA0025242B6E2A5026202C6E240E2B24D96EEC
:1016FA00000E2C20DA6EDECF0DF0DDCF0EF0BAEC44
:10170A0015F03350020DF3CF2DF0F4CF2EF02D50FB
:10171A0027242F6E2E502820306E240E2F24D96EA7
:10172A00000E3020DA6E0BC0DEFF0CC0DDFF335036
:10173A00020DF3CF29F0F4CF2AF0295025242B6E7D
:10174A002A5026202C6E360E2B24D96E000E2C2001
:10175A00DA6EDECF2DF0DDCF2EF02D50235C176E22
:10176A002E502458186E5EEC17F017C031F018C0CE
:10177A0032F031C005F032C006F0000E086E640E79
:10178A00076E21EC18F005C00BF006C00CF03350C0
:10179A00020DF3CF29F0F4CF2AF0295025242B6E1D
:1017AA002A5026202C6E360E2B24D96E000E2C20A1
:1017BA00DA6EDECF0DF0DDCF0EF0BAEC15F0335055
:1017CA00020DF3CF2DF0F4CF2EF02D5027242F6EDB
:1017DA002E502820306E360E2F24D96E000E30205F
:1017EA00DA6E0BC0DEFF0CC0DDFF332A090E33644C
:1017FA0001EF0CF003EF0CF094EF0AF0120022C094
:10180A0038F023C039F024C03AF025C03BF026C096
:10181A003CF027C03DF028C03EF029C03FF03FBE53
:10182A0019EF0CF01CEF0CF0010E1DEF0CF0000E7E
:10183A00406E4050D8B424EF0CF026EF0CF036EF8F
:10184A000CF03F1E3E1E3D1E3C1E3B1E3A1E391E1C
:10185A00386C000E39223A223B223C223D223E229B
:10186A003F220001F1BF44EF0CF0F15106E1F0050F
:10187A00D8B042EF0CF044EF0CF04AEF0CF0000E37
:10188A00356E010E346E4EEF0CF0F0C034F0F1C03C
:10189A0035F0EEC036F0EFC037F04050D8B458EF0C
:1018AA000CF05AEF0CF071EF0CF03606D8A03706A0
:1018BA004050D8A463EF0CF065EF0CF06BEF0CF01E
:1018CA00000E336E2B0E326E6FEF0CF0000E336E7D
:1018DA002D0E326E32C040F0000E426E1F0E416E67
:1018EA00000E02016F6FF6EF0CF04106D8A0420617
:1018FA00500E4124D96E020E4220DA6E38C005F02D
:10190A0039C006F03AC007F03BC008F03CC009F005
:10191A003DC00AF03EC00BF03FC00CF00A0E0D6E3F
:10192A00000E0E6E000E0F6E000E106E000E116E7F
:10193A00000E126E000E136E000E146EFAEC0FF00B
:10194A0005C02AF006C02BF007C02CF008C02DF005
:10195A0009C02EF00AC02FF00BC030F00CC031F0D5
:10196A002AC017F02BC018F05EEC17F01750300F92
:10197A00DF6E3406D8A035063606D8A0370638C03A
:10198A0005F039C006F03AC007F03BC008F03CC089
:10199A0009F03DC00AF03EC00BF03FC00CF00A0E41
:1019AA000D6E000E0E6E000E0F6E000E106E000E03
:1019BA00116E000E126E000E136E000E146E80EC85
:1019CA000EF005C038F006C039F007C03AF008C07A
:1019DA003BF009C03CF00AC03DF00BC03EF00CC021
:1019EA003FF042BE01EF0DF0425008E14104D8A099
:1019FA0001EF0DF003EF0DF01FEF0DF03850391025
:101A0A003A103B103C103D103E103F10D8A410EF86
:101A1A000DF012EF0DF07AEF0CF035BE1FEF0DF05E
:101A2A00355006E13404D8B01DEF0DF01FEF0DF06C
:101A3A007AEF0CF04050D8B425EF0DF027EF0DF0F7
:101A4A0032EF0DF04106D8A04206500E4124D96E5D
:101A5A00020E4220DA6E40C0DFFF20C015F021C01E
:101A6A0016F0500E4124176E020E4220186E36C030
:101A7A0019F037C01AF07DEC15F01200000E1B6E3B
:101A8A00000E1A6ECBEC16F010C0D9FF11C0DAFFA7
:101A9A0009C0DEFF0AC0DDFF7BEC16F012C0D9FFD9
:101AAA0013C0DAFF09C0DEFF0AC0DDFFA3EC16F09F
:101ABA0014C0D9FF15C0DAFF09C0DEFF0AC0DDFF76
:101ACA00F3EC16F016C0D9FF17C0DAFF09C0DEFF23
:101ADA000AC0DDFF1A4A1B2A1BBE7DEF0DF0F50E68
:101AEA001A5C010E1B58D8A07DEF0DF07FEF0DF0A8
:101AFA0047EF0DF0000E1D6E000E1C6ECBEC16F0BB
:101B0A0010C0D9FF11C0DAFF0950DE260A50DD22C3
:101B1A00110E196E3C0E186ECB0EE82EFED7182E3B
:101B2A00FCD7192EFAD700F01C4A1D2A1DBEA7EFB2
:101B3A000DF01D5009E1030E1C5CD8A0A7EF0DF0B3
:101B4A00A9EF0DF083EF0DF010C0D9FF11C0DAFF35
:101B5A00DECF18F0DDCF19F0D89019321832D890AC
:101B6A001932183210C0D9FF11C0DAFF18C0DEFFCF
:101B7A0019C0DDFF000E1F6E000E1E6E7BEC16F004
:101B8A0012C0D9FF13C0DAFF0950DE260A50DD223F
:101B9A00110E196E3C0E186ECB0EE82EFED7182EBB
:101BAA00FCD7192EFAD700F01E4A1F2A1FBEE7EFEC
:101BBA000DF01F5009E1030E1E5CD8A0E7EF0DF0EF
:101BCA00E9EF0DF0C3EF0DF012C0D9FF13C0DAFF31
:101BDA00DECF18F0DDCF19F0D89019321832D8902C
:101BEA001932183212C0D9FF13C0DAFF18C0DEFF4B
:101BFA0019C0DDFF000E216E000E206EA3EC16F058
:101C0A0014C0D9FF15C0DAFF0950DE260A50DD22BA
:101C1A00110E196E3C0E186ECB0EE82EFED7182E3A
:101C2A00FCD7192EFAD700F0204A212A21BE27EF25
:101C3A000EF0215009E1030E205CD8A027EF0EF028
:101C4A0029EF0EF003EF0EF014C0D9FF15C0DAFF2A
:101C5A00DECF18F0DDCF19F0D89019321832D890AB
:101C6A001932183214C0D9FF15C0DAFF18C0DEFFC6
:101C7A0019C0DDFF000E236E000E226EF3EC16F083
:101C8A0016C0D9FF17C0DAFF0950DE260A50DD2236
:101C9A00110E196E3C0E186ECB0EE82EFED7182EBA
:101CAA00FCD7192EFAD700F0224A232A23BE67EF5F
:101CBA000EF0235009E1030E225CD8A067EF0EF064
:101CCA0069EF0EF043EF0EF016C0D9FF17C0DAFF26
:101CDA00DECF18F0DDCF19F0D89019321832D8902B
:101CEA001932183216C0D9FF17C0DAFF18C0DEFF42
:101CFA0019C0DDFF1200000E166E14BE89EF0EF039
:101D0A0087EF0EF09BEF0EF0141E131E121E111E0B
:101D1A00101E0F1E0E1E0D6C000E0E220F22102218
:101D2A001122122213221422010E166E0CBEA2EFE9
:101D3A000EF0A0EF0EF0B4EF0EF00C1E0B1E0A1EF2
:101D4A00091E081E071E061E056C000E0622072223
:101D5A00082209220A220B220C22010E161A20EE50
:101D6A0017F0070EDE6AE806FDE20D500E100F109E
:101D7A0010101110121013101410D8B4C7EF0EF06F
:101D8A00C9EF0EF01BEF0FF0010E156ED7EF0EF034
:101D9A00D8900D360E360F361036113612361336E7
:101DAA001436152A14AEDCEF0EF0DEEF0EF0CDEF8E
:101DBA000EF0D8901736183619361A361B361C36D6
:101DCA001D361E360D50055C0E5006580F5007582A
:101DDA00105008581150095812500A5813500B58ED
:101DEA0014500C58D8A0FCEF0EF0FEEF0EF00FEFD7
:101DFA000FF00D50055E0E50065A0F50075A10503C
:101E0A00085A1150095A12500A5A13500B5A1450B0
:101E1A000C5A1780D89014321332123211321032FF
:101E2A000F320E320D32152EDEEF0EF01650D8B4E8
:101E3A0021EF0FF023EF0FF033EF0FF01E1E1D1EE0
:101E4A001C1E1B1E1A1E191E181E176C000E1822A5
:101E5A0019221A221B221C221D221E2217C005F03B
:101E6A0018C006F019C007F01AC008F01BC009F024
:101E7A001CC00AF01DC00BF01EC00CF0120020EEB0
:101E8A0002F01250D9261350DA22DF50D8B450EF9C
:101E9A000FF052EF0FF086EF0FF012C0D9FF13C008
:101EAA00DAFFDF50146E1450056E066A20EE03F056
:101EBA001250D9261350DA22DECF07F0DDCF08F010
:101ECA0021EC18F005C00BF006C00CF0000E0E6EE7
:101EDA00640E0D6EBAEC15F020EE03F01250D926FE
:101EEA001350DA22DF50156E0B50155C166E20EE79
:101EFA0003F01250D9261350DA22DF50176EA9EFD9
:101F0A000FF0000E166E12C0D9FF13C0DAFFDF50B1
:101F1A00146E1450056E066A20EE03F01250D9268C
:101F2A001350DA22DECF07F0DDCF08F021EC18F0EB
:101F3A0005C00BF006C00CF0000E0E6E640E0D6E9E
:101F4A00BAEC15F00B50176E20EE01F01250D9269C
:101F5A001350DA22DF50D8B4B5EF0FF0B7EF0FF015
:101F6A00D9EF0FF020EE05F01250D9261350DA22DD
:101F7A00DECF14F0DDCF15F014C0D9FF15C0DAFF9B
:101F8A0016C0DFFF20EE07F01250D9261350DA22CE
:101F9A00DECF14F0DDCF15F014C0D9FF15C0DAFF7B
:101FAA0017C0DFFFF9EF0FF020EE05F01250D92627
:101FBA001350DA22DECF14F0DDCF15F014C0D9FFAA
:101FCA0015C0DAFF17C0DFFF20EE07F01250D9263E
:101FDA001350DA22DECF14F0DDCF15F014C0D9FF8A
:101FEA0015C0DAFF16C0DFFF1200000E166E0CBE17
:101FFA0003EF10F001EF10F015EF10F00C1E0B1E9E
:10200A000A1E091E081E071E061E056C000E062261
:10201A000722082209220A220B220C22010E166E1E
:10202A0014BE1CEF10F01AEF10F02CEF10F0141E73
:10203A00131E121E111E101E0F1E0E1E0D6C000EF8
:10204A000E220F22102211221222132214220D50C4
:10205A000E100F1010101110121013101410D8B403
:10206A0039EF10F03BEF10F083EF10F0010E156E10
:10207A0049EF10F0D8900D360E360F36103611365D
:10208A00123613361436152A14AE4EEF10F050EFEE
:10209A0010F03FEF10F00D50055C0E5006580F502F
:1020AA000758105008581150095812500A5813501E
:1020BA000B5814500C58D8A065EF10F067EF10F0C9
:1020CA0077EF10F00D50055E0E50065A0F50075A62
:1020DA001050085A1150095A12500A5A13500B5AE2
:1020EA0014500C5AD8901432133212321132103260
:1020FA000F320E320D32152E50EF10F01650D8B4A2
:10210A0089EF10F08BEF10F09BEF10F00C1E0B1EF6
:10211A000A1E091E081E071E061E056C000E062250
:10212A000722082209220A220B220C2205C005F0E6
:10213A0006C006F007C007F008C008F009C009F099
:10214A000AC00AF00BC00BF00CC00CF0120045C01C
:10215A00D9FF46C0DAFFDECFF6FFDDCFF7FF000E6C
:10216A00F86E0800F550250AD8A4BEEF10F0C0EFAB
:10217A0010F044EF11F045C0D9FF46C0DAFFDE2A5D
:10218A00000EDD22000E0001EF6F000EEE6FEEC0B2
:10219A00F6F0F069F16945C0D9FF46C0DAFFDECF33
:1021AA0053F0DDCF54F053C0F6FF54C0F7FF000ED2
:1021BA00F86E0800F550640AD8B4E6EF10F0E8EFBC
:1021CA0010F0F8EF10F053C0F6FF54C0F7FF000EFE
:1021DA00F86E0800F550690AD8A4F6EF10F0F8EF87
:1021EA0010F03BEF11F047C0D9FF48C0DAFFDFCF4C
:1021FA0049F0020EDE26DFCF4AF0000EDD2249C08A
:10220A00D9FF4AC0DAFFDECF4BF0DDCF4CF0000E2B
:10221A004CBEFF0E4D6E4E6E4F6E506E516E526E2C
:10222A00010E5324496E000E54204A6E45C0D9FF50
:10223A0046C0DAFF49C0DEFF4AC0DDFF43C020F0D6
:10224A0044C021F04BC022F04CC023F04DC024F012
:10225A004EC025F04FC026F050C027F051C028F0DC
:10226A0052C029F004EC0CF05AEF11F045C0D9FF26
:10227A0046C0DAFFDE2A000EDD225AEF11F045C011
:10228A00D9FF46C0DAFFDECFF6FFDDCFF7FF000E3B
:10229A00F86E0800F550056E066A43C007F044C0A0
:1022AA0008F015EC13F03BEF11F0120083C010F0A8
:1022BA0084C011F085C012F086C013F087C014F0F4
:1022CA0088C015F089C016F08AC017F043EC0DF0EB
:1022DA0081C066F082C067F0330E0001686F0E0E8F
:1022EA00696F83C0D9FF84C0DAFFDECF6AF0DDCF21
:1022FA006BF085C0D9FF86C0DAFFDECF6CF0DDCF88
:10230A006DF087C0D9FF88C0DAFFDECF6EF0DDCF6F
:10231A006FF089C0D9FF8AC0DAFFDECF70F0DDCF57
:10232A0071F052EC16F081C006F082C007F0B7ECEB
:10233A0017F081C01BF082C01CF083C0D9FF84C093
:10234A00DAFFDECF1DF0DDCF1EF085C0D9FF86C0D3
:10235A00DAFFDECF1FF0DDCF20F087C0D9FF88C0BB
:10236A00DAFFDECF21F0DDCF22F089C0D9FF8AC0A3
:10237A00DAFFDECF23F0DDCF24F08BC025F08CC04E
:10238A0026F0910E276E000E286E92EC0AF081C09C
:10239A0005F082C006F0910E076E000E086ED90E87
:1023AA00096E000E0A6E8FEC12F0D90E056E000E41
:1023BA00066E3BEC15F00001EB6F81C066F082C03F
:1023CA0067F06E0E686F0E0E696FEBC06AF06B6B8A
:1023DA0052EC16F081C006F082C007F0B7EC17F095
:1023EA008DC020F08EC021F08FC022F090C023F063
:1023FA000001EB513DEC07F01200000E00018C6F5A
:10240A00000E8B6FCBEC16F083C0D9FF84C0DAFFC5
:10241A0009C0DEFF0AC0DDFF00018B4B8C2B8CBF8D
:10242A0020EF12F0F50E8B5D010E8C59D8A020EF2B
:10243A0012F022EF12F007EF12F0000E8E6F000E6C
:10244A008D6FCBEC16F083C0D9FF84C0DAFF095038
:10245A00DE260A50DD22110E0001886F3C0E876FBE
:10246A00CB0EE82EFED7872FFCD7882FFAD700018C
:10247A008D4B8E2B8EBF4BEF12F08E5109E1030E5E
:10248A008D5DD8A04BEF12F04DEF12F026EF12F04F
:10249A0083C0D9FF84C0DAFFDECF87F0DDCF88F0B2
:1024AA00D89088338733D8908833873383C0D9FF4D
:1024BA0084C0DAFF87C0DEFF88C0DDFF81C066F016
:1024CA0082C067F0570E686F0E0E696F83C06AF09C
:1024DA0084C06BF052EC16F081C006F082C007F09F
:1024EA00B7EC17F083C0D9FF84C0DAFFDECF87F0DC
:1024FA00DDCF88F0200E00018725896F030E882121
:10250A008A6F85C0D9FF86C0DAFF89C0DEFF8AC01C
:10251A00DDFF1200010E296E2950020DF3CF0BF0D8
:10252A00F4CF0CF00B5007240D6E0C5008200E6EE1
:10253A00360E0D24D96E000E0E20DA6EDECF0FF0A5
:10254A00DDCF10F02950020DF3CF11F0F4CF12F0C5
:10255A0011500724136E12500820146E240E1324EF
:10256A00D96E000E1420DA6EDECF15F0DDCF16F02C
:10257A002950020DF3CF17F0F4CF18F017500724A3
:10258A00196E185008201A6E120E1924D96E000EF0
:10259A001A20DA6EDECF1BF0DDCF1CF02950020DB7
:1025AA00F3CF1DF0F4CF1EF01D500724D96E1E5034
:1025BA000820DA6EDECF1FF0DDCF20F01B501F247B
:1025CA00216E1C502020226E15502124236E165095
:1025DA002220246E0F502324256E10502420266EAC
:1025EA00D89026322532D890263225322950020D2B
:1025FA00F3CF27F0F4CF28F027500924D96E2850BA
:10260A000A20DA6E25C0DEFF26C0DDFF292A090E60
:10261A00296412EF13F014EF13F091EF12F0120085
:10262A0007500810D8B41CEF13F01EEF13F027EF71
:10263A0013F007500810D8A425EF13F027EF13F072
:10264A002CEF13F00550B4EC18F079EF13F020EEEC
:10265A0009F00750D9260850DA22DE50DE10D8B425
:10266A0039EF13F03BEF13F056EF13F020EE09F0B9
:10267A000750D9260850DA2210EE03F00750E12657
:10268A000850E222DE50E65CE650800A0D6EDE500B
:10269A00800A0D58D8B054EF13F056EF13F079EFC3
:1026AA0013F020EE03F00750D9260850DA22DECFC5
:1026BA0009F0DDCF0AF007C0D9FF08C0DAFFDECF84
:1026CA000BF0DDCF0CF009500B24D96E0A500C2008
:1026DA00DA6E05C0DFFF20EE03F00750D926085056
:1026EA00DA22DE2A000EDD22120020EE01F0185056
:1026FA00D9261950DA22010EDF6E20EE01F01A50A7
:10270A00D9261B50DA22000EDF6E000E1F6E000E55
:10271A001E6E1AC0D9FF1BC0DAFF1EC0DFFF18C029
:10272A00D9FF19C0DAFF1EC0DFFF020E1D6E380E78
:10273A001C6EAD0EE82EFED71C2EFCD71D2EFAD726
:10274A0000F018C012F019C013F044EC0FF01AC0D0
:10275A0012F01BC013F044EC0FF00A0E1E26000EF6
:10276A001F221FBEC2EF13F01F5009E1500E1E5C5C
:10277A00D8A0C2EF13F0C4EF13F08EEF13F0060ED9
:10278A001D6E470E1C6EA00EE82EFED71C2EFCD71F
:10279A001D2EFAD700D0120020EE01F01850D926CB
:1027AA001950DA22000EDF6E20EE01F01A50D926F7
:1027BA001B50DA22010EDF6E000E1F6E000E1E6E17
:1027CA001AC0D9FF1BC0DAFF1EC0DFFF18C0D9FF2D
:1027DA0019C0DAFF1EC0DFFF020E1D6E380E1C6E16
:1027EA00AD0EE82EFED71C2EFCD71D2EFAD700F010
:1027FA0018C012F019C013F044EC0FF01AC012F00E
:10280A001BC013F044EC0FF00A0E1E26000E1F2206
:10281A001FBE19EF14F01F5009E1500E1E5CD8A01C
:10282A0019EF14F01BEF14F0E5EF13F0060E1D6E0E
:10283A00470E1C6EA00EE82EFED71C2EFCD71D2EAE
:10284A00FAD700D0120020EE01F01850D9261950FC
:10285A00DA22010EDF6E20EE01F01A50D9261B5043
:10286A00DA22010EDF6E000E1E6E000E1D6E18C0FB
:10287A00D9FF19C0DAFF1DC0DFFF1AC0D9FF1BC07C
:10288A00DAFF1DC0DFFF18C012F019C013F044ECC4
:10289A000FF01AC012F01BC013F044EC0FF0D00E68
:1028AA001C6ECA0EE82EFED71C2EFCD70A0E1D2659
:1028BA00000E1E221EBE6BEF14F01E5009E13C0EE4
:1028CA001D5CD8A06BEF14F06DEF14F03CEF14F020
:1028DA00120020EE01F01850D9261950DA22000E03
:1028EA00DF6E20EE01F01A50D9261B50DA22000EB4
:1028FA00DF6E000E1E6E000E1D6E18C0D9FF19C0C5
:10290A00DAFF1DC0DFFF1AC0D9FF1BC0DAFF1DC0E6
:10291A00DFFF18C012F019C013F044EC0FF01AC010
:10292A0012F01BC013F044EC0FF0D00E1C6ECA0E4E
:10293A00E82EFED71C2EFCD70A0E1D26000E1E22DC
:10294A001EBEB1EF14F01E5009E13C0E1D5CD8A06A
:10295A00B1EF14F0B3EF14F082EF14F01200859483
:10296A008598839E879C050E0E01746F060E766FFE
:10297A00070E696F080E886FBD508F0B4009BD6E38
:10298A00E00EBE16BF50F00B0109BF6E630EBC6E9F
:10299A00BD8E000EAA6E000EA66E000E0F01256FE8
:1029AA00000E216FFC0EAD16F30EAD16CF0EAD164E
:1029BA003F0EAD16AB88AB50F00B0C09AB6EAB8E6D
:1029CA00A788A750F00B0C09A76EA78E2689265157
:1029DA00F00B0C09266F268F22892251F00B0C0965
:1029EA00226F228F12000DEF15F018C0D9FF19C0FF
:1029FA00DAFF0A0EDF5E2A0E1C6E8E0EE82EFED756
:102A0A001C2EFCD718C012F019C013F044EC0FF0BA
:102A1A0018C0D9FF19C0DAFFDF50D8A417EF15F094
:102A2A0019EF15F0FAEF14F02EEF15F01AC0D9FFCE
:102A3A001BC0DAFF0A0EDF5E2A0E1C6E8E0EE82E0F
:102A4A00FED71C2EFCD71AC012F01BC013F044ECA0
:102A5A000FF01AC0D9FF1BC0DAFFDF50D8A438EF35
:102A6A0015F03AEF15F01BEF15F01200010E0D6E7E
:102A7A0020EE02F00550D9260650DA22DECF0BF0FE
:102A8A00DDCF0CF0020E0E6E0E50020DF3CF07F0E2
:102A9A00F4CF08F007500524D96E08500620DA6EE4
:102AAA000B50DE5C0C50DE58D8B05EEF15F060EFCC
:102ABA0015F072EF15F00E50020DF3CF07F0F4CFB8
:102ACA0008F007500524D96E08500620DA6EDECFCA
:102ADA000BF0DDCF0CF00EC00DF00E2A090E0E64BD
:102AEA0079EF15F07BEF15F049EF15F00D50120054
:102AFA001ABE82EF15F084EF15F08AEF15F019C0AF
:102B0A001EF01AC01FF08EEF15F0000E1F6E000E99
:102B1A001E6E000E1D6E000E1C6EA0EF15F0000E4C
:102B2A00066E200E056E15C007F016C008F015ECEB
:102B3A0013F01C4A1D2A1E501C5C1D50800A1B6E75
:102B4A001F50800A1B58D8A0ADEF15F0AFEF15F053
:102B5A0094EF15F017C00EF018C00FF015C010F062
:102B6A0016C011F01BEC17F01200000E106E000ECA
:102B7A000F6E0D500E10D8B4C5EF15F0C7EF15F053
:102B8A00EFEF15F0010E116ECFEF15F0D8900D365C
:102B9A000E36112A0EAED4EF15F0D6EF15F0CBEFA4
:102BAA0015F0D8900F3610360D500B5C0E500C589D
:102BBA00D8A0E2EF15F0E4EF15F0E9EF15F00D50AB
:102BCA000B5E0E500C5A0F80D8900E320D32112E19
:102BDA00D6EF15F00FC00BF010C00CF012000DC0AC
:102BEA0007F00C0E55EC18F00A50076E050E55EC5E
:102BFA0018F0000E0F6E09500A10D8B407EF16F03D
:102C0A0009EF16F00BEF16F0010E0F6E0FC007F06A
:102C1A00040E55EC18F00C50076E070E55EC18F020
:102C2A00000E106E0B500C10D8B41EEF16F020EFE9
:102C3A0016F022EF16F0010E106E10C007F0060E05
:102C4A0055EC18F0120062C055F063C056F03CEF24
:102C5A0016F060C043F061C044F0550E456E000E98
:102C6A00466E64C047F065C048F0ACEC10F055C041
:102C7A00F6FF56C0F7FF000EF86E0800F55000097F
:102C8A00D8A44AEF16F04CEF16F02EEF16F0000E0D
:102C9A000001616F000E606F12006A0E0001746F0E
:102CAA00000E756F66C076F067C077F0000E7A6F17
:102CBA00000E796F000E806F000E7F6F760E606FC8
:102CCA00000E616F68C062F069C063F0740E646FD1
:102CDA00000E656F28EC16F0000179516625D96E51
:102CEA007A516721DA6E000EDF6E1200A5EC18F039
:102CFA00520E8FEC18F0B60E8FEC18F09BEC18F011
:102D0A00530E8FEC18F0010E3DEC17F00B6E0B50C2
:102D1A000E6E0F6A000E3DEC17F00B6E0B500D6E27
:102D2A000C6A0E500C100E6E0F500D100F6EA0ECA8
:102D3A0018F00EC009F00FC00AF01200A5EC18F046
:102D4A00520E8FEC18F0B80E8FEC18F09BEC18F0BE
:102D5A00530E8FEC18F0010E3DEC17F00B6E0B5072
:102D6A000E6E0F6A000E3DEC17F00B6E0B500D6ED7
:102D7A000C6A0E500C100E6E0F500D100F6EA0EC58
:102D8A0018F00EC009F00FC00AF01200A5EC18F0F6
:102D9A00520E8FEC18F0B40E8FEC18F09BEC18F072
:102DAA00530E8FEC18F0010E3DEC17F00B6E0B5022
:102DBA000E6E0F6A000E3DEC17F00B6E0B500D6E87
:102DCA000C6A0E500C100E6E0F500D100F6EA0EC08
:102DDA0018F00EC009F00FC00AF01200A5EC18F0A6
:102DEA00520E8FEC18F0BA0E8FEC18F09BEC18F01C
:102DFA00530E8FEC18F0010E3DEC17F00B6E0B50D2
:102E0A000E6E0F6A000E3DEC17F00B6E0B500D6E36
:102E1A000C6A0E500C100E6E0F500D100F6EA0ECB7
:102E2A0018F00EC009F00FC00AF01200000E146E5E
:102E3A00000E136E2CEF17F012C005F0066A10C0D0
:102E4A0007F011C008F015EC13F0134A142A1350B6
:102E5A000E24D96E14500F20DA6EDF50126E125003
:102E6A00D8A43AEF17F03CEF17F021EF17F0120051
:102E7A00076EF9EC17F00E01DA87F9EC17F0D5CEE8
:102E8A0008F0F9EC17F00750D8B44EEF17F052EFEC
:102E9A0017F0066A062A53EF17F0066A063A06463C
:102EAA000E01DA510618DF0B0618DA6FDA890850B4
:102EBA00120018BE6BEF17F0185006E11704D8B0CD
:102ECA0069EF17F06BEF17F079EF17F017C019F0E9
:102EDA0018C01AF0191E1A1E194A1A2A19C017F010
:102EEA001AC018F07DEF17F017C017F018C018F0C5
:102EFA00120087EC18F0000E0A6E010E096E070E1A
:102F0A000C6ED00E0B6E000E0E6E040E0D6EF4ECEF
:102F1A0015F082920E019A93090E0D01F16F0E01BE
:102F2A0029831F83F292F28CF28AF28CF28E1200BB
:102F3A00E4EC17F0010E076E000E55EC18F03F0E88
:102F4A00096E550EE82EFED7092EFCD700F0030EA7
:102F5A00076E000E55EC18F0D50E076E010E55ECF3
:102F6A0018F01200C2EF17F006C0D9FF07C0DAFF47
:102F7A00DF5065EC18F0064A072A06C0D9FF07C0D9
:102F8A00DAFFDF50D8A4CCEF17F0CEEF17F0B9EF85
:102F9A0017F0120002EE00F0700EEE6AE806FDE18C
:102FAA0000EEEEF0090EEE6AE806FDE15A6A596A89
:102FBA00586A576A5B905B920001F8EF08F00E01BD
:102FCA00D951F00B0809D96FD98B9F0ED66F848A15
:102FDA00848CA79BA79D1D0E1D6F1E0E1C6F1C0EB9
:102FEA006F6F1B0E706F12000E01D8B5FFEF17F04E
:102FFA0001EF18F0F9EF17F0DACE05F01F0E0516FB
:10300A00D8A40AEF18F00CEF18F0F9EF17F0120035
:10301A000E01D8B513EF18F015EF18F00DEF18F0F0
:10302A00DACE01F01F0E0116D8A41EEF18F020EF19
:10303A0018F00DEF18F0120005500702F3CF09F04F
:10304A00F4CF0AF005500802F3500A260650070288
:10305A00F3500A2609C005F00AC006F01200889249
:10306A0088908498849686908792869E81987E8E90
:10307A007F8279887C9880927E9080907C961200DC
:10308A00120E0E01626F110E156F8382E997E89591
:10309A00330EE56F000EE66FE789E88BE78F1200C3
:1030AA00086EA5EC18F0520E8FEC18F00850800943
:1030BA008FEC18F007508FEC18F0A0EC18F0120003
:1030CA00056E0E0137A56CEF18F06EEF18F066EF7B
:1030DA0018F005C0E4FE1200A5EC18F0520E8FECB1
:1030EA0018F0E60E8FEC18F0A0EC18F01200AFEC16
:1030FA0018F0520E95EC18F0E60E95EC18F0AAECC2
:10310A0018F0120071EC18F0130E076E000E55EC51
:10311A0018F01200066EF9EC17F006C0D5FE120080
:10312A00026E0DEC18F002C0D5FE1200F9EC17F091
:10313A000E01DA831200F9EC17F00E01DA8512009B
:10314A00F9EC17F00E01DA8112000DEC18F00E01FD
:10315A00DA8512000DEC18F00E01DA811200120065
:020000040020DA
:10000000FF0FFF0FFF0FFF0FFF0FFF0FFF0FFF0F80
:020000040030CA
:0C000000AAFFFFFF9FFFFFFFFFFFFFFFB5
:00000001FF
