:04000000D3EFFDF04D
:020000040001F9
:10FB0B0011020C0C0A0B0C0E10E6ECFDF00E01DAD8
:10FB1B00811200E6ECFDF00E01DA851200E6ECFD39
:10FB2B00F00E01DA831200026EE6ECFDF002C0D596
:10FB3B00FE1200046E8AECFDF0520E99ECFDF004FF
:10FB4B0050800999ECFDF0035099ECFDF08FECFD22
:10FB5B00F01200889288908498849686908792867B
:10FB6B009E81987E8E7F8279887C9880927E908011
:10FB7B00907C96120001500302F3CF05F0F4CF06F0
:10FB8B00F001500402F350062602500302F3500614
:10FB9B002605C001F006C002F012000B0EF66EFB3C
:10FBAB000EF76E010EF86E00EE32F010EE09F00952
:10FBBB0000F5CFEEFFE550E150FAE10001F0EFFE6A
:10FBCB00F00E01D8B5ECEFFDF0EEEFFDF0E6EFFD3A
:10FBDB00F0DACE01F01F0E0116D8A4F7EFFDF0F905
:10FBEB00EFFDF0E6EFFDF012000E01D951F00B081E
:10FBFB0009D96FD98B9F0ED66F848A848CA79BA74C
:10FC0B009D1D0E1D6F1E0E1C6F1C0E6F6F1B0E703D
:10FC1B006F1200FAECFDF0010E036E000E9FECFD6F
:10FC2B00F03F0E056E550EE82EFED7052EFCD700C5
:10FC3B00F0030E036E000E9FECFDF0D50E036E016C
:10FC4B000E9FECFDF01200036EE6ECFDF00E01DAF8
:10FC5B0087E6ECFDF0D5CE04F0E6ECFDF00350D8D2
:10FC6B00B43AEFFEF03EEFFEF0026A022A3FEFFEDF
:10FC7B00F0026A023A02460E01DA510218DF0B0259
:10FC8B0018DA6FDA89045012008AECFDF0520E99E3
:10FC9B00ECFDF0B60E99ECFDF094ECFDF0530E99E3
:10FCAB00ECFDF0010E29ECFEF0076E07500A6E0B0F
:10FCBB006A000E29ECFEF0076E0750096E086A0AFF
:10FCCB005008100A6E0B5009100B6E8FECFDF00AEA
:10FCDB00C005F00BC006F01200000E0C6E000E0BF0
:10FCEB006E09500A10D8B47DEFFEF07FEFFEF0A73F
:10FCFB00EFFEF0010E0D6E87EFFEF0D89009360A7D
:10FD0B00360D2A0AAE8CEFFEF08EEFFEF083EFFE7F
:10FD1B00F0D8900B360C360950075C0A500858D8AF
:10FD2B00A09AEFFEF09CEFFEF0A1EFFEF00950075A
:10FD3B005E0A50085A0B80D8900A3209320D2E8E6B
:10FD4B00EFFEF00BC007F00CC008F0120085948595
:10FD5B0098839E879C050E0E01746F060E766F07B7
:10FD6B000E696F080E886FBD508F0B4009BD6EE09A
:10FD7B000EBE16BF50F00B0109BF6E630EBC6EBDFD
:10FD8B008E000EAA6E000EA66E000E0F01256F00E0
:10FD9B000E216FFC0EAD16F30EAD16CF0EAD163F4A
:10FDAB000EAD16AB88AB50F00B0C09AB6EAB8EA740
:10FDBB0088A750F00B0C09A76EA78E26892651F049
:10FDCB000B0C09266F268F22892251F00B0C09226E
:10FDDB006F228F1200AFECFDF0FAECFDF00FECFE92
:10FDEB00F0ACECFEF0BCCF1FF0000E206E010E212C
:10FDFB006E010E226EAA0E256E0F0E266EA60E2714
:10FE0B006E0F0E286E1FC023F0246A000E296E01A0
:10FE1B000E2A6E010E2B6E250E2E6E0F0E2F6E21DF
:10FE2B000E306E0F0E316E1FC02CF02D6A200E0E91
:10FE3B006E000E0F6E4AECFFF0290E0E6E000E0FC9
:10FE4B006E4AECFFF020EE32F010EE14F0080EDBF1
:10FE5B00CFE3FFE806FCE27C9E849E7E8E7F827958
:10FE6B00884AECFEF005C01DF006C01EF01D501EAA
:10FE7B0010D8B443EFFFF045EFFFF036EFFFF07C07
:10FE8B008E36EFFFF000EF00F020EE02F00E50D9AF
:10FE9B00260F50DA22DF50D8B456EFFFF058EFFFA1
:10FEAB00F08CEFFFF00EC0D9FF0FC0DAFFDF501060
:10FEBB006E1050016E026A20EE03F00E50D9260F21
:10FECB0050DA22DECF03F0DDCF04F0C0ECFDF00101
:10FEDB00C007F002C008F0000E0A6E640E096E72C5
:10FEEB00ECFEF020EE03F00E50D9260F50DA22DF95
:10FEFB0050116E0750115C126E20EE03F00E50D9AC
:10FF0B00260F50DA22DF50136EAFEFFFF0000E1208
:10FF1B006E0EC0D9FF0FC0DAFFDF50106E1050010C
:10FF2B006E026A20EE03F00E50D9260F50DA22DE55
:10FF3B00CF03F0DDCF04F0C0ECFDF001C007F00201
:10FF4B00C008F0000E0A6E640E096E72ECFEF0072C
:10FF5B0050136E20EE01F00E50D9260F50DA22DF2F
:10FF6B0050D8B4BBEFFFF0BDEFFFF0DFEFFFF02099
:10FF7B00EE05F00E50D9260F50DA22DECF10F0DD51
:10FF8B00CF11F010C0D9FF11C0DAFF12C0DFFF2074
:10FF9B00EE07F00E50D9260F50DA22DECF10F0DD2F
:10FFAB00CF11F010C0D9FF11C0DAFF13C0DFFFFF74
:10FFBB00EFFFF020EE05F00E50D9260F50DA22DEBF
:10FFCB00CF10F0DDCF11F010C0D9FF11C0DAFF1345
:10FFDB00C0DFFF20EE07F00E50D9260F50DA22DEDD
:10FFEB00CF10F0DDCF11F010C0D9FF11C0DAFF1226
:05FFFB00C0DFFF120051
:020000040020DA
:10000000FF0FFF0FFF0FFF0FFF0FFF0FFF0FFF0F80
:020000040030CA
:0C000000AAFFFFFF9FFFFFFFFFFFFFFFB5
:00000001FF
